{
  "contractName": "V00_UserRegistry",
  "abi": [
    {
      "constant": true,
      "inputs": [
        {
          "name": "",
          "type": "address"
        }
      ],
      "name": "users",
      "outputs": [
        {
          "name": "",
          "type": "address"
        }
      ],
      "payable": false,
      "stateMutability": "view",
      "type": "function"
    },
    {
      "anonymous": false,
      "inputs": [
        {
          "indexed": false,
          "name": "_address",
          "type": "address"
        },
        {
          "indexed": false,
          "name": "_identity",
          "type": "address"
        }
      ],
      "name": "NewUser",
      "type": "event"
    },
    {
      "constant": false,
      "inputs": [],
      "name": "registerUser",
      "outputs": [],
      "payable": false,
      "stateMutability": "nonpayable",
      "type": "function"
    },
    {
      "constant": false,
      "inputs": [],
      "name": "clearUser",
      "outputs": [],
      "payable": false,
      "stateMutability": "nonpayable",
      "type": "function"
    }
  ],
  "bytecode": "0x608060405234801561001057600080fd5b506101c6806100206000396000f3006080604052600436106100565763ffffffff7c01000000000000000000000000000000000000000000000000000000006000350416634d3820eb811461005b57806376b1658814610072578063a87430ba14610087575b600080fd5b34801561006757600080fd5b506100706100de565b005b34801561007e57600080fd5b50610070610146565b34801561009357600080fd5b506100b573ffffffffffffffffffffffffffffffffffffffff60043516610172565b6040805173ffffffffffffffffffffffffffffffffffffffff9092168252519081900360200190f35b3260008181526020818152604091829020805473ffffffffffffffffffffffffffffffffffffffff19163390811790915582519384529083015280517fff3eabe1067b08ba8af3e8d3191eebeae9b35de7a7aeee40f2ad1ceb6a8876079281900390910190a1565b336000908152602081905260409020805473ffffffffffffffffffffffffffffffffffffffff19169055565b60006020819052908152604090205473ffffffffffffffffffffffffffffffffffffffff16815600a165627a7a72305820dbe27844d4b24aef3f1a1404e2d3b2c3d2e5a42d6d9b04115edde9db7a4306dc0029",
  "source": "pragma solidity ^0.4.24;\n\nimport \"./ClaimHolderPresigned.sol\";\n\n/// @title UserRegistry\n/// @dev Used to keep registry of user identifies\n/// @author Matt Liu <matt@originprotocol.com>, Josh Fraser <josh@originprotocol.com>, Stan James <stan@originprotocol.com>\n\n\ncontract V00_UserRegistry {\n    /*\n    * Events\n    */\n\n    event NewUser(address _address, address _identity);\n\n    /*\n    * Storage\n    */\n\n    // Mapping from ethereum wallet to ERC725 identity\n    mapping(address => address) public users;\n\n    /*\n    * Public functions\n    */\n\n    /// @dev registerUser(): Add a user to the registry\n    function registerUser()\n        public\n    {\n        users[tx.origin] = msg.sender;\n        emit NewUser(tx.origin, msg.sender);\n    }\n\n    /// @dev clearUser(): Remove user from the registry\n    function clearUser()\n        public\n    {\n        users[msg.sender] = 0;\n    }\n}\n",
  "sourcePath": "/Users/franck/src/origin/origin-contracts/contracts/identity/V00_UserRegistry.sol",
  "compiler": {
    "name": "solc",
    "version": "0.4.25+commit.59dbf8f1.Emscripten.clang"
  },
  "schemaVersion": "2.0.2",
  "updatedAt": "2019-02-13T04:44:01.221Z"
}