{
  "contractName": "ClaimVerifier",
  "abi": [
    {
      "constant": true,
      "inputs": [],
      "name": "trustedClaimHolder",
      "outputs": [
        {
          "name": "",
          "type": "address"
        }
      ],
      "payable": false,
      "stateMutability": "view",
      "type": "function"
    },
    {
      "inputs": [
        {
          "name": "_trustedClaimHolder",
          "type": "address"
        }
      ],
      "payable": false,
      "stateMutability": "nonpayable",
      "type": "constructor"
    },
    {
      "anonymous": false,
      "inputs": [
        {
          "indexed": false,
          "name": "_identity",
          "type": "address"
        },
        {
          "indexed": false,
          "name": "claimType",
          "type": "uint256"
        }
      ],
      "name": "ClaimValid",
      "type": "event"
    },
    {
      "anonymous": false,
      "inputs": [
        {
          "indexed": false,
          "name": "_identity",
          "type": "address"
        },
        {
          "indexed": false,
          "name": "claimType",
          "type": "uint256"
        }
      ],
      "name": "ClaimInvalid",
      "type": "event"
    },
    {
      "constant": false,
      "inputs": [
        {
          "name": "_identity",
          "type": "address"
        },
        {
          "name": "claimType",
          "type": "uint256"
        }
      ],
      "name": "checkClaim",
      "outputs": [
        {
          "name": "claimValid",
          "type": "bool"
        }
      ],
      "payable": false,
      "stateMutability": "nonpayable",
      "type": "function"
    },
    {
      "constant": true,
      "inputs": [
        {
          "name": "_identity",
          "type": "address"
        },
        {
          "name": "claimType",
          "type": "uint256"
        }
      ],
      "name": "claimIsValid",
      "outputs": [
        {
          "name": "claimValid",
          "type": "bool"
        }
      ],
      "payable": false,
      "stateMutability": "view",
      "type": "function"
    },
    {
      "constant": true,
      "inputs": [
        {
          "name": "sig",
          "type": "bytes"
        },
        {
          "name": "dataHash",
          "type": "bytes32"
        }
      ],
      "name": "getRecoveredAddress",
      "outputs": [
        {
          "name": "addr",
          "type": "address"
        }
      ],
      "payable": false,
      "stateMutability": "pure",
      "type": "function"
    }
  ],
  "bytecode": "0x608060405234801561001057600080fd5b506040516020806106d7833981016040525160008054600160a060020a03909216600160a060020a0319909216919091179055610685806100526000396000f3006080604052600436106100615763ffffffff7c01000000000000000000000000000000000000000000000000000000006000350416630382ad268114610066578063369383541461009e5780639fecd554146100cf578063c3b129e3146100f3575b600080fd5b34801561007257600080fd5b5061008a600160a060020a036004351660243561014e565b604080519115158252519081900360200190f35b3480156100aa57600080fd5b506100b36101f9565b60408051600160a060020a039092168252519081900360200190f35b3480156100db57600080fd5b5061008a600160a060020a0360043516602435610208565b3480156100ff57600080fd5b506040805160206004803580820135601f81018490048402850184019095528484526100b3943694929360249392840191908190840183828082843750949750509335945061059e9350505050565b600061015a8383610208565b156101ab5760408051600160a060020a03851681526020810184905281517f5637aa6b77cde2de563765b75a65099af73d3bf22cb9d089a64a01777823208e929181900390910190a15060016101f3565b60408051600160a060020a03851681526020810184905281517fc1e461cfcaa9ff5efbb053582a325fbfebec1d94ac7e9d9958ee7f74c2b6b558929181900390910190a15060005b92915050565b600054600160a060020a031681565b60008054604080516c01000000000000000000000000600160a060020a039384160281526014810185905281519081900360340181207fc9100bcb00000000000000000000000000000000000000000000000000000000825260048201819052915184938493849360609384938692839283928392908f169163c9100bcb91602480820192869290919082900301818387803b1580156102a757600080fd5b505af11580156102bb573d6000803e3d6000fd5b505050506040513d6000823e601f3d908101601f1916820160405260c08110156102e457600080fd5b815160208301516040840151606085018051939592949193918301929164010000000081111561031357600080fd5b8201602081018481111561032657600080fd5b815164010000000081118282018710171561034057600080fd5b5050929190602001805164010000000081111561035c57600080fd5b8201602081018481111561036f57600080fd5b815164010000000081118282018710171561038957600080fd5b505092919060200180516401000000008111156103a557600080fd5b820160208101848111156103b857600080fd5b81516401000000008111828201871017156103d257600080fd5b505092919050505050809a50819b50829c50839d50849e5050505050508c8c876040518084600160a060020a0316600160a060020a03166c0100000000000000000000000002815260140183815260200182805190602001908083835b6020831061044e5780518252601f19909201916020918201910161042f565b5181516000196020949094036101000a93909301928316921916919091179052604080519390910183900383207f19457468657265756d205369676e6564204d6573736167653a0a3332000000008452601c8401819052905192839003603c019092209199509097506104ca94508b935087925061059e915050565b604080516c01000000000000000000000000600160a060020a038085169190910282528251918290036014018220600080547fd202158d0000000000000000000000000000000000000000000000000000000085526004850183905260036024860152945195975090955092169263d202158d92604480840193602093929083900390910190829087803b15801561056157600080fd5b505af1158015610575573d6000803e3d6000fd5b505050506040513d602081101561058b57600080fd5b50519d9c50505050505050505050505050565b6000806000806000865160411415156105ba576000945061064f565b6020870151935060408701519250606087015160001a9150601b8260ff1610156105e557601b820191505b60408051600080825260208083018085528a905260ff8616838501526060830188905260808301879052925160019360a0808501949193601f19840193928390039091019190865af115801561063f573d6000803e3d6000fd5b5050506020604051035190508094505b50505050929150505600a165627a7a7230582061588f7aa689bb1db43508ffe474d30dbcd2704c99004428c42c7ec28cba8cc60029",
  "source": "pragma solidity ^0.4.23;\n\nimport './ClaimHolder.sol';\n\ncontract ClaimVerifier {\n\n  event ClaimValid(ClaimHolder _identity, uint256 claimType);\n  event ClaimInvalid(ClaimHolder _identity, uint256 claimType);\n\n  ClaimHolder public trustedClaimHolder;\n\n  constructor(address _trustedClaimHolder) public {\n    trustedClaimHolder = ClaimHolder(_trustedClaimHolder);\n  }\n\n  function checkClaim(ClaimHolder _identity, uint256 claimType)\n    public\n    returns (bool claimValid)\n  {\n    if (claimIsValid(_identity, claimType)) {\n      emit ClaimValid(_identity, claimType);\n      return true;\n    } else {\n      emit ClaimInvalid(_identity, claimType);\n      return false;\n    }\n  }\n\n  function claimIsValid(ClaimHolder _identity, uint256 claimType)\n    public\n    constant\n    returns (bool claimValid)\n  {\n    uint256 foundClaimType;\n    uint256 scheme;\n    address issuer;\n    bytes memory sig;\n    bytes memory data;\n\n    // Construct claimId (identifier + claim type)\n    bytes32 claimId = keccak256(trustedClaimHolder, claimType);\n\n    // Fetch claim from user\n    ( foundClaimType, scheme, issuer, sig, data, ) = _identity.getClaim(claimId);\n\n    bytes32 dataHash = keccak256(_identity, claimType, data);\n    bytes32 prefixedHash = keccak256(\"\\x19Ethereum Signed Message:\\n32\", dataHash);\n\n    // Recover address of data signer\n    address recovered = getRecoveredAddress(sig, prefixedHash);\n\n    // Take hash of recovered address\n    bytes32 hashedAddr = keccak256(recovered);\n\n    // Does the trusted identifier have they key which signed the user's claim?\n    return trustedClaimHolder.keyHasPurpose(hashedAddr, 3);\n  }\n\n  function getRecoveredAddress(bytes sig, bytes32 dataHash)\n      public\n      pure\n      returns (address addr)\n  {\n      bytes32 ra;\n      bytes32 sa;\n      uint8 va;\n\n      // Check the signature length\n      if (sig.length != 65) {\n        return (0);\n      }\n\n      // Divide the signature in r, s and v variables\n      assembly {\n        ra := mload(add(sig, 32))\n        sa := mload(add(sig, 64))\n        va := byte(0, mload(add(sig, 96)))\n      }\n\n      if (va < 27) {\n        va += 27;\n      }\n\n      address recoveredAddress = ecrecover(dataHash, va, ra, sa);\n\n      return (recoveredAddress);\n  }\n\n}\n",
  "sourcePath": "/Users/stan/Origin/origin-box/origin-js/contracts/contracts/identity/ClaimVerifier.sol",
  "compiler": {
    "name": "solc",
    "version": "0.4.23+commit.124ca40d.Emscripten.clang"
  },
  "schemaVersion": "2.0.0",
  "updatedAt": "2018-08-13T21:57:04.935Z"
}