{
  "contractName": "ClaimHolderLibrary",
  "abi": [
    {
      "anonymous": false,
      "inputs": [
        {
          "indexed": true,
          "name": "claimId",
          "type": "bytes32"
        },
        {
          "indexed": true,
          "name": "claimType",
          "type": "uint256"
        },
        {
          "indexed": false,
          "name": "scheme",
          "type": "uint256"
        },
        {
          "indexed": true,
          "name": "issuer",
          "type": "address"
        },
        {
          "indexed": false,
          "name": "signature",
          "type": "bytes"
        },
        {
          "indexed": false,
          "name": "data",
          "type": "bytes"
        },
        {
          "indexed": false,
          "name": "uri",
          "type": "string"
        }
      ],
      "name": "ClaimAdded",
      "type": "event"
    },
    {
      "anonymous": false,
      "inputs": [
        {
          "indexed": true,
          "name": "claimId",
          "type": "bytes32"
        },
        {
          "indexed": true,
          "name": "claimType",
          "type": "uint256"
        },
        {
          "indexed": false,
          "name": "scheme",
          "type": "uint256"
        },
        {
          "indexed": true,
          "name": "issuer",
          "type": "address"
        },
        {
          "indexed": false,
          "name": "signature",
          "type": "bytes"
        },
        {
          "indexed": false,
          "name": "data",
          "type": "bytes"
        },
        {
          "indexed": false,
          "name": "uri",
          "type": "string"
        }
      ],
      "name": "ClaimRemoved",
      "type": "event"
    },
    {
      "constant": false,
      "inputs": [
        {
          "name": "_keyHolderData",
          "type": "KeyHolderLibrary.KeyHolderData storage"
        },
        {
          "name": "_claims",
          "type": "ClaimHolderLibrary.Claims storage"
        },
        {
          "name": "_claimType",
          "type": "uint256"
        },
        {
          "name": "_scheme",
          "type": "uint256"
        },
        {
          "name": "_issuer",
          "type": "address"
        },
        {
          "name": "_signature",
          "type": "bytes"
        },
        {
          "name": "_data",
          "type": "bytes"
        },
        {
          "name": "_uri",
          "type": "string"
        }
      ],
      "name": "addClaim",
      "outputs": [
        {
          "name": "claimRequestId",
          "type": "bytes32"
        }
      ],
      "payable": false,
      "stateMutability": "nonpayable",
      "type": "function"
    },
    {
      "constant": false,
      "inputs": [
        {
          "name": "_keyHolderData",
          "type": "KeyHolderLibrary.KeyHolderData storage"
        },
        {
          "name": "_claims",
          "type": "ClaimHolderLibrary.Claims storage"
        },
        {
          "name": "_claimType",
          "type": "uint256[]"
        },
        {
          "name": "_issuer",
          "type": "address[]"
        },
        {
          "name": "_signature",
          "type": "bytes"
        },
        {
          "name": "_data",
          "type": "bytes"
        },
        {
          "name": "_offsets",
          "type": "uint256[]"
        }
      ],
      "name": "addClaims",
      "outputs": [],
      "payable": false,
      "stateMutability": "nonpayable",
      "type": "function"
    },
    {
      "constant": false,
      "inputs": [
        {
          "name": "_keyHolderData",
          "type": "KeyHolderLibrary.KeyHolderData storage"
        },
        {
          "name": "_claims",
          "type": "ClaimHolderLibrary.Claims storage"
        },
        {
          "name": "_claimId",
          "type": "bytes32"
        }
      ],
      "name": "removeClaim",
      "outputs": [
        {
          "name": "success",
          "type": "bool"
        }
      ],
      "payable": false,
      "stateMutability": "nonpayable",
      "type": "function"
    },
    {
      "constant": true,
      "inputs": [
        {
          "name": "_claims",
          "type": "ClaimHolderLibrary.Claims storage"
        },
        {
          "name": "_claimId",
          "type": "bytes32"
        }
      ],
      "name": "getClaim",
      "outputs": [
        {
          "name": "claimType",
          "type": "uint256"
        },
        {
          "name": "scheme",
          "type": "uint256"
        },
        {
          "name": "issuer",
          "type": "address"
        },
        {
          "name": "signature",
          "type": "bytes"
        },
        {
          "name": "data",
          "type": "bytes"
        },
        {
          "name": "uri",
          "type": "string"
        }
      ],
      "payable": false,
      "stateMutability": "view",
      "type": "function"
    }
  ],
  "bytecode": "0x61112f610030600b82828239805160001a6073146000811461002057610022565bfe5b5030600052607381538281f30073000000000000000000000000000000000000000030146080604052600436106100785763ffffffff7c0100000000000000000000000000000000000000000000000000000000600035041663428e59ee811461007d5780635c02fae1146101cb5780638522d0eb146101fd578063bd2d0c2814610376575b600080fd5b81801561008957600080fd5b5060408051602060046044358181013583810280860185019096528085526101c9958335956024803596369695606495939492019291829185019084908082843750506040805187358901803560208181028481018201909552818452989b9a99890198929750908201955093508392508501908490808284375050604080516020601f89358b018035918201839004830284018301909452808352979a99988101979196509182019450925082915084018382808284375050604080516020601f89358b018035918201839004830284018301909452808352979a999881019791965091820194509250829150840183828082843750506040805187358901803560208181028481018201909552818452989b9a9989019892975090820195509350839250850190849080828437509497506104799650505050505050565b005b8180156101d757600080fd5b506101e9600435602435604435610545565b604080519115158252519081900360200190f35b61020b600435602435610910565b6040518087815260200186815260200185600160a060020a0316600160a060020a03168152602001806020018060200180602001848103845287818151815260200191508051906020019080838360005b8381101561027457818101518382015260200161025c565b50505050905090810190601f1680156102a15780820380516001836020036101000a031916815260200191505b50848103835286518152865160209182019188019080838360005b838110156102d45781810151838201526020016102bc565b50505050905090810190601f1680156103015780820380516001836020036101000a031916815260200191505b50848103825285518152855160209182019187019080838360005b8381101561033457818101518382015260200161031c565b50505050905090810190601f1680156103615780820380516001836020036101000a031916815260200191505b50995050505050505050505060405180910390f35b81801561038257600080fd5b50604080516020600460a43581810135601f81018490048402850184019095528484526104679482359460248035956044359560643595608435600160a060020a0316953695929460c494920191819084018382808284375050604080516020601f89358b018035918201839004830284018301909452808352979a99988101979196509182019450925082915084018382808284375050604080516020601f89358b018035918201839004830284018301909452808352979a999881019791965091820194509250829150840183828082843750949750610b109650505050505050565b60408051918252519081900360200190f35b6000805b86518160ff16101561053a576105118989898460ff1681518110151561049f57fe5b9060200190602002015160018a8660ff168151811015156104bc57fe5b906020019060200201516104d88b8860410260ff166041610f2a565b6104fd8b8a8c8b60ff168151811015156104ee57fe5b90602001906020020151610f2a565b604080516020810190915260008152610b10565b50828160ff1681518110151561052357fe5b60209081029091010151919091019060010161047d565b505050505050505050565b600030600160a060020a031633600160a060020a03161415156106be57604080516c01000000000000000000000000600160a060020a03331602815281519081900360140181207fd8188a4000000000000000000000000000000000000000000000000000000000825260048201879052602482015260016044820152905173__KeyHolderLibrary______________________9163d8188a40916064808301926020929190829003018186803b1580156105ff57600080fd5b505af4158015610613573d6000803e3d6000fd5b505050506040513d602081101561062957600080fd5b505115156106be57604080517f08c379a000000000000000000000000000000000000000000000000000000000815260206004820152602360248201527f53656e64657220646f6573206e6f742068617665206d616e6167656d656e742060448201527f6b65790000000000000000000000000000000000000000000000000000000000606482015290519081900360840190fd5b6000828152602084815260409182902060028082015482546001808501548751818152608097810188815260038801805494851615610100026000190190941696909604978101889052600160a060020a039094169792968a967f3cf57863a89432c61c4a27073c6ee39e8a764bff5a05aebfbcdcdc80b2e6130a96929593946004820194600590920193919290830190606084019060a0850190889080156107a85780601f1061077d576101008083540402835291602001916107a8565b820191906000526020600020905b81548152906001019060200180831161078b57829003601f168201915b505084810383528654600260001961010060018416150201909116048082526020909101908790801561081c5780601f106107f15761010080835404028352916020019161081c565b820191906000526020600020905b8154815290600101906020018083116107ff57829003601f168201915b50508481038252855460026000196101006001841615020190911604808252602090910190869080156108905780601f1061086557610100808354040283529160200191610890565b820191906000526020600020905b81548152906001019060200180831161087357829003601f168201915b505097505050505050505060405180910390a460008281526020849052604081208181556001810182905560028101805473ffffffffffffffffffffffffffffffffffffffff19169055906108e86003830182611021565b6108f6600483016000611021565b610904600583016000611021565b50600195945050505050565b60008181526020838152604080832080546001808301546002808501546003860180548851601f968216156101000260001901909116939093049485018990048902830189019097528382528897889760609788978897909695600160a060020a0390951694929360048301936005909301929185918301828280156109d75780601f106109ac576101008083540402835291602001916109d7565b820191906000526020600020905b8154815290600101906020018083116109ba57829003601f168201915b5050855460408051602060026001851615610100026000190190941693909304601f810184900484028201840190925281815295985087945092508401905082828015610a655780601f10610a3a57610100808354040283529160200191610a65565b820191906000526020600020905b815481529060010190602001808311610a4857829003601f168201915b5050845460408051602060026001851615610100026000190190941693909304601f810184900484028201840190925281815295975086945092508401905082828015610af35780601f10610ac857610100808354040283529160200191610af3565b820191906000526020600020905b815481529060010190602001808311610ad657829003601f168201915b505050505090509550955095509550955095509295509295509295565b60008030600160a060020a031633600160a060020a0316141515610c8a57604080516c01000000000000000000000000600160a060020a03331602815281519081900360140181207fd8188a40000000000000000000000000000000000000000000000000000000008252600482018d9052602482015260036044820152905173__KeyHolderLibrary______________________9163d8188a40916064808301926020929190829003018186803b158015610bcb57600080fd5b505af4158015610bdf573d6000803e3d6000fd5b505050506040513d6020811015610bf557600080fd5b50511515610c8a57604080517f08c379a000000000000000000000000000000000000000000000000000000000815260206004820152602560248201527f53656e64657220646f6573206e6f74206861766520636c61696d207369676e6560448201527f72206b6579000000000000000000000000000000000000000000000000000000606482015290519081900360840190fd5b50604080516c01000000000000000000000000600160a060020a038089169182028352601483018b9052835192839003603401909220600081815260208d9052939093206002015490911614610cfe5760008881526001808b01602090815260408320805492830181558352909120018190555b600081815260208a815260409091208981556001810189905560028101805473ffffffffffffffffffffffffffffffffffffffff1916600160a060020a038a161790558651610d5592600390920191880190611068565b50600081815260208a815260409091208551610d7992600490920191870190611068565b50600081815260208a815260409091208451610d9d92600590920191860190611068565b5085600160a060020a03168882600019167f46149b18aa084502c3f12bc75e19eda8bda8d102b82cce8474677a6d0d5f43c58a89898960405180858152602001806020018060200180602001848103845287818151815260200191508051906020019080838360005b83811015610e1e578181015183820152602001610e06565b50505050905090810190601f168015610e4b5780820380516001836020036101000a031916815260200191505b50848103835286518152865160209182019188019080838360005b83811015610e7e578181015183820152602001610e66565b50505050905090810190601f168015610eab5780820380516001836020036101000a031916815260200191505b50848103825285518152855160209182019187019080838360005b83811015610ede578181015183820152602001610ec6565b50505050905090810190601f168015610f0b5780820380516001836020036101000a031916815260200191505b5097505050505050505060405180910390a49998505050505050505050565b606080600080846040519080825280601f01601f191660200182016040528015610f5e578160200160208202803883390190505b509250600091508590505b848601811015611016578681815181101515610f8157fe5b9060200101517f010000000000000000000000000000000000000000000000000000000000000090047f0100000000000000000000000000000000000000000000000000000000000000028383815181101515610fda57fe5b9060200101907effffffffffffffffffffffffffffffffffffffffffffffffffffffffffffff1916908160001a90535060019182019101610f69565b509095945050505050565b50805460018160011615610100020316600290046000825580601f106110475750611065565b601f01602090049060005260206000209081019061106591906110e6565b50565b828054600181600116156101000203166002900490600052602060002090601f016020900481019282601f106110a957805160ff19168380011785556110d6565b828001600101855582156110d6579182015b828111156110d65782518255916020019190600101906110bb565b506110e29291506110e6565b5090565b61110091905b808211156110e257600081556001016110ec565b905600a165627a7a72305820d7992e0a0190bceebdb590e1f527be0a35cffc60acc2ac86ea7c277428ad0d710029",
  "source": "pragma solidity ^0.4.23;\n\nimport './KeyHolderLibrary.sol';\n\nlibrary ClaimHolderLibrary {\n  event ClaimAdded(bytes32 indexed claimId, uint256 indexed claimType, uint256 scheme, address indexed issuer, bytes signature, bytes data, string uri);\n  event ClaimRemoved(bytes32 indexed claimId, uint256 indexed claimType, uint256 scheme, address indexed issuer, bytes signature, bytes data, string uri);\n\n  struct Claim {\n      uint256 claimType;\n      uint256 scheme;\n      address issuer; // msg.sender\n      bytes signature; // this.address + claimType + data\n      bytes data;\n      string uri;\n  }\n\n  struct Claims {\n      mapping (bytes32 => Claim) byId;\n      mapping (uint256 => bytes32[]) byType;\n  }\n\n  function addClaim(\n      KeyHolderLibrary.KeyHolderData storage _keyHolderData,\n      Claims storage _claims,\n      uint256 _claimType,\n      uint256 _scheme,\n      address _issuer,\n      bytes _signature,\n      bytes _data,\n      string _uri\n  )\n      public\n      returns (bytes32 claimRequestId)\n  {\n      if (msg.sender != address(this)) {\n        require(KeyHolderLibrary.keyHasPurpose(_keyHolderData, keccak256(msg.sender), 3), \"Sender does not have claim signer key\");\n      }\n\n      bytes32 claimId = keccak256(_issuer, _claimType);\n\n      if (_claims.byId[claimId].issuer != _issuer) {\n          _claims.byType[_claimType].push(claimId);\n      }\n\n      _claims.byId[claimId].claimType = _claimType;\n      _claims.byId[claimId].scheme = _scheme;\n      _claims.byId[claimId].issuer = _issuer;\n      _claims.byId[claimId].signature = _signature;\n      _claims.byId[claimId].data = _data;\n      _claims.byId[claimId].uri = _uri;\n\n      emit ClaimAdded(\n          claimId,\n          _claimType,\n          _scheme,\n          _issuer,\n          _signature,\n          _data,\n          _uri\n      );\n\n      return claimId;\n  }\n\n  function addClaims(\n      KeyHolderLibrary.KeyHolderData storage _keyHolderData,\n      Claims storage _claims,\n      uint256[] _claimType,\n      address[] _issuer,\n      bytes _signature,\n      bytes _data,\n      uint256[] _offsets\n  )\n      public\n  {\n      uint offset = 0;\n      for (uint8 i = 0; i < _claimType.length; i++) {\n          addClaim(\n            _keyHolderData,\n            _claims,\n            _claimType[i],\n            1,\n            _issuer[i],\n            getBytes(_signature, (i * 65), 65),\n            getBytes(_data, offset, _offsets[i]),\n            \"\"\n          );\n          offset += _offsets[i];\n      }\n  }\n\n  function removeClaim(\n      KeyHolderLibrary.KeyHolderData storage _keyHolderData,\n      Claims storage _claims,\n      bytes32 _claimId\n  )\n      public\n      returns (bool success)\n  {\n      if (msg.sender != address(this)) {\n        require(KeyHolderLibrary.keyHasPurpose(_keyHolderData, keccak256(msg.sender), 1), \"Sender does not have management key\");\n      }\n\n      emit ClaimRemoved(\n          _claimId,\n          _claims.byId[_claimId].claimType,\n          _claims.byId[_claimId].scheme,\n          _claims.byId[_claimId].issuer,\n          _claims.byId[_claimId].signature,\n          _claims.byId[_claimId].data,\n          _claims.byId[_claimId].uri\n      );\n\n      delete _claims.byId[_claimId];\n      return true;\n  }\n\n  function getClaim(Claims storage _claims, bytes32 _claimId)\n      public\n      constant\n      returns(\n          uint256 claimType,\n          uint256 scheme,\n          address issuer,\n          bytes signature,\n          bytes data,\n          string uri\n      )\n  {\n      return (\n          _claims.byId[_claimId].claimType,\n          _claims.byId[_claimId].scheme,\n          _claims.byId[_claimId].issuer,\n          _claims.byId[_claimId].signature,\n          _claims.byId[_claimId].data,\n          _claims.byId[_claimId].uri\n      );\n  }\n\n  function getBytes(bytes _str, uint256 _offset, uint256 _length)\n      internal\n      pure\n      returns (bytes)\n  {\n      bytes memory sig = new bytes(_length);\n      uint256 j = 0;\n      for (uint256 k = _offset; k< _offset + _length; k++) {\n        sig[j] = _str[k];\n        j++;\n      }\n      return sig;\n  }\n}\n",
  "sourcePath": "/Users/stan/Origin/origin-box/origin-js/contracts/contracts/identity/ClaimHolderLibrary.sol",
  "compiler": {
    "name": "solc",
    "version": "0.4.23+commit.124ca40d.Emscripten.clang"
  },
  "schemaVersion": "2.0.0",
  "updatedAt": "2018-08-13T22:19:35.321Z"
}