{
  "contractName": "FractionalListing",
  "abi": [
    {
      "constant": true,
      "inputs": [],
      "name": "purchasesLength",
      "outputs": [
        {
          "name": "",
          "type": "uint256"
        }
      ],
      "payable": false,
      "stateMutability": "view",
      "type": "function"
    },
    {
      "constant": true,
      "inputs": [],
      "name": "created",
      "outputs": [
        {
          "name": "",
          "type": "uint256"
        }
      ],
      "payable": false,
      "stateMutability": "view",
      "type": "function"
    },
    {
      "constant": true,
      "inputs": [
        {
          "name": "_index",
          "type": "uint256"
        }
      ],
      "name": "getPurchase",
      "outputs": [
        {
          "name": "",
          "type": "address"
        }
      ],
      "payable": false,
      "stateMutability": "view",
      "type": "function"
    },
    {
      "constant": true,
      "inputs": [],
      "name": "expiration",
      "outputs": [
        {
          "name": "",
          "type": "uint256"
        }
      ],
      "payable": false,
      "stateMutability": "view",
      "type": "function"
    },
    {
      "constant": true,
      "inputs": [],
      "name": "listingRegistry",
      "outputs": [
        {
          "name": "",
          "type": "address"
        }
      ],
      "payable": false,
      "stateMutability": "view",
      "type": "function"
    },
    {
      "constant": true,
      "inputs": [
        {
          "name": "",
          "type": "uint256"
        }
      ],
      "name": "purchases",
      "outputs": [
        {
          "name": "",
          "type": "address"
        }
      ],
      "payable": false,
      "stateMutability": "view",
      "type": "function"
    },
    {
      "constant": true,
      "inputs": [
        {
          "name": "",
          "type": "uint256"
        }
      ],
      "name": "versions",
      "outputs": [
        {
          "name": "timestamp",
          "type": "uint256"
        },
        {
          "name": "ipfsHash",
          "type": "bytes32"
        }
      ],
      "payable": false,
      "stateMutability": "view",
      "type": "function"
    },
    {
      "constant": true,
      "inputs": [],
      "name": "owner",
      "outputs": [
        {
          "name": "",
          "type": "address"
        }
      ],
      "payable": false,
      "stateMutability": "view",
      "type": "function"
    },
    {
      "constant": true,
      "inputs": [],
      "name": "needsSellerApproval",
      "outputs": [
        {
          "name": "",
          "type": "bool"
        }
      ],
      "payable": false,
      "stateMutability": "view",
      "type": "function"
    },
    {
      "inputs": [
        {
          "name": "_owner",
          "type": "address"
        },
        {
          "name": "_ipfsHash",
          "type": "bytes32"
        }
      ],
      "payable": false,
      "stateMutability": "nonpayable",
      "type": "constructor"
    },
    {
      "anonymous": false,
      "inputs": [
        {
          "indexed": false,
          "name": "_purchaseContract",
          "type": "address"
        }
      ],
      "name": "ListingPurchased",
      "type": "event"
    },
    {
      "anonymous": false,
      "inputs": [],
      "name": "ListingChange",
      "type": "event"
    },
    {
      "constant": true,
      "inputs": [
        {
          "name": "",
          "type": "address"
        }
      ],
      "name": "isApproved",
      "outputs": [
        {
          "name": "",
          "type": "bool"
        }
      ],
      "payable": false,
      "stateMutability": "view",
      "type": "function"
    },
    {
      "constant": true,
      "inputs": [],
      "name": "ipfsHash",
      "outputs": [
        {
          "name": "",
          "type": "bytes32"
        }
      ],
      "payable": false,
      "stateMutability": "view",
      "type": "function"
    },
    {
      "constant": true,
      "inputs": [],
      "name": "currentVersion",
      "outputs": [
        {
          "name": "",
          "type": "uint256"
        }
      ],
      "payable": false,
      "stateMutability": "view",
      "type": "function"
    },
    {
      "constant": true,
      "inputs": [
        {
          "name": "_version",
          "type": "uint256"
        }
      ],
      "name": "data",
      "outputs": [
        {
          "name": "timestamp",
          "type": "uint256"
        },
        {
          "name": "_ipfsHash",
          "type": "bytes32"
        }
      ],
      "payable": false,
      "stateMutability": "view",
      "type": "function"
    },
    {
      "constant": false,
      "inputs": [
        {
          "name": "_currentVersion",
          "type": "uint256"
        },
        {
          "name": "_ipfsHash",
          "type": "bytes32"
        }
      ],
      "name": "update",
      "outputs": [],
      "payable": false,
      "stateMutability": "nonpayable",
      "type": "function"
    },
    {
      "constant": false,
      "inputs": [
        {
          "name": "_ipfsHash",
          "type": "bytes32"
        }
      ],
      "name": "request",
      "outputs": [],
      "payable": true,
      "stateMutability": "payable",
      "type": "function"
    }
  ],
  "bytecode": "0x608060405234801561001057600080fd5b506040516040806107de833981016040818152825160209384015160008054600160a060020a03938416600160a060020a0319918216178255600180543390951694909116939093178355838501909352428085529484019081526006805480840182559352925160029283027ff652222313e28459528d920b65115c16c04f3efc82aaedc97be59f3f377c0d3f81019190915592517ff652222313e28459528d920b65115c16c04f3efc82aaedc97be59f3f377c0d4090930192909255829055624f1a009091016003556004805460ff191690911790556106e7806100f76000396000f3006080604052600436106100da5763ffffffff7c010000000000000000000000000000000000000000000000000000000060003504166328e671b981146100df578063325a19f1146101065780633742a9f71461011b5780634665096d1461014f57806359c87d70146101645780635ebf3e9b14610171578063673448dd146101865780638392fe31146101bb57806387aee00e146101d35780638da5cb5b146102045780639d888e8614610219578063b3fbc3dc1461022e578063c623674f14610243578063d3b7576c14610258578063f0ba844014610273575b600080fd5b3480156100eb57600080fd5b506100f461028b565b60408051918252519081900360200190f35b34801561011257600080fd5b506100f4610291565b34801561012757600080fd5b50610133600435610297565b60408051600160a060020a039092168252519081900360200190f35b34801561015b57600080fd5b506100f46102c3565b61016f6004356102c9565b005b34801561017d57600080fd5b506101336104e8565b34801561019257600080fd5b506101a7600160a060020a03600435166104f7565b604080519115158252519081900360200190f35b3480156101c757600080fd5b506101336004356104fd565b3480156101df57600080fd5b506101eb600435610525565b6040805192835260208301919091528051918290030190f35b34801561021057600080fd5b50610133610551565b34801561022557600080fd5b506100f4610560565b34801561023a57600080fd5b506101a761056a565b34801561024f57600080fd5b506100f4610573565b34801561026457600080fd5b5061016f6004356024356105a0565b34801561027f57600080fd5b506101eb60043561066d565b60055490565b60025481565b60006005828154811015156102a857fe5b600091825260209091200154600160a060020a031692915050565b60035481565b6000805433600160a060020a03908116911614156102e657600080fd5b60035442106102f457600080fd5b73__PurchaseLibrary_______________________6328ab7e9830610317610560565b6040805163ffffffff85167c0100000000000000000000000000000000000000000000000000000000028152600160a060020a03938416600482015260248101929092526044820187905233909216606482015290516084808301926020929190829003018186803b15801561038c57600080fd5b505af41580156103a0573d6000803e3d6000fd5b505050506040513d60208110156103b657600080fd5b50516005805460018101825560009182527f036b6384b5eca791c62761152d0c79bb0604c104a5fb6f4eb0703f3154bb3db001805473ffffffffffffffffffffffffffffffffffffffff1916600160a060020a038416908117909155604080517f1b9265b800000000000000000000000000000000000000000000000000000000815290519394509092631b9265b89234926004808201939182900301818588803b15801561046457600080fd5b505af1158015610478573d6000803e3d6000fd5b505060408051600160a060020a038616815290517f2df0d5ee1e33bfff4ba740237ef59eef9093cf4c8ebb55ad1a6e63f6801089be94509081900360200192509050a16040517ffa378a7d48087b5b4be3b8236f6f8829009c67d0dc3a6a431e43385d52ea2d1d90600090a15050565b600154600160a060020a031681565b50600090565b600580548290811061050b57fe5b600091825260209091200154600160a060020a0316905081565b600680548290811061053357fe5b60009182526020909120600290910201805460019091015490915082565b600054600160a060020a031681565b6006546000190190565b60045460ff1681565b6000600661057f610560565b8154811061058957fe5b906000526020600020906002020160010154905090565b60005433600160a060020a039081169116146105bb57600080fd5b6105c3610560565b821415610669576040805180820182524281526020810183815260068054600181018255600091825292517ff652222313e28459528d920b65115c16c04f3efc82aaedc97be59f3f377c0d3f60029094029384015590517ff652222313e28459528d920b65115c16c04f3efc82aaedc97be59f3f377c0d409092019190915590517ffa378a7d48087b5b4be3b8236f6f8829009c67d0dc3a6a431e43385d52ea2d1d9190a15b5050565b60008060068381548110151561067f57fe5b9060005260206000209060020201600001546006848154811015156106a057fe5b906000526020600020906002020160010154915091509150915600a165627a7a72305820a3534b42e4717995e0f8831bfee13ccc4a86d7e5b16287c93eb7c1ac18e6dc770029",
  "source": "pragma solidity 0.4.23;\n\nimport \"./Listing.sol\";\nimport \"./PurchaseLibrary.sol\";\n\ncontract FractionalListing is Listing {\n\n  /*\n   * Events\n   */\n\n  event ListingPurchased(Purchase _purchaseContract);\n\n  /*\n  * Storage\n  */\n\n  struct Version {\n      uint timestamp;\n      bytes32 ipfsHash;\n  }\n\n  Version[] public versions;\n\n\n  constructor (\n    address _owner,\n    bytes32 _ipfsHash\n  )\n  public\n  {\n    owner = _owner;\n    listingRegistry = msg.sender; // ListingRegistry(msg.sender);\n    versions.push(Version(now, _ipfsHash));\n    created = now;\n    expiration = created + 60 days;\n    needsSellerApproval = true;\n  }\n\n  /*\n    * Public functions\n  */\n\n  function isApproved(Purchase)\n    public\n    view\n    returns (bool)\n  {\n    return false;\n  }\n\n  function ipfsHash()\n    public\n    constant\n    returns (bytes32)\n  {\n    return versions[currentVersion()].ipfsHash;\n  }\n\n  function currentVersion()\n    public\n    constant\n    returns (uint)\n  {\n    return versions.length - 1;\n  }\n\n  function data(uint _version)\n    public\n    constant\n    returns (uint timestamp, bytes32 _ipfsHash)\n  {\n    return (versions[_version].timestamp, versions[_version].ipfsHash);\n  }\n\n  function update(uint _currentVersion, bytes32 _ipfsHash)\n    public\n    isSeller\n  {\n    if (_currentVersion == currentVersion()) {\n      versions.push(Version(now, _ipfsHash));\n      emit ListingChange();\n    }\n  }\n\n  function request(bytes32 _ipfsHash)\n    public\n    payable\n    isNotSeller\n    hasNotExpired\n  {\n    // Create purchase contract\n    Purchase purchaseContract = PurchaseLibrary.newPurchase(this, currentVersion(), _ipfsHash, msg.sender);\n\n    purchases.push(purchaseContract);\n\n    // TODO STAN: How to call function *AND* transfer value??\n    purchaseContract.pay.value(msg.value)();\n\n    emit ListingPurchased(purchaseContract);\n    emit ListingChange();\n  }\n\n}\n",
  "sourcePath": "/Users/stan/Origin/origin-box/origin-js/contracts/contracts/FractionalListing.sol",
  "compiler": {
    "name": "solc",
    "version": "0.4.23+commit.124ca40d.Emscripten.clang"
  },
  "schemaVersion": "2.0.0",
  "updatedAt": "2018-08-13T22:19:35.299Z"
}