{
  "contractName": "OriginIdentity",
  "abi": [
    {
      "constant": true,
      "inputs": [
        {
          "name": "_key",
          "type": "bytes32"
        }
      ],
      "name": "getKeyPurpose",
      "outputs": [
        {
          "name": "purpose",
          "type": "uint256"
        }
      ],
      "payable": false,
      "stateMutability": "view",
      "type": "function"
    },
    {
      "constant": true,
      "inputs": [
        {
          "name": "_key",
          "type": "bytes32"
        }
      ],
      "name": "getKey",
      "outputs": [
        {
          "name": "purpose",
          "type": "uint256"
        },
        {
          "name": "keyType",
          "type": "uint256"
        },
        {
          "name": "key",
          "type": "bytes32"
        }
      ],
      "payable": false,
      "stateMutability": "view",
      "type": "function"
    },
    {
      "constant": false,
      "inputs": [
        {
          "name": "_key",
          "type": "bytes32"
        },
        {
          "name": "_purpose",
          "type": "uint256"
        },
        {
          "name": "_type",
          "type": "uint256"
        }
      ],
      "name": "addKey",
      "outputs": [
        {
          "name": "success",
          "type": "bool"
        }
      ],
      "payable": false,
      "stateMutability": "nonpayable",
      "type": "function"
    },
    {
      "constant": false,
      "inputs": [
        {
          "name": "_claimType",
          "type": "uint256[]"
        },
        {
          "name": "_issuer",
          "type": "address[]"
        },
        {
          "name": "_signature",
          "type": "bytes"
        },
        {
          "name": "_data",
          "type": "bytes"
        },
        {
          "name": "_offsets",
          "type": "uint256[]"
        }
      ],
      "name": "addClaims",
      "outputs": [],
      "payable": false,
      "stateMutability": "nonpayable",
      "type": "function"
    },
    {
      "constant": true,
      "inputs": [
        {
          "name": "_claimType",
          "type": "uint256"
        }
      ],
      "name": "getClaimIdsByType",
      "outputs": [
        {
          "name": "claimIds",
          "type": "bytes32[]"
        }
      ],
      "payable": false,
      "stateMutability": "view",
      "type": "function"
    },
    {
      "constant": false,
      "inputs": [
        {
          "name": "_claimId",
          "type": "bytes32"
        }
      ],
      "name": "removeClaim",
      "outputs": [
        {
          "name": "success",
          "type": "bool"
        }
      ],
      "payable": false,
      "stateMutability": "nonpayable",
      "type": "function"
    },
    {
      "constant": false,
      "inputs": [
        {
          "name": "_id",
          "type": "uint256"
        },
        {
          "name": "_approve",
          "type": "bool"
        }
      ],
      "name": "approve",
      "outputs": [
        {
          "name": "success",
          "type": "bool"
        }
      ],
      "payable": false,
      "stateMutability": "nonpayable",
      "type": "function"
    },
    {
      "constant": false,
      "inputs": [
        {
          "name": "_key",
          "type": "bytes32"
        }
      ],
      "name": "removeKey",
      "outputs": [
        {
          "name": "success",
          "type": "bool"
        }
      ],
      "payable": false,
      "stateMutability": "nonpayable",
      "type": "function"
    },
    {
      "constant": true,
      "inputs": [
        {
          "name": "_purpose",
          "type": "uint256"
        }
      ],
      "name": "getKeysByPurpose",
      "outputs": [
        {
          "name": "_keys",
          "type": "bytes32[]"
        }
      ],
      "payable": false,
      "stateMutability": "view",
      "type": "function"
    },
    {
      "constant": false,
      "inputs": [
        {
          "name": "_claimType",
          "type": "uint256"
        },
        {
          "name": "_scheme",
          "type": "uint256"
        },
        {
          "name": "_issuer",
          "type": "address"
        },
        {
          "name": "_signature",
          "type": "bytes"
        },
        {
          "name": "_data",
          "type": "bytes"
        },
        {
          "name": "_uri",
          "type": "string"
        }
      ],
      "name": "addClaim",
      "outputs": [
        {
          "name": "claimRequestId",
          "type": "bytes32"
        }
      ],
      "payable": false,
      "stateMutability": "nonpayable",
      "type": "function"
    },
    {
      "constant": false,
      "inputs": [
        {
          "name": "_to",
          "type": "address"
        },
        {
          "name": "_value",
          "type": "uint256"
        },
        {
          "name": "_data",
          "type": "bytes"
        }
      ],
      "name": "execute",
      "outputs": [
        {
          "name": "executionId",
          "type": "uint256"
        }
      ],
      "payable": false,
      "stateMutability": "nonpayable",
      "type": "function"
    },
    {
      "constant": true,
      "inputs": [
        {
          "name": "_claimId",
          "type": "bytes32"
        }
      ],
      "name": "getClaim",
      "outputs": [
        {
          "name": "claimType",
          "type": "uint256"
        },
        {
          "name": "scheme",
          "type": "uint256"
        },
        {
          "name": "issuer",
          "type": "address"
        },
        {
          "name": "signature",
          "type": "bytes"
        },
        {
          "name": "data",
          "type": "bytes"
        },
        {
          "name": "uri",
          "type": "string"
        }
      ],
      "payable": false,
      "stateMutability": "view",
      "type": "function"
    },
    {
      "constant": true,
      "inputs": [
        {
          "name": "_key",
          "type": "bytes32"
        },
        {
          "name": "_purpose",
          "type": "uint256"
        }
      ],
      "name": "keyHasPurpose",
      "outputs": [
        {
          "name": "result",
          "type": "bool"
        }
      ],
      "payable": false,
      "stateMutability": "view",
      "type": "function"
    },
    {
      "anonymous": false,
      "inputs": [
        {
          "indexed": true,
          "name": "claimRequestId",
          "type": "uint256"
        },
        {
          "indexed": true,
          "name": "claimType",
          "type": "uint256"
        },
        {
          "indexed": false,
          "name": "scheme",
          "type": "uint256"
        },
        {
          "indexed": true,
          "name": "issuer",
          "type": "address"
        },
        {
          "indexed": false,
          "name": "signature",
          "type": "bytes"
        },
        {
          "indexed": false,
          "name": "data",
          "type": "bytes"
        },
        {
          "indexed": false,
          "name": "uri",
          "type": "string"
        }
      ],
      "name": "ClaimRequested",
      "type": "event"
    },
    {
      "anonymous": false,
      "inputs": [
        {
          "indexed": true,
          "name": "claimId",
          "type": "bytes32"
        },
        {
          "indexed": true,
          "name": "claimType",
          "type": "uint256"
        },
        {
          "indexed": true,
          "name": "issuer",
          "type": "address"
        },
        {
          "indexed": false,
          "name": "signatureType",
          "type": "uint256"
        },
        {
          "indexed": false,
          "name": "signature",
          "type": "bytes32"
        },
        {
          "indexed": false,
          "name": "claim",
          "type": "bytes"
        },
        {
          "indexed": false,
          "name": "uri",
          "type": "string"
        }
      ],
      "name": "ClaimAdded",
      "type": "event"
    },
    {
      "anonymous": false,
      "inputs": [
        {
          "indexed": true,
          "name": "claimId",
          "type": "bytes32"
        },
        {
          "indexed": true,
          "name": "claimType",
          "type": "uint256"
        },
        {
          "indexed": false,
          "name": "scheme",
          "type": "uint256"
        },
        {
          "indexed": true,
          "name": "issuer",
          "type": "address"
        },
        {
          "indexed": false,
          "name": "signature",
          "type": "bytes"
        },
        {
          "indexed": false,
          "name": "data",
          "type": "bytes"
        },
        {
          "indexed": false,
          "name": "uri",
          "type": "string"
        }
      ],
      "name": "ClaimAdded",
      "type": "event"
    },
    {
      "anonymous": false,
      "inputs": [
        {
          "indexed": true,
          "name": "claimId",
          "type": "bytes32"
        },
        {
          "indexed": true,
          "name": "claimType",
          "type": "uint256"
        },
        {
          "indexed": false,
          "name": "scheme",
          "type": "uint256"
        },
        {
          "indexed": true,
          "name": "issuer",
          "type": "address"
        },
        {
          "indexed": false,
          "name": "signature",
          "type": "bytes"
        },
        {
          "indexed": false,
          "name": "data",
          "type": "bytes"
        },
        {
          "indexed": false,
          "name": "uri",
          "type": "string"
        }
      ],
      "name": "ClaimRemoved",
      "type": "event"
    },
    {
      "anonymous": false,
      "inputs": [
        {
          "indexed": true,
          "name": "claimId",
          "type": "bytes32"
        },
        {
          "indexed": true,
          "name": "claimType",
          "type": "uint256"
        },
        {
          "indexed": false,
          "name": "scheme",
          "type": "uint256"
        },
        {
          "indexed": true,
          "name": "issuer",
          "type": "address"
        },
        {
          "indexed": false,
          "name": "signature",
          "type": "bytes"
        },
        {
          "indexed": false,
          "name": "data",
          "type": "bytes"
        },
        {
          "indexed": false,
          "name": "uri",
          "type": "string"
        }
      ],
      "name": "ClaimChanged",
      "type": "event"
    },
    {
      "anonymous": false,
      "inputs": [
        {
          "indexed": true,
          "name": "key",
          "type": "bytes32"
        },
        {
          "indexed": true,
          "name": "purpose",
          "type": "uint256"
        },
        {
          "indexed": true,
          "name": "keyType",
          "type": "uint256"
        }
      ],
      "name": "KeyAdded",
      "type": "event"
    },
    {
      "anonymous": false,
      "inputs": [
        {
          "indexed": true,
          "name": "key",
          "type": "bytes32"
        },
        {
          "indexed": true,
          "name": "purpose",
          "type": "uint256"
        },
        {
          "indexed": true,
          "name": "keyType",
          "type": "uint256"
        }
      ],
      "name": "KeyRemoved",
      "type": "event"
    },
    {
      "anonymous": false,
      "inputs": [
        {
          "indexed": true,
          "name": "executionId",
          "type": "uint256"
        },
        {
          "indexed": true,
          "name": "to",
          "type": "address"
        },
        {
          "indexed": true,
          "name": "value",
          "type": "uint256"
        },
        {
          "indexed": false,
          "name": "data",
          "type": "bytes"
        }
      ],
      "name": "ExecutionRequested",
      "type": "event"
    },
    {
      "anonymous": false,
      "inputs": [
        {
          "indexed": true,
          "name": "executionId",
          "type": "uint256"
        },
        {
          "indexed": true,
          "name": "to",
          "type": "address"
        },
        {
          "indexed": true,
          "name": "value",
          "type": "uint256"
        },
        {
          "indexed": false,
          "name": "data",
          "type": "bytes"
        }
      ],
      "name": "Executed",
      "type": "event"
    },
    {
      "anonymous": false,
      "inputs": [
        {
          "indexed": true,
          "name": "executionId",
          "type": "uint256"
        },
        {
          "indexed": false,
          "name": "approved",
          "type": "bool"
        }
      ],
      "name": "Approved",
      "type": "event"
    }
  ],
  "bytecode": "0x608060408190527f30864be50000000000000000000000000000000000000000000000000000000081526000608481905273__KeyHolderLibrary______________________916330864be59160a49160248186803b15801561006157600080fd5b505af4158015610075573d6000803e3d6000fd5b50505050611297806100886000396000f3006080604052600436106100ab5763ffffffff60e060020a600035041663032c1a8a81146100b057806312aaac70146100da5780631d3812401461011057806321c148f014610142578063262b54f5146102875780634eee424a146102ef578063747442d314610307578063862642f5146103245780639010f7261461033c578063b1a34e0d14610354578063b61d27f61461043c578063c9100bcb146104a5578063d202158d14610628575b600080fd5b3480156100bc57600080fd5b506100c8600435610643565b60408051918252519081900360200190f35b3480156100e657600080fd5b506100f26004356106e9565b60408051938452602084019290925282820152519081900360600190f35b34801561011c57600080fd5b5061012e6004356024356044356107a5565b604080519115158252519081900360200190f35b34801561014e57600080fd5b506040805160206004803580820135838102808601850190965280855261028595369593946024949385019291829185019084908082843750506040805187358901803560208181028481018201909552818452989b9a99890198929750908201955093508392508501908490808284375050604080516020601f89358b018035918201839004830284018301909452808352979a99988101979196509182019450925082915084018382808284375050604080516020601f89358b018035918201839004830284018301909452808352979a999881019791965091820194509250829150840183828082843750506040805187358901803560208181028481018201909552818452989b9a99890198929750908201955093508392508501908490808284375094975061085b9650505050505050565b005b34801561029357600080fd5b5061029f600435610a75565b60408051602080825283518183015283519192839290830191858101910280838360005b838110156102db5781810151838201526020016102c3565b505050509050019250505060405180910390f35b3480156102fb57600080fd5b5061012e600435610ad8565b34801561031357600080fd5b5061012e6004356024351515610b52565b34801561033057600080fd5b5061012e600435610c01565b34801561034857600080fd5b5061029f600435610c75565b34801561036057600080fd5b50604080516020601f6064356004818101359283018490048402850184019095528184526100c8948035946024803595600160a060020a0360443516953695608494930191819084018382808284375050604080516020601f89358b018035918201839004830284018301909452808352979a99988101979196509182019450925082915084018382808284375050604080516020601f89358b018035918201839004830284018301909452808352979a999881019791965091820194509250829150840183828082843750949750610d639650505050505050565b34801561044857600080fd5b50604080516020600460443581810135601f81018490048402850184019095528484526100c8948235600160a060020a0316946024803595369594606494920191908190840183828082843750949750610f5a9650505050505050565b3480156104b157600080fd5b506104bd60043561103b565b6040518087815260200186815260200185600160a060020a0316600160a060020a03168152602001806020018060200180602001848103845287818151815260200191508051906020019080838360005b8381101561052657818101518382015260200161050e565b50505050905090810190601f1680156105535780820380516001836020036101000a031916815260200191505b50848103835286518152865160209182019188019080838360005b8381101561058657818101518382015260200161056e565b50505050905090810190601f1680156105b35780820380516001836020036101000a031916815260200191505b50848103825285518152855160209182019187019080838360005b838110156105e65781810151838201526020016105ce565b50505050905090810190601f1680156106135780820380516001836020036101000a031916815260200191505b50995050505050505050505060405180910390f35b34801561063457600080fd5b5061012e6004356024356111f0565b604080517fcf58f45b00000000000000000000000000000000000000000000000000000000815260006004820181905260248201849052915173__KeyHolderLibrary______________________9163cf58f45b916044808301926020929190829003018186803b1580156106b757600080fd5b505af41580156106cb573d6000803e3d6000fd5b505050506040513d60208110156106e157600080fd5b505192915050565b604080517fb01a9fb30000000000000000000000000000000000000000000000000000000081526000600482018190526024820184905291518291829173__KeyHolderLibrary______________________9163b01a9fb3916044808301926060929190829003018186803b15801561076157600080fd5b505af4158015610775573d6000803e3d6000fd5b505050506040513d606081101561078b57600080fd5b508051602082015160409092015190969195509350915050565b604080517f5d601c3a000000000000000000000000000000000000000000000000000000008152600060048201819052602482018690526044820185905260648201849052915173__KeyHolderLibrary______________________91635d601c3a916084808301926020929190829003018186803b15801561082757600080fd5b505af415801561083b573d6000803e3d6000fd5b505050506040513d602081101561085157600080fd5b5051949350505050565b73__ClaimHolderLibrary____________________63428e59ee6000600488888888886040518863ffffffff1660e060020a02815260040180888152602001878152602001806020018060200180602001806020018060200186810386528b818151815260200191508051906020019060200280838360005b838110156108ec5781810151838201526020016108d4565b5050505090500186810385528a818151815260200191508051906020019060200280838360005b8381101561092b578181015183820152602001610913565b50505050905001868103845289818151815260200191508051906020019080838360005b8381101561096757818101518382015260200161094f565b50505050905090810190601f1680156109945780820380516001836020036101000a031916815260200191505b5086810383528851815288516020918201918a019080838360005b838110156109c75781810151838201526020016109af565b50505050905090810190601f1680156109f45780820380516001836020036101000a031916815260200191505b508681038252875181528751602091820191808a01910280838360005b83811015610a29578181015183820152602001610a11565b505050509050019c5050505050505050505050505060006040518083038186803b158015610a5657600080fd5b505af4158015610a6a573d6000803e3d6000fd5b505050505050505050565b600081815260056020908152604091829020805483518184028101840190945280845260609392830182828015610acc57602002820191906000526020600020905b81548152600190910190602001808311610ab7575b50505050509050919050565b604080517f5c02fae100000000000000000000000000000000000000000000000000000000815260006004828101829052602483015260448201849052915173__ClaimHolderLibrary____________________91635c02fae1916064808301926020929190829003018186803b1580156106b757600080fd5b604080517f67d4865f000000000000000000000000000000000000000000000000000000008152600060048201819052602482018590528315156044830152915173__KeyHolderLibrary______________________916367d4865f916064808301926020929190829003018186803b158015610bce57600080fd5b505af4158015610be2573d6000803e3d6000fd5b505050506040513d6020811015610bf857600080fd5b50519392505050565b604080517f7ab17ba700000000000000000000000000000000000000000000000000000000815260006004820181905260248201849052915173__KeyHolderLibrary______________________91637ab17ba7916044808301926020929190829003018186803b1580156106b757600080fd5b606073__KeyHolderLibrary______________________63746199f96000846040518363ffffffff1660e060020a028152600401808381526020018281526020019250505060006040518083038186803b158015610cd257600080fd5b505af4158015610ce6573d6000803e3d6000fd5b505050506040513d6000823e601f3d908101601f191682016040526020811015610d0f57600080fd5b810190808051640100000000811115610d2757600080fd5b82016020810184811115610d3a57600080fd5b8151856020820283011164010000000082111715610d5757600080fd5b50909695505050505050565b600073__ClaimHolderLibrary____________________63bd2d0c28600060048a8a8a8a8a8a6040518963ffffffff1660e060020a0281526004018089815260200188815260200187815260200186815260200185600160a060020a0316600160a060020a03168152602001806020018060200180602001848103845287818151815260200191508051906020019080838360005b83811015610e10578181015183820152602001610df8565b50505050905090810190601f168015610e3d5780820380516001836020036101000a031916815260200191505b50848103835286518152865160209182019188019080838360005b83811015610e70578181015183820152602001610e58565b50505050905090810190601f168015610e9d5780820380516001836020036101000a031916815260200191505b50848103825285518152855160209182019187019080838360005b83811015610ed0578181015183820152602001610eb8565b50505050905090810190601f168015610efd5780820380516001836020036101000a031916815260200191505b509b50505050505050505050505060206040518083038186803b158015610f2357600080fd5b505af4158015610f37573d6000803e3d6000fd5b505050506040513d6020811015610f4d57600080fd5b5051979650505050505050565b600073__KeyHolderLibrary______________________63e9356c6f60008686866040518563ffffffff1660e060020a0281526004018085815260200184600160a060020a0316600160a060020a0316815260200183815260200180602001828103825283818151815260200191508051906020019080838360005b83811015610fee578181015183820152602001610fd6565b50505050905090810190601f16801561101b5780820380516001836020036101000a031916815260200191505b509550505050505060206040518083038186803b15801561082757600080fd5b6000806000606080606073__ClaimHolderLibrary____________________638522d0eb6004896040518363ffffffff1660e060020a0281526004018083815260200182600019166000191681526020019250505060006040518083038186803b1580156110a857600080fd5b505af41580156110bc573d6000803e3d6000fd5b505050506040513d6000823e601f3d908101601f1916820160405260c08110156110e557600080fd5b815160208301516040840151606085018051939592949193918301929164010000000081111561111457600080fd5b8201602081018481111561112757600080fd5b815164010000000081118282018710171561114157600080fd5b5050929190602001805164010000000081111561115d57600080fd5b8201602081018481111561117057600080fd5b815164010000000081118282018710171561118a57600080fd5b505092919060200180516401000000008111156111a657600080fd5b820160208101848111156111b957600080fd5b81516401000000008111828201871017156111d357600080fd5b505092919050505095509550955095509550955091939550919395565b604080517fd8188a400000000000000000000000000000000000000000000000000000000081526000600482018190526024820185905260448201849052915173__KeyHolderLibrary______________________9163d8188a40916064808301926020929190829003018186803b158015610bce57600080fd00a165627a7a723058204b1cf0719bb67a0fdab55e64d9ed99b0060502bb488d054bdc43267618607f7d0029",
  "deployedBytecode": "0x6080604052600436106100ab5763ffffffff60e060020a600035041663032c1a8a81146100b057806312aaac70146100da5780631d3812401461011057806321c148f014610142578063262b54f5146102875780634eee424a146102ef578063747442d314610307578063862642f5146103245780639010f7261461033c578063b1a34e0d14610354578063b61d27f61461043c578063c9100bcb146104a5578063d202158d14610628575b600080fd5b3480156100bc57600080fd5b506100c8600435610643565b60408051918252519081900360200190f35b3480156100e657600080fd5b506100f26004356106e9565b60408051938452602084019290925282820152519081900360600190f35b34801561011c57600080fd5b5061012e6004356024356044356107a5565b604080519115158252519081900360200190f35b34801561014e57600080fd5b506040805160206004803580820135838102808601850190965280855261028595369593946024949385019291829185019084908082843750506040805187358901803560208181028481018201909552818452989b9a99890198929750908201955093508392508501908490808284375050604080516020601f89358b018035918201839004830284018301909452808352979a99988101979196509182019450925082915084018382808284375050604080516020601f89358b018035918201839004830284018301909452808352979a999881019791965091820194509250829150840183828082843750506040805187358901803560208181028481018201909552818452989b9a99890198929750908201955093508392508501908490808284375094975061085b9650505050505050565b005b34801561029357600080fd5b5061029f600435610a75565b60408051602080825283518183015283519192839290830191858101910280838360005b838110156102db5781810151838201526020016102c3565b505050509050019250505060405180910390f35b3480156102fb57600080fd5b5061012e600435610ad8565b34801561031357600080fd5b5061012e6004356024351515610b52565b34801561033057600080fd5b5061012e600435610c01565b34801561034857600080fd5b5061029f600435610c75565b34801561036057600080fd5b50604080516020601f6064356004818101359283018490048402850184019095528184526100c8948035946024803595600160a060020a0360443516953695608494930191819084018382808284375050604080516020601f89358b018035918201839004830284018301909452808352979a99988101979196509182019450925082915084018382808284375050604080516020601f89358b018035918201839004830284018301909452808352979a999881019791965091820194509250829150840183828082843750949750610d639650505050505050565b34801561044857600080fd5b50604080516020600460443581810135601f81018490048402850184019095528484526100c8948235600160a060020a0316946024803595369594606494920191908190840183828082843750949750610f5a9650505050505050565b3480156104b157600080fd5b506104bd60043561103b565b6040518087815260200186815260200185600160a060020a0316600160a060020a03168152602001806020018060200180602001848103845287818151815260200191508051906020019080838360005b8381101561052657818101518382015260200161050e565b50505050905090810190601f1680156105535780820380516001836020036101000a031916815260200191505b50848103835286518152865160209182019188019080838360005b8381101561058657818101518382015260200161056e565b50505050905090810190601f1680156105b35780820380516001836020036101000a031916815260200191505b50848103825285518152855160209182019187019080838360005b838110156105e65781810151838201526020016105ce565b50505050905090810190601f1680156106135780820380516001836020036101000a031916815260200191505b50995050505050505050505060405180910390f35b34801561063457600080fd5b5061012e6004356024356111f0565b604080517fcf58f45b00000000000000000000000000000000000000000000000000000000815260006004820181905260248201849052915173__KeyHolderLibrary______________________9163cf58f45b916044808301926020929190829003018186803b1580156106b757600080fd5b505af41580156106cb573d6000803e3d6000fd5b505050506040513d60208110156106e157600080fd5b505192915050565b604080517fb01a9fb30000000000000000000000000000000000000000000000000000000081526000600482018190526024820184905291518291829173__KeyHolderLibrary______________________9163b01a9fb3916044808301926060929190829003018186803b15801561076157600080fd5b505af4158015610775573d6000803e3d6000fd5b505050506040513d606081101561078b57600080fd5b508051602082015160409092015190969195509350915050565b604080517f5d601c3a000000000000000000000000000000000000000000000000000000008152600060048201819052602482018690526044820185905260648201849052915173__KeyHolderLibrary______________________91635d601c3a916084808301926020929190829003018186803b15801561082757600080fd5b505af415801561083b573d6000803e3d6000fd5b505050506040513d602081101561085157600080fd5b5051949350505050565b73__ClaimHolderLibrary____________________63428e59ee6000600488888888886040518863ffffffff1660e060020a02815260040180888152602001878152602001806020018060200180602001806020018060200186810386528b818151815260200191508051906020019060200280838360005b838110156108ec5781810151838201526020016108d4565b5050505090500186810385528a818151815260200191508051906020019060200280838360005b8381101561092b578181015183820152602001610913565b50505050905001868103845289818151815260200191508051906020019080838360005b8381101561096757818101518382015260200161094f565b50505050905090810190601f1680156109945780820380516001836020036101000a031916815260200191505b5086810383528851815288516020918201918a019080838360005b838110156109c75781810151838201526020016109af565b50505050905090810190601f1680156109f45780820380516001836020036101000a031916815260200191505b508681038252875181528751602091820191808a01910280838360005b83811015610a29578181015183820152602001610a11565b505050509050019c5050505050505050505050505060006040518083038186803b158015610a5657600080fd5b505af4158015610a6a573d6000803e3d6000fd5b505050505050505050565b600081815260056020908152604091829020805483518184028101840190945280845260609392830182828015610acc57602002820191906000526020600020905b81548152600190910190602001808311610ab7575b50505050509050919050565b604080517f5c02fae100000000000000000000000000000000000000000000000000000000815260006004828101829052602483015260448201849052915173__ClaimHolderLibrary____________________91635c02fae1916064808301926020929190829003018186803b1580156106b757600080fd5b604080517f67d4865f000000000000000000000000000000000000000000000000000000008152600060048201819052602482018590528315156044830152915173__KeyHolderLibrary______________________916367d4865f916064808301926020929190829003018186803b158015610bce57600080fd5b505af4158015610be2573d6000803e3d6000fd5b505050506040513d6020811015610bf857600080fd5b50519392505050565b604080517f7ab17ba700000000000000000000000000000000000000000000000000000000815260006004820181905260248201849052915173__KeyHolderLibrary______________________91637ab17ba7916044808301926020929190829003018186803b1580156106b757600080fd5b606073__KeyHolderLibrary______________________63746199f96000846040518363ffffffff1660e060020a028152600401808381526020018281526020019250505060006040518083038186803b158015610cd257600080fd5b505af4158015610ce6573d6000803e3d6000fd5b505050506040513d6000823e601f3d908101601f191682016040526020811015610d0f57600080fd5b810190808051640100000000811115610d2757600080fd5b82016020810184811115610d3a57600080fd5b8151856020820283011164010000000082111715610d5757600080fd5b50909695505050505050565b600073__ClaimHolderLibrary____________________63bd2d0c28600060048a8a8a8a8a8a6040518963ffffffff1660e060020a0281526004018089815260200188815260200187815260200186815260200185600160a060020a0316600160a060020a03168152602001806020018060200180602001848103845287818151815260200191508051906020019080838360005b83811015610e10578181015183820152602001610df8565b50505050905090810190601f168015610e3d5780820380516001836020036101000a031916815260200191505b50848103835286518152865160209182019188019080838360005b83811015610e70578181015183820152602001610e58565b50505050905090810190601f168015610e9d5780820380516001836020036101000a031916815260200191505b50848103825285518152855160209182019187019080838360005b83811015610ed0578181015183820152602001610eb8565b50505050905090810190601f168015610efd5780820380516001836020036101000a031916815260200191505b509b50505050505050505050505060206040518083038186803b158015610f2357600080fd5b505af4158015610f37573d6000803e3d6000fd5b505050506040513d6020811015610f4d57600080fd5b5051979650505050505050565b600073__KeyHolderLibrary______________________63e9356c6f60008686866040518563ffffffff1660e060020a0281526004018085815260200184600160a060020a0316600160a060020a0316815260200183815260200180602001828103825283818151815260200191508051906020019080838360005b83811015610fee578181015183820152602001610fd6565b50505050905090810190601f16801561101b5780820380516001836020036101000a031916815260200191505b509550505050505060206040518083038186803b15801561082757600080fd5b6000806000606080606073__ClaimHolderLibrary____________________638522d0eb6004896040518363ffffffff1660e060020a0281526004018083815260200182600019166000191681526020019250505060006040518083038186803b1580156110a857600080fd5b505af41580156110bc573d6000803e3d6000fd5b505050506040513d6000823e601f3d908101601f1916820160405260c08110156110e557600080fd5b815160208301516040840151606085018051939592949193918301929164010000000081111561111457600080fd5b8201602081018481111561112757600080fd5b815164010000000081118282018710171561114157600080fd5b5050929190602001805164010000000081111561115d57600080fd5b8201602081018481111561117057600080fd5b815164010000000081118282018710171561118a57600080fd5b505092919060200180516401000000008111156111a657600080fd5b820160208101848111156111b957600080fd5b81516401000000008111828201871017156111d357600080fd5b505092919050505095509550955095509550955091939550919395565b604080517fd8188a400000000000000000000000000000000000000000000000000000000081526000600482018190526024820185905260448201849052915173__KeyHolderLibrary______________________9163d8188a40916064808301926020929190829003018186803b158015610bce57600080fd00a165627a7a723058204b1cf0719bb67a0fdab55e64d9ed99b0060502bb488d054bdc43267618607f7d0029",
  "source": "pragma solidity ^0.4.23;\n\nimport './ClaimHolder.sol';\n\n// This will be deployed exactly once and represents Origin Protocol's\n// own identity for use in signing attestations.\n\ncontract OriginIdentity is ClaimHolder {}\n",
  "sourcePath": "/Users/stan/Origin/origin-box/origin-js/contracts/contracts/identity/OriginIdentity.sol",
  "compiler": {
    "name": "solc",
    "version": "0.4.23+commit.124ca40d.Emscripten.clang"
  },
  "schemaVersion": "2.0.0",
  "updatedAt": "2018-08-13T22:22:45.054Z"
}