{
  "contractName": "ClaimHolderPresigned",
  "abi": [
    {
      "constant": true,
      "inputs": [
        {
          "name": "_key",
          "type": "bytes32"
        }
      ],
      "name": "getKey",
      "outputs": [
        {
          "name": "purposes",
          "type": "uint256[]"
        },
        {
          "name": "keyType",
          "type": "uint256"
        },
        {
          "name": "key",
          "type": "bytes32"
        }
      ],
      "payable": false,
      "stateMutability": "view",
      "type": "function"
    },
    {
      "constant": false,
      "inputs": [
        {
          "name": "_key",
          "type": "bytes32"
        },
        {
          "name": "_purpose",
          "type": "uint256"
        },
        {
          "name": "_type",
          "type": "uint256"
        }
      ],
      "name": "addKey",
      "outputs": [
        {
          "name": "success",
          "type": "bool"
        }
      ],
      "payable": false,
      "stateMutability": "nonpayable",
      "type": "function"
    },
    {
      "constant": false,
      "inputs": [
        {
          "name": "_topic",
          "type": "uint256[]"
        },
        {
          "name": "_issuer",
          "type": "address[]"
        },
        {
          "name": "_signature",
          "type": "bytes"
        },
        {
          "name": "_data",
          "type": "bytes"
        },
        {
          "name": "_offsets",
          "type": "uint256[]"
        }
      ],
      "name": "addClaims",
      "outputs": [],
      "payable": false,
      "stateMutability": "nonpayable",
      "type": "function"
    },
    {
      "constant": false,
      "inputs": [
        {
          "name": "_claimId",
          "type": "bytes32"
        }
      ],
      "name": "removeClaim",
      "outputs": [
        {
          "name": "success",
          "type": "bool"
        }
      ],
      "payable": false,
      "stateMutability": "nonpayable",
      "type": "function"
    },
    {
      "constant": false,
      "inputs": [
        {
          "name": "_key",
          "type": "bytes32"
        },
        {
          "name": "_purpose",
          "type": "uint256"
        }
      ],
      "name": "removeKey",
      "outputs": [
        {
          "name": "success",
          "type": "bool"
        }
      ],
      "payable": false,
      "stateMutability": "nonpayable",
      "type": "function"
    },
    {
      "constant": false,
      "inputs": [
        {
          "name": "_id",
          "type": "uint256"
        },
        {
          "name": "_approve",
          "type": "bool"
        }
      ],
      "name": "approve",
      "outputs": [
        {
          "name": "success",
          "type": "bool"
        }
      ],
      "payable": false,
      "stateMutability": "nonpayable",
      "type": "function"
    },
    {
      "constant": true,
      "inputs": [
        {
          "name": "_topic",
          "type": "uint256"
        }
      ],
      "name": "getClaimIdsByTopic",
      "outputs": [
        {
          "name": "claimIds",
          "type": "bytes32[]"
        }
      ],
      "payable": false,
      "stateMutability": "view",
      "type": "function"
    },
    {
      "constant": true,
      "inputs": [
        {
          "name": "_purpose",
          "type": "uint256"
        }
      ],
      "name": "getKeysByPurpose",
      "outputs": [
        {
          "name": "_keys",
          "type": "bytes32[]"
        }
      ],
      "payable": false,
      "stateMutability": "view",
      "type": "function"
    },
    {
      "constant": false,
      "inputs": [
        {
          "name": "_topic",
          "type": "uint256"
        },
        {
          "name": "_scheme",
          "type": "uint256"
        },
        {
          "name": "_issuer",
          "type": "address"
        },
        {
          "name": "_signature",
          "type": "bytes"
        },
        {
          "name": "_data",
          "type": "bytes"
        },
        {
          "name": "_uri",
          "type": "string"
        }
      ],
      "name": "addClaim",
      "outputs": [
        {
          "name": "claimRequestId",
          "type": "bytes32"
        }
      ],
      "payable": false,
      "stateMutability": "nonpayable",
      "type": "function"
    },
    {
      "constant": false,
      "inputs": [
        {
          "name": "_to",
          "type": "address"
        },
        {
          "name": "_value",
          "type": "uint256"
        },
        {
          "name": "_data",
          "type": "bytes"
        }
      ],
      "name": "execute",
      "outputs": [
        {
          "name": "executionId",
          "type": "uint256"
        }
      ],
      "payable": false,
      "stateMutability": "nonpayable",
      "type": "function"
    },
    {
      "constant": true,
      "inputs": [
        {
          "name": "_claimId",
          "type": "bytes32"
        }
      ],
      "name": "getClaim",
      "outputs": [
        {
          "name": "topic",
          "type": "uint256"
        },
        {
          "name": "scheme",
          "type": "uint256"
        },
        {
          "name": "issuer",
          "type": "address"
        },
        {
          "name": "signature",
          "type": "bytes"
        },
        {
          "name": "data",
          "type": "bytes"
        },
        {
          "name": "uri",
          "type": "string"
        }
      ],
      "payable": false,
      "stateMutability": "view",
      "type": "function"
    },
    {
      "constant": true,
      "inputs": [
        {
          "name": "_key",
          "type": "bytes32"
        },
        {
          "name": "_purpose",
          "type": "uint256"
        }
      ],
      "name": "keyHasPurpose",
      "outputs": [
        {
          "name": "exists",
          "type": "bool"
        }
      ],
      "payable": false,
      "stateMutability": "view",
      "type": "function"
    },
    {
      "constant": true,
      "inputs": [
        {
          "name": "_key",
          "type": "bytes32"
        }
      ],
      "name": "getKeyPurposes",
      "outputs": [
        {
          "name": "purposes",
          "type": "uint256[]"
        }
      ],
      "payable": false,
      "stateMutability": "view",
      "type": "function"
    },
    {
      "inputs": [
        {
          "name": "_userRegistryAddress",
          "type": "address"
        },
        {
          "name": "_topic",
          "type": "uint256[]"
        },
        {
          "name": "_issuer",
          "type": "address[]"
        },
        {
          "name": "_signature",
          "type": "bytes"
        },
        {
          "name": "_data",
          "type": "bytes"
        },
        {
          "name": "_offsets",
          "type": "uint256[]"
        }
      ],
      "payable": false,
      "stateMutability": "nonpayable",
      "type": "constructor"
    },
    {
      "anonymous": false,
      "inputs": [
        {
          "indexed": true,
          "name": "claimRequestId",
          "type": "uint256"
        },
        {
          "indexed": true,
          "name": "topic",
          "type": "uint256"
        },
        {
          "indexed": false,
          "name": "scheme",
          "type": "uint256"
        },
        {
          "indexed": true,
          "name": "issuer",
          "type": "address"
        },
        {
          "indexed": false,
          "name": "signature",
          "type": "bytes"
        },
        {
          "indexed": false,
          "name": "data",
          "type": "bytes"
        },
        {
          "indexed": false,
          "name": "uri",
          "type": "string"
        }
      ],
      "name": "ClaimRequested",
      "type": "event"
    },
    {
      "anonymous": false,
      "inputs": [
        {
          "indexed": true,
          "name": "claimId",
          "type": "bytes32"
        },
        {
          "indexed": true,
          "name": "topic",
          "type": "uint256"
        },
        {
          "indexed": true,
          "name": "issuer",
          "type": "address"
        },
        {
          "indexed": false,
          "name": "signatureType",
          "type": "uint256"
        },
        {
          "indexed": false,
          "name": "signature",
          "type": "bytes32"
        },
        {
          "indexed": false,
          "name": "claim",
          "type": "bytes"
        },
        {
          "indexed": false,
          "name": "uri",
          "type": "string"
        }
      ],
      "name": "ClaimAdded",
      "type": "event"
    },
    {
      "anonymous": false,
      "inputs": [
        {
          "indexed": true,
          "name": "claimId",
          "type": "bytes32"
        },
        {
          "indexed": true,
          "name": "topic",
          "type": "uint256"
        },
        {
          "indexed": false,
          "name": "scheme",
          "type": "uint256"
        },
        {
          "indexed": true,
          "name": "issuer",
          "type": "address"
        },
        {
          "indexed": false,
          "name": "signature",
          "type": "bytes"
        },
        {
          "indexed": false,
          "name": "data",
          "type": "bytes"
        },
        {
          "indexed": false,
          "name": "uri",
          "type": "string"
        }
      ],
      "name": "ClaimAdded",
      "type": "event"
    },
    {
      "anonymous": false,
      "inputs": [
        {
          "indexed": true,
          "name": "claimId",
          "type": "bytes32"
        },
        {
          "indexed": true,
          "name": "topic",
          "type": "uint256"
        },
        {
          "indexed": false,
          "name": "scheme",
          "type": "uint256"
        },
        {
          "indexed": true,
          "name": "issuer",
          "type": "address"
        },
        {
          "indexed": false,
          "name": "signature",
          "type": "bytes"
        },
        {
          "indexed": false,
          "name": "data",
          "type": "bytes"
        },
        {
          "indexed": false,
          "name": "uri",
          "type": "string"
        }
      ],
      "name": "ClaimRemoved",
      "type": "event"
    },
    {
      "anonymous": false,
      "inputs": [
        {
          "indexed": true,
          "name": "claimId",
          "type": "bytes32"
        },
        {
          "indexed": true,
          "name": "topic",
          "type": "uint256"
        },
        {
          "indexed": false,
          "name": "scheme",
          "type": "uint256"
        },
        {
          "indexed": true,
          "name": "issuer",
          "type": "address"
        },
        {
          "indexed": false,
          "name": "signature",
          "type": "bytes"
        },
        {
          "indexed": false,
          "name": "data",
          "type": "bytes"
        },
        {
          "indexed": false,
          "name": "uri",
          "type": "string"
        }
      ],
      "name": "ClaimChanged",
      "type": "event"
    },
    {
      "anonymous": false,
      "inputs": [
        {
          "indexed": true,
          "name": "key",
          "type": "bytes32"
        },
        {
          "indexed": true,
          "name": "purpose",
          "type": "uint256"
        },
        {
          "indexed": true,
          "name": "keyType",
          "type": "uint256"
        }
      ],
      "name": "KeyAdded",
      "type": "event"
    },
    {
      "anonymous": false,
      "inputs": [
        {
          "indexed": true,
          "name": "key",
          "type": "bytes32"
        },
        {
          "indexed": true,
          "name": "purpose",
          "type": "uint256"
        },
        {
          "indexed": true,
          "name": "keyType",
          "type": "uint256"
        }
      ],
      "name": "KeyRemoved",
      "type": "event"
    },
    {
      "anonymous": false,
      "inputs": [
        {
          "indexed": true,
          "name": "executionId",
          "type": "uint256"
        },
        {
          "indexed": true,
          "name": "to",
          "type": "address"
        },
        {
          "indexed": true,
          "name": "value",
          "type": "uint256"
        },
        {
          "indexed": false,
          "name": "data",
          "type": "bytes"
        }
      ],
      "name": "ExecutionRequested",
      "type": "event"
    },
    {
      "anonymous": false,
      "inputs": [
        {
          "indexed": true,
          "name": "executionId",
          "type": "uint256"
        },
        {
          "indexed": true,
          "name": "to",
          "type": "address"
        },
        {
          "indexed": true,
          "name": "value",
          "type": "uint256"
        },
        {
          "indexed": false,
          "name": "data",
          "type": "bytes"
        }
      ],
      "name": "Executed",
      "type": "event"
    },
    {
      "anonymous": false,
      "inputs": [
        {
          "indexed": true,
          "name": "executionId",
          "type": "uint256"
        },
        {
          "indexed": false,
          "name": "approved",
          "type": "bool"
        }
      ],
      "name": "Approved",
      "type": "event"
    }
  ],
  "bytecode": "0x60806040523480156200001157600080fd5b50604051620016e2380380620016e283398101604081815282516020840151828501516060860151608087015160a08801517f30864be50000000000000000000000000000000000000000000000000000000088526000600489018190529651959894850197938501969285019591850194019288929173__KeyHolderLibrary______________________916330864be59160248083019286929190829003018186803b158015620000c357600080fd5b505af4158015620000d8573d6000803e3d6000fd5b5050505081905080600160a060020a0316634d3820eb6040518163ffffffff167c0100000000000000000000000000000000000000000000000000000000028152600401600060405180830381600087803b1580156200013757600080fd5b505af11580156200014c573d6000803e3d6000fd5b50505050505073__ClaimHolderLibrary____________________63428e59ee6000600488888888886040518863ffffffff167c010000000000000000000000000000000000000000000000000000000002815260040180888152602001878152602001806020018060200180602001806020018060200186810386528b818151815260200191508051906020019060200280838360005b83811015620001fe578181015183820152602001620001e4565b5050505090500186810385528a818151815260200191508051906020019060200280838360005b838110156200023f57818101518382015260200162000225565b50505050905001868103845289818151815260200191508051906020019080838360005b838110156200027d57818101518382015260200162000263565b50505050905090810190601f168015620002ab5780820380516001836020036101000a031916815260200191505b5086810383528851815288516020918201918a019080838360005b83811015620002e0578181015183820152602001620002c6565b50505050905090810190601f1680156200030e5780820380516001836020036101000a031916815260200191505b508681038252875181528751602091820191808a01910280838360005b83811015620003455781810151838201526020016200032b565b505050509050019c5050505050505050505050505060006040518083038186803b1580156200037357600080fd5b505af415801562000388573d6000803e3d6000fd5b5050505050505050505061134080620003a26000396000f3006080604052600436106100ab5763ffffffff60e060020a60003504166312aaac7081146100b05780631d3812401461012957806321c148f01461015b5780634eee424a146102a057806353d413c5146102b8578063747442d3146102d357806380e9e9e1146102f05780639010f72614610358578063b1a34e0d14610370578063b61d27f61461046a578063c9100bcb146104d3578063d202158d14610656578063fb307b3414610671575b600080fd5b3480156100bc57600080fd5b506100c8600435610689565b60408051602080820185905291810183905260608082528551908201528451909182916080830191878101910280838360005b838110156101135781810151838201526020016100fb565b5050505090500194505050505060405180910390f35b34801561013557600080fd5b506101476004356024356044356107a2565b604080519115158252519081900360200190f35b34801561016757600080fd5b506040805160206004803580820135838102808601850190965280855261029e95369593946024949385019291829185019084908082843750506040805187358901803560208181028481018201909552818452989b9a99890198929750908201955093508392508501908490808284375050604080516020601f89358b018035918201839004830284018301909452808352979a99988101979196509182019450925082915084018382808284375050604080516020601f89358b018035918201839004830284018301909452808352979a999881019791965091820194509250829150840183828082843750506040805187358901803560208181028481018201909552818452989b9a9989019892975090820195509350839250850190849080828437509497506108589650505050505050565b005b3480156102ac57600080fd5b50610147600435610a72565b3480156102c457600080fd5b50610147600435602435610b1e565b3480156102df57600080fd5b506101476004356024351515610bcc565b3480156102fc57600080fd5b50610308600435610c48565b60408051602080825283518183015283519192839290830191858101910280838360005b8381101561034457818101518382015260200161032c565b505050509050019250505060405180910390f35b34801561036457600080fd5b50610308600435610cab565b34801561037c57600080fd5b50604080516020601f606435600481810135928301849004840285018401909552818452610458948035946024803595600160a060020a0360443516953695608494930191819084018382808284375050604080516020601f89358b018035918201839004830284018301909452808352979a99988101979196509182019450925082915084018382808284375050604080516020601f89358b018035918201839004830284018301909452808352979a999881019791965091820194509250829150840183828082843750949750610d999650505050505050565b60408051918252519081900360200190f35b34801561047657600080fd5b50604080516020600460443581810135601f8101849004840285018401909552848452610458948235600160a060020a0316946024803595369594606494920191908190840183828082843750949750610f909650505050505050565b3480156104df57600080fd5b506104eb600435611071565b6040518087815260200186815260200185600160a060020a0316600160a060020a03168152602001806020018060200180602001848103845287818151815260200191508051906020019080838360005b8381101561055457818101518382015260200161053c565b50505050905090810190601f1680156105815780820380516001836020036101000a031916815260200191505b50848103835286518152865160209182019188019080838360005b838110156105b457818101518382015260200161059c565b50505050905090810190601f1680156105e15780820380516001836020036101000a031916815260200191505b50848103825285518152855160209182019187019080838360005b838110156106145781810151838201526020016105fc565b50505050905090810190601f1680156106415780820380516001836020036101000a031916815260200191505b50995050505050505050505060405180910390f35b34801561066257600080fd5b50610147600435602435611226565b34801561067d57600080fd5b506103086004356112a1565b604080517fb01a9fb300000000000000000000000000000000000000000000000000000000815260006004820181905260248201849052915160609291829173__KeyHolderLibrary______________________9163b01a9fb39160448083019286929190829003018186803b15801561070257600080fd5b505af4158015610716573d6000803e3d6000fd5b505050506040513d6000823e601f3d908101601f19168201604052606081101561073f57600080fd5b81019080805164010000000081111561075757600080fd5b8201602081018481111561076a57600080fd5b815185602082028301116401000000008211171561078757600080fd5b50506020820151604090920151909891975095509350505050565b604080517f5d601c3a000000000000000000000000000000000000000000000000000000008152600060048201819052602482018690526044820185905260648201849052915173__KeyHolderLibrary______________________91635d601c3a916084808301926020929190829003018186803b15801561082457600080fd5b505af4158015610838573d6000803e3d6000fd5b505050506040513d602081101561084e57600080fd5b5051949350505050565b73__ClaimHolderLibrary____________________63428e59ee6000600488888888886040518863ffffffff1660e060020a02815260040180888152602001878152602001806020018060200180602001806020018060200186810386528b818151815260200191508051906020019060200280838360005b838110156108e95781810151838201526020016108d1565b5050505090500186810385528a818151815260200191508051906020019060200280838360005b83811015610928578181015183820152602001610910565b50505050905001868103845289818151815260200191508051906020019080838360005b8381101561096457818101518382015260200161094c565b50505050905090810190601f1680156109915780820380516001836020036101000a031916815260200191505b5086810383528851815288516020918201918a019080838360005b838110156109c45781810151838201526020016109ac565b50505050905090810190601f1680156109f15780820380516001836020036101000a031916815260200191505b508681038252875181528751602091820191808a01910280838360005b83811015610a26578181015183820152602001610a0e565b505050509050019c5050505050505050505050505060006040518083038186803b158015610a5357600080fd5b505af4158015610a67573d6000803e3d6000fd5b505050505050505050565b604080517f5c02fae100000000000000000000000000000000000000000000000000000000815260006004828101829052602483015260448201849052915173__ClaimHolderLibrary____________________91635c02fae1916064808301926020929190829003018186803b158015610aec57600080fd5b505af4158015610b00573d6000803e3d6000fd5b505050506040513d6020811015610b1657600080fd5b505192915050565b604080517f3f47616d0000000000000000000000000000000000000000000000000000000081526000600482018190526024820185905260448201849052915173__KeyHolderLibrary______________________91633f47616d916064808301926020929190829003018186803b158015610b9957600080fd5b505af4158015610bad573d6000803e3d6000fd5b505050506040513d6020811015610bc357600080fd5b50519392505050565b604080517f67d4865f000000000000000000000000000000000000000000000000000000008152600060048201819052602482018590528315156044830152915173__KeyHolderLibrary______________________916367d4865f916064808301926020929190829003018186803b158015610b9957600080fd5b600081815260056020908152604091829020805483518184028101840190945280845260609392830182828015610c9f57602002820191906000526020600020905b81548152600190910190602001808311610c8a575b50505050509050919050565b606073__KeyHolderLibrary______________________63746199f96000846040518363ffffffff1660e060020a028152600401808381526020018281526020019250505060006040518083038186803b158015610d0857600080fd5b505af4158015610d1c573d6000803e3d6000fd5b505050506040513d6000823e601f3d908101601f191682016040526020811015610d4557600080fd5b810190808051640100000000811115610d5d57600080fd5b82016020810184811115610d7057600080fd5b8151856020820283011164010000000082111715610d8d57600080fd5b50909695505050505050565b600073__ClaimHolderLibrary____________________63bd2d0c28600060048a8a8a8a8a8a6040518963ffffffff1660e060020a0281526004018089815260200188815260200187815260200186815260200185600160a060020a0316600160a060020a03168152602001806020018060200180602001848103845287818151815260200191508051906020019080838360005b83811015610e46578181015183820152602001610e2e565b50505050905090810190601f168015610e735780820380516001836020036101000a031916815260200191505b50848103835286518152865160209182019188019080838360005b83811015610ea6578181015183820152602001610e8e565b50505050905090810190601f168015610ed35780820380516001836020036101000a031916815260200191505b50848103825285518152855160209182019187019080838360005b83811015610f06578181015183820152602001610eee565b50505050905090810190601f168015610f335780820380516001836020036101000a031916815260200191505b509b50505050505050505050505060206040518083038186803b158015610f5957600080fd5b505af4158015610f6d573d6000803e3d6000fd5b505050506040513d6020811015610f8357600080fd5b5051979650505050505050565b600073__KeyHolderLibrary______________________63e9356c6f60008686866040518563ffffffff1660e060020a0281526004018085815260200184600160a060020a0316600160a060020a0316815260200183815260200180602001828103825283818151815260200191508051906020019080838360005b8381101561102457818101518382015260200161100c565b50505050905090810190601f1680156110515780820380516001836020036101000a031916815260200191505b509550505050505060206040518083038186803b15801561082457600080fd5b6000806000606080606073__ClaimHolderLibrary____________________638522d0eb6004896040518363ffffffff1660e060020a0281526004018083815260200182600019166000191681526020019250505060006040518083038186803b1580156110de57600080fd5b505af41580156110f2573d6000803e3d6000fd5b505050506040513d6000823e601f3d908101601f1916820160405260c081101561111b57600080fd5b815160208301516040840151606085018051939592949193918301929164010000000081111561114a57600080fd5b8201602081018481111561115d57600080fd5b815164010000000081118282018710171561117757600080fd5b5050929190602001805164010000000081111561119357600080fd5b820160208101848111156111a657600080fd5b81516401000000008111828201871017156111c057600080fd5b505092919060200180516401000000008111156111dc57600080fd5b820160208101848111156111ef57600080fd5b815164010000000081118282018710171561120957600080fd5b505092919050505095509550955095509550955091939550919395565b604080517fd8188a400000000000000000000000000000000000000000000000000000000081526000600482018190526024820185905260448201849052915173__KeyHolderLibrary______________________9163d8188a40916064808301926020929190829003018186803b158015610b9957600080fd5b604080517f0f982bac00000000000000000000000000000000000000000000000000000000815260006004820181905260248201849052915160609273__KeyHolderLibrary______________________92630f982bac9260448083019392829003018186803b158015610d0857600080fd00a165627a7a7230582012c3faa8fd76478d892793ac067e13d14de82815c0b78827c3d11f1e3f3f77010029",
  "source": "pragma solidity ^0.4.24;\n\nimport './ClaimHolderRegistered.sol';\n\n/**\n * NOTE: This contract exists as a convenience for deploying an identity with\n * some 'pre-signed' claims. If you don't care about that, just use ClaimHolder\n * instead.\n */\n\ncontract ClaimHolderPresigned is ClaimHolderRegistered {\n\n    constructor(\n        address _userRegistryAddress,\n        uint256[] _topic,\n        address[] _issuer,\n        bytes _signature,\n        bytes _data,\n        uint256[] _offsets\n    )\n        ClaimHolderRegistered(_userRegistryAddress)\n        public\n    {\n        ClaimHolderLibrary.addClaims(\n            keyHolderData,\n            claims,\n            _topic,\n            _issuer,\n            _signature,\n            _data,\n            _offsets\n        );\n    }\n}\n",
  "sourcePath": "/Users/stan/Origin/origin-box/origin-js/contracts/contracts/identity/ClaimHolderPresigned.sol",
  "compiler": {
    "name": "solc",
    "version": "0.4.24+commit.e67f0147.Emscripten.clang"
  },
  "schemaVersion": "2.0.1",
  "updatedAt": "2018-09-20T16:17:49.792Z"
}