{
  "contractName": "ClaimHolderLibrary",
  "abi": [
    {
      "anonymous": false,
      "inputs": [
        {
          "indexed": true,
          "name": "claimId",
          "type": "bytes32"
        },
        {
          "indexed": true,
          "name": "topic",
          "type": "uint256"
        },
        {
          "indexed": false,
          "name": "scheme",
          "type": "uint256"
        },
        {
          "indexed": true,
          "name": "issuer",
          "type": "address"
        },
        {
          "indexed": false,
          "name": "signature",
          "type": "bytes"
        },
        {
          "indexed": false,
          "name": "data",
          "type": "bytes"
        },
        {
          "indexed": false,
          "name": "uri",
          "type": "string"
        }
      ],
      "name": "ClaimAdded",
      "type": "event"
    },
    {
      "anonymous": false,
      "inputs": [
        {
          "indexed": true,
          "name": "claimId",
          "type": "bytes32"
        },
        {
          "indexed": true,
          "name": "topic",
          "type": "uint256"
        },
        {
          "indexed": false,
          "name": "scheme",
          "type": "uint256"
        },
        {
          "indexed": true,
          "name": "issuer",
          "type": "address"
        },
        {
          "indexed": false,
          "name": "signature",
          "type": "bytes"
        },
        {
          "indexed": false,
          "name": "data",
          "type": "bytes"
        },
        {
          "indexed": false,
          "name": "uri",
          "type": "string"
        }
      ],
      "name": "ClaimRemoved",
      "type": "event"
    },
    {
      "constant": false,
      "inputs": [
        {
          "name": "_keyHolderData",
          "type": "KeyHolderLibrary.KeyHolderData storage"
        },
        {
          "name": "_claims",
          "type": "ClaimHolderLibrary.Claims storage"
        },
        {
          "name": "_topic",
          "type": "uint256"
        },
        {
          "name": "_scheme",
          "type": "uint256"
        },
        {
          "name": "_issuer",
          "type": "address"
        },
        {
          "name": "_signature",
          "type": "bytes"
        },
        {
          "name": "_data",
          "type": "bytes"
        },
        {
          "name": "_uri",
          "type": "string"
        }
      ],
      "name": "addClaim",
      "outputs": [
        {
          "name": "claimRequestId",
          "type": "bytes32"
        }
      ],
      "payable": false,
      "stateMutability": "nonpayable",
      "type": "function"
    },
    {
      "constant": false,
      "inputs": [
        {
          "name": "_keyHolderData",
          "type": "KeyHolderLibrary.KeyHolderData storage"
        },
        {
          "name": "_claims",
          "type": "ClaimHolderLibrary.Claims storage"
        },
        {
          "name": "_topic",
          "type": "uint256[]"
        },
        {
          "name": "_issuer",
          "type": "address[]"
        },
        {
          "name": "_signature",
          "type": "bytes"
        },
        {
          "name": "_data",
          "type": "bytes"
        },
        {
          "name": "_offsets",
          "type": "uint256[]"
        }
      ],
      "name": "addClaims",
      "outputs": [],
      "payable": false,
      "stateMutability": "nonpayable",
      "type": "function"
    },
    {
      "constant": false,
      "inputs": [
        {
          "name": "_keyHolderData",
          "type": "KeyHolderLibrary.KeyHolderData storage"
        },
        {
          "name": "_claims",
          "type": "ClaimHolderLibrary.Claims storage"
        },
        {
          "name": "_claimId",
          "type": "bytes32"
        }
      ],
      "name": "removeClaim",
      "outputs": [
        {
          "name": "success",
          "type": "bool"
        }
      ],
      "payable": false,
      "stateMutability": "nonpayable",
      "type": "function"
    },
    {
      "constant": true,
      "inputs": [
        {
          "name": "_claims",
          "type": "ClaimHolderLibrary.Claims storage"
        },
        {
          "name": "_claimId",
          "type": "bytes32"
        }
      ],
      "name": "getClaim",
      "outputs": [
        {
          "name": "topic",
          "type": "uint256"
        },
        {
          "name": "scheme",
          "type": "uint256"
        },
        {
          "name": "issuer",
          "type": "address"
        },
        {
          "name": "signature",
          "type": "bytes"
        },
        {
          "name": "data",
          "type": "bytes"
        },
        {
          "name": "uri",
          "type": "string"
        }
      ],
      "payable": false,
      "stateMutability": "view",
      "type": "function"
    }
  ],
  "bytecode": "0x61122a610030600b82828239805160001a6073146000811461002057610022565bfe5b5030600052607381538281f300730000000000000000000000000000000000000000301460806040526004361061005f5763ffffffff60e060020a600035041663428e59ee81146100645780635c02fae1146101b25780638522d0eb146101e4578063bd2d0c281461035d575b600080fd5b81801561007057600080fd5b5060408051602060046044358181013583810280860185019096528085526101b0958335956024803596369695606495939492019291829185019084908082843750506040805187358901803560208181028481018201909552818452989b9a99890198929750908201955093508392508501908490808284375050604080516020601f89358b018035918201839004830284018301909452808352979a99988101979196509182019450925082915084018382808284375050604080516020601f89358b018035918201839004830284018301909452808352979a999881019791965091820194509250829150840183828082843750506040805187358901803560208181028481018201909552818452989b9a9989019892975090820195509350839250850190849080828437509497506104609650505050505050565b005b8180156101be57600080fd5b506101d060043560243560443561052c565b604080519115158252519081900360200190f35b6101f2600435602435610944565b6040518087815260200186815260200185600160a060020a0316600160a060020a03168152602001806020018060200180602001848103845287818151815260200191508051906020019080838360005b8381101561025b578181015183820152602001610243565b50505050905090810190601f1680156102885780820380516001836020036101000a031916815260200191505b50848103835286518152865160209182019188019080838360005b838110156102bb5781810151838201526020016102a3565b50505050905090810190601f1680156102e85780820380516001836020036101000a031916815260200191505b50848103825285518152855160209182019187019080838360005b8381101561031b578181015183820152602001610303565b50505050905090810190601f1680156103485780820380516001836020036101000a031916815260200191505b50995050505050505050505060405180910390f35b81801561036957600080fd5b50604080516020600460a43581810135601f810184900484028501840190955284845261044e9482359460248035956044359560643595608435600160a060020a0316953695929460c494920191819084018382808284375050604080516020601f89358b018035918201839004830284018301909452808352979a99988101979196509182019450925082915084018382808284375050604080516020601f89358b018035918201839004830284018301909452808352979a999881019791965091820194509250829150840183828082843750949750610b449650505050505050565b60408051918252519081900360200190f35b6000805b86518160ff161015610521576104f88989898460ff1681518110151561048657fe5b9060200190602002015160018a8660ff168151811015156104a357fe5b906020019060200201516104bf8b8860410260ff166041611025565b6104e48b8a8c8b60ff168151811015156104d557fe5b90602001906020020151611025565b604080516020810190915260008152610b44565b50828160ff1681518110151561050a57fe5b602090810290910101519190910190600101610464565b505050505050505050565b60003330146106f25773__KeyHolderLibrary______________________63d8188a4085336040516020018082600160a060020a0316600160a060020a03166c010000000000000000000000000281526014019150506040516020818303038152906040526040518082805190602001908083835b602083106105c05780518252601f1990920191602091820191016105a1565b51815160209384036101000a60001901801990921691161790526040805192909401829003822063ffffffff891660e060020a0283526004830197909752602482019690965260016044820152915160648084019695509093509183900390910190508186803b15801561063357600080fd5b505af4158015610647573d6000803e3d6000fd5b505050506040513d602081101561065d57600080fd5b505115156106f257604080517f08c379a000000000000000000000000000000000000000000000000000000000815260206004820152602360248201527f53656e64657220646f6573206e6f742068617665206d616e6167656d656e742060448201527f6b65790000000000000000000000000000000000000000000000000000000000606482015290519081900360840190fd5b6000828152602084815260409182902060028082015482546001808501548751818152608097810188815260038801805494851615610100026000190190941696909604978101889052600160a060020a039094169792968a967f3cf57863a89432c61c4a27073c6ee39e8a764bff5a05aebfbcdcdc80b2e6130a96929593946004820194600590920193919290830190606084019060a0850190889080156107dc5780601f106107b1576101008083540402835291602001916107dc565b820191906000526020600020905b8154815290600101906020018083116107bf57829003601f168201915b50508481038352865460026000196101006001841615020190911604808252602090910190879080156108505780601f1061082557610100808354040283529160200191610850565b820191906000526020600020905b81548152906001019060200180831161083357829003601f168201915b50508481038252855460026000196101006001841615020190911604808252602090910190869080156108c45780601f10610899576101008083540402835291602001916108c4565b820191906000526020600020905b8154815290600101906020018083116108a757829003601f168201915b505097505050505050505060405180910390a460008281526020849052604081208181556001810182905560028101805473ffffffffffffffffffffffffffffffffffffffff191690559061091c600383018261111c565b61092a60048301600061111c565b61093860058301600061111c565b50600195945050505050565b60008181526020838152604080832080546001808301546002808501546003860180548851601f968216156101000260001901909116939093049485018990048902830189019097528382528897889760609788978897909695600160a060020a039095169492936004830193600590930192918591830182828015610a0b5780601f106109e057610100808354040283529160200191610a0b565b820191906000526020600020905b8154815290600101906020018083116109ee57829003601f168201915b5050855460408051602060026001851615610100026000190190941693909304601f810184900484028201840190925281815295985087945092508401905082828015610a995780601f10610a6e57610100808354040283529160200191610a99565b820191906000526020600020905b815481529060010190602001808311610a7c57829003601f168201915b5050845460408051602060026001851615610100026000190190941693909304601f810184900484028201840190925281815295975086945092508401905082828015610b275780601f10610afc57610100808354040283529160200191610b27565b820191906000526020600020905b815481529060010190602001808311610b0a57829003601f168201915b505050505090509550955095509550955095509295509295509295565b600080333014610d0b5773__KeyHolderLibrary______________________63d8188a408b336040516020018082600160a060020a0316600160a060020a03166c010000000000000000000000000281526014019150506040516020818303038152906040526040518082805190602001908083835b60208310610bd95780518252601f199092019160209182019101610bba565b51815160209384036101000a60001901801990921691161790526040805192909401829003822063ffffffff891660e060020a0283526004830197909752602482019690965260036044820152915160648084019695509093509183900390910190508186803b158015610c4c57600080fd5b505af4158015610c60573d6000803e3d6000fd5b505050506040513d6020811015610c7657600080fd5b50511515610d0b57604080517f08c379a000000000000000000000000000000000000000000000000000000000815260206004820152602560248201527f53656e64657220646f6573206e6f74206861766520636c61696d207369676e6560448201527f72206b6579000000000000000000000000000000000000000000000000000000606482015290519081900360840190fd5b85886040516020018083600160a060020a0316600160a060020a03166c01000000000000000000000000028152601401828152602001925050506040516020818303038152906040526040518082805190602001908083835b60208310610d835780518252601f199092019160209182019101610d64565b51815160209384036101000a600019018019909216911617905260408051929094018290039091206000818152918f90529290206002015491945050600160a060020a038981169116149150610df990505760008881526001808b01602090815260408320805492830181558352909120018190555b600081815260208a815260409091208981556001810189905560028101805473ffffffffffffffffffffffffffffffffffffffff1916600160a060020a038a161790558651610e5092600390920191880190611163565b50600081815260208a815260409091208551610e7492600490920191870190611163565b50600081815260208a815260409091208451610e9892600590920191860190611163565b5085600160a060020a03168882600019167f46149b18aa084502c3f12bc75e19eda8bda8d102b82cce8474677a6d0d5f43c58a89898960405180858152602001806020018060200180602001848103845287818151815260200191508051906020019080838360005b83811015610f19578181015183820152602001610f01565b50505050905090810190601f168015610f465780820380516001836020036101000a031916815260200191505b50848103835286518152865160209182019188019080838360005b83811015610f79578181015183820152602001610f61565b50505050905090810190601f168015610fa65780820380516001836020036101000a031916815260200191505b50848103825285518152855160209182019187019080838360005b83811015610fd9578181015183820152602001610fc1565b50505050905090810190601f1680156110065780820380516001836020036101000a031916815260200191505b5097505050505050505060405180910390a49998505050505050505050565b606080600080846040519080825280601f01601f191660200182016040528015611059578160200160208202803883390190505b509250600091508590505b84860181101561111157868181518110151561107c57fe5b9060200101517f010000000000000000000000000000000000000000000000000000000000000090047f01000000000000000000000000000000000000000000000000000000000000000283838151811015156110d557fe5b9060200101907effffffffffffffffffffffffffffffffffffffffffffffffffffffffffffff1916908160001a90535060019182019101611064565b509095945050505050565b50805460018160011615610100020316600290046000825580601f106111425750611160565b601f01602090049060005260206000209081019061116091906111e1565b50565b828054600181600116156101000203166002900490600052602060002090601f016020900481019282601f106111a457805160ff19168380011785556111d1565b828001600101855582156111d1579182015b828111156111d15782518255916020019190600101906111b6565b506111dd9291506111e1565b5090565b6111fb91905b808211156111dd57600081556001016111e7565b905600a165627a7a7230582010016fdac864c8625596b4fc565552b0fc22c7f98c31c258b35f38bc235be9100029",
  "source": "pragma solidity ^0.4.24;\n\nimport './KeyHolderLibrary.sol';\n\nlibrary ClaimHolderLibrary {\n  event ClaimAdded(bytes32 indexed claimId, uint256 indexed topic, uint256 scheme, address indexed issuer, bytes signature, bytes data, string uri);\n  event ClaimRemoved(bytes32 indexed claimId, uint256 indexed topic, uint256 scheme, address indexed issuer, bytes signature, bytes data, string uri);\n\n  struct Claim {\n      uint256 topic;\n      uint256 scheme;\n      address issuer; // msg.sender\n      bytes signature; // this.address + topic + data\n      bytes data;\n      string uri;\n  }\n\n  struct Claims {\n      mapping (bytes32 => Claim) byId;\n      mapping (uint256 => bytes32[]) byTopic;\n  }\n\n  function addClaim(\n      KeyHolderLibrary.KeyHolderData storage _keyHolderData,\n      Claims storage _claims,\n      uint256 _topic,\n      uint256 _scheme,\n      address _issuer,\n      bytes _signature,\n      bytes _data,\n      string _uri\n  )\n      public\n      returns (bytes32 claimRequestId)\n  {\n      if (msg.sender != address(this)) {\n        require(KeyHolderLibrary.keyHasPurpose( _keyHolderData, keccak256(abi.encodePacked(msg.sender)), 3), \"Sender does not have claim signer key\");\n      }\n\n      bytes32 claimId = keccak256(abi.encodePacked(_issuer, _topic));\n\n      if (_claims.byId[claimId].issuer != _issuer) {\n          _claims.byTopic[_topic].push(claimId);\n      }\n\n      _claims.byId[claimId].topic = _topic;\n      _claims.byId[claimId].scheme = _scheme;\n      _claims.byId[claimId].issuer = _issuer;\n      _claims.byId[claimId].signature = _signature;\n      _claims.byId[claimId].data = _data;\n      _claims.byId[claimId].uri = _uri;\n\n      emit ClaimAdded(\n          claimId,\n          _topic,\n          _scheme,\n          _issuer,\n          _signature,\n          _data,\n          _uri\n      );\n\n      return claimId;\n  }\n\n  function addClaims(\n      KeyHolderLibrary.KeyHolderData storage _keyHolderData,\n      Claims storage _claims,\n      uint256[] _topic,\n      address[] _issuer,\n      bytes _signature,\n      bytes _data,\n      uint256[] _offsets\n  )\n      public\n  {\n      uint offset = 0;\n      for (uint8 i = 0; i < _topic.length; i++) {\n          addClaim(\n            _keyHolderData,\n            _claims,\n            _topic[i],\n            1,\n            _issuer[i],\n            getBytes(_signature, (i * 65), 65),\n            getBytes(_data, offset, _offsets[i]),\n            \"\"\n          );\n          offset += _offsets[i];\n      }\n  }\n\n  function removeClaim(\n      KeyHolderLibrary.KeyHolderData storage _keyHolderData,\n      Claims storage _claims,\n      bytes32 _claimId\n  )\n      public\n      returns (bool success)\n  {\n      if (msg.sender != address(this)) {\n        require(KeyHolderLibrary.keyHasPurpose(_keyHolderData, keccak256(abi.encodePacked(msg.sender)), 1), \"Sender does not have management key\");\n      }\n\n      emit ClaimRemoved(\n          _claimId,\n          _claims.byId[_claimId].topic,\n          _claims.byId[_claimId].scheme,\n          _claims.byId[_claimId].issuer,\n          _claims.byId[_claimId].signature,\n          _claims.byId[_claimId].data,\n          _claims.byId[_claimId].uri\n      );\n\n      delete _claims.byId[_claimId];\n      return true;\n  }\n\n  function getClaim(Claims storage _claims, bytes32 _claimId)\n      public\n      constant\n      returns(\n          uint256 topic,\n          uint256 scheme,\n          address issuer,\n          bytes signature,\n          bytes data,\n          string uri\n      )\n  {\n      return (\n          _claims.byId[_claimId].topic,\n          _claims.byId[_claimId].scheme,\n          _claims.byId[_claimId].issuer,\n          _claims.byId[_claimId].signature,\n          _claims.byId[_claimId].data,\n          _claims.byId[_claimId].uri\n      );\n  }\n\n  function getBytes(bytes _str, uint256 _offset, uint256 _length)\n      internal\n      pure\n      returns (bytes)\n  {\n      bytes memory sig = new bytes(_length);\n      uint256 j = 0;\n      for (uint256 k = _offset; k< _offset + _length; k++) {\n        sig[j] = _str[k];\n        j++;\n      }\n      return sig;\n  }\n}\n",
  "sourcePath": "/Users/stan/Origin/origin-box/origin-js/contracts/contracts/identity/ClaimHolderLibrary.sol",
  "compiler": {
    "name": "solc",
    "version": "0.4.24+commit.e67f0147.Emscripten.clang"
  },
  "schemaVersion": "2.0.1",
  "updatedAt": "2018-09-20T16:17:49.818Z"
}