{
  "contractName": "ClaimVerifier",
  "abi": [
    {
      "constant": true,
      "inputs": [],
      "name": "trustedClaimHolder",
      "outputs": [
        {
          "name": "",
          "type": "address"
        }
      ],
      "payable": false,
      "stateMutability": "view",
      "type": "function"
    },
    {
      "inputs": [
        {
          "name": "_trustedClaimHolder",
          "type": "address"
        }
      ],
      "payable": false,
      "stateMutability": "nonpayable",
      "type": "constructor"
    },
    {
      "anonymous": false,
      "inputs": [
        {
          "indexed": false,
          "name": "_identity",
          "type": "address"
        },
        {
          "indexed": false,
          "name": "topic",
          "type": "uint256"
        }
      ],
      "name": "ClaimValid",
      "type": "event"
    },
    {
      "anonymous": false,
      "inputs": [
        {
          "indexed": false,
          "name": "_identity",
          "type": "address"
        },
        {
          "indexed": false,
          "name": "topic",
          "type": "uint256"
        }
      ],
      "name": "ClaimInvalid",
      "type": "event"
    },
    {
      "constant": false,
      "inputs": [
        {
          "name": "_identity",
          "type": "address"
        },
        {
          "name": "topic",
          "type": "uint256"
        }
      ],
      "name": "checkClaim",
      "outputs": [
        {
          "name": "claimValid",
          "type": "bool"
        }
      ],
      "payable": false,
      "stateMutability": "nonpayable",
      "type": "function"
    },
    {
      "constant": true,
      "inputs": [
        {
          "name": "_identity",
          "type": "address"
        },
        {
          "name": "topic",
          "type": "uint256"
        }
      ],
      "name": "claimIsValid",
      "outputs": [
        {
          "name": "claimValid",
          "type": "bool"
        }
      ],
      "payable": false,
      "stateMutability": "view",
      "type": "function"
    },
    {
      "constant": true,
      "inputs": [
        {
          "name": "sig",
          "type": "bytes"
        },
        {
          "name": "dataHash",
          "type": "bytes32"
        }
      ],
      "name": "getRecoveredAddress",
      "outputs": [
        {
          "name": "addr",
          "type": "address"
        }
      ],
      "payable": false,
      "stateMutability": "pure",
      "type": "function"
    }
  ],
  "bytecode": "0x608060405234801561001057600080fd5b5060405160208061089f833981016040525160008054600160a060020a03909216600160a060020a031990921691909117905561084d806100526000396000f3006080604052600436106100615763ffffffff7c01000000000000000000000000000000000000000000000000000000006000350416630382ad268114610066578063369383541461009e5780639fecd554146100cf578063c3b129e3146100f3575b600080fd5b34801561007257600080fd5b5061008a600160a060020a036004351660243561014e565b604080519115158252519081900360200190f35b3480156100aa57600080fd5b506100b36101f9565b60408051600160a060020a039092168252519081900360200190f35b3480156100db57600080fd5b5061008a600160a060020a0360043516602435610208565b3480156100ff57600080fd5b506040805160206004803580820135601f81018490048402850184019095528484526100b394369492936024939284019190819084018382808284375094975050933594506107669350505050565b600061015a8383610208565b156101ab5760408051600160a060020a03851681526020810184905281517f5637aa6b77cde2de563765b75a65099af73d3bf22cb9d089a64a01777823208e929181900390910190a15060016101f3565b60408051600160a060020a03851681526020810184905281517fc1e461cfcaa9ff5efbb053582a325fbfebec1d94ac7e9d9958ee7f74c2b6b558929181900390910190a15060005b92915050565b600054600160a060020a031681565b60008060008060608060008060008060008060009054906101000a9004600160a060020a03168c6040516020018083600160a060020a0316600160a060020a03166c01000000000000000000000000028152601401828152602001925050506040516020818303038152906040526040518082805190602001908083835b602083106102a55780518252601f199092019160209182019101610286565b6001836020036101000a038019825116818451168082178552505050505050905001915050604051809103902094508c600160a060020a031663c9100bcb866040518263ffffffff167c0100000000000000000000000000000000000000000000000000000000028152600401808260001916600019168152602001915050600060405180830381600087803b15801561033e57600080fd5b505af1158015610352573d6000803e3d6000fd5b505050506040513d6000823e601f3d908101601f1916820160405260c081101561037b57600080fd5b81516020830151604084015160608501805193959294919391830192916401000000008111156103aa57600080fd5b820160208101848111156103bd57600080fd5b81516401000000008111828201871017156103d757600080fd5b505092919060200180516401000000008111156103f357600080fd5b8201602081018481111561040657600080fd5b815164010000000081118282018710171561042057600080fd5b5050929190602001805164010000000081111561043c57600080fd5b8201602081018481111561044f57600080fd5b815164010000000081118282018710171561046957600080fd5b505092919050505050809a50819b50829c50839d50849e5050505050508c8c876040516020018084600160a060020a0316600160a060020a03166c0100000000000000000000000002815260140183815260200182805190602001908083835b602083106104e85780518252601f1990920191602091820191016104c9565b6001836020036101000a03801982511681845116808217855250505050505090500193505050506040516020818303038152906040526040518082805190602001908083835b6020831061054d5780518252601f19909201916020918201910161052e565b51815160209384036101000a6000190180199092169116179052604080519290940182900382207f19457468657265756d205369676e6564204d6573736167653a0a33320000000083830152603c80840182905285518085039091018152605c909301948590528251909a509195509293508392850191508083835b602083106105e85780518252601f1990920191602091820191016105c9565b6001836020036101000a038019825116818451168082178552505050505050905001915050604051809103902092506106218784610766565b9150816040516020018082600160a060020a0316600160a060020a03166c010000000000000000000000000281526014019150506040516020818303038152906040526040518082805190602001908083835b602083106106935780518252601f199092019160209182019101610674565b51815160209384036101000a600019018019909216911617905260408051929094018290038220600080547fd202158d00000000000000000000000000000000000000000000000000000000855260048501839052600360248601529551919850600160a060020a03909516965063d202158d955060448084019592945090928390030190829087803b15801561072957600080fd5b505af115801561073d573d6000803e3d6000fd5b505050506040513d602081101561075357600080fd5b50519d9c50505050505050505050505050565b6000806000806000865160411415156107825760009450610817565b6020870151935060408701519250606087015160001a9150601b8260ff1610156107ad57601b820191505b60408051600080825260208083018085528a905260ff8616838501526060830188905260808301879052925160019360a0808501949193601f19840193928390039091019190865af1158015610807573d6000803e3d6000fd5b5050506020604051035190508094505b50505050929150505600a165627a7a72305820bd135391e3a58e4218aa7f81b6ed936a8d98d499e508eb2b89c3132c945e82240029",
  "source": "pragma solidity ^0.4.24;\n\nimport './ClaimHolder.sol';\n\ncontract ClaimVerifier {\n\n  event ClaimValid(ClaimHolder _identity, uint256 topic);\n  event ClaimInvalid(ClaimHolder _identity, uint256 topic);\n\n  ClaimHolder public trustedClaimHolder;\n\n  constructor(address _trustedClaimHolder) public {\n    trustedClaimHolder = ClaimHolder(_trustedClaimHolder);\n  }\n\n  function checkClaim(ClaimHolder _identity, uint256 topic)\n    public\n    returns (bool claimValid)\n  {\n    if (claimIsValid(_identity, topic)) {\n      emit ClaimValid(_identity, topic);\n      return true;\n    } else {\n      emit ClaimInvalid(_identity, topic);\n      return false;\n    }\n  }\n\n  function claimIsValid(ClaimHolder _identity, uint256 topic)\n    public\n    constant\n    returns (bool claimValid)\n  {\n    uint256 foundTopic;\n    uint256 scheme;\n    address issuer;\n    bytes memory sig;\n    bytes memory data;\n\n    // Construct claimId (identifier + claim type)\n    bytes32 claimId = keccak256(abi.encodePacked(trustedClaimHolder, topic));\n\n    // Fetch claim from user\n    ( foundTopic, scheme, issuer, sig, data, ) = _identity.getClaim(claimId);\n\n    bytes32 dataHash = keccak256(abi.encodePacked(_identity, topic, data));\n    bytes32 prefixedHash = keccak256(abi.encodePacked(\"\\x19Ethereum Signed Message:\\n32\", dataHash));\n\n    // Recover address of data signer\n    address recovered = getRecoveredAddress(sig, prefixedHash);\n\n    // Take hash of recovered address\n    bytes32 hashedAddr = keccak256(abi.encodePacked(recovered));\n\n    // Does the trusted identifier have they key which signed the user's claim?\n    return trustedClaimHolder.keyHasPurpose(hashedAddr, 3);\n  }\n\n  function getRecoveredAddress(bytes sig, bytes32 dataHash)\n      public\n      pure\n      returns (address addr)\n  {\n      bytes32 ra;\n      bytes32 sa;\n      uint8 va;\n\n      // Check the signature length\n      if (sig.length != 65) {\n        return (0);\n      }\n\n      // Divide the signature in r, s and v variables\n      assembly {\n        ra := mload(add(sig, 32))\n        sa := mload(add(sig, 64))\n        va := byte(0, mload(add(sig, 96)))\n      }\n\n      if (va < 27) {\n        va += 27;\n      }\n\n      address recoveredAddress = ecrecover(dataHash, va, ra, sa);\n\n      return (recoveredAddress);\n  }\n\n}\n",
  "sourcePath": "/Users/stan/Origin/origin-box/origin-js/contracts/contracts/identity/ClaimVerifier.sol",
  "compiler": {
    "name": "solc",
    "version": "0.4.24+commit.e67f0147.Emscripten.clang"
  },
  "schemaVersion": "2.0.1",
  "updatedAt": "2018-09-20T16:13:54.119Z"
}