{
  "contractName": "KeyHolderLibrary",
  "abi": [
    {
      "anonymous": false,
      "inputs": [
        {
          "indexed": true,
          "name": "key",
          "type": "bytes32"
        },
        {
          "indexed": true,
          "name": "purpose",
          "type": "uint256"
        },
        {
          "indexed": true,
          "name": "keyType",
          "type": "uint256"
        }
      ],
      "name": "KeyAdded",
      "type": "event"
    },
    {
      "anonymous": false,
      "inputs": [
        {
          "indexed": true,
          "name": "key",
          "type": "bytes32"
        },
        {
          "indexed": true,
          "name": "purpose",
          "type": "uint256"
        },
        {
          "indexed": true,
          "name": "keyType",
          "type": "uint256"
        }
      ],
      "name": "KeyRemoved",
      "type": "event"
    },
    {
      "anonymous": false,
      "inputs": [
        {
          "indexed": true,
          "name": "executionId",
          "type": "uint256"
        },
        {
          "indexed": true,
          "name": "to",
          "type": "address"
        },
        {
          "indexed": true,
          "name": "value",
          "type": "uint256"
        },
        {
          "indexed": false,
          "name": "data",
          "type": "bytes"
        }
      ],
      "name": "ExecutionRequested",
      "type": "event"
    },
    {
      "anonymous": false,
      "inputs": [
        {
          "indexed": true,
          "name": "executionId",
          "type": "uint256"
        },
        {
          "indexed": true,
          "name": "to",
          "type": "address"
        },
        {
          "indexed": true,
          "name": "value",
          "type": "uint256"
        },
        {
          "indexed": false,
          "name": "data",
          "type": "bytes"
        }
      ],
      "name": "ExecutionFailed",
      "type": "event"
    },
    {
      "anonymous": false,
      "inputs": [
        {
          "indexed": true,
          "name": "executionId",
          "type": "uint256"
        },
        {
          "indexed": true,
          "name": "to",
          "type": "address"
        },
        {
          "indexed": true,
          "name": "value",
          "type": "uint256"
        },
        {
          "indexed": false,
          "name": "data",
          "type": "bytes"
        }
      ],
      "name": "Executed",
      "type": "event"
    },
    {
      "anonymous": false,
      "inputs": [
        {
          "indexed": true,
          "name": "executionId",
          "type": "uint256"
        },
        {
          "indexed": false,
          "name": "approved",
          "type": "bool"
        }
      ],
      "name": "Approved",
      "type": "event"
    },
    {
      "constant": false,
      "inputs": [
        {
          "name": "_keyHolderData",
          "type": "KeyHolderLibrary.KeyHolderData storage"
        }
      ],
      "name": "init",
      "outputs": [],
      "payable": false,
      "stateMutability": "nonpayable",
      "type": "function"
    },
    {
      "constant": true,
      "inputs": [
        {
          "name": "_keyHolderData",
          "type": "KeyHolderLibrary.KeyHolderData storage"
        },
        {
          "name": "_key",
          "type": "bytes32"
        }
      ],
      "name": "getKey",
      "outputs": [
        {
          "name": "purposes",
          "type": "uint256[]"
        },
        {
          "name": "keyType",
          "type": "uint256"
        },
        {
          "name": "key",
          "type": "bytes32"
        }
      ],
      "payable": false,
      "stateMutability": "view",
      "type": "function"
    },
    {
      "constant": true,
      "inputs": [
        {
          "name": "_keyHolderData",
          "type": "KeyHolderLibrary.KeyHolderData storage"
        },
        {
          "name": "_key",
          "type": "bytes32"
        }
      ],
      "name": "getKeyPurposes",
      "outputs": [
        {
          "name": "purposes",
          "type": "uint256[]"
        }
      ],
      "payable": false,
      "stateMutability": "view",
      "type": "function"
    },
    {
      "constant": true,
      "inputs": [
        {
          "name": "_keyHolderData",
          "type": "KeyHolderLibrary.KeyHolderData storage"
        },
        {
          "name": "_purpose",
          "type": "uint256"
        }
      ],
      "name": "getKeysByPurpose",
      "outputs": [
        {
          "name": "_keys",
          "type": "bytes32[]"
        }
      ],
      "payable": false,
      "stateMutability": "view",
      "type": "function"
    },
    {
      "constant": false,
      "inputs": [
        {
          "name": "_keyHolderData",
          "type": "KeyHolderLibrary.KeyHolderData storage"
        },
        {
          "name": "_key",
          "type": "bytes32"
        },
        {
          "name": "_purpose",
          "type": "uint256"
        },
        {
          "name": "_type",
          "type": "uint256"
        }
      ],
      "name": "addKey",
      "outputs": [
        {
          "name": "success",
          "type": "bool"
        }
      ],
      "payable": false,
      "stateMutability": "nonpayable",
      "type": "function"
    },
    {
      "constant": false,
      "inputs": [
        {
          "name": "_keyHolderData",
          "type": "KeyHolderLibrary.KeyHolderData storage"
        },
        {
          "name": "_id",
          "type": "uint256"
        },
        {
          "name": "_approve",
          "type": "bool"
        }
      ],
      "name": "approve",
      "outputs": [
        {
          "name": "success",
          "type": "bool"
        }
      ],
      "payable": false,
      "stateMutability": "nonpayable",
      "type": "function"
    },
    {
      "constant": false,
      "inputs": [
        {
          "name": "_keyHolderData",
          "type": "KeyHolderLibrary.KeyHolderData storage"
        },
        {
          "name": "_to",
          "type": "address"
        },
        {
          "name": "_value",
          "type": "uint256"
        },
        {
          "name": "_data",
          "type": "bytes"
        }
      ],
      "name": "execute",
      "outputs": [
        {
          "name": "executionId",
          "type": "uint256"
        }
      ],
      "payable": false,
      "stateMutability": "nonpayable",
      "type": "function"
    },
    {
      "constant": false,
      "inputs": [
        {
          "name": "_keyHolderData",
          "type": "KeyHolderLibrary.KeyHolderData storage"
        },
        {
          "name": "_key",
          "type": "bytes32"
        },
        {
          "name": "_purpose",
          "type": "uint256"
        }
      ],
      "name": "removeKey",
      "outputs": [
        {
          "name": "success",
          "type": "bool"
        }
      ],
      "payable": false,
      "stateMutability": "nonpayable",
      "type": "function"
    },
    {
      "constant": true,
      "inputs": [
        {
          "name": "_keyHolderData",
          "type": "KeyHolderLibrary.KeyHolderData storage"
        },
        {
          "name": "_key",
          "type": "bytes32"
        },
        {
          "name": "_purpose",
          "type": "uint256"
        }
      ],
      "name": "keyHasPurpose",
      "outputs": [
        {
          "name": "result",
          "type": "bool"
        }
      ],
      "payable": false,
      "stateMutability": "view",
      "type": "function"
    }
  ],
  "bytecode": "0x6112bf610030600b82828239805160001a6073146000811461002057610022565bfe5b5030600052607381538281f30073000000000000000000000000000000000000000030146080604052600436106100af5763ffffffff7c01000000000000000000000000000000000000000000000000000000006000350416630f982bac81146100b457806330864be5146101125780633f47616d1461012c5780635d601c3a1461015e57806367d4865f1461017f578063746199f91461019f578063b01a9fb3146101ad578063d8188a401461021c578063e9356c6f1461022d575b600080fd5b6100c26004356024356102ae565b60408051602080825283518183015283519192839290830191858101910280838360005b838110156100fe5781810151838201526020016100e6565b505050509050019250505060405180910390f35b81801561011e57600080fd5b5061012a600435610313565b005b81801561013857600080fd5b5061014a600435602435604435610417565b604080519115158252519081900360200190f35b81801561016a57600080fd5b5061014a600435602435604435606435610799565b81801561018b57600080fd5b5061014a600435602435604435151561097e565b6100c2600435602435610db4565b6101bb600435602435610e19565b60408051602080820185905291810183905260608082528551908201528451909182916080830191878101910280838360005b838110156102065781810151838201526020016101ee565b5050505090500194505050505060405180910390f35b61014a600435602435604435610e95565b81801561023957600080fd5b50604080516020601f60643560048181013592830184900484028501840190955281845261029c94803594600160a060020a036024803591909116956044359536956084949301918190840183828082843750949750610f1b9650505050505050565b60408051918252519081900360200190f35b600081815260018301602090815260409182902080548351818402810184019094528084526060939283018282801561030657602002820191906000526020600020905b8154815260200190600101908083116102f2575b5050505050905092915050565b604080516c010000000000000000000000003302602080830191909152825180830360140181526034909201928390528151600093918291908401908083835b602083106103725780518252601f199092019160209182019101610353565b51815160209384036101000a600019018019909216911617905260408051929094018290038220600081815260018a81018452868220600280820185905581548084018355828552868520018390559082018290558183528b01845295812080548088018255908252928120909201819055965092945084935085927f480000bb1edad8ca1470381cc334b1917fbd51c6531f3a623ea8e0ec7e38a6e9925090a45050565b600080808080333014610548576104cc88336040516020018082600160a060020a0316600160a060020a03166c010000000000000000000000000281526014019150506040516020818303038152906040526040518082805190602001908083835b602083106104985780518252601f199092019160209182019101610479565b6001836020036101000a03801982511681845116808217855250505050505090500191505060405180910390206001610e95565b1515610548576040805160e560020a62461bcd02815260206004820152602360248201527f53656e64657220646f6573206e6f742068617665206d616e6167656d656e742060448201527f6b65790000000000000000000000000000000000000000000000000000000000606482015290519081900360840190fd5b600087815260018901602052604090206002015487146105b2576040805160e560020a62461bcd02815260206004820152600b60248201527f4e6f2073756368206b6579000000000000000000000000000000000000000000604482015290519081900360640190fd5b60008781526001808a016020526040808320909101549051909188918a917f585a4aef50f8267a92b32412b331b20f7f8b96f2245b253b9cc50dcc621d339791a460008781526001890160205260408120945092505b83548310156106a65785848481548110151561062057fe5b9060005260206000200154141561069b5783548490600019810190811061064357fe5b9060005260206000200154848481548110151561065c57fe5b60009182526020909120015583548490600019810190811061067a57fe5b600091825260208220015583546106958560001983016111ae565b506106a6565b600190920191610608565b835415156106da5760008781526001890160205260408120906106c982826111d7565b506000600182018190556002909101555b505060008481526002870160205260408120905b815481101561078b578154879083908390811061070757fe5b60009182526020909120015414156107835781548290600019810190811061072b57fe5b9060005260206000200154828281548110151561074457fe5b60009182526020909120015581548290600019810190811061076257fe5b6000918252602082200155815461077d8360001983016111ae565b5061078b565b6001016106ee565b506001979650505050505050565b6000838152600185016020526040812060020154841415610804576040805160e560020a62461bcd02815260206004820152601260248201527f4b657920616c7265616479206578697374730000000000000000000000000000604482015290519081900360640190fd5b3330146108fa5761087e85336040516020018082600160a060020a0316600160a060020a03166c01000000000000000000000000028152601401915050604051602081830303815290604052604051808280519060200190808383602083106104985780518252601f199092019160209182019101610479565b15156108fa576040805160e560020a62461bcd02815260206004820152602360248201527f53656e64657220646f6573206e6f742068617665206d616e6167656d656e742060448201527f6b65790000000000000000000000000000000000000000000000000000000000606482015290519081900360840190fd5b600084815260018087016020908152604080842060028082018a9055815480860183558287528487200189905590840187905587855289018252808420805493840181558452908320909101869055518391859187917f480000bb1edad8ca1470381cc334b1917fbd51c6531f3a623ea8e0ec7e38a6e991a4506001949350505050565b6000610a2884336040516020018082600160a060020a0316600160a060020a03166c010000000000000000000000000281526014019150506040516020818303038152906040526040518082805190602001908083835b602083106109f45780518252601f1990920191602091820191016109d5565b6001836020036101000a03801982511681845116808217855250505050505090500191505060405180910390206002610e95565b1515610a7e576040805160e560020a62461bcd02815260206004820152601f60248201527f53656e64657220646f6573206e6f74206861766520616374696f6e206b657900604482015290519081900360640190fd5b6000838152600385810160205260409091200154610100900460ff1615610aef576040805160e560020a62461bcd02815260206004820152601060248201527f416c726561647920657865637574656400000000000000000000000000000000604482015290519081900360640190fd5b604080518315158152905184917fb3932da477fe5d6c8ff2eafef050c0f3a1af18fc07121001482600f36f3715d8919081900360200190a260018215151415610d8e57600083815260038086016020526040808320918201805460ff191660019081179091558254915160029384018054600160a060020a03909416959094909391928392869260001992821615610100029290920116048015610bd45780601f10610ba957610100808354040283529160200191610bd4565b820191906000526020600020905b815481529060010190602001808311610bb757829003601f168201915b50508260ff168152602001925050506000604051808303816000865af191505090508015610cec57600083815260038581016020908152604092839020918201805461010061ff00199091168117909155600180840154845486518581526002968701805494851615909502600019019093169590950493820184905294600160a060020a039094169388937f1f920dbda597d7bf95035464170fa58d0a4b57f13a1c315ace6793b9f63688b893929182919082019084908015610cd95780601f10610cae57610100808354040283529160200191610cd9565b820191906000526020600020905b815481529060010190602001808311610cbc57829003601f168201915b50509250505060405180910390a4610dad565b60008381526003850160209081526040918290206001808201548254855185815260029485018054600019958116156101000295909501909416949094049484018590529094600160a060020a039091169388937fe10c49d9f7c71da23262367013434763cfdb2332267641728d25cd712c5c6a6893929091829182019084908015610cd95780601f10610cae57610100808354040283529160200191610cd9565b60008381526003808601602052604090912001805460ff191690555060015b9392505050565b600081815260028301602090815260409182902080548351818402810184019094528084526060939283018282801561030657602002820191906000526020600020905b81548152600190910190602001808311610df8575050505050905092915050565b600081815260018084016020908152604080842092830154600284015484548351818602810186019094528084526060969586959094918591830182828015610e8157602002820191906000526020600020905b815481526020019060010190808311610e6d575b505050505092509250925092509250925092565b60008281526001840160205260408120600201548190819081901515610ebe5760009350610f11565b505060008481526001860160205260408120905b8154811015610f0d57848282815481101515610eea57fe5b9060005260206000200154111515610f055760019250610f0d565b600101610ed2565b8293505b5050509392505050565b835460009081526003808601602052604082200154610100900460ff1615610f8d576040805160e560020a62461bcd02815260206004820152601060248201527f416c726561647920657865637574656400000000000000000000000000000000604482015290519081900360640190fd5b845460009081526003860160209081526040808320805473ffffffffffffffffffffffffffffffffffffffff1916600160a060020a03891617905587548352808320600101869055875483529091208351610ff0926002909201918501906111f8565b508284600160a060020a031686600001547f8afcfabcb00e47a53a8fc3e9f23ff47ee1926194bb1350dd007c50b412a6cee8856040518080602001828103825283818151815260200191508051906020019080838360005b83811015611060578181015183820152602001611048565b50505050905090810190601f16801561108d5780820380516001836020036101000a031916815260200191505b509250505060405180910390a461110d85336040516020018082600160a060020a0316600160a060020a03166c01000000000000000000000000028152601401915050604051602081830303815290604052604051808280519060200190808383602083106104985780518252601f199092019160209182019101610479565b80611186575061118685336040516020018082600160a060020a0316600160a060020a03166c01000000000000000000000000028152601401915050604051602081830303815290604052604051808280519060200190808383602083106109f45780518252601f1990920191602091820191016109d5565b1561119d5761119b858660000154600161097e565b505b508354600181018555949350505050565b8154818355818111156111d2576000838152602090206111d2918101908301611276565b505050565b50805460008255906000526020600020908101906111f59190611276565b50565b828054600181600116156101000203166002900490600052602060002090601f016020900481019282601f1061123957805160ff1916838001178555611266565b82800160010185558215611266579182015b8281111561126657825182559160200191906001019061124b565b50611272929150611276565b5090565b61129091905b80821115611272576000815560010161127c565b905600a165627a7a7230582092b30197691533f67ad185e8f194ce5bd33985fc70ec71de8fcbb3f6f4f57ad20029",
  "source": "pragma solidity ^0.4.24;\n\nlibrary KeyHolderLibrary {\n  event KeyAdded(bytes32 indexed key, uint256 indexed purpose, uint256 indexed keyType);\n  event KeyRemoved(bytes32 indexed key, uint256 indexed purpose, uint256 indexed keyType);\n  event ExecutionRequested(uint256 indexed executionId, address indexed to, uint256 indexed value, bytes data);\n  event ExecutionFailed(uint256 indexed executionId, address indexed to, uint256 indexed value, bytes data);\n  event Executed(uint256 indexed executionId, address indexed to, uint256 indexed value, bytes data);\n  event Approved(uint256 indexed executionId, bool approved);\n\n  struct Key {\n      uint256[] purposes; //e.g., MANAGEMENT_KEY = 1, ACTION_KEY = 2, etc.\n      uint256 keyType; // e.g. 1 = ECDSA, 2 = RSA, etc.\n      bytes32 key;\n  }\n\n  struct KeyHolderData {\n      uint256 executionNonce;\n      mapping (bytes32 => Key) keys;\n      mapping (uint256 => bytes32[]) keysByPurpose;\n      mapping (uint256 => Execution) executions;\n  }\n\n  struct Execution {\n      address to;\n      uint256 value;\n      bytes data;\n      bool approved;\n      bool executed;\n  }\n\n  function init(KeyHolderData storage _keyHolderData)\n      public\n  {\n      bytes32 _key = keccak256(abi.encodePacked(msg.sender));\n      _keyHolderData.keys[_key].key = _key;\n      _keyHolderData.keys[_key].purposes.push(1);\n      _keyHolderData.keys[_key].keyType = 1;\n      _keyHolderData.keysByPurpose[1].push(_key);\n      emit KeyAdded(_key, 1, 1);\n  }\n\n  function getKey(KeyHolderData storage _keyHolderData, bytes32 _key)\n      public\n      view\n      returns(uint256[] purposes, uint256 keyType, bytes32 key)\n  {\n      return (\n          _keyHolderData.keys[_key].purposes,\n          _keyHolderData.keys[_key].keyType,\n          _keyHolderData.keys[_key].key\n      );\n  }\n\n  function getKeyPurposes(KeyHolderData storage _keyHolderData, bytes32 _key)\n      public\n      view\n      returns(uint256[] purposes)\n  {\n      return (_keyHolderData.keys[_key].purposes);\n  }\n\n  function getKeysByPurpose(KeyHolderData storage _keyHolderData, uint256 _purpose)\n      public\n      view\n      returns(bytes32[] _keys)\n  {\n      return _keyHolderData.keysByPurpose[_purpose];\n  }\n\n  function addKey(KeyHolderData storage _keyHolderData, bytes32 _key, uint256 _purpose, uint256 _type)\n      public\n      returns (bool success)\n  {\n      require(_keyHolderData.keys[_key].key != _key, \"Key already exists\"); // Key should not already exist\n      if (msg.sender != address(this)) {\n        require(keyHasPurpose(_keyHolderData, keccak256(abi.encodePacked(msg.sender)), 1), \"Sender does not have management key\"); // Sender has MANAGEMENT_KEY\n      }\n\n      _keyHolderData.keys[_key].key = _key;\n      _keyHolderData.keys[_key].purposes.push(_purpose);\n      _keyHolderData.keys[_key].keyType = _type;\n\n      _keyHolderData.keysByPurpose[_purpose].push(_key);\n\n      emit KeyAdded(_key, _purpose, _type);\n\n      return true;\n  }\n\n  function approve(KeyHolderData storage _keyHolderData, uint256 _id, bool _approve)\n      public\n      returns (bool success)\n  {\n      require(keyHasPurpose(_keyHolderData, keccak256(abi.encodePacked(msg.sender)), 2), \"Sender does not have action key\");\n      require(!_keyHolderData.executions[_id].executed, \"Already executed\");\n\n      emit Approved(_id, _approve);\n\n      if (_approve == true) {\n          _keyHolderData.executions[_id].approved = true;\n          success = _keyHolderData.executions[_id].to.call(_keyHolderData.executions[_id].data, 0);\n          if (success) {\n              _keyHolderData.executions[_id].executed = true;\n              emit Executed(\n                  _id,\n                  _keyHolderData.executions[_id].to,\n                  _keyHolderData.executions[_id].value,\n                  _keyHolderData.executions[_id].data\n              );\n              return;\n          } else {\n              emit ExecutionFailed(\n                  _id,\n                  _keyHolderData.executions[_id].to,\n                  _keyHolderData.executions[_id].value,\n                  _keyHolderData.executions[_id].data\n              );\n              return;\n          }\n      } else {\n          _keyHolderData.executions[_id].approved = false;\n      }\n      return true;\n  }\n\n  function execute(KeyHolderData storage _keyHolderData, address _to, uint256 _value, bytes _data)\n      public\n      returns (uint256 executionId)\n  {\n      require(!_keyHolderData.executions[_keyHolderData.executionNonce].executed, \"Already executed\");\n      _keyHolderData.executions[_keyHolderData.executionNonce].to = _to;\n      _keyHolderData.executions[_keyHolderData.executionNonce].value = _value;\n      _keyHolderData.executions[_keyHolderData.executionNonce].data = _data;\n\n      emit ExecutionRequested(_keyHolderData.executionNonce, _to, _value, _data);\n\n      if (keyHasPurpose(_keyHolderData, keccak256(abi.encodePacked(msg.sender)),1) || keyHasPurpose(_keyHolderData, keccak256(abi.encodePacked(msg.sender)),2)) {\n          approve(_keyHolderData, _keyHolderData.executionNonce, true);\n      }\n\n      _keyHolderData.executionNonce++;\n      return _keyHolderData.executionNonce-1;\n  }\n\n  function removeKey(KeyHolderData storage _keyHolderData, bytes32 _key, uint256 _purpose)\n      public\n      returns (bool success)\n  {\n      if (msg.sender != address(this)) {\n        require(keyHasPurpose(_keyHolderData, keccak256(abi.encodePacked(msg.sender)), 1), \"Sender does not have management key\"); // Sender has MANAGEMENT_KEY\n      }\n\n      require(_keyHolderData.keys[_key].key == _key, \"No such key\");\n      emit KeyRemoved(_key, _purpose, _keyHolderData.keys[_key].keyType);\n\n      // Remove purpose from key\n      uint256[] storage purposes = _keyHolderData.keys[_key].purposes;\n      for (uint i = 0; i < purposes.length; i++) {\n          if (purposes[i] == _purpose) {\n              purposes[i] = purposes[purposes.length - 1];\n              delete purposes[purposes.length - 1];\n              purposes.length--;\n              break;\n          }\n      }\n\n      // If no more purposes, delete key\n      if (purposes.length == 0) {\n        delete _keyHolderData.keys[_key];\n      }\n\n      // Remove key from keysByPurpose\n      bytes32[] storage keys = _keyHolderData.keysByPurpose[_purpose];\n      for (uint j = 0; j < keys.length; j++) {\n          if (keys[j] == _key) {\n              keys[j] = keys[keys.length - 1];\n              delete keys[keys.length - 1];\n              keys.length--;\n              break;\n          }\n      }\n\n      return true;\n  }\n\n  function keyHasPurpose(KeyHolderData storage _keyHolderData, bytes32 _key, uint256 _purpose)\n      public\n      view\n      returns(bool result)\n  {\n      bool isThere;\n      if (_keyHolderData.keys[_key].key == 0) return false;\n\n      uint256[] storage purposes = _keyHolderData.keys[_key].purposes;\n      for (uint i = 0; i < purposes.length; i++) {\n          if (purposes[i] <= _purpose) {\n              isThere = true;\n              break;\n          }\n      }\n      return isThere;\n  }\n}\n",
  "sourcePath": "/Users/stan/Origin/origin-box/origin-js/contracts/contracts/identity/KeyHolderLibrary.sol",
  "compiler": {
    "name": "solc",
    "version": "0.4.24+commit.e67f0147.Emscripten.clang"
  },
  "schemaVersion": "2.0.1",
  "updatedAt": "2018-09-20T16:17:49.834Z"
}