{
  "contractName": "TokenMigration",
  "abi": [
    {
      "constant": true,
      "inputs": [],
      "name": "fromToken",
      "outputs": [
        {
          "name": "",
          "type": "address"
        }
      ],
      "payable": false,
      "stateMutability": "view",
      "type": "function"
    },
    {
      "constant": true,
      "inputs": [],
      "name": "toToken",
      "outputs": [
        {
          "name": "",
          "type": "address"
        }
      ],
      "payable": false,
      "stateMutability": "view",
      "type": "function"
    },
    {
      "constant": true,
      "inputs": [
        {
          "name": "",
          "type": "address"
        }
      ],
      "name": "migrated",
      "outputs": [
        {
          "name": "",
          "type": "bool"
        }
      ],
      "payable": false,
      "stateMutability": "view",
      "type": "function"
    },
    {
      "constant": false,
      "inputs": [],
      "name": "renounceOwnership",
      "outputs": [],
      "payable": false,
      "stateMutability": "nonpayable",
      "type": "function"
    },
    {
      "constant": true,
      "inputs": [],
      "name": "owner",
      "outputs": [
        {
          "name": "",
          "type": "address"
        }
      ],
      "payable": false,
      "stateMutability": "view",
      "type": "function"
    },
    {
      "constant": true,
      "inputs": [],
      "name": "finished",
      "outputs": [
        {
          "name": "",
          "type": "bool"
        }
      ],
      "payable": false,
      "stateMutability": "view",
      "type": "function"
    },
    {
      "constant": false,
      "inputs": [
        {
          "name": "_newOwner",
          "type": "address"
        }
      ],
      "name": "transferOwnership",
      "outputs": [],
      "payable": false,
      "stateMutability": "nonpayable",
      "type": "function"
    },
    {
      "inputs": [
        {
          "name": "_fromToken",
          "type": "address"
        },
        {
          "name": "_toToken",
          "type": "address"
        }
      ],
      "payable": false,
      "stateMutability": "nonpayable",
      "type": "constructor"
    },
    {
      "anonymous": false,
      "inputs": [
        {
          "indexed": true,
          "name": "account",
          "type": "address"
        },
        {
          "indexed": false,
          "name": "balance",
          "type": "uint256"
        }
      ],
      "name": "Migrated",
      "type": "event"
    },
    {
      "anonymous": false,
      "inputs": [],
      "name": "MigrationFinished",
      "type": "event"
    },
    {
      "anonymous": false,
      "inputs": [
        {
          "indexed": true,
          "name": "previousOwner",
          "type": "address"
        }
      ],
      "name": "OwnershipRenounced",
      "type": "event"
    },
    {
      "anonymous": false,
      "inputs": [
        {
          "indexed": true,
          "name": "previousOwner",
          "type": "address"
        },
        {
          "indexed": true,
          "name": "newOwner",
          "type": "address"
        }
      ],
      "name": "OwnershipTransferred",
      "type": "event"
    },
    {
      "constant": false,
      "inputs": [
        {
          "name": "_holders",
          "type": "address[]"
        }
      ],
      "name": "migrateAccounts",
      "outputs": [],
      "payable": false,
      "stateMutability": "nonpayable",
      "type": "function"
    },
    {
      "constant": false,
      "inputs": [
        {
          "name": "_holder",
          "type": "address"
        }
      ],
      "name": "migrateAccount",
      "outputs": [],
      "payable": false,
      "stateMutability": "nonpayable",
      "type": "function"
    },
    {
      "constant": false,
      "inputs": [
        {
          "name": "_newTokenOwner",
          "type": "address"
        }
      ],
      "name": "finish",
      "outputs": [],
      "payable": false,
      "stateMutability": "nonpayable",
      "type": "function"
    }
  ],
  "bytecode": "0x608060405234801561001057600080fd5b50604051604080610a8c83398101604052805160209091015160008054600160a060020a03199081163390811782161790915560018054600160a060020a0394851690831617905560028054939092169216919091179055610a15806100776000396000f3006080604052600436106100a35763ffffffff7c0100000000000000000000000000000000000000000000000000000000600035041663305ec69e81146100a857806332a46857146100cb5780633c930575146100fc5780634ba0a5ee14610111578063715018a6146101465780638da5cb5b1461015b578063a45c52d114610170578063bef4876b14610191578063c8df7fc6146101a6578063f2fde38b146101fb575b600080fd5b3480156100b457600080fd5b506100c9600160a060020a036004351661021c565b005b3480156100d757600080fd5b506100e061056f565b60408051600160a060020a039092168252519081900360200190f35b34801561010857600080fd5b506100e061057e565b34801561011d57600080fd5b50610132600160a060020a036004351661058d565b604080519115158252519081900360200190f35b34801561015257600080fd5b506100c96105a2565b34801561016757600080fd5b506100e061060e565b34801561017c57600080fd5b506100c9600160a060020a036004351661061d565b34801561019d57600080fd5b50610132610898565b3480156101b257600080fd5b50604080516020600480358082013583810280860185019096528085526100c9953695939460249493850192918291850190849080828437509497506108a19650505050505050565b34801561020757600080fd5b506100c9600160a060020a0360043516610949565b600054600160a060020a0316331461023357600080fd5b60045460ff161561028e576040805160e560020a62461bcd02815260206004820152601a60248201527f6d6967726174696f6e20616c72656164792066696e6973686564000000000000604482015290519081900360640190fd5b600260009054906101000a9004600160a060020a0316600160a060020a03166318160ddd6040518163ffffffff167c0100000000000000000000000000000000000000000000000000000000028152600401602060405180830381600087803b1580156102fa57600080fd5b505af115801561030e573d6000803e3d6000fd5b505050506040513d602081101561032457600080fd5b5051600154604080517f18160ddd0000000000000000000000000000000000000000000000000000000081529051600160a060020a03909216916318160ddd916004808201926020929091908290030181600087803b15801561038657600080fd5b505af115801561039a573d6000803e3d6000fd5b505050506040513d60208110156103b057600080fd5b50511461042d576040805160e560020a62461bcd02815260206004820152602160248201527f746f74616c20746f6b656e20737570706c69657320646f206e6f74206d61746360448201527f6800000000000000000000000000000000000000000000000000000000000000606482015290519081900360840190fd5b600160a060020a0381163014156104b4576040805160e560020a62461bcd02815260206004820152602b60248201527f7468697320636f6e74726163742063616e6e6f74206f776e2074686520746f6b60448201527f656e20636f6e7472616374000000000000000000000000000000000000000000606482015290519081900360840190fd5b6004805460ff19166001178155600254604080517ff2fde38b000000000000000000000000000000000000000000000000000000008152600160a060020a03858116948201949094529051929091169163f2fde38b9160248082019260009290919082900301818387803b15801561052b57600080fd5b505af115801561053f573d6000803e3d6000fd5b50506040517fceab6b91af27f4253aa8bd4ee8179c32d60bede7297c333dcb56de2641c05544925060009150a150565b600154600160a060020a031681565b600254600160a060020a031681565b60036020526000908152604090205460ff1681565b600054600160a060020a031633146105b957600080fd5b60008054604051600160a060020a03909116917ff8df31144d9c2f0f6b59d69b8b98abd5459d07f2742c4df920b25aae33c6482091a26000805473ffffffffffffffffffffffffffffffffffffffff19169055565b600054600160a060020a031681565b60008054600160a060020a0316331461063557600080fd5b60045460ff1615610690576040805160e560020a62461bcd02815260206004820152601a60248201527f6d6967726174696f6e20616c72656164792066696e6973686564000000000000604482015290519081900360640190fd5b600160a060020a03821660009081526003602052604090205460ff1615610701576040805160e560020a62461bcd02815260206004820152601760248201527f686f6c64657220616c7265616479206d69677261746564000000000000000000604482015290519081900360640190fd5b600154604080517f70a08231000000000000000000000000000000000000000000000000000000008152600160a060020a038581166004830152915191909216916370a082319160248083019260209291908290030181600087803b15801561076957600080fd5b505af115801561077d573d6000803e3d6000fd5b505050506040513d602081101561079357600080fd5b50519050600081111561089457600254604080517f40c10f19000000000000000000000000000000000000000000000000000000008152600160a060020a03858116600483015260248201859052915191909216916340c10f199160448083019260209291908290030181600087803b15801561080f57600080fd5b505af1158015610823573d6000803e3d6000fd5b505050506040513d602081101561083957600080fd5b5050600160a060020a038216600081815260036020908152604091829020805460ff19166001179055815184815291517f8b80bd19aea7b735bc6d75db8d6adbe18b28c30d62b3555245eb67b2340caedc9281900390910190a25b5050565b60045460ff1681565b60008054600160a060020a031633146108b957600080fd5b60045460ff1615610914576040805160e560020a62461bcd02815260206004820152601a60248201527f6d6967726174696f6e20616c72656164792066696e6973686564000000000000604482015290519081900360640190fd5b5060005b815181101561089457610941828281518110151561093257fe5b9060200190602002015161061d565b600101610918565b600054600160a060020a0316331461096057600080fd5b6109698161096c565b50565b600160a060020a038116151561098157600080fd5b60008054604051600160a060020a03808516939216917f8be0079c531659141344cd1fd0a4f28419497f9722a3daafe3b4186f6b6457e091a36000805473ffffffffffffffffffffffffffffffffffffffff1916600160a060020a03929092169190911790555600a165627a7a72305820d42f838a6538da440b948cce8c1920d751b71e2efb722ef91da9afc248dc833e0029",
  "source": "pragma solidity ^0.4.24;\n\nimport \"../../../node_modules/openzeppelin-solidity/contracts/ownership/Ownable.sol\";\nimport \"../../../node_modules/openzeppelin-solidity/contracts/token/ERC20/ERC20.sol\";\nimport \"./OriginToken.sol\";\n\n/**\n * @title Migrates balances from one token contract to another\n * @dev Migrates all balances from one token contract to another. Both contracts\n * must be pausable (to prevent changes during migration), and the target\n * contract must support minting tokens.\n */\ncontract TokenMigration is Ownable {\n  OriginToken public fromToken;\n  OriginToken public toToken;\n  mapping (address => bool) public migrated;\n  bool public finished;\n\n  event Migrated(address indexed account, uint256 balance);\n  event MigrationFinished();\n  \n  modifier notFinished() {\n    require(!finished, \"migration already finished\");\n    _;\n  }\n\n  // @dev Public constructor\n  constructor(OriginToken _fromToken, OriginToken _toToken) public {\n    owner = msg.sender;\n    fromToken = _fromToken;\n    toToken = _toToken;\n  }\n\n  // @dev Migrates a set of accounts, which should be limited in size so that\n  // the transaction is under the gas limit.\n  function migrateAccounts(address[] _holders) public onlyOwner notFinished {\n    for (uint i = 0; i < _holders.length; i++) {\n        migrateAccount(_holders[i]);\n    }\n  }\n  \n  // @dev Migrates the balance for a single address by minting the same number\n  // of new tokens the address had with the old token.\n  function migrateAccount(address _holder) public onlyOwner notFinished {\n    require(!migrated[_holder], \"holder already migrated\");\n    uint256 balance = fromToken.balanceOf(_holder);\n    if (balance > 0) {\n      toToken.mint(_holder, balance);\n      migrated[_holder] = true;\n      emit Migrated(_holder, balance);\n    }\n  }\n  \n  // @dev Finishes migration and transfers token ownership to new owner.\n  function finish(address _newTokenOwner) public onlyOwner notFinished {\n    require(fromToken.totalSupply() == toToken.totalSupply(),\n      \"total token supplies do not match\");\n    require(_newTokenOwner != address(this),\n      \"this contract cannot own the token contract\");\n    finished = true;\n    toToken.transferOwnership(_newTokenOwner);\n    emit MigrationFinished();\n  }\n  \n  // TODO: revisit whether we want to migrate approvals\n}\n",
  "sourcePath": "/Users/stan/Origin/origin-box/origin-js/contracts/contracts/token/TokenMigration.sol",
  "compiler": {
    "name": "solc",
    "version": "0.4.24+commit.e67f0147.Emscripten.clang"
  },
  "schemaVersion": "2.0.1",
  "updatedAt": "2018-09-20T16:13:54.115Z"
}