{
  "contractName": "V00_Marketplace",
  "abi": [
    {
      "constant": true,
      "inputs": [
        {
          "name": "",
          "type": "uint256"
        },
        {
          "name": "",
          "type": "uint256"
        }
      ],
      "name": "offers",
      "outputs": [
        {
          "name": "value",
          "type": "uint256"
        },
        {
          "name": "commission",
          "type": "uint256"
        },
        {
          "name": "refund",
          "type": "uint256"
        },
        {
          "name": "currency",
          "type": "address"
        },
        {
          "name": "buyer",
          "type": "address"
        },
        {
          "name": "affiliate",
          "type": "address"
        },
        {
          "name": "arbitrator",
          "type": "address"
        },
        {
          "name": "finalizes",
          "type": "uint256"
        },
        {
          "name": "status",
          "type": "uint8"
        }
      ],
      "payable": false,
      "stateMutability": "view",
      "type": "function"
    },
    {
      "constant": true,
      "inputs": [],
      "name": "tokenAddr",
      "outputs": [
        {
          "name": "",
          "type": "address"
        }
      ],
      "payable": false,
      "stateMutability": "view",
      "type": "function"
    },
    {
      "constant": false,
      "inputs": [],
      "name": "renounceOwnership",
      "outputs": [],
      "payable": false,
      "stateMutability": "nonpayable",
      "type": "function"
    },
    {
      "constant": true,
      "inputs": [],
      "name": "owner",
      "outputs": [
        {
          "name": "",
          "type": "address"
        }
      ],
      "payable": false,
      "stateMutability": "view",
      "type": "function"
    },
    {
      "constant": true,
      "inputs": [
        {
          "name": "",
          "type": "uint256"
        }
      ],
      "name": "listings",
      "outputs": [
        {
          "name": "seller",
          "type": "address"
        },
        {
          "name": "deposit",
          "type": "uint256"
        },
        {
          "name": "arbitrator",
          "type": "address"
        }
      ],
      "payable": false,
      "stateMutability": "view",
      "type": "function"
    },
    {
      "constant": false,
      "inputs": [
        {
          "name": "_newOwner",
          "type": "address"
        }
      ],
      "name": "transferOwnership",
      "outputs": [],
      "payable": false,
      "stateMutability": "nonpayable",
      "type": "function"
    },
    {
      "inputs": [
        {
          "name": "_tokenAddr",
          "type": "address"
        }
      ],
      "payable": false,
      "stateMutability": "nonpayable",
      "type": "constructor"
    },
    {
      "anonymous": false,
      "inputs": [
        {
          "indexed": true,
          "name": "party",
          "type": "address"
        },
        {
          "indexed": true,
          "name": "listingID",
          "type": "uint256"
        },
        {
          "indexed": false,
          "name": "ipfsHash",
          "type": "bytes32"
        }
      ],
      "name": "ListingCreated",
      "type": "event"
    },
    {
      "anonymous": false,
      "inputs": [
        {
          "indexed": true,
          "name": "party",
          "type": "address"
        },
        {
          "indexed": true,
          "name": "listingID",
          "type": "uint256"
        },
        {
          "indexed": false,
          "name": "ipfsHash",
          "type": "bytes32"
        }
      ],
      "name": "ListingUpdated",
      "type": "event"
    },
    {
      "anonymous": false,
      "inputs": [
        {
          "indexed": true,
          "name": "party",
          "type": "address"
        },
        {
          "indexed": true,
          "name": "listingID",
          "type": "uint256"
        },
        {
          "indexed": false,
          "name": "ipfsHash",
          "type": "bytes32"
        }
      ],
      "name": "ListingWithdrawn",
      "type": "event"
    },
    {
      "anonymous": false,
      "inputs": [
        {
          "indexed": true,
          "name": "party",
          "type": "address"
        },
        {
          "indexed": true,
          "name": "listingID",
          "type": "uint256"
        },
        {
          "indexed": false,
          "name": "ipfsHash",
          "type": "bytes32"
        }
      ],
      "name": "ListingData",
      "type": "event"
    },
    {
      "anonymous": false,
      "inputs": [
        {
          "indexed": true,
          "name": "party",
          "type": "address"
        },
        {
          "indexed": true,
          "name": "listingID",
          "type": "uint256"
        },
        {
          "indexed": false,
          "name": "ipfsHash",
          "type": "bytes32"
        }
      ],
      "name": "ListingArbitrated",
      "type": "event"
    },
    {
      "anonymous": false,
      "inputs": [
        {
          "indexed": true,
          "name": "party",
          "type": "address"
        },
        {
          "indexed": true,
          "name": "listingID",
          "type": "uint256"
        },
        {
          "indexed": true,
          "name": "offerID",
          "type": "uint256"
        },
        {
          "indexed": false,
          "name": "ipfsHash",
          "type": "bytes32"
        }
      ],
      "name": "OfferCreated",
      "type": "event"
    },
    {
      "anonymous": false,
      "inputs": [
        {
          "indexed": true,
          "name": "party",
          "type": "address"
        },
        {
          "indexed": true,
          "name": "listingID",
          "type": "uint256"
        },
        {
          "indexed": true,
          "name": "offerID",
          "type": "uint256"
        },
        {
          "indexed": false,
          "name": "ipfsHash",
          "type": "bytes32"
        }
      ],
      "name": "OfferWithdrawn",
      "type": "event"
    },
    {
      "anonymous": false,
      "inputs": [
        {
          "indexed": true,
          "name": "party",
          "type": "address"
        },
        {
          "indexed": true,
          "name": "listingID",
          "type": "uint256"
        },
        {
          "indexed": true,
          "name": "offerID",
          "type": "uint256"
        },
        {
          "indexed": false,
          "name": "ipfsHash",
          "type": "bytes32"
        }
      ],
      "name": "OfferAccepted",
      "type": "event"
    },
    {
      "anonymous": false,
      "inputs": [
        {
          "indexed": true,
          "name": "party",
          "type": "address"
        },
        {
          "indexed": true,
          "name": "listingID",
          "type": "uint256"
        },
        {
          "indexed": true,
          "name": "offerID",
          "type": "uint256"
        },
        {
          "indexed": false,
          "name": "ipfsHash",
          "type": "bytes32"
        }
      ],
      "name": "OfferFundsAdded",
      "type": "event"
    },
    {
      "anonymous": false,
      "inputs": [
        {
          "indexed": true,
          "name": "party",
          "type": "address"
        },
        {
          "indexed": true,
          "name": "listingID",
          "type": "uint256"
        },
        {
          "indexed": true,
          "name": "offerID",
          "type": "uint256"
        },
        {
          "indexed": false,
          "name": "ipfsHash",
          "type": "bytes32"
        }
      ],
      "name": "OfferDisputed",
      "type": "event"
    },
    {
      "anonymous": false,
      "inputs": [
        {
          "indexed": true,
          "name": "party",
          "type": "address"
        },
        {
          "indexed": true,
          "name": "listingID",
          "type": "uint256"
        },
        {
          "indexed": true,
          "name": "offerID",
          "type": "uint256"
        },
        {
          "indexed": false,
          "name": "ipfsHash",
          "type": "bytes32"
        },
        {
          "indexed": false,
          "name": "ruling",
          "type": "uint256"
        }
      ],
      "name": "OfferRuling",
      "type": "event"
    },
    {
      "anonymous": false,
      "inputs": [
        {
          "indexed": true,
          "name": "party",
          "type": "address"
        },
        {
          "indexed": true,
          "name": "listingID",
          "type": "uint256"
        },
        {
          "indexed": true,
          "name": "offerID",
          "type": "uint256"
        },
        {
          "indexed": false,
          "name": "ipfsHash",
          "type": "bytes32"
        }
      ],
      "name": "OfferFinalized",
      "type": "event"
    },
    {
      "anonymous": false,
      "inputs": [
        {
          "indexed": true,
          "name": "party",
          "type": "address"
        },
        {
          "indexed": true,
          "name": "listingID",
          "type": "uint256"
        },
        {
          "indexed": true,
          "name": "offerID",
          "type": "uint256"
        },
        {
          "indexed": false,
          "name": "ipfsHash",
          "type": "bytes32"
        }
      ],
      "name": "OfferData",
      "type": "event"
    },
    {
      "anonymous": false,
      "inputs": [
        {
          "indexed": true,
          "name": "party",
          "type": "address"
        },
        {
          "indexed": false,
          "name": "ipfsHash",
          "type": "bytes32"
        }
      ],
      "name": "MarketplaceData",
      "type": "event"
    },
    {
      "anonymous": false,
      "inputs": [
        {
          "indexed": true,
          "name": "previousOwner",
          "type": "address"
        }
      ],
      "name": "OwnershipRenounced",
      "type": "event"
    },
    {
      "anonymous": false,
      "inputs": [
        {
          "indexed": true,
          "name": "previousOwner",
          "type": "address"
        },
        {
          "indexed": true,
          "name": "newOwner",
          "type": "address"
        }
      ],
      "name": "OwnershipTransferred",
      "type": "event"
    },
    {
      "constant": true,
      "inputs": [],
      "name": "totalListings",
      "outputs": [
        {
          "name": "",
          "type": "uint256"
        }
      ],
      "payable": false,
      "stateMutability": "view",
      "type": "function"
    },
    {
      "constant": true,
      "inputs": [
        {
          "name": "listingID",
          "type": "uint256"
        }
      ],
      "name": "totalOffers",
      "outputs": [
        {
          "name": "",
          "type": "uint256"
        }
      ],
      "payable": false,
      "stateMutability": "view",
      "type": "function"
    },
    {
      "constant": false,
      "inputs": [
        {
          "name": "_ipfsHash",
          "type": "bytes32"
        },
        {
          "name": "_deposit",
          "type": "uint256"
        },
        {
          "name": "_arbitrator",
          "type": "address"
        }
      ],
      "name": "createListing",
      "outputs": [],
      "payable": false,
      "stateMutability": "nonpayable",
      "type": "function"
    },
    {
      "constant": false,
      "inputs": [
        {
          "name": "_seller",
          "type": "address"
        },
        {
          "name": "_ipfsHash",
          "type": "bytes32"
        },
        {
          "name": "_deposit",
          "type": "uint256"
        },
        {
          "name": "_arbitrator",
          "type": "address"
        }
      ],
      "name": "createListingWithSender",
      "outputs": [
        {
          "name": "",
          "type": "bool"
        }
      ],
      "payable": false,
      "stateMutability": "nonpayable",
      "type": "function"
    },
    {
      "constant": false,
      "inputs": [
        {
          "name": "listingID",
          "type": "uint256"
        },
        {
          "name": "_ipfsHash",
          "type": "bytes32"
        },
        {
          "name": "_additionalDeposit",
          "type": "uint256"
        }
      ],
      "name": "updateListing",
      "outputs": [],
      "payable": false,
      "stateMutability": "nonpayable",
      "type": "function"
    },
    {
      "constant": false,
      "inputs": [
        {
          "name": "_seller",
          "type": "address"
        },
        {
          "name": "listingID",
          "type": "uint256"
        },
        {
          "name": "_ipfsHash",
          "type": "bytes32"
        },
        {
          "name": "_additionalDeposit",
          "type": "uint256"
        }
      ],
      "name": "updateListingWithSender",
      "outputs": [
        {
          "name": "",
          "type": "bool"
        }
      ],
      "payable": false,
      "stateMutability": "nonpayable",
      "type": "function"
    },
    {
      "constant": false,
      "inputs": [
        {
          "name": "listingID",
          "type": "uint256"
        },
        {
          "name": "_target",
          "type": "address"
        },
        {
          "name": "_ipfsHash",
          "type": "bytes32"
        }
      ],
      "name": "withdrawListing",
      "outputs": [],
      "payable": false,
      "stateMutability": "nonpayable",
      "type": "function"
    },
    {
      "constant": false,
      "inputs": [
        {
          "name": "listingID",
          "type": "uint256"
        },
        {
          "name": "_ipfsHash",
          "type": "bytes32"
        },
        {
          "name": "_finalizes",
          "type": "uint256"
        },
        {
          "name": "_affiliate",
          "type": "address"
        },
        {
          "name": "_commission",
          "type": "uint256"
        },
        {
          "name": "_value",
          "type": "uint256"
        },
        {
          "name": "_currency",
          "type": "address"
        },
        {
          "name": "_arbitrator",
          "type": "address"
        }
      ],
      "name": "makeOffer",
      "outputs": [],
      "payable": true,
      "stateMutability": "payable",
      "type": "function"
    },
    {
      "constant": false,
      "inputs": [
        {
          "name": "listingID",
          "type": "uint256"
        },
        {
          "name": "_ipfsHash",
          "type": "bytes32"
        },
        {
          "name": "_finalizes",
          "type": "uint256"
        },
        {
          "name": "_affiliate",
          "type": "address"
        },
        {
          "name": "_commission",
          "type": "uint256"
        },
        {
          "name": "_value",
          "type": "uint256"
        },
        {
          "name": "_currency",
          "type": "address"
        },
        {
          "name": "_arbitrator",
          "type": "address"
        },
        {
          "name": "_withdrawOfferID",
          "type": "uint256"
        }
      ],
      "name": "makeOffer",
      "outputs": [],
      "payable": true,
      "stateMutability": "payable",
      "type": "function"
    },
    {
      "constant": false,
      "inputs": [
        {
          "name": "listingID",
          "type": "uint256"
        },
        {
          "name": "offerID",
          "type": "uint256"
        },
        {
          "name": "_ipfsHash",
          "type": "bytes32"
        }
      ],
      "name": "acceptOffer",
      "outputs": [],
      "payable": false,
      "stateMutability": "nonpayable",
      "type": "function"
    },
    {
      "constant": false,
      "inputs": [
        {
          "name": "listingID",
          "type": "uint256"
        },
        {
          "name": "offerID",
          "type": "uint256"
        },
        {
          "name": "_ipfsHash",
          "type": "bytes32"
        }
      ],
      "name": "withdrawOffer",
      "outputs": [],
      "payable": false,
      "stateMutability": "nonpayable",
      "type": "function"
    },
    {
      "constant": false,
      "inputs": [
        {
          "name": "listingID",
          "type": "uint256"
        },
        {
          "name": "offerID",
          "type": "uint256"
        },
        {
          "name": "_ipfsHash",
          "type": "bytes32"
        },
        {
          "name": "_value",
          "type": "uint256"
        }
      ],
      "name": "addFunds",
      "outputs": [],
      "payable": true,
      "stateMutability": "payable",
      "type": "function"
    },
    {
      "constant": false,
      "inputs": [
        {
          "name": "listingID",
          "type": "uint256"
        },
        {
          "name": "offerID",
          "type": "uint256"
        },
        {
          "name": "_ipfsHash",
          "type": "bytes32"
        }
      ],
      "name": "finalize",
      "outputs": [],
      "payable": false,
      "stateMutability": "nonpayable",
      "type": "function"
    },
    {
      "constant": false,
      "inputs": [
        {
          "name": "listingID",
          "type": "uint256"
        },
        {
          "name": "offerID",
          "type": "uint256"
        },
        {
          "name": "_ipfsHash",
          "type": "bytes32"
        }
      ],
      "name": "dispute",
      "outputs": [],
      "payable": false,
      "stateMutability": "nonpayable",
      "type": "function"
    },
    {
      "constant": false,
      "inputs": [
        {
          "name": "listingID",
          "type": "uint256"
        },
        {
          "name": "offerID",
          "type": "uint256"
        },
        {
          "name": "_ipfsHash",
          "type": "bytes32"
        },
        {
          "name": "_ruling",
          "type": "uint256"
        },
        {
          "name": "_refund",
          "type": "uint256"
        }
      ],
      "name": "executeRuling",
      "outputs": [],
      "payable": false,
      "stateMutability": "nonpayable",
      "type": "function"
    },
    {
      "constant": false,
      "inputs": [
        {
          "name": "listingID",
          "type": "uint256"
        },
        {
          "name": "offerID",
          "type": "uint256"
        },
        {
          "name": "_refund",
          "type": "uint256"
        },
        {
          "name": "_ipfsHash",
          "type": "bytes32"
        }
      ],
      "name": "updateRefund",
      "outputs": [],
      "payable": false,
      "stateMutability": "nonpayable",
      "type": "function"
    },
    {
      "constant": false,
      "inputs": [
        {
          "name": "ipfsHash",
          "type": "bytes32"
        }
      ],
      "name": "addData",
      "outputs": [],
      "payable": false,
      "stateMutability": "nonpayable",
      "type": "function"
    },
    {
      "constant": false,
      "inputs": [
        {
          "name": "listingID",
          "type": "uint256"
        },
        {
          "name": "ipfsHash",
          "type": "bytes32"
        }
      ],
      "name": "addData",
      "outputs": [],
      "payable": false,
      "stateMutability": "nonpayable",
      "type": "function"
    },
    {
      "constant": false,
      "inputs": [
        {
          "name": "listingID",
          "type": "uint256"
        },
        {
          "name": "offerID",
          "type": "uint256"
        },
        {
          "name": "ipfsHash",
          "type": "bytes32"
        }
      ],
      "name": "addData",
      "outputs": [],
      "payable": false,
      "stateMutability": "nonpayable",
      "type": "function"
    },
    {
      "constant": false,
      "inputs": [
        {
          "name": "listingID",
          "type": "uint256"
        },
        {
          "name": "target",
          "type": "address"
        },
        {
          "name": "value",
          "type": "uint256"
        },
        {
          "name": "ipfsHash",
          "type": "bytes32"
        }
      ],
      "name": "sendDeposit",
      "outputs": [],
      "payable": false,
      "stateMutability": "nonpayable",
      "type": "function"
    },
    {
      "constant": false,
      "inputs": [
        {
          "name": "_tokenAddr",
          "type": "address"
        }
      ],
      "name": "setTokenAddr",
      "outputs": [],
      "payable": false,
      "stateMutability": "nonpayable",
      "type": "function"
    }
  ],
  "bytecode": "0x608060405234801561001057600080fd5b50604051602080611eb983398101604052516000805433600160a060020a0319918216811790911617905561004d81640100000000610053810204565b5061008c565b600054600160a060020a0316331461006a57600080fd5b60038054600160a060020a031916600160a060020a0392909216919091179055565b611e1e8061009b6000396000f30060806040526004361061015e5763ffffffff7c01000000000000000000000000000000000000000000000000000000006000350416631d34be47811461016357806328af94c8146101865780632ebd1e281461019e5780634d03a9a5146101bf57806351b18250146102325780635f0da25b146102635780635fbe4d1d1461028d57806370809757146102be578063715018a6146102dc5780637d19514d146102f15780638da5cb5b1461030557806391f1f3101461031a5780639a8d10a3146103445780639c3f7ca21461035f578063a3111d7c1461037d578063bf77aa1f146103a4578063c73111dd146103c2578063c78b616c146103e6578063c9c8580c146103fb578063ca27eb1c14610430578063cea4b68714610457578063d9fefbf814610495578063de400629146104b3578063de74e57b146104e2578063ebe65f6014610525578063f2fde38b14610543578063fde34dc414610564575b600080fd5b34801561016f57600080fd5b50610184600435602435604435606435610582565b005b34801561019257600080fd5b50610184600435610652565b3480156101aa57600080fd5b50610184600160a060020a036004351661068b565b3480156101cb57600080fd5b506101da6004356024356106c4565b60408051998a5260208a019890985288880196909652600160a060020a039485166060890152928416608088015290831660a087015290911660c085015260e084015260ff1661010083015251908190036101200190f35b610184600435602435604435600160a060020a036064358116906084359060a4359060c43581169060e43516610741565b34801561026f57600080fd5b50610184600435600160a060020a0360243516604435606435610a00565b34801561029957600080fd5b506102a2610b31565b60408051600160a060020a039092168252519081900360200190f35b3480156102ca57600080fd5b50610184600435602435604435610b40565b3480156102e857600080fd5b50610184610c39565b610184600435602435604435606435610c98565b34801561031157600080fd5b506102a2610dff565b34801561032657600080fd5b50610332600435610e0e565b60408051918252519081900360200190f35b34801561035057600080fd5b50610184600435602435610e20565b34801561036b57600080fd5b50610184600435602435604435610e5b565b34801561038957600080fd5b50610184600435600160a060020a0360243516604435610f6a565b3480156103b057600080fd5b506101846004356024356044356110d1565b3480156103ce57600080fd5b506101846004356024356044356064356084356110e2565b3480156103f257600080fd5b50610332611298565b610184600435602435604435600160a060020a036064358116906084359060a4359060c43581169060e435166101043561129e565b34801561043c57600080fd5b50610184600435602435600160a060020a03604435166112c4565b34801561046357600080fd5b50610481600160a060020a03600435166024356044356064356112d0565b604080519115158252519081900360200190f35b3480156104a157600080fd5b50610184600435602435604435611301565b3480156104bf57600080fd5b50610481600160a060020a03600435811690602435906044359060643516611340565b3480156104ee57600080fd5b506104fa600435611366565b60408051600160a060020a039485168152602081019390935292168183015290519081900360600190f35b34801561053157600080fd5b506101846004356024356044356113a2565b34801561054f57600080fd5b50610184600160a060020a036004351661155e565b34801561057057600080fd5b50610184600435602435604435611581565b600084815260026020526040812080548291908690811061059f57fe5b906000526020600020906009020191506001868154811015156105be57fe5b600091825260209091206003909102018054909150600160a060020a031633146105e757600080fd5b600882015460ff166002146105fb57600080fd5b815484111561060957600080fd5b600282018490556040805184815290518691889133917f9b7312a236066d2da679eba7e3a2e86d2d07a973819499846c0efd2fd2506c80919081900360200190a4505050505050565b60408051828152905133917f8e530f3a09c59fdf1b0d5ed714b7a5b94c059256cdc29b8521e9891734c6a2b7919081900360200190a250565b600054600160a060020a031633146106a257600080fd5b60038054600160a060020a031916600160a060020a0392909216919091179055565b6002602052816000526040600020818154811015156106df57fe5b60009182526020909120600990910201805460018201546002830154600384015460048501546005860154600687015460078801546008909801549699509497509295600160a060020a03928316959183169493831693909216919060ff1689565b60026000898152602001908152602001600020610120604051908101604052808581526020018681526020016000815260200184600160a060020a0316815260200133600160a060020a0316815260200187600160a060020a0316815260200183600160a060020a03168152602001888152602001600160ff168152509080600181540180825580915050906001820390600052602060002090600902016000909192909190915060008201518160000155602082015181600101556040820151816002015560608201518160030160006101000a815481600160a060020a030219169083600160a060020a0316021790555060808201518160040160006101000a815481600160a060020a030219169083600160a060020a0316021790555060a08201518160050160006101000a815481600160a060020a030219169083600160a060020a0316021790555060c08201518160060160006101000a815481600160a060020a030219169083600160a060020a0316021790555060e082015181600701556101008201518160080160006101000a81548160ff021916908360ff16021790555050505081600160a060020a03166000141561090d5734831461090857600080fd5b6109a7565b341561091857600080fd5b6040805160e060020a6323b872dd028152336004820152306024820152604481018590529051600160a060020a038416916323b872dd9160648083019260209291908290030181600087803b15801561097057600080fd5b505af1158015610984573d6000803e3d6000fd5b505050506040513d602081101561099a57600080fd5b505115156109a757600080fd5b6000888152600260209081526040918290205482518a81529251600019909101928b9233927f6ee68cb753f284cf771c1a32c236d7ffcab6011345186a30e57837d761e868379281900390910190a45050505050505050565b6000600185815481101515610a1157fe5b60009182526020909120600260039092020190810154909150600160a060020a03163314610a3e57600080fd5b6001810154831115610a4f57600080fd5b60018101805484900390556003546040805160e060020a63a9059cbb028152600160a060020a038781166004830152602482018790529151919092169163a9059cbb9160448083019260209291908290030181600087803b158015610ab357600080fd5b505af1158015610ac7573d6000803e3d6000fd5b505050506040513d6020811015610add57600080fd5b50511515610aea57600080fd5b6040805183815290518691600160a060020a038716917f9c9827b799328bcbadbd04862686713436136571c54d7ca0388bd952f314f8909181900360200190a35050505050565b600354600160a060020a031681565b600080600185815481101515610b5257fe5b906000526020600020906003020191506002600086815260200190815260200160002084815481101515610b8257fe5b600091825260209091206009909102016004810154909150600160a060020a0316331480610bb957508154600160a060020a031633145b1515610bc457600080fd5b600881015460ff16600214610bd857600080fd5b6007810154421115610be957600080fd5b60088101805460ff191660031790556040805184815290518591879133917f11c45991938e1dec0b00887cd2368a2195fccb46b08cc56483ac3053ddb609b2919081900360200190a45050505050565b600054600160a060020a03163314610c5057600080fd5b60008054604051600160a060020a03909116917ff8df31144d9c2f0f6b59d69b8b98abd5459d07f2742c4df920b25aae33c6482091a260008054600160a060020a0319169055565b6000848152600260205260408120805485908110610cb257fe5b600091825260209091206009909102016004810154909150600160a060020a03163314610cde57600080fd5b600881015460ff16600214610cf257600080fd5b6003810154600160a060020a03161515610d1757348214610d1257600080fd5b610db8565b3415610d2257600080fd5b60038101546040805160e060020a6323b872dd028152336004820152306024820152604481018590529051600160a060020a03909216916323b872dd916064808201926020929091908290030181600087803b158015610d8157600080fd5b505af1158015610d95573d6000803e3d6000fd5b505050506040513d6020811015610dab57600080fd5b50511515610db857600080fd5b8054820181556040805184815290518591879133917f5f0e66c42b81a43cbd35b11ea0a599d0be1d8e1fdb61d1d4f7a98243ba6cc26b919081900360200190a45050505050565b600054600160a060020a031681565b60009081526002602052604090205490565b604080518281529051839133917f12dc84d4005dd5b86fd88951106aa76927a62b83b85ba9c912a7268582906aa99181900360200190a35050565b600080600185815481101515610e6d57fe5b906000526020600020906003020191506002600086815260200190815260200160002084815481101515610e9d57fe5b6000918252602090912083546009909202019150600160a060020a03163314610ec557600080fd5b600881015460ff16600114610ed957600080fd5b600180820154908301541015610eee57600080fd5b633b9aca0081600701541015610f0957600781018054420190555b600180820154908301805491909103905560088101805460ff191660021790556040805184815290518591879133917f449224201a35688b74a38ff24770e8b2a326ebf42357bf19a36f5fedbbe552a0919081900360200190a45050505050565b6000600184815481101515610f7b57fe5b600091825260209091206003909102016002810154909150600160a060020a03163314610fa757600080fd5b600160a060020a0383161515610fbc57600080fd5b60035460018201546040805160e060020a63a9059cbb028152600160a060020a03878116600483015260248201939093529051919092169163a9059cbb9160448083019260209291908290030181600087803b15801561101b57600080fd5b505af115801561102f573d6000803e3d6000fd5b505050506040513d602081101561104557600080fd5b5050600180548590811061105557fe5b6000918252602080832060039092029091018054600160a060020a03199081168255600182019390935560020180549092169091556040805184815290518692600160a060020a038716927fafa3dc4f271ef3419006f21140d375eba48ef3def56e8bfe6d54d0c72a81a307929081900390910190a350505050565b6110dd338484846116be565b505050565b60008581526002602052604081208054869081106110fc57fe5b600091825260209091206009909102016006810154909150600160a060020a0316331461112857600080fd5b600881015460ff1660031461113c57600080fd5b805482111561114a57600080fd5b600281018290556001808416141561116b5761116686866117e3565b611175565b61117586866118fb565b82600216600214156111905761118b8686611b1b565b6111bf565b80600101546001878154811015156111a457fe5b60009182526020909120600160039092020101805490910190555b60068101546040805186815260208101869052815188938a93600160a060020a03909116927f3e4d55eb2a402ba6f500db5d75f9303dfe863a2e8319054aeddb6a35ec7e3c61929081900390910190a4600086815260026020526040902080548690811061122957fe5b6000918252602082206009909102018181556001810182905560028101829055600381018054600160a060020a0319908116909155600482018054821690556005820180548216905560068201805490911690556007810191909155600801805460ff19169055505050505050565b60015490565b6112a989828a6113a2565b6112b98989898989898989610741565b505050505050505050565b6110dd33848484611bbe565b600354600090600160a060020a031633146112ea57600080fd5b6112f6858585856116be565b506001949350505050565b6040805182815290518391859133917f9b7312a236066d2da679eba7e3a2e86d2d07a973819499846c0efd2fd2506c80919081900360200190a4505050565b600354600090600160a060020a0316331461135a57600080fd5b6112f685858585611bbe565b600180548290811061137457fe5b6000918252602090912060039091020180546001820154600290920154600160a060020a0391821693501683565b6000806001858154811015156113b457fe5b9060005260206000209060030201915060026000868152602001908152602001600020848154811015156113e457fe5b600091825260209091206009909102016004810154909150600160a060020a031633148061141b57508154600160a060020a031633145b151561142657600080fd5b8154600160a060020a0316151561147e57600881015460ff16600114806114545750600881015460ff166002145b151561145f57600080fd5b600881015460ff1660021415611479576114798585611b1b565b611492565b600881015460ff1660011461149257600080fd5b61149c85856117e3565b6040805184815290518591879133917fe9ae767ab1c8f3f874a5b2810a1f6323b43283a5b462b52a4de5f8ed53a4fe25919081900360200190a460008581526002602052604090208054859081106114f057fe5b6000918252602082206009909102018181556001810182905560028101829055600381018054600160a060020a0319908116909155600482018054821690556005820180548216905560068201805490911690556007810191909155600801805460ff191690555050505050565b600054600160a060020a0316331461157557600080fd5b61157e81611d82565b50565b60008060018581548110151561159357fe5b9060005260206000209060030201915060026000868152602001908152602001600020848154811015156115c357fe5b906000526020600020906009020190508060070154421115156115fe576004810154600160a060020a031633146115f957600080fd5b61162d565b6004810154600160a060020a031633148061162257508154600160a060020a031633145b151561162d57600080fd5b600881015460ff1660021461164157600080fd5b61164b85856118fb565b6004810154600160a060020a031633141561166a5761166a8585611b1b565b6040805184815290518591879133917fbfefa76df66ac53c6517b1939b14bfc4d5fdf714b93a71aea2e50977d1b3b8e6919081900360200190a460008581526002602052604090208054859081106114f057fe5b60006001848154811015156116cf57fe5b600091825260209091206003909102018054909150600160a060020a038681169116146116fb57600080fd5b600082111561179a576003546040805160e060020a6323b872dd028152600160a060020a03888116600483015230602483015260448201869052915191909216916323b872dd9160648083019260209291908290030181600087803b15801561176357600080fd5b505af1158015611777573d6000803e3d6000fd5b505050506040513d602081101561178d57600080fd5b5050600181018054830190555b80546040805185815290518692600160a060020a0316917f470503ad37642fff73a57bac35e69733b6b38281a893f39b50c285aad1f040e0919081900360200190a35050505050565b60008281526002602052604081208054839081106117fd57fe5b600091825260209091206009909102016003810154909150600160a060020a031615156118605760048101548154604051600160a060020a039092169181156108fc0291906000818181858888f19350505050151561185b57600080fd5b6110dd565b600381015460048083015483546040805160e060020a63a9059cbb028152600160a060020a039384169481019490945260248401919091525192169163a9059cbb916044808201926020929091908290030181600087803b1580156118c457600080fd5b505af11580156118d8573d6000803e3d6000fd5b505050506040513d60208110156118ee57600080fd5b505115156110dd57600080fd5b600080600060018581548110151561190f57fe5b90600052602060002090600302019250600260008681526020019081526020016000208481548110151561193f57fe5b60009182526020909120600990910201600281015481546003830154929450039150600160a060020a031615156119e25760048201546002830154604051600160a060020a039092169181156108fc0291906000818181858888f1935050505015156119aa57600080fd5b8254604051600160a060020a039091169082156108fc029083906000818181858888f1935050505015156119dd57600080fd5b611b14565b600382015460048084015460028501546040805160e060020a63a9059cbb028152600160a060020a039384169481019490945260248401919091525192169163a9059cbb916044808201926020929091908290030181600087803b158015611a4957600080fd5b505af1158015611a5d573d6000803e3d6000fd5b505050506040513d6020811015611a7357600080fd5b50511515611a8057600080fd5b600382015483546040805160e060020a63a9059cbb028152600160a060020a039283166004820152602481018590529051919092169163a9059cbb9160448083019260209291908290030181600087803b158015611add57600080fd5b505af1158015611af1573d6000803e3d6000fd5b505050506040513d6020811015611b0757600080fd5b50511515611b1457600080fd5b5050505050565b6000828152600260205260408120805483908110611b3557fe5b600091825260209091206009909102016005810154909150600160a060020a0316156110dd57600354600582015460018301546040805160e060020a63a9059cbb028152600160a060020a039384166004820152602481019290925251919092169163a9059cbb9160448083019260209291908290030181600087803b1580156118c457600080fd5b600160a060020a0381161515611bd357600080fd5b60408051606081018252600160a060020a038087168252602082018581528482169383019384526001805480820182556000918252935160039094027fb10e2d527612073b26eecdfd717e6a320cf44b4afac2b0732d9fcbe2b7fa0cf681018054958516600160a060020a031996871617905591517fb10e2d527612073b26eecdfd717e6a320cf44b4afac2b0732d9fcbe2b7fa0cf783015593517fb10e2d527612073b26eecdfd717e6a320cf44b4afac2b0732d9fcbe2b7fa0cf89091018054919092169216919091179055821115611d33576003546040805160e060020a6323b872dd028152600160a060020a03878116600483015230602483015260448201869052915191909216916323b872dd9160648083019260209291908290030181600087803b158015611d0657600080fd5b505af1158015611d1a573d6000803e3d6000fd5b505050506040513d6020811015611d3057600080fd5b50505b60015460408051858152905160001990920191600160a060020a038716917fec3d306143145322b45d2788d826e3b7b9ad062f16e1ec59a5eaba214f96ee3c919081900360200190a350505050565b600160a060020a0381161515611d9757600080fd5b60008054604051600160a060020a03808516939216917f8be0079c531659141344cd1fd0a4f28419497f9722a3daafe3b4186f6b6457e091a360008054600160a060020a031916600160a060020a03929092169190911790555600a165627a7a7230582024d6d906d64825146131975f06b1b0ca07a7b6a92e7b1fa38eb49a4104830d5e0029",
  "source": "pragma solidity ^0.4.24;\n\nimport \"../../../../node_modules/openzeppelin-solidity/contracts/ownership/Ownable.sol\";\n\n/**\n * @title A Marketplace contract for managing listings, offers, payments, escrow and arbitration\n * @author Nick Poulden <nick@poulden.com>\n *\n * Listings may be priced in Eth or ERC20.\n */\n\ncontract ERC20 {\n  function transfer(address _to, uint256 _value) external returns (bool);\n  function transferFrom(address _from, address _to, uint256 _value) external returns (bool);\n}\n\ncontract V00_Marketplace is Ownable {\n\n  /**\n   * @notice All events have the same indexed signature offsets for easy filtering\n   */\n  event ListingCreated   (address indexed party, uint indexed listingID, bytes32 ipfsHash);\n  event ListingUpdated   (address indexed party, uint indexed listingID, bytes32 ipfsHash);\n  event ListingWithdrawn (address indexed party, uint indexed listingID, bytes32 ipfsHash);\n  event ListingData      (address indexed party, uint indexed listingID, bytes32 ipfsHash);\n  event ListingArbitrated(address indexed party, uint indexed listingID, bytes32 ipfsHash);\n  event OfferCreated     (address indexed party, uint indexed listingID, uint indexed offerID, bytes32 ipfsHash);\n  event OfferWithdrawn   (address indexed party, uint indexed listingID, uint indexed offerID, bytes32 ipfsHash);\n  event OfferAccepted    (address indexed party, uint indexed listingID, uint indexed offerID, bytes32 ipfsHash);\n  event OfferFundsAdded  (address indexed party, uint indexed listingID, uint indexed offerID, bytes32 ipfsHash);\n  event OfferDisputed    (address indexed party, uint indexed listingID, uint indexed offerID, bytes32 ipfsHash);\n  event OfferRuling      (address indexed party, uint indexed listingID, uint indexed offerID, bytes32 ipfsHash, uint ruling);\n  event OfferFinalized   (address indexed party, uint indexed listingID, uint indexed offerID, bytes32 ipfsHash);\n  event OfferData        (address indexed party, uint indexed listingID, uint indexed offerID, bytes32 ipfsHash);\n  event MarketplaceData  (address indexed party, bytes32 ipfsHash);\n\n  struct Listing {\n    address seller;     // Seller wallet / identity contract / other contract\n    uint deposit;       // Deposit in Origin Token\n    address arbitrator; // Address of arbitration contract\n  }\n\n  struct Offer {\n    uint value;         // Amount in Eth or token buyer is offering\n    uint commission;    // Amount of commission earned if offer is accepted\n    uint refund;        // Amount to refund buyer upon finalization\n    ERC20 currency;     // Currency of listing. Copied incase seller deleted listing\n    address buyer;      // Buyer wallet / identity contract / other contract\n    address affiliate;  // Address to send any commission\n    address arbitrator; // Address of arbitration contract\n    uint finalizes;     // Timestamp offer finalizes\n    uint8 status;       // 0: Undefined, 1: Created, 2: Accepted, 3: Disputed\n  }\n\n  Listing[] public listings;\n  mapping(uint => Offer[]) public offers; // listingID => Offers\n\n  ERC20 public tokenAddr; // Origin Token address\n\n  constructor(address _tokenAddr) public {\n    owner = msg.sender;\n    setTokenAddr(_tokenAddr); // Origin Token contract\n  }\n\n  // @dev Return the total number of listings\n  function totalListings() public constant returns (uint) {\n    return listings.length;\n  }\n\n  // @dev Return the total number of offers\n  function totalOffers(uint listingID) public constant returns (uint) {\n    return offers[listingID].length;\n  }\n\n  // @dev Seller creates listing\n  function createListing(bytes32 _ipfsHash, uint _deposit, address _arbitrator)\n    public\n  {\n    _createListing(msg.sender, _ipfsHash, _deposit, _arbitrator);\n  }\n\n  // @dev Can only be called by token\n  function createListingWithSender(\n    address _seller,\n    bytes32 _ipfsHash,\n    uint _deposit,\n    address _arbitrator\n  )\n    public returns (bool)\n  {\n    require(msg.sender == address(tokenAddr));\n    _createListing(_seller, _ipfsHash, _deposit, _arbitrator);\n    return true;\n  }\n\n  // Private\n  function _createListing(\n    address _seller,\n    bytes32 _ipfsHash,  // IPFS JSON with details, pricing, availability\n    uint _deposit,      // Deposit in Origin Token\n    address _arbitrator // Address of listing arbitrator\n  )\n    private\n  {\n    /* require(_deposit > 0); // Listings must deposit some amount of Origin Token */\n    require(_arbitrator != 0x0); // Must specify an arbitrator\n\n    listings.push(Listing({\n      seller: _seller,\n      deposit: _deposit,\n      arbitrator: _arbitrator\n    }));\n\n    if (_deposit > 0) {\n      tokenAddr.transferFrom(_seller, this, _deposit); // Transfer Origin Token\n    }\n    emit ListingCreated(_seller, listings.length - 1, _ipfsHash);\n  }\n\n  // @dev Seller updates listing\n  function updateListing(\n    uint listingID,\n    bytes32 _ipfsHash,\n    uint _additionalDeposit\n  ) public {\n    _updateListing(msg.sender, listingID, _ipfsHash, _additionalDeposit);\n  }\n\n  function updateListingWithSender(\n    address _seller,\n    uint listingID,\n    bytes32 _ipfsHash,\n    uint _additionalDeposit\n  )\n    public returns (bool)\n  {\n    require(msg.sender == address(tokenAddr)); // Only Token contract can call this method\n    _updateListing(_seller, listingID, _ipfsHash, _additionalDeposit);\n    return true;\n  }\n\n  function _updateListing(\n    address _seller,\n    uint listingID,\n    bytes32 _ipfsHash,      // Updated IPFS hash\n    uint _additionalDeposit // Additional deposit to add\n  ) private {\n    Listing storage listing = listings[listingID];\n    require(listing.seller == _seller);\n\n    if (_additionalDeposit > 0) {\n      tokenAddr.transferFrom(_seller, this, _additionalDeposit);\n      listing.deposit += _additionalDeposit;\n    }\n\n    emit ListingUpdated(listing.seller, listingID, _ipfsHash);\n  }\n\n  // @dev Listing arbitrator withdraws listing. IPFS hash contains reason for withdrawl.\n  function withdrawListing(uint listingID, address _target, bytes32 _ipfsHash) public {\n    Listing storage listing = listings[listingID];\n    require(msg.sender == listing.arbitrator);\n    require(_target != 0x0);\n    tokenAddr.transfer(_target, listing.deposit); // Send deposit to target\n    delete listings[listingID]; // Remove data to get some gas back\n    emit ListingWithdrawn(_target, listingID, _ipfsHash);\n  }\n\n  // @dev Buyer makes offer.\n  function makeOffer(\n    uint listingID,\n    bytes32 _ipfsHash,   // IPFS hash containing offer data\n    uint _finalizes,     // Timestamp an accepted offer will finalize\n    address _affiliate,  // Address to send any required commission to\n    uint256 _commission, // Amount of commission to send in Origin Token if offer finalizes\n    uint _value,         // Offer amount in ERC20 or Eth\n    ERC20 _currency,     // ERC20 token address or 0x0 for Eth\n    address _arbitrator  // Escrow arbitrator\n  )\n    public\n    payable\n  {\n    offers[listingID].push(Offer({\n      status: 1,\n      buyer: msg.sender,\n      finalizes: _finalizes,\n      affiliate: _affiliate,\n      commission: _commission,\n      currency: _currency,\n      value: _value,\n      arbitrator: _arbitrator,\n      refund: 0\n    }));\n\n    if (address(_currency) == 0x0) { // Listing is in ETH\n      require(msg.value == _value);\n    } else { // Listing is in ERC20\n      require(msg.value == 0); // Make sure no ETH is sent (would be unrecoverable)\n      require(_currency.transferFrom(msg.sender, this, _value));\n    }\n\n    emit OfferCreated(msg.sender, listingID, offers[listingID].length-1, _ipfsHash);\n  }\n\n  // @dev Make new offer after withdrawl\n  function makeOffer(\n    uint listingID,\n    bytes32 _ipfsHash,\n    uint _finalizes,\n    address _affiliate,\n    uint256 _commission,\n    uint _value,\n    ERC20 _currency,\n    address _arbitrator,\n    uint _withdrawOfferID\n  )\n    public\n    payable\n  {\n    withdrawOffer(listingID, _withdrawOfferID, _ipfsHash);\n    makeOffer(listingID, _ipfsHash, _finalizes, _affiliate, _commission, _value, _currency, _arbitrator);\n  }\n\n  // @dev Seller accepts offer\n  function acceptOffer(uint listingID, uint offerID, bytes32 _ipfsHash) public {\n    Listing storage listing = listings[listingID];\n    Offer storage offer = offers[listingID][offerID];\n    require(msg.sender == listing.seller);\n    require(offer.status == 1); // Offer must be in state 'Created'\n    require(listing.deposit >= offer.commission);\n    if (offer.finalizes < 1000000000) { // Relative finalization window\n      offer.finalizes = now + offer.finalizes;\n    }\n    listing.deposit -= offer.commission; // Accepting an offer puts Origin Token into escrow\n    offer.status = 2; // Set offer to 'Accepted'\n    emit OfferAccepted(msg.sender, listingID, offerID, _ipfsHash);\n  }\n\n  // @dev Buyer withdraws offer. IPFS hash contains reason for withdrawl.\n  function withdrawOffer(uint listingID, uint offerID, bytes32 _ipfsHash) public {\n    Listing storage listing = listings[listingID];\n    Offer storage offer = offers[listingID][offerID];\n    require(msg.sender == offer.buyer || msg.sender == listing.seller);\n    if (listing.seller == 0x0) { // If listing was withdrawn\n      require(offer.status == 1 || offer.status == 2); // Offer must be in state 'Created' or 'Accepted'\n      if (offer.status == 2) { // Pay out commission if seller accepted offer then withdrew listing\n        payCommission(listingID, offerID);\n      }\n    } else {\n      require(offer.status == 1); // Offer must be in state 'Created'\n    }\n    refundBuyer(listingID, offerID);\n    emit OfferWithdrawn(msg.sender, listingID, offerID, _ipfsHash);\n    delete offers[listingID][offerID];\n  }\n\n  // @dev Buyer adds extra funds to an accepted offer.\n  function addFunds(uint listingID, uint offerID, bytes32 _ipfsHash, uint _value) public payable {\n    Offer storage offer = offers[listingID][offerID];\n    require(msg.sender == offer.buyer);\n    require(offer.status == 2); // Offer must be in state 'Accepted'\n    if (address(offer.currency) == 0x0) { // Listing is in ETH\n      require(msg.value == _value);\n    } else { // Listing is in ERC20\n      require(msg.value == 0); // Make sure no ETH is sent (would be unrecoverable)\n      require(offer.currency.transferFrom(msg.sender, this, _value));\n    }\n    offer.value += _value;\n    emit OfferFundsAdded(msg.sender, listingID, offerID, _ipfsHash);\n  }\n\n  // @dev Buyer must finalize transaction to receive commission\n  function finalize(uint listingID, uint offerID, bytes32 _ipfsHash) public {\n    Listing storage listing = listings[listingID];\n    Offer storage offer = offers[listingID][offerID];\n    if (now <= offer.finalizes) { // Only buyer can finalize before finalization window\n      require(msg.sender == offer.buyer);\n    } else { // Allow both seller and buyer to finalize if finalization window has passed\n      require(msg.sender == offer.buyer || msg.sender == listing.seller);\n    }\n    require(offer.status == 2); // Offer must be in state 'Accepted'\n    paySeller(listingID, offerID); // Pay seller\n    if (msg.sender == offer.buyer) { // Only pay commission if buyer is finalizing\n      payCommission(listingID, offerID);\n    }\n    emit OfferFinalized(msg.sender, listingID, offerID, _ipfsHash);\n    delete offers[listingID][offerID];\n  }\n\n  // @dev Buyer or seller can dispute transaction during finalization window\n  function dispute(uint listingID, uint offerID, bytes32 _ipfsHash) public {\n    Listing storage listing = listings[listingID];\n    Offer storage offer = offers[listingID][offerID];\n    require(msg.sender == offer.buyer || msg.sender == listing.seller);\n    require(offer.status == 2); // Offer must be in 'Accepted' state\n    require(now <= offer.finalizes); // Must be before agreed finalization window\n    offer.status = 3; // Set status to \"Disputed\"\n    emit OfferDisputed(msg.sender, listingID, offerID, _ipfsHash);\n  }\n\n  // @dev Called by arbitrator\n  function executeRuling(\n    uint listingID,\n    uint offerID,\n    bytes32 _ipfsHash,\n    uint _ruling, // 0: Seller, 1: Buyer, 2: Com + Seller, 3: Com + Buyer\n    uint _refund\n  ) public {\n    Offer storage offer = offers[listingID][offerID];\n    require(msg.sender == offer.arbitrator);\n    require(offer.status == 3); // Offer must be 'disputed'\n    require(_refund <= offer.value); // Cannot refund more than value of listing\n    offer.refund = _refund;\n    if (_ruling & 1 == 1) {\n      refundBuyer(listingID, offerID);\n    } else  {\n      paySeller(listingID, offerID);\n    }\n    if (_ruling & 2 == 2) {\n      payCommission(listingID, offerID);\n    } else  { // Refund commission to seller\n      listings[listingID].deposit += offer.commission;\n    }\n    emit OfferRuling(offer.arbitrator, listingID, offerID, _ipfsHash, _ruling);\n    delete offers[listingID][offerID];\n  }\n\n  // @dev Sets the amount that a seller wants to refund to a buyer.\n  function updateRefund(uint listingID, uint offerID, uint _refund, bytes32 _ipfsHash) public {\n    Offer storage offer = offers[listingID][offerID];\n    Listing storage listing = listings[listingID];\n    require(msg.sender == listing.seller);\n    require(offer.status == 2); // Offer must be 'Accepted'\n    require(_refund <= offer.value);\n    offer.refund = _refund;\n    emit OfferData(msg.sender, listingID, offerID, _ipfsHash);\n  }\n\n  // @dev Refunds buyer in ETH or ERC20 - used by 1) executeRuling() and 2) to allow a seller to refund a purchase\n  function refundBuyer(uint listingID, uint offerID) private {\n    Offer storage offer = offers[listingID][offerID];\n    if (address(offer.currency) == 0x0) {\n      require(offer.buyer.send(offer.value));\n    } else {\n      require(offer.currency.transfer(offer.buyer, offer.value));\n    }\n  }\n\n  // @dev Pay seller in ETH or ERC20\n  function paySeller(uint listingID, uint offerID) private {\n    Listing storage listing = listings[listingID];\n    Offer storage offer = offers[listingID][offerID];\n    uint value = offer.value - offer.refund;\n\n    if (address(offer.currency) == 0x0) {\n      require(offer.buyer.send(offer.refund));\n      require(listing.seller.send(value));\n    } else {\n      require(offer.currency.transfer(offer.buyer, offer.refund));\n      require(offer.currency.transfer(listing.seller, value));\n    }\n  }\n\n  // @dev Pay commission to affiliate\n  function payCommission(uint listingID, uint offerID) private {\n    Offer storage offer = offers[listingID][offerID];\n    if (offer.affiliate != 0x0) {\n      require(tokenAddr.transfer(offer.affiliate, offer.commission));\n    }\n  }\n\n  function addData(bytes32 ipfsHash) public {\n    emit MarketplaceData(msg.sender, ipfsHash);\n  }\n\n  function addData(uint listingID, bytes32 ipfsHash) public {\n    emit ListingData(msg.sender, listingID, ipfsHash);\n  }\n\n  // @dev Associate ipfs data with an offer\n  function addData(uint listingID, uint offerID, bytes32 ipfsHash) public {\n    emit OfferData(msg.sender, listingID, offerID, ipfsHash);\n  }\n\n  // @dev Allow listing arbitrator to send deposit\n  function sendDeposit(uint listingID, address target, uint value, bytes32 ipfsHash) public {\n    Listing storage listing = listings[listingID];\n    require(listing.arbitrator == msg.sender);\n    require(listing.deposit >= value);\n    listing.deposit -= value;\n    require(tokenAddr.transfer(target, value));\n    emit ListingArbitrated(target, listingID, ipfsHash);\n  }\n\n  // @dev Set the address of the Origin token contract\n  function setTokenAddr(address _tokenAddr) public onlyOwner {\n    tokenAddr = ERC20(_tokenAddr);\n  }\n}\n",
  "sourcePath": "/Users/stan/Origin/origin-box/origin-js/contracts/contracts/marketplace/v00/Marketplace.sol",
  "compiler": {
    "name": "solc",
    "version": "0.4.24+commit.e67f0147.Emscripten.clang"
  },
  "schemaVersion": "2.0.1",
  "updatedAt": "2018-09-20T16:16:03.485Z"
}