{
  "contractName": "V00_Marketplace",
  "abi": [
    {
      "constant": true,
      "inputs": [
        {
          "name": "",
          "type": "uint256"
        },
        {
          "name": "",
          "type": "uint256"
        }
      ],
      "name": "offers",
      "outputs": [
        {
          "name": "value",
          "type": "uint256"
        },
        {
          "name": "commission",
          "type": "uint256"
        },
        {
          "name": "refund",
          "type": "uint256"
        },
        {
          "name": "currency",
          "type": "address"
        },
        {
          "name": "buyer",
          "type": "address"
        },
        {
          "name": "affiliate",
          "type": "address"
        },
        {
          "name": "arbitrator",
          "type": "address"
        },
        {
          "name": "finalizes",
          "type": "uint256"
        },
        {
          "name": "status",
          "type": "uint8"
        }
      ],
      "payable": false,
      "stateMutability": "view",
      "type": "function"
    },
    {
      "constant": true,
      "inputs": [],
      "name": "tokenAddr",
      "outputs": [
        {
          "name": "",
          "type": "address"
        }
      ],
      "payable": false,
      "stateMutability": "view",
      "type": "function"
    },
    {
      "constant": false,
      "inputs": [],
      "name": "renounceOwnership",
      "outputs": [],
      "payable": false,
      "stateMutability": "nonpayable",
      "type": "function"
    },
    {
      "constant": true,
      "inputs": [],
      "name": "owner",
      "outputs": [
        {
          "name": "",
          "type": "address"
        }
      ],
      "payable": false,
      "stateMutability": "view",
      "type": "function"
    },
    {
      "constant": true,
      "inputs": [
        {
          "name": "",
          "type": "uint256"
        }
      ],
      "name": "listings",
      "outputs": [
        {
          "name": "seller",
          "type": "address"
        },
        {
          "name": "deposit",
          "type": "uint256"
        },
        {
          "name": "arbitrator",
          "type": "address"
        }
      ],
      "payable": false,
      "stateMutability": "view",
      "type": "function"
    },
    {
      "constant": false,
      "inputs": [
        {
          "name": "_newOwner",
          "type": "address"
        }
      ],
      "name": "transferOwnership",
      "outputs": [],
      "payable": false,
      "stateMutability": "nonpayable",
      "type": "function"
    },
    {
      "inputs": [
        {
          "name": "_tokenAddr",
          "type": "address"
        }
      ],
      "payable": false,
      "stateMutability": "nonpayable",
      "type": "constructor"
    },
    {
      "anonymous": false,
      "inputs": [
        {
          "indexed": true,
          "name": "party",
          "type": "address"
        },
        {
          "indexed": true,
          "name": "listingID",
          "type": "uint256"
        },
        {
          "indexed": false,
          "name": "ipfsHash",
          "type": "bytes32"
        }
      ],
      "name": "ListingCreated",
      "type": "event"
    },
    {
      "anonymous": false,
      "inputs": [
        {
          "indexed": true,
          "name": "party",
          "type": "address"
        },
        {
          "indexed": true,
          "name": "listingID",
          "type": "uint256"
        },
        {
          "indexed": false,
          "name": "ipfsHash",
          "type": "bytes32"
        }
      ],
      "name": "ListingUpdated",
      "type": "event"
    },
    {
      "anonymous": false,
      "inputs": [
        {
          "indexed": true,
          "name": "party",
          "type": "address"
        },
        {
          "indexed": true,
          "name": "listingID",
          "type": "uint256"
        },
        {
          "indexed": false,
          "name": "ipfsHash",
          "type": "bytes32"
        }
      ],
      "name": "ListingWithdrawn",
      "type": "event"
    },
    {
      "anonymous": false,
      "inputs": [
        {
          "indexed": true,
          "name": "party",
          "type": "address"
        },
        {
          "indexed": true,
          "name": "listingID",
          "type": "uint256"
        },
        {
          "indexed": false,
          "name": "ipfsHash",
          "type": "bytes32"
        }
      ],
      "name": "ListingData",
      "type": "event"
    },
    {
      "anonymous": false,
      "inputs": [
        {
          "indexed": true,
          "name": "party",
          "type": "address"
        },
        {
          "indexed": true,
          "name": "listingID",
          "type": "uint256"
        },
        {
          "indexed": false,
          "name": "ipfsHash",
          "type": "bytes32"
        }
      ],
      "name": "ListingArbitrated",
      "type": "event"
    },
    {
      "anonymous": false,
      "inputs": [
        {
          "indexed": true,
          "name": "party",
          "type": "address"
        },
        {
          "indexed": true,
          "name": "listingID",
          "type": "uint256"
        },
        {
          "indexed": true,
          "name": "offerID",
          "type": "uint256"
        },
        {
          "indexed": false,
          "name": "ipfsHash",
          "type": "bytes32"
        }
      ],
      "name": "OfferCreated",
      "type": "event"
    },
    {
      "anonymous": false,
      "inputs": [
        {
          "indexed": true,
          "name": "party",
          "type": "address"
        },
        {
          "indexed": true,
          "name": "listingID",
          "type": "uint256"
        },
        {
          "indexed": true,
          "name": "offerID",
          "type": "uint256"
        },
        {
          "indexed": false,
          "name": "ipfsHash",
          "type": "bytes32"
        }
      ],
      "name": "OfferWithdrawn",
      "type": "event"
    },
    {
      "anonymous": false,
      "inputs": [
        {
          "indexed": true,
          "name": "party",
          "type": "address"
        },
        {
          "indexed": true,
          "name": "listingID",
          "type": "uint256"
        },
        {
          "indexed": true,
          "name": "offerID",
          "type": "uint256"
        },
        {
          "indexed": false,
          "name": "ipfsHash",
          "type": "bytes32"
        }
      ],
      "name": "OfferAccepted",
      "type": "event"
    },
    {
      "anonymous": false,
      "inputs": [
        {
          "indexed": true,
          "name": "party",
          "type": "address"
        },
        {
          "indexed": true,
          "name": "listingID",
          "type": "uint256"
        },
        {
          "indexed": true,
          "name": "offerID",
          "type": "uint256"
        },
        {
          "indexed": false,
          "name": "ipfsHash",
          "type": "bytes32"
        }
      ],
      "name": "OfferFundsAdded",
      "type": "event"
    },
    {
      "anonymous": false,
      "inputs": [
        {
          "indexed": true,
          "name": "party",
          "type": "address"
        },
        {
          "indexed": true,
          "name": "listingID",
          "type": "uint256"
        },
        {
          "indexed": true,
          "name": "offerID",
          "type": "uint256"
        },
        {
          "indexed": false,
          "name": "ipfsHash",
          "type": "bytes32"
        }
      ],
      "name": "OfferDisputed",
      "type": "event"
    },
    {
      "anonymous": false,
      "inputs": [
        {
          "indexed": true,
          "name": "party",
          "type": "address"
        },
        {
          "indexed": true,
          "name": "listingID",
          "type": "uint256"
        },
        {
          "indexed": true,
          "name": "offerID",
          "type": "uint256"
        },
        {
          "indexed": false,
          "name": "ipfsHash",
          "type": "bytes32"
        },
        {
          "indexed": false,
          "name": "ruling",
          "type": "uint256"
        }
      ],
      "name": "OfferRuling",
      "type": "event"
    },
    {
      "anonymous": false,
      "inputs": [
        {
          "indexed": true,
          "name": "party",
          "type": "address"
        },
        {
          "indexed": true,
          "name": "listingID",
          "type": "uint256"
        },
        {
          "indexed": true,
          "name": "offerID",
          "type": "uint256"
        },
        {
          "indexed": false,
          "name": "ipfsHash",
          "type": "bytes32"
        }
      ],
      "name": "OfferFinalized",
      "type": "event"
    },
    {
      "anonymous": false,
      "inputs": [
        {
          "indexed": true,
          "name": "party",
          "type": "address"
        },
        {
          "indexed": true,
          "name": "listingID",
          "type": "uint256"
        },
        {
          "indexed": true,
          "name": "offerID",
          "type": "uint256"
        },
        {
          "indexed": false,
          "name": "ipfsHash",
          "type": "bytes32"
        }
      ],
      "name": "OfferData",
      "type": "event"
    },
    {
      "anonymous": false,
      "inputs": [
        {
          "indexed": true,
          "name": "party",
          "type": "address"
        },
        {
          "indexed": false,
          "name": "ipfsHash",
          "type": "bytes32"
        }
      ],
      "name": "MarketplaceData",
      "type": "event"
    },
    {
      "anonymous": false,
      "inputs": [
        {
          "indexed": true,
          "name": "previousOwner",
          "type": "address"
        }
      ],
      "name": "OwnershipRenounced",
      "type": "event"
    },
    {
      "anonymous": false,
      "inputs": [
        {
          "indexed": true,
          "name": "previousOwner",
          "type": "address"
        },
        {
          "indexed": true,
          "name": "newOwner",
          "type": "address"
        }
      ],
      "name": "OwnershipTransferred",
      "type": "event"
    },
    {
      "constant": true,
      "inputs": [],
      "name": "totalListings",
      "outputs": [
        {
          "name": "",
          "type": "uint256"
        }
      ],
      "payable": false,
      "stateMutability": "view",
      "type": "function"
    },
    {
      "constant": true,
      "inputs": [
        {
          "name": "listingID",
          "type": "uint256"
        }
      ],
      "name": "totalOffers",
      "outputs": [
        {
          "name": "",
          "type": "uint256"
        }
      ],
      "payable": false,
      "stateMutability": "view",
      "type": "function"
    },
    {
      "constant": false,
      "inputs": [
        {
          "name": "_ipfsHash",
          "type": "bytes32"
        },
        {
          "name": "_deposit",
          "type": "uint256"
        },
        {
          "name": "_arbitrator",
          "type": "address"
        }
      ],
      "name": "createListing",
      "outputs": [],
      "payable": false,
      "stateMutability": "nonpayable",
      "type": "function"
    },
    {
      "constant": false,
      "inputs": [
        {
          "name": "_seller",
          "type": "address"
        },
        {
          "name": "_ipfsHash",
          "type": "bytes32"
        },
        {
          "name": "_deposit",
          "type": "uint256"
        },
        {
          "name": "_arbitrator",
          "type": "address"
        }
      ],
      "name": "createListingWithSender",
      "outputs": [
        {
          "name": "",
          "type": "bool"
        }
      ],
      "payable": false,
      "stateMutability": "nonpayable",
      "type": "function"
    },
    {
      "constant": false,
      "inputs": [
        {
          "name": "listingID",
          "type": "uint256"
        },
        {
          "name": "_ipfsHash",
          "type": "bytes32"
        },
        {
          "name": "_additionalDeposit",
          "type": "uint256"
        }
      ],
      "name": "updateListing",
      "outputs": [],
      "payable": false,
      "stateMutability": "nonpayable",
      "type": "function"
    },
    {
      "constant": false,
      "inputs": [
        {
          "name": "_seller",
          "type": "address"
        },
        {
          "name": "listingID",
          "type": "uint256"
        },
        {
          "name": "_ipfsHash",
          "type": "bytes32"
        },
        {
          "name": "_additionalDeposit",
          "type": "uint256"
        }
      ],
      "name": "updateListingWithSender",
      "outputs": [
        {
          "name": "",
          "type": "bool"
        }
      ],
      "payable": false,
      "stateMutability": "nonpayable",
      "type": "function"
    },
    {
      "constant": false,
      "inputs": [
        {
          "name": "listingID",
          "type": "uint256"
        },
        {
          "name": "_target",
          "type": "address"
        },
        {
          "name": "_ipfsHash",
          "type": "bytes32"
        }
      ],
      "name": "withdrawListing",
      "outputs": [],
      "payable": false,
      "stateMutability": "nonpayable",
      "type": "function"
    },
    {
      "constant": false,
      "inputs": [
        {
          "name": "listingID",
          "type": "uint256"
        },
        {
          "name": "_ipfsHash",
          "type": "bytes32"
        },
        {
          "name": "_finalizes",
          "type": "uint256"
        },
        {
          "name": "_affiliate",
          "type": "address"
        },
        {
          "name": "_commission",
          "type": "uint256"
        },
        {
          "name": "_value",
          "type": "uint256"
        },
        {
          "name": "_currency",
          "type": "address"
        },
        {
          "name": "_arbitrator",
          "type": "address"
        }
      ],
      "name": "makeOffer",
      "outputs": [],
      "payable": true,
      "stateMutability": "payable",
      "type": "function"
    },
    {
      "constant": false,
      "inputs": [
        {
          "name": "listingID",
          "type": "uint256"
        },
        {
          "name": "_ipfsHash",
          "type": "bytes32"
        },
        {
          "name": "_finalizes",
          "type": "uint256"
        },
        {
          "name": "_affiliate",
          "type": "address"
        },
        {
          "name": "_commission",
          "type": "uint256"
        },
        {
          "name": "_value",
          "type": "uint256"
        },
        {
          "name": "_currency",
          "type": "address"
        },
        {
          "name": "_arbitrator",
          "type": "address"
        },
        {
          "name": "_withdrawOfferID",
          "type": "uint256"
        }
      ],
      "name": "makeOffer",
      "outputs": [],
      "payable": true,
      "stateMutability": "payable",
      "type": "function"
    },
    {
      "constant": false,
      "inputs": [
        {
          "name": "listingID",
          "type": "uint256"
        },
        {
          "name": "offerID",
          "type": "uint256"
        },
        {
          "name": "_ipfsHash",
          "type": "bytes32"
        }
      ],
      "name": "acceptOffer",
      "outputs": [],
      "payable": false,
      "stateMutability": "nonpayable",
      "type": "function"
    },
    {
      "constant": false,
      "inputs": [
        {
          "name": "listingID",
          "type": "uint256"
        },
        {
          "name": "offerID",
          "type": "uint256"
        },
        {
          "name": "_ipfsHash",
          "type": "bytes32"
        }
      ],
      "name": "withdrawOffer",
      "outputs": [],
      "payable": false,
      "stateMutability": "nonpayable",
      "type": "function"
    },
    {
      "constant": false,
      "inputs": [
        {
          "name": "listingID",
          "type": "uint256"
        },
        {
          "name": "offerID",
          "type": "uint256"
        },
        {
          "name": "_ipfsHash",
          "type": "bytes32"
        },
        {
          "name": "_value",
          "type": "uint256"
        }
      ],
      "name": "addFunds",
      "outputs": [],
      "payable": true,
      "stateMutability": "payable",
      "type": "function"
    },
    {
      "constant": false,
      "inputs": [
        {
          "name": "listingID",
          "type": "uint256"
        },
        {
          "name": "offerID",
          "type": "uint256"
        },
        {
          "name": "_ipfsHash",
          "type": "bytes32"
        }
      ],
      "name": "finalize",
      "outputs": [],
      "payable": false,
      "stateMutability": "nonpayable",
      "type": "function"
    },
    {
      "constant": false,
      "inputs": [
        {
          "name": "listingID",
          "type": "uint256"
        },
        {
          "name": "offerID",
          "type": "uint256"
        },
        {
          "name": "_ipfsHash",
          "type": "bytes32"
        }
      ],
      "name": "dispute",
      "outputs": [],
      "payable": false,
      "stateMutability": "nonpayable",
      "type": "function"
    },
    {
      "constant": false,
      "inputs": [
        {
          "name": "listingID",
          "type": "uint256"
        },
        {
          "name": "offerID",
          "type": "uint256"
        },
        {
          "name": "_ipfsHash",
          "type": "bytes32"
        },
        {
          "name": "_ruling",
          "type": "uint256"
        },
        {
          "name": "_refund",
          "type": "uint256"
        }
      ],
      "name": "executeRuling",
      "outputs": [],
      "payable": false,
      "stateMutability": "nonpayable",
      "type": "function"
    },
    {
      "constant": false,
      "inputs": [
        {
          "name": "listingID",
          "type": "uint256"
        },
        {
          "name": "offerID",
          "type": "uint256"
        },
        {
          "name": "_refund",
          "type": "uint256"
        },
        {
          "name": "_ipfsHash",
          "type": "bytes32"
        }
      ],
      "name": "updateRefund",
      "outputs": [],
      "payable": false,
      "stateMutability": "nonpayable",
      "type": "function"
    },
    {
      "constant": false,
      "inputs": [
        {
          "name": "ipfsHash",
          "type": "bytes32"
        }
      ],
      "name": "addData",
      "outputs": [],
      "payable": false,
      "stateMutability": "nonpayable",
      "type": "function"
    },
    {
      "constant": false,
      "inputs": [
        {
          "name": "listingID",
          "type": "uint256"
        },
        {
          "name": "ipfsHash",
          "type": "bytes32"
        }
      ],
      "name": "addData",
      "outputs": [],
      "payable": false,
      "stateMutability": "nonpayable",
      "type": "function"
    },
    {
      "constant": false,
      "inputs": [
        {
          "name": "listingID",
          "type": "uint256"
        },
        {
          "name": "offerID",
          "type": "uint256"
        },
        {
          "name": "ipfsHash",
          "type": "bytes32"
        }
      ],
      "name": "addData",
      "outputs": [],
      "payable": false,
      "stateMutability": "nonpayable",
      "type": "function"
    },
    {
      "constant": false,
      "inputs": [
        {
          "name": "listingID",
          "type": "uint256"
        },
        {
          "name": "target",
          "type": "address"
        },
        {
          "name": "value",
          "type": "uint256"
        },
        {
          "name": "ipfsHash",
          "type": "bytes32"
        }
      ],
      "name": "sendDeposit",
      "outputs": [],
      "payable": false,
      "stateMutability": "nonpayable",
      "type": "function"
    },
    {
      "constant": false,
      "inputs": [
        {
          "name": "_tokenAddr",
          "type": "address"
        }
      ],
      "name": "setTokenAddr",
      "outputs": [],
      "payable": false,
      "stateMutability": "nonpayable",
      "type": "function"
    }
  ],
  "bytecode": "0x608060405234801561001057600080fd5b5060405160208062002b1883398101604052516000805433600160a060020a0319918216811790911617905561004e81640100000000610054810204565b5061008d565b600054600160a060020a0316331461006b57600080fd5b60038054600160a060020a031916600160a060020a0392909216919091179055565b612a7b806200009d6000396000f30060806040526004361061015e5763ffffffff7c01000000000000000000000000000000000000000000000000000000006000350416631d34be47811461016357806328af94c8146101865780632ebd1e281461019e5780634d03a9a5146101bf57806351b18250146102325780635f0da25b146102635780635fbe4d1d1461028d57806370809757146102be578063715018a6146102dc5780637d19514d146102f15780638da5cb5b1461030557806391f1f3101461031a5780639a8d10a3146103445780639c3f7ca21461035f578063a3111d7c1461037d578063bf77aa1f146103a4578063c73111dd146103c2578063c78b616c146103e6578063c9c8580c146103fb578063ca27eb1c14610430578063cea4b68714610457578063d9fefbf814610495578063de400629146104b3578063de74e57b146104e2578063ebe65f6014610525578063f2fde38b14610543578063fde34dc414610564575b600080fd5b34801561016f57600080fd5b50610184600435602435604435606435610582565b005b34801561019257600080fd5b50610184600435610721565b3480156101aa57600080fd5b50610184600160a060020a036004351661075a565b3480156101cb57600080fd5b506101da600435602435610793565b60408051998a5260208a019890985288880196909652600160a060020a039485166060890152928416608088015290831660a087015290911660c085015260e084015260ff1661010083015251908190036101200190f35b610184600435602435604435600160a060020a036064358116906084359060a4359060c43581169060e43516610810565b34801561026f57600080fd5b50610184600435600160a060020a0360243516604435606435610bb0565b34801561029957600080fd5b506102a2610dc2565b60408051600160a060020a039092168252519081900360200190f35b3480156102ca57600080fd5b50610184600435602435604435610dd1565b3480156102e857600080fd5b50610184610f99565b610184600435602435604435606435610ff8565b34801561031157600080fd5b506102a26112c4565b34801561032657600080fd5b506103326004356112d3565b60408051918252519081900360200190f35b34801561035057600080fd5b506101846004356024356112e5565b34801561036b57600080fd5b50610184600435602435604435611320565b34801561038957600080fd5b50610184600435600160a060020a0360243516604435611510565b3480156103b057600080fd5b5061018460043560243560443561170d565b3480156103ce57600080fd5b5061018460043560243560443560643560843561171e565b3480156103f257600080fd5b506103326119b5565b610184600435602435604435600160a060020a036064358116906084359060a4359060c43581169060e43516610104356119bb565b34801561043c57600080fd5b50610184600435602435600160a060020a03604435166119e1565b34801561046357600080fd5b50610481600160a060020a03600435166024356044356064356119ed565b604080519115158252519081900360200190f35b3480156104a157600080fd5b50610184600435602435604435611a69565b3480156104bf57600080fd5b50610481600160a060020a03600435811690602435906044359060643516611aa8565b3480156104ee57600080fd5b506104fa600435611b19565b60408051600160a060020a039485168152602081019390935292168183015290519081900360600190f35b34801561053157600080fd5b50610184600435602435604435611b55565b34801561054f57600080fd5b50610184600160a060020a0360043516611df2565b34801561057057600080fd5b50610184600435602435604435611e15565b600084815260026020526040812080548291908690811061059f57fe5b906000526020600020906009020191506001868154811015156105be57fe5b600091825260209091206003909102018054909150600160a060020a03163314610632576040805160e560020a62461bcd02815260206004820152601060248201527f53656c6c6572206d7573742063616c6c00000000000000000000000000000000604482015290519081900360640190fd5b600882015460ff1660021461067f576040805160e560020a62461bcd0281526020600482015260126024820152600080516020612a30833981519152604482015290519081900360640190fd5b81548411156106d8576040805160e560020a62461bcd02815260206004820152601060248201527f45786365737369766520726566756e6400000000000000000000000000000000604482015290519081900360640190fd5b600282018490556040805184815290518691889133917f9b7312a236066d2da679eba7e3a2e86d2d07a973819499846c0efd2fd2506c80919081900360200190a4505050505050565b60408051828152905133917f8e530f3a09c59fdf1b0d5ed714b7a5b94c059256cdc29b8521e9891734c6a2b7919081900360200190a250565b600054600160a060020a0316331461077157600080fd5b60038054600160a060020a031916600160a060020a0392909216919091179055565b6002602052816000526040600020818154811015156107ae57fe5b60009182526020909120600990910201805460018201546002830154600384015460048501546005860154600687015460078801546008909801549699509497509295600160a060020a03928316959183169493831693909216919060ff1689565b60026000898152602001908152602001600020610120604051908101604052808581526020018681526020016000815260200184600160a060020a0316815260200133600160a060020a0316815260200187600160a060020a0316815260200183600160a060020a03168152602001888152602001600160ff168152509080600181540180825580915050906001820390600052602060002090600902016000909192909190915060008201518160000155602082015181600101556040820151816002015560608201518160030160006101000a815481600160a060020a030219169083600160a060020a0316021790555060808201518160040160006101000a815481600160a060020a030219169083600160a060020a0316021790555060a08201518160050160006101000a815481600160a060020a030219169083600160a060020a0316021790555060c08201518160060160006101000a815481600160a060020a030219169083600160a060020a0316021790555060e082015181600701556101008201518160080160006101000a81548160ff021916908360ff16021790555050505081600160a060020a031660001415610a2757348314610a22576040805160e560020a62461bcd02815260206004820152601d60248201527f4554482076616c756520646f65736e2774206d61746368206f66666572000000604482015290519081900360640190fd5b610b57565b3415610a7d576040805160e560020a62461bcd02815260206004820152601160248201527f45544820776f756c64206265206c6f7374000000000000000000000000000000604482015290519081900360640190fd5b6040805160e060020a6323b872dd028152336004820152306024820152604481018590529051600160a060020a038416916323b872dd9160648083019260209291908290030181600087803b158015610ad557600080fd5b505af1158015610ae9573d6000803e3d6000fd5b505050506040513d6020811015610aff57600080fd5b50511515610b57576040805160e560020a62461bcd02815260206004820152601360248201527f7472616e7366657246726f6d206661696c656400000000000000000000000000604482015290519081900360640190fd5b6000888152600260209081526040918290205482518a81529251600019909101928b9233927f6ee68cb753f284cf771c1a32c236d7ffcab6011345186a30e57837d761e868379281900390910190a45050505050505050565b6000600185815481101515610bc157fe5b60009182526020909120600260039092020190810154909150600160a060020a03163314610c39576040805160e560020a62461bcd02815260206004820152601460248201527f41726269747261746f72206d7573742063616c6c000000000000000000000000604482015290519081900360640190fd5b6001810154831115610c95576040805160e560020a62461bcd02815260206004820152600e60248201527f56616c756520746f6f2068696768000000000000000000000000000000000000604482015290519081900360640190fd5b60018101805484900390556003546040805160e060020a63a9059cbb028152600160a060020a038781166004830152602482018790529151919092169163a9059cbb9160448083019260209291908290030181600087803b158015610cf957600080fd5b505af1158015610d0d573d6000803e3d6000fd5b505050506040513d6020811015610d2357600080fd5b50511515610d7b576040805160e560020a62461bcd02815260206004820152600f60248201527f5472616e73666572206661696c65640000000000000000000000000000000000604482015290519081900360640190fd5b6040805183815290518691600160a060020a038716917f9c9827b799328bcbadbd04862686713436136571c54d7ca0388bd952f314f8909181900360200190a35050505050565b600354600160a060020a031681565b600080600185815481101515610de357fe5b906000526020600020906003020191506002600086815260200190815260200160002084815481101515610e1357fe5b600091825260209091206009909102016004810154909150600160a060020a0316331480610e4a57508154600160a060020a031633145b1515610ea0576040805160e560020a62461bcd02815260206004820152601760248201527f4d7573742062652073656c6c6572206f72206275796572000000000000000000604482015290519081900360640190fd5b600881015460ff16600214610eed576040805160e560020a62461bcd0281526020600482015260126024820152600080516020612a30833981519152604482015290519081900360640190fd5b6007810154421115610f49576040805160e560020a62461bcd02815260206004820152601160248201527f416c72656164792066696e616c697a6564000000000000000000000000000000604482015290519081900360640190fd5b60088101805460ff191660031790556040805184815290518591879133917f11c45991938e1dec0b00887cd2368a2195fccb46b08cc56483ac3053ddb609b2919081900360200190a45050505050565b600054600160a060020a03163314610fb057600080fd5b60008054604051600160a060020a03909116917ff8df31144d9c2f0f6b59d69b8b98abd5459d07f2742c4df920b25aae33c6482091a260008054600160a060020a0319169055565b600084815260026020526040812080548590811061101257fe5b600091825260209091206009909102016004810154909150600160a060020a03163314611089576040805160e560020a62461bcd02815260206004820152600f60248201527f4275796572206d7573742063616c6c0000000000000000000000000000000000604482015290519081900360640190fd5b600881015460ff166002146110d6576040805160e560020a62461bcd0281526020600482015260126024820152600080516020612a30833981519152604482015290519081900360640190fd5b6003810154600160a060020a0316151561114657348214611141576040805160e560020a62461bcd02815260206004820152601560248201527f73656e7420213d206f6666657265642076616c75650000000000000000000000604482015290519081900360640190fd5b61127d565b341561119c576040805160e560020a62461bcd02815260206004820152601460248201527f455448206d757374206e6f742062652073656e74000000000000000000000000604482015290519081900360640190fd5b60038101546040805160e060020a6323b872dd028152336004820152306024820152604481018590529051600160a060020a03909216916323b872dd916064808201926020929091908290030181600087803b1580156111fb57600080fd5b505af115801561120f573d6000803e3d6000fd5b505050506040513d602081101561122557600080fd5b5051151561127d576040805160e560020a62461bcd02815260206004820152601360248201527f7472616e7366657246726f6d206661696c656400000000000000000000000000604482015290519081900360640190fd5b8054820181556040805184815290518591879133917f5f0e66c42b81a43cbd35b11ea0a599d0be1d8e1fdb61d1d4f7a98243ba6cc26b919081900360200190a45050505050565b600054600160a060020a031681565b60009081526002602052604090205490565b604080518281529051839133917f12dc84d4005dd5b86fd88951106aa76927a62b83b85ba9c912a7268582906aa99181900360200190a35050565b60008060018581548110151561133257fe5b90600052602060002090600302019150600260008681526020019081526020016000208481548110151561136257fe5b6000918252602090912083546009909202019150600160a060020a031633146113d5576040805160e560020a62461bcd02815260206004820152601260248201527f53656c6c6572206d757374206163636570740000000000000000000000000000604482015290519081900360640190fd5b600881015460ff16600114611434576040805160e560020a62461bcd02815260206004820152601160248201527f73746174757320213d2063726561746564000000000000000000000000000000604482015290519081900360640190fd5b600180820154908301541015611494576040805160e560020a62461bcd02815260206004820152601d60248201527f6465706f736974206d75737420636f76657220636f6d6d697373696f6e000000604482015290519081900360640190fd5b633b9aca00816007015410156114af57600781018054420190555b600180820154908301805491909103905560088101805460ff191660021790556040805184815290518591879133917f449224201a35688b74a38ff24770e8b2a326ebf42357bf19a36f5fedbbe552a0919081900360200190a45050505050565b600060018481548110151561152157fe5b600091825260209091206003909102016002810154909150600160a060020a03163314611598576040805160e560020a62461bcd02815260206004820152601360248201527f41726269747261746f7220726571756972656400000000000000000000000000604482015290519081900360640190fd5b600160a060020a03831615156115f8576040805160e560020a62461bcd02815260206004820152600960248201527f4e6f207461726765740000000000000000000000000000000000000000000000604482015290519081900360640190fd5b60035460018201546040805160e060020a63a9059cbb028152600160a060020a03878116600483015260248201939093529051919092169163a9059cbb9160448083019260209291908290030181600087803b15801561165757600080fd5b505af115801561166b573d6000803e3d6000fd5b505050506040513d602081101561168157600080fd5b5050600180548590811061169157fe5b6000918252602080832060039092029091018054600160a060020a03199081168255600182019390935560020180549092169091556040805184815290518692600160a060020a038716927fafa3dc4f271ef3419006f21140d375eba48ef3def56e8bfe6d54d0c72a81a307929081900390910190a350505050565b61171933848484612021565b505050565b600085815260026020526040812080548690811061173857fe5b600091825260209091206009909102016006810154909150600160a060020a031633146117af576040805160e560020a62461bcd02815260206004820152601260248201527f4d7573742062652061726269747261746f720000000000000000000000000000604482015290519081900360640190fd5b600881015460ff1660031461180e576040805160e560020a62461bcd02815260206004820152601260248201527f73746174757320213d2064697370757465640000000000000000000000000000604482015290519081900360640190fd5b8054821115611867576040805160e560020a62461bcd02815260206004820152600f60248201527f726566756e6420746f6f20686967680000000000000000000000000000000000604482015290519081900360640190fd5b6002810182905560018084161415611888576118838686612191565b611892565b611892868661233f565b82600216600214156118ad576118a8868661268b565b6118dc565b80600101546001878154811015156118c157fe5b60009182526020909120600160039092020101805490910190555b60068101546040805186815260208101869052815188938a93600160a060020a03909116927f3e4d55eb2a402ba6f500db5d75f9303dfe863a2e8319054aeddb6a35ec7e3c61929081900390910190a4600086815260026020526040902080548690811061194657fe5b6000918252602082206009909102018181556001810182905560028101829055600381018054600160a060020a0319908116909155600482018054821690556005820180548216905560068201805490911690556007810191909155600801805460ff19169055505050505050565b60015490565b6119c689828a611b55565b6119d68989898989898989610810565b505050505050505050565b611719338484846127b0565b600354600090600160a060020a03163314611a52576040805160e560020a62461bcd02815260206004820152600f60248201527f546f6b656e206d7573742063616c6c0000000000000000000000000000000000604482015290519081900360640190fd5b611a5e85858585612021565b506001949350505050565b6040805182815290518391859133917f9b7312a236066d2da679eba7e3a2e86d2d07a973819499846c0efd2fd2506c80919081900360200190a4505050565b600354600090600160a060020a03163314611b0d576040805160e560020a62461bcd02815260206004820152600f60248201527f546f6b656e206d7573742063616c6c0000000000000000000000000000000000604482015290519081900360640190fd5b611a5e858585856127b0565b6001805482908110611b2757fe5b6000918252602090912060039091020180546001820154600290920154600160a060020a0391821693501683565b600080600185815481101515611b6757fe5b906000526020600020906003020191506002600086815260200190815260200160002084815481101515611b9757fe5b600091825260209091206009909102016004810154909150600160a060020a0316331480611bce57508154600160a060020a031633145b1515611c24576040805160e560020a62461bcd02815260206004820152601d60248201527f5265737472696374656420746f206275796572206f722073656c6c6572000000604482015290519081900360640190fd5b8154600160a060020a03161515611cc757600881015460ff1660011480611c525750600881015460ff166002145b1515611ca8576040805160e560020a62461bcd02815260206004820152601e60248201527f737461747573206e6f742063726561746564206f722061636365707465640000604482015290519081900360640190fd5b600881015460ff1660021415611cc257611cc2858561268b565b611d26565b600881015460ff16600114611d26576040805160e560020a62461bcd02815260206004820152601160248201527f73746174757320213d2063726561746564000000000000000000000000000000604482015290519081900360640190fd5b611d308585612191565b6040805184815290518591879133917fe9ae767ab1c8f3f874a5b2810a1f6323b43283a5b462b52a4de5f8ed53a4fe25919081900360200190a46000858152600260205260409020805485908110611d8457fe5b6000918252602082206009909102018181556001810182905560028101829055600381018054600160a060020a0319908116909155600482018054821690556005820180548216905560068201805490911690556007810191909155600801805460ff191690555050505050565b600054600160a060020a03163314611e0957600080fd5b611e12816129bf565b50565b600080600185815481101515611e2757fe5b906000526020600020906003020191506002600086815260200190815260200160002084815481101515611e5757fe5b90600052602060002090600902019050806007015442111515611edd576004810154600160a060020a03163314611ed8576040805160e560020a62461bcd02815260206004820152601760248201527f4f6e6c792062757965722063616e2066696e616c697a65000000000000000000604482015290519081900360640190fd5b611f57565b6004810154600160a060020a0316331480611f0157508154600160a060020a031633145b1515611f57576040805160e560020a62461bcd02815260206004820152601d60248201527f53656c6c6572206f72206275796572206d7573742066696e616c697a65000000604482015290519081900360640190fd5b600881015460ff16600214611fa4576040805160e560020a62461bcd0281526020600482015260126024820152600080516020612a30833981519152604482015290519081900360640190fd5b611fae858561233f565b6004810154600160a060020a0316331415611fcd57611fcd858561268b565b6040805184815290518591879133917fbfefa76df66ac53c6517b1939b14bfc4d5fdf714b93a71aea2e50977d1b3b8e6919081900360200190a46000858152600260205260409020805485908110611d8457fe5b600060018481548110151561203257fe5b600091825260209091206003909102018054909150600160a060020a038681169116146120a9576040805160e560020a62461bcd02815260206004820152601060248201527f53656c6c6572206d7573742063616c6c00000000000000000000000000000000604482015290519081900360640190fd5b6000821115612148576003546040805160e060020a6323b872dd028152600160a060020a03888116600483015230602483015260448201869052915191909216916323b872dd9160648083019260209291908290030181600087803b15801561211157600080fd5b505af1158015612125573d6000803e3d6000fd5b505050506040513d602081101561213b57600080fd5b5050600181018054830190555b80546040805185815290518692600160a060020a0316917f470503ad37642fff73a57bac35e69733b6b38281a893f39b50c285aad1f040e0919081900360200190a35050505050565b60008281526002602052604081208054839081106121ab57fe5b600091825260209091206009909102016003810154909150600160a060020a031615156122595760048101548154604051600160a060020a039092169181156108fc0291906000818181858888f193505050501515612254576040805160e560020a62461bcd02815260206004820152601160248201527f45544820726566756e64206661696c6564000000000000000000000000000000604482015290519081900360640190fd5b611719565b600381015460048083015483546040805160e060020a63a9059cbb028152600160a060020a039384169481019490945260248401919091525192169163a9059cbb916044808201926020929091908290030181600087803b1580156122bd57600080fd5b505af11580156122d1573d6000803e3d6000fd5b505050506040513d60208110156122e757600080fd5b50511515611719576040805160e560020a62461bcd02815260206004820152600d60248201527f526566756e64206661696c656400000000000000000000000000000000000000604482015290519081900360640190fd5b600080600060018581548110151561235357fe5b90600052602060002090600302019250600260008681526020019081526020016000208481548110151561238357fe5b60009182526020909120600990910201600281015481546003830154929450039150600160a060020a031615156124bc5760048201546002830154604051600160a060020a039092169181156108fc0291906000818181858888f193505050501515612439576040805160e560020a62461bcd02815260206004820152601160248201527f45544820726566756e64206661696c6564000000000000000000000000000000604482015290519081900360640190fd5b8254604051600160a060020a039091169082156108fc029083906000818181858888f1935050505015156124b7576040805160e560020a62461bcd02815260206004820152600f60248201527f4554482073656e64206661696c65640000000000000000000000000000000000604482015290519081900360640190fd5b612684565b600382015460048084015460028501546040805160e060020a63a9059cbb028152600160a060020a039384169481019490945260248401919091525192169163a9059cbb916044808201926020929091908290030181600087803b15801561252357600080fd5b505af1158015612537573d6000803e3d6000fd5b505050506040513d602081101561254d57600080fd5b505115156125a5576040805160e560020a62461bcd02815260206004820152600d60248201527f526566756e64206661696c656400000000000000000000000000000000000000604482015290519081900360640190fd5b600382015483546040805160e060020a63a9059cbb028152600160a060020a039283166004820152602481018590529051919092169163a9059cbb9160448083019260209291908290030181600087803b15801561260257600080fd5b505af1158015612616573d6000803e3d6000fd5b505050506040513d602081101561262c57600080fd5b50511515612684576040805160e560020a62461bcd02815260206004820152600f60248201527f5472616e73666572206661696c65640000000000000000000000000000000000604482015290519081900360640190fd5b5050505050565b60008281526002602052604081208054839081106126a557fe5b600091825260209091206009909102016005810154909150600160a060020a03161561171957600354600582015460018301546040805160e060020a63a9059cbb028152600160a060020a039384166004820152602481019290925251919092169163a9059cbb9160448083019260209291908290030181600087803b15801561272e57600080fd5b505af1158015612742573d6000803e3d6000fd5b505050506040513d602081101561275857600080fd5b50511515611719576040805160e560020a62461bcd02815260206004820152601a60248201527f436f6d6d697373696f6e207472616e73666572206661696c6564000000000000604482015290519081900360640190fd5b600160a060020a0381161515612810576040805160e560020a62461bcd02815260206004820152601760248201527f4d75737420737065636966792061726269747261746f72000000000000000000604482015290519081900360640190fd5b60408051606081018252600160a060020a038087168252602082018581528482169383019384526001805480820182556000918252935160039094027fb10e2d527612073b26eecdfd717e6a320cf44b4afac2b0732d9fcbe2b7fa0cf681018054958516600160a060020a031996871617905591517fb10e2d527612073b26eecdfd717e6a320cf44b4afac2b0732d9fcbe2b7fa0cf783015593517fb10e2d527612073b26eecdfd717e6a320cf44b4afac2b0732d9fcbe2b7fa0cf89091018054919092169216919091179055821115612970576003546040805160e060020a6323b872dd028152600160a060020a03878116600483015230602483015260448201869052915191909216916323b872dd9160648083019260209291908290030181600087803b15801561294357600080fd5b505af1158015612957573d6000803e3d6000fd5b505050506040513d602081101561296d57600080fd5b50505b60015460408051858152905160001990920191600160a060020a038716917fec3d306143145322b45d2788d826e3b7b9ad062f16e1ec59a5eaba214f96ee3c919081900360200190a350505050565b600160a060020a03811615156129d457600080fd5b60008054604051600160a060020a03808516939216917f8be0079c531659141344cd1fd0a4f28419497f9722a3daafe3b4186f6b6457e091a360008054600160a060020a031916600160a060020a0392909216919091179055560073746174757320213d2061636365707465640000000000000000000000000000a165627a7a72305820b8e968347b9535ab97ee93a52e666c8ae71e1c0b3b1e3af3c34e2005b473cd2b0029",
  "source": "pragma solidity ^0.4.24;\n\nimport \"../../../../node_modules/openzeppelin-solidity/contracts/ownership/Ownable.sol\";\n\n/**\n * @title A Marketplace contract for managing listings, offers, payments, escrow and arbitration\n * @author Nick Poulden <nick@poulden.com>\n *\n * Listings may be priced in Eth or ERC20.\n */\n\n\ncontract ERC20 {\n    function transfer(address _to, uint256 _value) external returns (bool);\n    function transferFrom(address _from, address _to, uint256 _value) external returns (bool);\n}\n\n\ncontract V00_Marketplace is Ownable {\n\n    /**\n    * @notice All events have the same indexed signature offsets for easy filtering\n    */\n    event ListingCreated   (address indexed party, uint indexed listingID, bytes32 ipfsHash);\n    event ListingUpdated   (address indexed party, uint indexed listingID, bytes32 ipfsHash);\n    event ListingWithdrawn (address indexed party, uint indexed listingID, bytes32 ipfsHash);\n    event ListingData      (address indexed party, uint indexed listingID, bytes32 ipfsHash);\n    event ListingArbitrated(address indexed party, uint indexed listingID, bytes32 ipfsHash);\n    event OfferCreated     (address indexed party, uint indexed listingID, uint indexed offerID, bytes32 ipfsHash);\n    event OfferWithdrawn   (address indexed party, uint indexed listingID, uint indexed offerID, bytes32 ipfsHash);\n    event OfferAccepted    (address indexed party, uint indexed listingID, uint indexed offerID, bytes32 ipfsHash);\n    event OfferFundsAdded  (address indexed party, uint indexed listingID, uint indexed offerID, bytes32 ipfsHash);\n    event OfferDisputed    (address indexed party, uint indexed listingID, uint indexed offerID, bytes32 ipfsHash);\n    event OfferRuling      (address indexed party, uint indexed listingID, uint indexed offerID, bytes32 ipfsHash, uint ruling);\n    event OfferFinalized   (address indexed party, uint indexed listingID, uint indexed offerID, bytes32 ipfsHash);\n    event OfferData        (address indexed party, uint indexed listingID, uint indexed offerID, bytes32 ipfsHash);\n    event MarketplaceData  (address indexed party, bytes32 ipfsHash);\n\n    struct Listing {\n        address seller;     // Seller wallet / identity contract / other contract\n        uint deposit;       // Deposit in Origin Token\n        address arbitrator; // Address of arbitration contract\n    }\n\n    struct Offer {\n        uint value;         // Amount in Eth or token buyer is offering\n        uint commission;    // Amount of commission earned if offer is accepted\n        uint refund;        // Amount to refund buyer upon finalization\n        ERC20 currency;     // Currency of listing. Copied incase seller deleted listing\n        address buyer;      // Buyer wallet / identity contract / other contract\n        address affiliate;  // Address to send any commission\n        address arbitrator; // Address of arbitration contract\n        uint finalizes;     // Timestamp offer finalizes\n        uint8 status;       // 0: Undefined, 1: Created, 2: Accepted, 3: Disputed\n    }\n\n    Listing[] public listings;\n    mapping(uint => Offer[]) public offers; // listingID => Offers\n\n    ERC20 public tokenAddr; // Origin Token address\n\n    constructor(address _tokenAddr) public {\n        owner = msg.sender;\n        setTokenAddr(_tokenAddr); // Origin Token contract\n    }\n\n    // @dev Return the total number of listings\n    function totalListings() public view returns (uint) {\n        return listings.length;\n    }\n\n    // @dev Return the total number of offers\n    function totalOffers(uint listingID) public view returns (uint) {\n        return offers[listingID].length;\n    }\n\n    // @dev Seller creates listing\n    function createListing(bytes32 _ipfsHash, uint _deposit, address _arbitrator)\n        public\n    {\n        _createListing(msg.sender, _ipfsHash, _deposit, _arbitrator);\n    }\n\n    // @dev Can only be called by token\n    function createListingWithSender(\n        address _seller,\n        bytes32 _ipfsHash,\n        uint _deposit,\n        address _arbitrator\n    )\n        public returns (bool)\n    {\n        require(msg.sender == address(tokenAddr), \"Token must call\");\n        _createListing(_seller, _ipfsHash, _deposit, _arbitrator);\n        return true;\n    }\n\n    // Private\n    function _createListing(\n        address _seller,\n        bytes32 _ipfsHash,  // IPFS JSON with details, pricing, availability\n        uint _deposit,      // Deposit in Origin Token\n        address _arbitrator // Address of listing arbitrator\n    )\n        private\n    {\n        /* require(_deposit > 0); // Listings must deposit some amount of Origin Token */\n        require(_arbitrator != 0x0, \"Must specify arbitrator\");\n\n        listings.push(Listing({\n            seller: _seller,\n            deposit: _deposit,\n            arbitrator: _arbitrator\n        }));\n\n        if (_deposit > 0) {\n            tokenAddr.transferFrom(_seller, this, _deposit); // Transfer Origin Token\n        }\n        emit ListingCreated(_seller, listings.length - 1, _ipfsHash);\n    }\n\n    // @dev Seller updates listing\n    function updateListing(\n        uint listingID,\n        bytes32 _ipfsHash,\n        uint _additionalDeposit\n    ) public {\n        _updateListing(msg.sender, listingID, _ipfsHash, _additionalDeposit);\n    }\n\n    function updateListingWithSender(\n        address _seller,\n        uint listingID,\n        bytes32 _ipfsHash,\n        uint _additionalDeposit\n    )\n        public returns (bool)\n    {\n        require(msg.sender == address(tokenAddr), \"Token must call\");\n        _updateListing(_seller, listingID, _ipfsHash, _additionalDeposit);\n        return true;\n    }\n\n    function _updateListing(\n        address _seller,\n        uint listingID,\n        bytes32 _ipfsHash,      // Updated IPFS hash\n        uint _additionalDeposit // Additional deposit to add\n    ) private {\n        Listing storage listing = listings[listingID];\n        require(listing.seller == _seller, \"Seller must call\");\n\n        if (_additionalDeposit > 0) {\n            tokenAddr.transferFrom(_seller, this, _additionalDeposit);\n            listing.deposit += _additionalDeposit;\n        }\n\n        emit ListingUpdated(listing.seller, listingID, _ipfsHash);\n    }\n\n    // @dev Listing arbitrator withdraws listing. IPFS hash contains reason for withdrawl.\n    function withdrawListing(uint listingID, address _target, bytes32 _ipfsHash) public {\n        Listing storage listing = listings[listingID];\n        require(msg.sender == listing.arbitrator, \"Arbitrator required\");\n        require(_target != 0x0, \"No target\");\n        tokenAddr.transfer(_target, listing.deposit); // Send deposit to target\n        delete listings[listingID]; // Remove data to get some gas back\n        emit ListingWithdrawn(_target, listingID, _ipfsHash);\n    }\n\n    // @dev Buyer makes offer.\n    function makeOffer(\n        uint listingID,\n        bytes32 _ipfsHash,   // IPFS hash containing offer data\n        uint _finalizes,     // Timestamp an accepted offer will finalize\n        address _affiliate,  // Address to send any required commission to\n        uint256 _commission, // Amount of commission to send in Origin Token if offer finalizes\n        uint _value,         // Offer amount in ERC20 or Eth\n        ERC20 _currency,     // ERC20 token address or 0x0 for Eth\n        address _arbitrator  // Escrow arbitrator\n    )\n        public\n        payable\n    {\n        offers[listingID].push(Offer({\n            status: 1,\n            buyer: msg.sender,\n            finalizes: _finalizes,\n            affiliate: _affiliate,\n            commission: _commission,\n            currency: _currency,\n            value: _value,\n            arbitrator: _arbitrator,\n            refund: 0\n        }));\n\n        if (address(_currency) == 0x0) { // Listing is in ETH\n            require(msg.value == _value, \"ETH value doesn't match offer\");\n        } else { // Listing is in ERC20\n            require(msg.value == 0, \"ETH would be lost\");\n            require(\n                _currency.transferFrom(msg.sender, this, _value),\n                \"transferFrom failed\"\n            );\n        }\n\n        emit OfferCreated(msg.sender, listingID, offers[listingID].length-1, _ipfsHash);\n    }\n\n    // @dev Make new offer after withdrawl\n    function makeOffer(\n        uint listingID,\n        bytes32 _ipfsHash,\n        uint _finalizes,\n        address _affiliate,\n        uint256 _commission,\n        uint _value,\n        ERC20 _currency,\n        address _arbitrator,\n        uint _withdrawOfferID\n    )\n        public\n        payable\n    {\n        withdrawOffer(listingID, _withdrawOfferID, _ipfsHash);\n        makeOffer(listingID, _ipfsHash, _finalizes, _affiliate, _commission, _value, _currency, _arbitrator);\n    }\n\n    // @dev Seller accepts offer\n    function acceptOffer(uint listingID, uint offerID, bytes32 _ipfsHash) public {\n        Listing storage listing = listings[listingID];\n        Offer storage offer = offers[listingID][offerID];\n        require(msg.sender == listing.seller, \"Seller must accept\");\n        require(offer.status == 1, \"status != created\");\n        require(\n            listing.deposit >= offer.commission,\n            \"deposit must cover commission\"\n        );\n        if (offer.finalizes < 1000000000) { // Relative finalization window\n            offer.finalizes = now + offer.finalizes;\n        }\n        listing.deposit -= offer.commission; // Accepting an offer puts Origin Token into escrow\n        offer.status = 2; // Set offer to 'Accepted'\n        emit OfferAccepted(msg.sender, listingID, offerID, _ipfsHash);\n    }\n\n    // @dev Buyer withdraws offer. IPFS hash contains reason for withdrawl.\n    function withdrawOffer(uint listingID, uint offerID, bytes32 _ipfsHash) public {\n        Listing storage listing = listings[listingID];\n        Offer storage offer = offers[listingID][offerID];\n        require(\n            msg.sender == offer.buyer || msg.sender == listing.seller,\n            \"Restricted to buyer or seller\"\n        );\n        if (listing.seller == 0x0) { // If listing was withdrawn\n            require(\n                offer.status == 1 || offer.status == 2,\n                \"status not created or accepted\"\n            );\n            if (offer.status == 2) { // Pay out commission if seller accepted offer then withdrew listing\n                payCommission(listingID, offerID);\n            }\n        } else {\n            require(offer.status == 1, \"status != created\");\n        }\n        refundBuyer(listingID, offerID);\n        emit OfferWithdrawn(msg.sender, listingID, offerID, _ipfsHash);\n        delete offers[listingID][offerID];\n    }\n\n    // @dev Buyer adds extra funds to an accepted offer.\n    function addFunds(uint listingID, uint offerID, bytes32 _ipfsHash, uint _value) public payable {\n        Offer storage offer = offers[listingID][offerID];\n        require(msg.sender == offer.buyer, \"Buyer must call\");\n        require(offer.status == 2, \"status != accepted\");\n        if (address(offer.currency) == 0x0) { // Listing is in ETH\n            require(\n                msg.value == _value,\n                \"sent != offered value\"\n            );\n        } else { // Listing is in ERC20\n            require(msg.value == 0, \"ETH must not be sent\");\n            require(\n                offer.currency.transferFrom(msg.sender, this, _value),\n                \"transferFrom failed\"\n            );\n        }\n        offer.value += _value;\n        emit OfferFundsAdded(msg.sender, listingID, offerID, _ipfsHash);\n    }\n\n    // @dev Buyer must finalize transaction to receive commission\n    function finalize(uint listingID, uint offerID, bytes32 _ipfsHash) public {\n        Listing storage listing = listings[listingID];\n        Offer storage offer = offers[listingID][offerID];\n        if (now <= offer.finalizes) { // Only buyer can finalize before finalization window\n            require(\n                msg.sender == offer.buyer,\n                \"Only buyer can finalize\"\n            );\n        } else { // Allow both seller and buyer to finalize if finalization window has passed\n            require(\n                msg.sender == offer.buyer || msg.sender == listing.seller,\n                \"Seller or buyer must finalize\"\n            );\n        }\n        require(offer.status == 2, \"status != accepted\");\n        paySeller(listingID, offerID); // Pay seller\n        if (msg.sender == offer.buyer) { // Only pay commission if buyer is finalizing\n            payCommission(listingID, offerID);\n        }\n        emit OfferFinalized(msg.sender, listingID, offerID, _ipfsHash);\n        delete offers[listingID][offerID];\n    }\n\n    // @dev Buyer or seller can dispute transaction during finalization window\n    function dispute(uint listingID, uint offerID, bytes32 _ipfsHash) public {\n        Listing storage listing = listings[listingID];\n        Offer storage offer = offers[listingID][offerID];\n        require(\n            msg.sender == offer.buyer || msg.sender == listing.seller,\n            \"Must be seller or buyer\"\n        );\n        require(offer.status == 2, \"status != accepted\");\n        require(now <= offer.finalizes, \"Already finalized\");\n        offer.status = 3; // Set status to \"Disputed\"\n        emit OfferDisputed(msg.sender, listingID, offerID, _ipfsHash);\n    }\n\n    // @dev Called by arbitrator\n    function executeRuling(\n        uint listingID,\n        uint offerID,\n        bytes32 _ipfsHash,\n        uint _ruling, // 0: Seller, 1: Buyer, 2: Com + Seller, 3: Com + Buyer\n        uint _refund\n    ) public {\n        Offer storage offer = offers[listingID][offerID];\n        require(msg.sender == offer.arbitrator, \"Must be arbitrator\");\n        require(offer.status == 3, \"status != disputed\");\n        require(_refund <= offer.value, \"refund too high\");\n        offer.refund = _refund;\n        if (_ruling & 1 == 1) {\n            refundBuyer(listingID, offerID);\n        } else  {\n            paySeller(listingID, offerID);\n        }\n        if (_ruling & 2 == 2) {\n            payCommission(listingID, offerID);\n        } else  { // Refund commission to seller\n            listings[listingID].deposit += offer.commission;\n        }\n        emit OfferRuling(offer.arbitrator, listingID, offerID, _ipfsHash, _ruling);\n        delete offers[listingID][offerID];\n    }\n\n    // @dev Sets the amount that a seller wants to refund to a buyer.\n    function updateRefund(uint listingID, uint offerID, uint _refund, bytes32 _ipfsHash) public {\n        Offer storage offer = offers[listingID][offerID];\n        Listing storage listing = listings[listingID];\n        require(msg.sender == listing.seller, \"Seller must call\");\n        require(offer.status == 2, \"status != accepted\");\n        require(_refund <= offer.value, \"Excessive refund\");\n        offer.refund = _refund;\n        emit OfferData(msg.sender, listingID, offerID, _ipfsHash);\n    }\n\n    // @dev Refunds buyer in ETH or ERC20 - used by 1) executeRuling() and 2) to allow a seller to refund a purchase\n    function refundBuyer(uint listingID, uint offerID) private {\n        Offer storage offer = offers[listingID][offerID];\n        if (address(offer.currency) == 0x0) {\n            require(offer.buyer.send(offer.value), \"ETH refund failed\");\n        } else {\n            require(\n                offer.currency.transfer(offer.buyer, offer.value),\n                \"Refund failed\"\n            );\n        }\n    }\n\n    // @dev Pay seller in ETH or ERC20\n    function paySeller(uint listingID, uint offerID) private {\n        Listing storage listing = listings[listingID];\n        Offer storage offer = offers[listingID][offerID];\n        uint value = offer.value - offer.refund;\n\n        if (address(offer.currency) == 0x0) {\n            require(offer.buyer.send(offer.refund), \"ETH refund failed\");\n            require(listing.seller.send(value), \"ETH send failed\");\n        } else {\n            require(\n                offer.currency.transfer(offer.buyer, offer.refund),\n                \"Refund failed\"\n            );\n            require(\n                offer.currency.transfer(listing.seller, value),\n                \"Transfer failed\"\n            );\n        }\n    }\n\n    // @dev Pay commission to affiliate\n    function payCommission(uint listingID, uint offerID) private {\n        Offer storage offer = offers[listingID][offerID];\n        if (offer.affiliate != 0x0) {\n            require(\n                tokenAddr.transfer(offer.affiliate, offer.commission),\n                \"Commission transfer failed\"\n            );\n        }\n    }\n\n    function addData(bytes32 ipfsHash) public {\n        emit MarketplaceData(msg.sender, ipfsHash);\n    }\n\n    function addData(uint listingID, bytes32 ipfsHash) public {\n        emit ListingData(msg.sender, listingID, ipfsHash);\n    }\n\n    // @dev Associate ipfs data with an offer\n    function addData(uint listingID, uint offerID, bytes32 ipfsHash) public {\n        emit OfferData(msg.sender, listingID, offerID, ipfsHash);\n    }\n\n    // @dev Allow listing arbitrator to send deposit\n    function sendDeposit(uint listingID, address target, uint value, bytes32 ipfsHash) public {\n        Listing storage listing = listings[listingID];\n        require(listing.arbitrator == msg.sender, \"Arbitrator must call\");\n        require(listing.deposit >= value, \"Value too high\");\n        listing.deposit -= value;\n        require(tokenAddr.transfer(target, value), \"Transfer failed\");\n        emit ListingArbitrated(target, listingID, ipfsHash);\n    }\n\n    // @dev Set the address of the Origin token contract\n    function setTokenAddr(address _tokenAddr) public onlyOwner {\n        tokenAddr = ERC20(_tokenAddr);\n    }\n}\n",
  "sourcePath": "/Users/stan/Origin/origin-box/origin-js/contracts/contracts/marketplace/v00/Marketplace.sol",
  "compiler": {
    "name": "solc",
    "version": "0.4.24+commit.e67f0147.Emscripten.clang"
  },
  "schemaVersion": "2.0.1",
  "updatedAt": "2018-09-21T21:37:03.477Z"
}