{
  "contractName": "WhitelistedPausableToken",
  "abi": [
    {
      "constant": false,
      "inputs": [
        {
          "name": "_spender",
          "type": "address"
        },
        {
          "name": "_value",
          "type": "uint256"
        }
      ],
      "name": "approve",
      "outputs": [
        {
          "name": "",
          "type": "bool"
        }
      ],
      "payable": false,
      "stateMutability": "nonpayable",
      "type": "function"
    },
    {
      "constant": true,
      "inputs": [],
      "name": "totalSupply",
      "outputs": [
        {
          "name": "",
          "type": "uint256"
        }
      ],
      "payable": false,
      "stateMutability": "view",
      "type": "function"
    },
    {
      "constant": false,
      "inputs": [],
      "name": "unpause",
      "outputs": [],
      "payable": false,
      "stateMutability": "nonpayable",
      "type": "function"
    },
    {
      "constant": true,
      "inputs": [
        {
          "name": "",
          "type": "address"
        }
      ],
      "name": "allowedRecipients",
      "outputs": [
        {
          "name": "",
          "type": "bool"
        }
      ],
      "payable": false,
      "stateMutability": "view",
      "type": "function"
    },
    {
      "constant": true,
      "inputs": [],
      "name": "paused",
      "outputs": [
        {
          "name": "",
          "type": "bool"
        }
      ],
      "payable": false,
      "stateMutability": "view",
      "type": "function"
    },
    {
      "constant": false,
      "inputs": [
        {
          "name": "_spender",
          "type": "address"
        },
        {
          "name": "_subtractedValue",
          "type": "uint256"
        }
      ],
      "name": "decreaseApproval",
      "outputs": [
        {
          "name": "success",
          "type": "bool"
        }
      ],
      "payable": false,
      "stateMutability": "nonpayable",
      "type": "function"
    },
    {
      "constant": true,
      "inputs": [
        {
          "name": "_owner",
          "type": "address"
        }
      ],
      "name": "balanceOf",
      "outputs": [
        {
          "name": "",
          "type": "uint256"
        }
      ],
      "payable": false,
      "stateMutability": "view",
      "type": "function"
    },
    {
      "constant": false,
      "inputs": [],
      "name": "renounceOwnership",
      "outputs": [],
      "payable": false,
      "stateMutability": "nonpayable",
      "type": "function"
    },
    {
      "constant": false,
      "inputs": [],
      "name": "pause",
      "outputs": [],
      "payable": false,
      "stateMutability": "nonpayable",
      "type": "function"
    },
    {
      "constant": true,
      "inputs": [],
      "name": "owner",
      "outputs": [
        {
          "name": "",
          "type": "address"
        }
      ],
      "payable": false,
      "stateMutability": "view",
      "type": "function"
    },
    {
      "constant": true,
      "inputs": [],
      "name": "whitelistExpiration",
      "outputs": [
        {
          "name": "",
          "type": "uint256"
        }
      ],
      "payable": false,
      "stateMutability": "view",
      "type": "function"
    },
    {
      "constant": false,
      "inputs": [
        {
          "name": "_spender",
          "type": "address"
        },
        {
          "name": "_addedValue",
          "type": "uint256"
        }
      ],
      "name": "increaseApproval",
      "outputs": [
        {
          "name": "success",
          "type": "bool"
        }
      ],
      "payable": false,
      "stateMutability": "nonpayable",
      "type": "function"
    },
    {
      "constant": true,
      "inputs": [
        {
          "name": "_owner",
          "type": "address"
        },
        {
          "name": "_spender",
          "type": "address"
        }
      ],
      "name": "allowance",
      "outputs": [
        {
          "name": "",
          "type": "uint256"
        }
      ],
      "payable": false,
      "stateMutability": "view",
      "type": "function"
    },
    {
      "constant": false,
      "inputs": [
        {
          "name": "_newOwner",
          "type": "address"
        }
      ],
      "name": "transferOwnership",
      "outputs": [],
      "payable": false,
      "stateMutability": "nonpayable",
      "type": "function"
    },
    {
      "constant": true,
      "inputs": [
        {
          "name": "",
          "type": "address"
        }
      ],
      "name": "allowedSenders",
      "outputs": [
        {
          "name": "",
          "type": "bool"
        }
      ],
      "payable": false,
      "stateMutability": "view",
      "type": "function"
    },
    {
      "anonymous": false,
      "inputs": [
        {
          "indexed": false,
          "name": "expiration",
          "type": "uint256"
        }
      ],
      "name": "SetWhitelistExpiration",
      "type": "event"
    },
    {
      "anonymous": false,
      "inputs": [
        {
          "indexed": false,
          "name": "sender",
          "type": "address"
        }
      ],
      "name": "AllowedSenderAdded",
      "type": "event"
    },
    {
      "anonymous": false,
      "inputs": [
        {
          "indexed": false,
          "name": "sender",
          "type": "address"
        }
      ],
      "name": "AllowedSenderRemoved",
      "type": "event"
    },
    {
      "anonymous": false,
      "inputs": [
        {
          "indexed": false,
          "name": "recipient",
          "type": "address"
        }
      ],
      "name": "AllowedRecipientAdded",
      "type": "event"
    },
    {
      "anonymous": false,
      "inputs": [
        {
          "indexed": false,
          "name": "recipient",
          "type": "address"
        }
      ],
      "name": "AllowedRecipientRemoved",
      "type": "event"
    },
    {
      "anonymous": false,
      "inputs": [],
      "name": "Pause",
      "type": "event"
    },
    {
      "anonymous": false,
      "inputs": [],
      "name": "Unpause",
      "type": "event"
    },
    {
      "anonymous": false,
      "inputs": [
        {
          "indexed": true,
          "name": "previousOwner",
          "type": "address"
        }
      ],
      "name": "OwnershipRenounced",
      "type": "event"
    },
    {
      "anonymous": false,
      "inputs": [
        {
          "indexed": true,
          "name": "previousOwner",
          "type": "address"
        },
        {
          "indexed": true,
          "name": "newOwner",
          "type": "address"
        }
      ],
      "name": "OwnershipTransferred",
      "type": "event"
    },
    {
      "anonymous": false,
      "inputs": [
        {
          "indexed": true,
          "name": "owner",
          "type": "address"
        },
        {
          "indexed": true,
          "name": "spender",
          "type": "address"
        },
        {
          "indexed": false,
          "name": "value",
          "type": "uint256"
        }
      ],
      "name": "Approval",
      "type": "event"
    },
    {
      "anonymous": false,
      "inputs": [
        {
          "indexed": true,
          "name": "from",
          "type": "address"
        },
        {
          "indexed": true,
          "name": "to",
          "type": "address"
        },
        {
          "indexed": false,
          "name": "value",
          "type": "uint256"
        }
      ],
      "name": "Transfer",
      "type": "event"
    },
    {
      "constant": true,
      "inputs": [],
      "name": "whitelistActive",
      "outputs": [
        {
          "name": "",
          "type": "bool"
        }
      ],
      "payable": false,
      "stateMutability": "view",
      "type": "function"
    },
    {
      "constant": false,
      "inputs": [
        {
          "name": "_sender",
          "type": "address"
        }
      ],
      "name": "addAllowedSender",
      "outputs": [],
      "payable": false,
      "stateMutability": "nonpayable",
      "type": "function"
    },
    {
      "constant": false,
      "inputs": [
        {
          "name": "_sender",
          "type": "address"
        }
      ],
      "name": "removeAllowedSender",
      "outputs": [],
      "payable": false,
      "stateMutability": "nonpayable",
      "type": "function"
    },
    {
      "constant": false,
      "inputs": [
        {
          "name": "_recipient",
          "type": "address"
        }
      ],
      "name": "addAllowedRecipient",
      "outputs": [],
      "payable": false,
      "stateMutability": "nonpayable",
      "type": "function"
    },
    {
      "constant": false,
      "inputs": [
        {
          "name": "_recipient",
          "type": "address"
        }
      ],
      "name": "removeAllowedRecipient",
      "outputs": [],
      "payable": false,
      "stateMutability": "nonpayable",
      "type": "function"
    },
    {
      "constant": false,
      "inputs": [
        {
          "name": "_expiration",
          "type": "uint256"
        }
      ],
      "name": "setWhitelistExpiration",
      "outputs": [],
      "payable": false,
      "stateMutability": "nonpayable",
      "type": "function"
    },
    {
      "constant": false,
      "inputs": [
        {
          "name": "_to",
          "type": "address"
        },
        {
          "name": "_value",
          "type": "uint256"
        }
      ],
      "name": "transfer",
      "outputs": [
        {
          "name": "",
          "type": "bool"
        }
      ],
      "payable": false,
      "stateMutability": "nonpayable",
      "type": "function"
    },
    {
      "constant": false,
      "inputs": [
        {
          "name": "_from",
          "type": "address"
        },
        {
          "name": "_to",
          "type": "address"
        },
        {
          "name": "_value",
          "type": "uint256"
        }
      ],
      "name": "transferFrom",
      "outputs": [
        {
          "name": "",
          "type": "bool"
        }
      ],
      "payable": false,
      "stateMutability": "nonpayable",
      "type": "function"
    }
  ],
  "bytecode": "0x608060405260038054600160a860020a031916331790556110f7806100256000396000f3006080604052600436106101325763ffffffff7c010000000000000000000000000000000000000000000000000000000060003504166302ce58138114610137578063095ea7b31461016057806318160ddd1461018457806323b872dd146101ab5780632b00a580146101d55780633f4ba83a146101f8578063471eab5c1461020d5780634df6d6cc1461022e5780635c975abb1461024f578063661884631461026457806370a0823114610288578063715018a6146102a95780638456cb59146102be5780638da5cb5b146102d3578063a9059cbb14610304578063c5e1edcb14610328578063c746c8f41461033d578063ce73a61d1461035e578063d73dd62314610376578063dd62ed3e1461039a578063f2fde38b146103c1578063fadbcf48146103e2578063ff883f2914610403575b600080fd5b34801561014357600080fd5b5061014c610424565b604080519115158252519081900360200190f35b34801561016c57600080fd5b5061014c600160a060020a036004351660243561042c565b34801561019057600080fd5b50610199610457565b60408051918252519081900360200190f35b3480156101b757600080fd5b5061014c600160a060020a036004358116906024351660443561045d565b3480156101e157600080fd5b506101f6600160a060020a0360043516610558565b005b34801561020457600080fd5b506101f66105cf565b34801561021957600080fd5b506101f6600160a060020a0360043516610647565b34801561023a57600080fd5b5061014c600160a060020a03600435166106bb565b34801561025b57600080fd5b5061014c6106d0565b34801561027057600080fd5b5061014c600160a060020a03600435166024356106e0565b34801561029457600080fd5b50610199600160a060020a0360043516610704565b3480156102b557600080fd5b506101f661071f565b3480156102ca57600080fd5b506101f661078d565b3480156102df57600080fd5b506102e861080a565b60408051600160a060020a039092168252519081900360200190f35b34801561031057600080fd5b5061014c600160a060020a0360043516602435610819565b34801561033457600080fd5b50610199610912565b34801561034957600080fd5b506101f6600160a060020a0360043516610918565b34801561036a57600080fd5b506101f660043561098f565b34801561038257600080fd5b5061014c600160a060020a0360043516602435610a95565b3480156103a657600080fd5b50610199600160a060020a0360043581169060243516610ab9565b3480156103cd57600080fd5b506101f6600160a060020a0360043516610ae4565b3480156103ee57600080fd5b5061014c600160a060020a0360043516610b07565b34801561040f57600080fd5b506101f6600160a060020a0360043516610b1c565b600454421090565b60035460009060a060020a900460ff161561044657600080fd5b6104508383610b90565b9392505050565b60015490565b60008383610469610424565b158061048d5750600160a060020a03821660009081526005602052604090205460ff165b806104b05750600160a060020a03811660009081526006602052604090205460ff165b151561054357604080517f08c379a000000000000000000000000000000000000000000000000000000000815260206004820152602860248201527f6e6569746865722073656e646572206e6f7220726563697069656e742061726560448201527f20616c6c6f776564000000000000000000000000000000000000000000000000606482015290519081900360840190fd5b61054e868686610bf6565b9695505050505050565b600354600160a060020a0316331461056f57600080fd5b60408051600160a060020a038316815290517f122f15782b9e7776c1257cebe481694123c8901cdaa8ac763b0c76416852c7b99181900360200190a1600160a060020a03166000908152600660205260409020805460ff19166001179055565b600354600160a060020a031633146105e657600080fd5b60035460a060020a900460ff1615156105fe57600080fd5b6003805474ff0000000000000000000000000000000000000000191690556040517f7805862f689e2f13df9f062ff482ad3ad112aca9e0847911ed832e158c525b3390600090a1565b600354600160a060020a0316331461065e57600080fd5b60408051600160a060020a038316815290517f49f5d9e28f2f965d446e1fa106149eb83a62ec17345abee39a06a80c87409fa69181900360200190a1600160a060020a03166000908152600560205260409020805460ff19169055565b60066020526000908152604090205460ff1681565b60035460a060020a900460ff1681565b60035460009060a060020a900460ff16156106fa57600080fd5b6104508383610c23565b600160a060020a031660009081526020819052604090205490565b600354600160a060020a0316331461073657600080fd5b600354604051600160a060020a03909116907ff8df31144d9c2f0f6b59d69b8b98abd5459d07f2742c4df920b25aae33c6482090600090a26003805473ffffffffffffffffffffffffffffffffffffffff19169055565b600354600160a060020a031633146107a457600080fd5b60035460a060020a900460ff16156107bb57600080fd5b6003805474ff0000000000000000000000000000000000000000191660a060020a1790556040517f6985a02210a168e66602d3235cb6db0e70f92b3ba4d376a33c0f3d9434bff62590600090a1565b600354600160a060020a031681565b60003383610825610424565b15806108495750600160a060020a03821660009081526005602052604090205460ff165b8061086c5750600160a060020a03811660009081526006602052604090205460ff165b15156108ff57604080517f08c379a000000000000000000000000000000000000000000000000000000000815260206004820152602860248201527f6e6569746865722073656e646572206e6f7220726563697069656e742061726560448201527f20616c6c6f776564000000000000000000000000000000000000000000000000606482015290519081900360840190fd5b6109098585610d13565b95945050505050565b60045481565b600354600160a060020a0316331461092f57600080fd5b60408051600160a060020a038316815290517f7d4be74a43f0ffeacf3938a140cb81e10f3acd2c15b843c567c4fd54a34ea3f39181900360200190a1600160a060020a03166000908152600560205260409020805460ff19166001179055565b600354600160a060020a031633146109a657600080fd5b60045415806109b857506109b8610424565b15156109c357600080fd5b620151804201811015610a5d57604080517f08c379a000000000000000000000000000000000000000000000000000000000815260206004820152603360248201527f77686974656c6973742065787069726174696f6e206e6f742066617220656e6f60448201527f75676820696e746f207468652066757475726500000000000000000000000000606482015290519081900360840190fd5b6040805182815290517f425185790737a8bc9659e0a4633a6b6b0428202b2e51b787b431d5fa68242f589181900360200190a1600455565b60035460009060a060020a900460ff1615610aaf57600080fd5b6104508383610d37565b600160a060020a03918216600090815260026020908152604080832093909416825291909152205490565b600354600160a060020a03163314610afb57600080fd5b610b0481610dd0565b50565b60056020526000908152604090205460ff1681565b600354600160a060020a03163314610b3357600080fd5b60408051600160a060020a038316815290517f5a715f6fe3dbf331989b3d7d9a9e2240b90295b9e8d6eb327fda52da4d0b4da79181900360200190a1600160a060020a03166000908152600660205260409020805460ff19169055565b336000818152600260209081526040808320600160a060020a038716808552908352818420869055815186815291519394909390927f8c5be1e5ebec7d5bd14f71427d1e84f3dd0314c0f7b2291e5b200ac8c7c3b925928290030190a350600192915050565b60035460009060a060020a900460ff1615610c1057600080fd5b610c1b848484610e4e565b949350505050565b336000908152600260209081526040808320600160a060020a038616845290915281205480831115610c7857336000908152600260209081526040808320600160a060020a0388168452909152812055610cad565b610c88818463ffffffff610fc516565b336000908152600260209081526040808320600160a060020a03891684529091529020555b336000818152600260209081526040808320600160a060020a0389168085529083529281902054815190815290519293927f8c5be1e5ebec7d5bd14f71427d1e84f3dd0314c0f7b2291e5b200ac8c7c3b925929181900390910190a35060019392505050565b60035460009060a060020a900460ff1615610d2d57600080fd5b6104508383610fd7565b336000908152600260209081526040808320600160a060020a0386168452909152812054610d6b908363ffffffff6110b816565b336000818152600260209081526040808320600160a060020a0389168085529083529281902085905580519485525191937f8c5be1e5ebec7d5bd14f71427d1e84f3dd0314c0f7b2291e5b200ac8c7c3b925929081900390910190a350600192915050565b600160a060020a0381161515610de557600080fd5b600354604051600160a060020a038084169216907f8be0079c531659141344cd1fd0a4f28419497f9722a3daafe3b4186f6b6457e090600090a36003805473ffffffffffffffffffffffffffffffffffffffff1916600160a060020a0392909216919091179055565b6000600160a060020a0383161515610e6557600080fd5b600160a060020a038416600090815260208190526040902054821115610e8a57600080fd5b600160a060020a0384166000908152600260209081526040808320338452909152902054821115610eba57600080fd5b600160a060020a038416600090815260208190526040902054610ee3908363ffffffff610fc516565b600160a060020a038086166000908152602081905260408082209390935590851681522054610f18908363ffffffff6110b816565b600160a060020a03808516600090815260208181526040808320949094559187168152600282528281203382529091522054610f5a908363ffffffff610fc516565b600160a060020a03808616600081815260026020908152604080832033845282529182902094909455805186815290519287169391927fddf252ad1be2c89b69c2b068fc378daa952ba7f163c4a11628f55a4df523b3ef929181900390910190a35060019392505050565b600082821115610fd157fe5b50900390565b6000600160a060020a0383161515610fee57600080fd5b3360009081526020819052604090205482111561100a57600080fd5b3360009081526020819052604090205461102a908363ffffffff610fc516565b3360009081526020819052604080822092909255600160a060020a0385168152205461105c908363ffffffff6110b816565b600160a060020a038416600081815260208181526040918290209390935580518581529051919233927fddf252ad1be2c89b69c2b068fc378daa952ba7f163c4a11628f55a4df523b3ef9281900390910190a350600192915050565b818101828110156110c557fe5b929150505600a165627a7a7230582044136af3584d531a60281fc8017150b21306d305b01eab37acfe357b36da593f0029",
  "source": "pragma solidity ^0.4.24;\n\nimport \"../../../node_modules/openzeppelin-solidity/contracts/token/ERC20/PausableToken.sol\";\n\n/**\n * @title Contract for enforcing allowed token sender and recipients\n * @dev Until the whitelist expiration expires, this contract only permits\n * token transfers that involve an allowed sender or allowed recipient. Once the\n * whitelist expiration passes, it becomes impossible to re-enable the\n * whitelist.\n *\n * This contract inherits from PausableToken to enforce both pausing and\n * whitelists for transfer calls.\n */\ncontract WhitelistedPausableToken is PausableToken {\n  // UNIX timestamp (in seconds) after which this whitelist no longer applies\n  uint256 public whitelistExpiration;\n  // May send tokens to any recipient\n  mapping (address => bool) public allowedSenders;\n  // May receive tokens from any sender\n  mapping (address => bool) public allowedRecipients;\n\n  event SetWhitelistExpiration(uint256 expiration);\n  event AllowedSenderAdded(address sender);\n  event AllowedSenderRemoved(address sender);\n  event AllowedRecipientAdded(address recipient);\n  event AllowedRecipientRemoved(address recipient);\n\n  //\n  // Functions for maintaining whitelist\n  //\n\n  modifier allowedTransfer(address _from, address _to) {\n    require(\n      !whitelistActive() ||\n      allowedSenders[_from] ||\n      allowedRecipients[_to],\n      \"neither sender nor recipient are allowed\"\n    );\n    _;\n  }\n\n  function whitelistActive() public view returns (bool) {\n    return block.timestamp < whitelistExpiration;\n  }\n\n  function addAllowedSender(address _sender) public onlyOwner {\n    emit AllowedSenderAdded(_sender);\n    allowedSenders[_sender] = true;\n  }\n\n  function removeAllowedSender(address _sender) public onlyOwner {\n    emit AllowedSenderRemoved(_sender);\n    delete allowedSenders[_sender];\n  }\n\n  function addAllowedRecipient(address _recipient) public onlyOwner {\n    emit AllowedRecipientAdded(_recipient);\n    allowedRecipients[_recipient] = true;\n  }\n\n  function removeAllowedRecipient(address _recipient) public onlyOwner {\n    emit AllowedRecipientRemoved(_recipient);\n    delete allowedRecipients[_recipient];\n  }\n\n  /**\n   * @dev Set the whitelist expiration, after which the whitelist no longer\n   * applies.\n   */\n  function setWhitelistExpiration(uint256 _expiration) public onlyOwner {\n    // allow only if whitelist expiration hasn't yet been set, or if the\n    // whitelist expiration hasn't passed yet\n    require(whitelistExpiration == 0 || whitelistActive());\n    // prevent possible mistakes in calling this function\n    require(_expiration >= block.timestamp + 1 days,\n      \"whitelist expiration not far enough into the future\");\n    emit SetWhitelistExpiration(_expiration);\n    whitelistExpiration = _expiration;\n  }\n\n  //\n  // ERC20 transfer functions that have been overridden to enforce the\n  // whitelist.\n  //\n\n  function transfer(\n    address _to,\n    uint256 _value\n  )\n    public\n    allowedTransfer(msg.sender, _to)\n    returns (bool)\n  {\n    return super.transfer(_to, _value);\n  }\n\n  function transferFrom(\n    address _from,\n    address _to,\n    uint256 _value\n  )\n    public\n    allowedTransfer(_from, _to)\n    returns (bool)\n  {\n    return super.transferFrom(_from, _to, _value);\n  }\n}",
  "sourcePath": "/Users/stan/Origin/origin-box/origin-js/contracts/contracts/token/WhitelistedPausableToken.sol",
  "compiler": {
    "name": "solc",
    "version": "0.4.24+commit.e67f0147.Emscripten.clang"
  },
  "schemaVersion": "2.0.1",
  "updatedAt": "2018-09-20T16:13:54.123Z"
}