{
  "contractName": "VA_Marketplace",
  "abi": [
    {
      "constant": true,
      "inputs": [
        {
          "name": "",
          "type": "uint256"
        },
        {
          "name": "",
          "type": "uint256"
        }
      ],
      "name": "offers",
      "outputs": [
        {
          "name": "value",
          "type": "uint256"
        },
        {
          "name": "refund",
          "type": "uint256"
        },
        {
          "name": "currency",
          "type": "address"
        },
        {
          "name": "buyer",
          "type": "address"
        },
        {
          "name": "arbitrator",
          "type": "address"
        },
        {
          "name": "finalizes",
          "type": "uint256"
        },
        {
          "name": "status",
          "type": "uint8"
        },
        {
          "name": "seller",
          "type": "address"
        },
        {
          "name": "verifier",
          "type": "address"
        }
      ],
      "payable": false,
      "stateMutability": "view",
      "type": "function"
    },
    {
      "constant": true,
      "inputs": [],
      "name": "tokenAddr",
      "outputs": [
        {
          "name": "",
          "type": "address"
        }
      ],
      "payable": false,
      "stateMutability": "view",
      "type": "function"
    },
    {
      "constant": false,
      "inputs": [],
      "name": "renounceOwnership",
      "outputs": [],
      "payable": false,
      "stateMutability": "nonpayable",
      "type": "function"
    },
    {
      "constant": true,
      "inputs": [],
      "name": "owner",
      "outputs": [
        {
          "name": "",
          "type": "address"
        }
      ],
      "payable": false,
      "stateMutability": "view",
      "type": "function"
    },
    {
      "constant": true,
      "inputs": [
        {
          "name": "",
          "type": "address"
        }
      ],
      "name": "allowedAffiliates",
      "outputs": [
        {
          "name": "",
          "type": "bool"
        }
      ],
      "payable": false,
      "stateMutability": "view",
      "type": "function"
    },
    {
      "constant": false,
      "inputs": [
        {
          "name": "_newOwner",
          "type": "address"
        }
      ],
      "name": "transferOwnership",
      "outputs": [],
      "payable": false,
      "stateMutability": "nonpayable",
      "type": "function"
    },
    {
      "inputs": [
        {
          "name": "_tokenAddr",
          "type": "address"
        },
        {
          "name": "_chainId",
          "type": "uint256"
        }
      ],
      "payable": false,
      "stateMutability": "nonpayable",
      "type": "constructor"
    },
    {
      "anonymous": false,
      "inputs": [
        {
          "indexed": true,
          "name": "party",
          "type": "address"
        },
        {
          "indexed": false,
          "name": "ipfsHash",
          "type": "bytes32"
        }
      ],
      "name": "MarketplaceData",
      "type": "event"
    },
    {
      "anonymous": false,
      "inputs": [
        {
          "indexed": true,
          "name": "party",
          "type": "address"
        },
        {
          "indexed": false,
          "name": "ipfsHash",
          "type": "bytes32"
        }
      ],
      "name": "AffiliateAdded",
      "type": "event"
    },
    {
      "anonymous": false,
      "inputs": [
        {
          "indexed": true,
          "name": "party",
          "type": "address"
        },
        {
          "indexed": false,
          "name": "ipfsHash",
          "type": "bytes32"
        }
      ],
      "name": "AffiliateRemoved",
      "type": "event"
    },
    {
      "anonymous": false,
      "inputs": [
        {
          "indexed": true,
          "name": "party",
          "type": "address"
        },
        {
          "indexed": true,
          "name": "listingID",
          "type": "uint256"
        },
        {
          "indexed": false,
          "name": "ipfsHash",
          "type": "bytes32"
        }
      ],
      "name": "ListingCreated",
      "type": "event"
    },
    {
      "anonymous": false,
      "inputs": [
        {
          "indexed": true,
          "name": "party",
          "type": "address"
        },
        {
          "indexed": true,
          "name": "listingID",
          "type": "uint256"
        },
        {
          "indexed": false,
          "name": "ipfsHash",
          "type": "bytes32"
        }
      ],
      "name": "ListingUpdated",
      "type": "event"
    },
    {
      "anonymous": false,
      "inputs": [
        {
          "indexed": true,
          "name": "party",
          "type": "address"
        },
        {
          "indexed": true,
          "name": "listingID",
          "type": "uint256"
        },
        {
          "indexed": false,
          "name": "ipfsHash",
          "type": "bytes32"
        }
      ],
      "name": "ListingWithdrawn",
      "type": "event"
    },
    {
      "anonymous": false,
      "inputs": [
        {
          "indexed": true,
          "name": "party",
          "type": "address"
        },
        {
          "indexed": true,
          "name": "listingID",
          "type": "uint256"
        },
        {
          "indexed": false,
          "name": "ipfsHash",
          "type": "bytes32"
        }
      ],
      "name": "ListingArbitrated",
      "type": "event"
    },
    {
      "anonymous": false,
      "inputs": [
        {
          "indexed": true,
          "name": "party",
          "type": "address"
        },
        {
          "indexed": true,
          "name": "listingID",
          "type": "uint256"
        },
        {
          "indexed": false,
          "name": "ipfsHash",
          "type": "bytes32"
        }
      ],
      "name": "ListingData",
      "type": "event"
    },
    {
      "anonymous": false,
      "inputs": [
        {
          "indexed": true,
          "name": "party",
          "type": "address"
        },
        {
          "indexed": true,
          "name": "listingID",
          "type": "uint256"
        },
        {
          "indexed": true,
          "name": "offerID",
          "type": "uint256"
        },
        {
          "indexed": false,
          "name": "ipfsHash",
          "type": "bytes32"
        },
        {
          "indexed": false,
          "name": "listingIpfsHash",
          "type": "bytes32"
        }
      ],
      "name": "OfferCreated",
      "type": "event"
    },
    {
      "anonymous": false,
      "inputs": [
        {
          "indexed": true,
          "name": "party",
          "type": "address"
        },
        {
          "indexed": true,
          "name": "listingID",
          "type": "uint256"
        },
        {
          "indexed": true,
          "name": "offerID",
          "type": "uint256"
        },
        {
          "indexed": false,
          "name": "ipfsHash",
          "type": "bytes32"
        }
      ],
      "name": "OfferAccepted",
      "type": "event"
    },
    {
      "anonymous": false,
      "inputs": [
        {
          "indexed": true,
          "name": "party",
          "type": "address"
        },
        {
          "indexed": true,
          "name": "listingID",
          "type": "uint256"
        },
        {
          "indexed": true,
          "name": "offerID",
          "type": "uint256"
        },
        {
          "indexed": false,
          "name": "ipfsHash",
          "type": "bytes32"
        }
      ],
      "name": "OfferFinalized",
      "type": "event"
    },
    {
      "anonymous": false,
      "inputs": [
        {
          "indexed": true,
          "name": "party",
          "type": "address"
        },
        {
          "indexed": true,
          "name": "listingID",
          "type": "uint256"
        },
        {
          "indexed": true,
          "name": "offerID",
          "type": "uint256"
        },
        {
          "indexed": false,
          "name": "ipfsHash",
          "type": "bytes32"
        }
      ],
      "name": "OfferWithdrawn",
      "type": "event"
    },
    {
      "anonymous": false,
      "inputs": [
        {
          "indexed": true,
          "name": "party",
          "type": "address"
        },
        {
          "indexed": true,
          "name": "listingID",
          "type": "uint256"
        },
        {
          "indexed": true,
          "name": "offerID",
          "type": "uint256"
        },
        {
          "indexed": false,
          "name": "ipfsHash",
          "type": "bytes32"
        }
      ],
      "name": "OfferFundsAdded",
      "type": "event"
    },
    {
      "anonymous": false,
      "inputs": [
        {
          "indexed": true,
          "name": "party",
          "type": "address"
        },
        {
          "indexed": true,
          "name": "listingID",
          "type": "uint256"
        },
        {
          "indexed": true,
          "name": "offerID",
          "type": "uint256"
        },
        {
          "indexed": false,
          "name": "ipfsHash",
          "type": "bytes32"
        }
      ],
      "name": "OfferDisputed",
      "type": "event"
    },
    {
      "anonymous": false,
      "inputs": [
        {
          "indexed": true,
          "name": "party",
          "type": "address"
        },
        {
          "indexed": true,
          "name": "listingID",
          "type": "uint256"
        },
        {
          "indexed": true,
          "name": "offerID",
          "type": "uint256"
        },
        {
          "indexed": false,
          "name": "ipfsHash",
          "type": "bytes32"
        },
        {
          "indexed": false,
          "name": "ruling",
          "type": "uint256"
        }
      ],
      "name": "OfferRuling",
      "type": "event"
    },
    {
      "anonymous": false,
      "inputs": [
        {
          "indexed": true,
          "name": "party",
          "type": "address"
        },
        {
          "indexed": true,
          "name": "listingID",
          "type": "uint256"
        },
        {
          "indexed": true,
          "name": "offerID",
          "type": "uint256"
        },
        {
          "indexed": false,
          "name": "ipfsHash",
          "type": "bytes32"
        }
      ],
      "name": "OfferData",
      "type": "event"
    },
    {
      "anonymous": false,
      "inputs": [
        {
          "indexed": true,
          "name": "previousOwner",
          "type": "address"
        }
      ],
      "name": "OwnershipRenounced",
      "type": "event"
    },
    {
      "anonymous": false,
      "inputs": [
        {
          "indexed": true,
          "name": "previousOwner",
          "type": "address"
        },
        {
          "indexed": true,
          "name": "newOwner",
          "type": "address"
        }
      ],
      "name": "OwnershipTransferred",
      "type": "event"
    },
    {
      "constant": true,
      "inputs": [
        {
          "name": "listingID",
          "type": "uint256"
        }
      ],
      "name": "totalOffers",
      "outputs": [
        {
          "name": "",
          "type": "uint256"
        }
      ],
      "payable": false,
      "stateMutability": "view",
      "type": "function"
    },
    {
      "constant": false,
      "inputs": [
        {
          "name": "listingID",
          "type": "uint256"
        },
        {
          "name": "_listingIpfsHash",
          "type": "bytes32"
        },
        {
          "name": "_ipfsHash",
          "type": "bytes32"
        },
        {
          "name": "_finalizes",
          "type": "uint256"
        },
        {
          "name": "_value",
          "type": "uint256"
        },
        {
          "name": "_currency",
          "type": "address"
        },
        {
          "name": "_arbitrator",
          "type": "address"
        },
        {
          "name": "_seller",
          "type": "address"
        },
        {
          "name": "_verifier",
          "type": "address"
        }
      ],
      "name": "makeOffer",
      "outputs": [],
      "payable": true,
      "stateMutability": "payable",
      "type": "function"
    },
    {
      "constant": false,
      "inputs": [
        {
          "name": "listingID",
          "type": "uint256"
        },
        {
          "name": "_listingIpfsHash",
          "type": "bytes32"
        },
        {
          "name": "_ipfsHash",
          "type": "bytes32"
        },
        {
          "name": "_finalizes",
          "type": "uint256"
        },
        {
          "name": "_value",
          "type": "uint256"
        },
        {
          "name": "_currency",
          "type": "address"
        },
        {
          "name": "_arbitrator",
          "type": "address"
        },
        {
          "name": "_seller",
          "type": "address"
        },
        {
          "name": "_verifier",
          "type": "address"
        },
        {
          "name": "_withdrawOfferID",
          "type": "uint256"
        }
      ],
      "name": "makeOffer",
      "outputs": [],
      "payable": true,
      "stateMutability": "payable",
      "type": "function"
    },
    {
      "constant": false,
      "inputs": [
        {
          "name": "listingID",
          "type": "uint256"
        },
        {
          "name": "offerID",
          "type": "uint256"
        },
        {
          "name": "_ipfsHash",
          "type": "bytes32"
        },
        {
          "name": "_behalfFee",
          "type": "uint256"
        },
        {
          "name": "seller",
          "type": "address"
        },
        {
          "name": "v",
          "type": "uint8"
        },
        {
          "name": "r",
          "type": "bytes32"
        },
        {
          "name": "s",
          "type": "bytes32"
        }
      ],
      "name": "acceptOfferOnBehalf",
      "outputs": [],
      "payable": false,
      "stateMutability": "nonpayable",
      "type": "function"
    },
    {
      "constant": false,
      "inputs": [
        {
          "name": "listingID",
          "type": "uint256"
        },
        {
          "name": "offerID",
          "type": "uint256"
        },
        {
          "name": "_ipfsHash",
          "type": "bytes32"
        }
      ],
      "name": "acceptOffer",
      "outputs": [],
      "payable": false,
      "stateMutability": "nonpayable",
      "type": "function"
    },
    {
      "constant": false,
      "inputs": [
        {
          "name": "listingID",
          "type": "uint256"
        },
        {
          "name": "offerID",
          "type": "uint256"
        },
        {
          "name": "_ipfsHash",
          "type": "bytes32"
        }
      ],
      "name": "withdrawOffer",
      "outputs": [],
      "payable": false,
      "stateMutability": "nonpayable",
      "type": "function"
    },
    {
      "constant": false,
      "inputs": [
        {
          "name": "listingID",
          "type": "uint256"
        },
        {
          "name": "offerID",
          "type": "uint256"
        },
        {
          "name": "_ipfsHash",
          "type": "bytes32"
        },
        {
          "name": "_value",
          "type": "uint256"
        }
      ],
      "name": "addFunds",
      "outputs": [],
      "payable": true,
      "stateMutability": "payable",
      "type": "function"
    },
    {
      "constant": false,
      "inputs": [
        {
          "name": "listingID",
          "type": "uint256"
        },
        {
          "name": "offerID",
          "type": "uint256"
        },
        {
          "name": "_ipfsHash",
          "type": "bytes32"
        },
        {
          "name": "verifyFee",
          "type": "uint256"
        },
        {
          "name": "payOut",
          "type": "uint256"
        },
        {
          "name": "v",
          "type": "uint8"
        },
        {
          "name": "r",
          "type": "bytes32"
        },
        {
          "name": "s",
          "type": "bytes32"
        }
      ],
      "name": "verifiedFinalize",
      "outputs": [],
      "payable": false,
      "stateMutability": "nonpayable",
      "type": "function"
    },
    {
      "constant": false,
      "inputs": [
        {
          "name": "listingID",
          "type": "uint256"
        },
        {
          "name": "offerID",
          "type": "uint256"
        },
        {
          "name": "_ipfsHash",
          "type": "bytes32"
        },
        {
          "name": "behalfFee",
          "type": "uint256"
        },
        {
          "name": "verifyFee",
          "type": "uint256"
        },
        {
          "name": "payOut",
          "type": "uint256"
        },
        {
          "name": "v_seller",
          "type": "uint8"
        },
        {
          "name": "r_seller",
          "type": "bytes32"
        },
        {
          "name": "s_seller",
          "type": "bytes32"
        },
        {
          "name": "v",
          "type": "uint8"
        },
        {
          "name": "r",
          "type": "bytes32"
        },
        {
          "name": "s",
          "type": "bytes32"
        }
      ],
      "name": "verifiedOnBehalfFinalize",
      "outputs": [],
      "payable": false,
      "stateMutability": "nonpayable",
      "type": "function"
    },
    {
      "constant": false,
      "inputs": [
        {
          "name": "listingID",
          "type": "uint256"
        },
        {
          "name": "offerID",
          "type": "uint256"
        },
        {
          "name": "_ipfsHash",
          "type": "bytes32"
        }
      ],
      "name": "finalize",
      "outputs": [],
      "payable": false,
      "stateMutability": "nonpayable",
      "type": "function"
    },
    {
      "constant": false,
      "inputs": [
        {
          "name": "listingID",
          "type": "uint256"
        },
        {
          "name": "offerID",
          "type": "uint256"
        },
        {
          "name": "_ipfsHash",
          "type": "bytes32"
        }
      ],
      "name": "dispute",
      "outputs": [],
      "payable": false,
      "stateMutability": "nonpayable",
      "type": "function"
    },
    {
      "constant": false,
      "inputs": [
        {
          "name": "listingID",
          "type": "uint256"
        },
        {
          "name": "offerID",
          "type": "uint256"
        },
        {
          "name": "_ipfsHash",
          "type": "bytes32"
        },
        {
          "name": "_ruling",
          "type": "uint256"
        },
        {
          "name": "_refund",
          "type": "uint256"
        }
      ],
      "name": "executeRuling",
      "outputs": [],
      "payable": false,
      "stateMutability": "nonpayable",
      "type": "function"
    },
    {
      "constant": false,
      "inputs": [
        {
          "name": "listingID",
          "type": "uint256"
        },
        {
          "name": "offerID",
          "type": "uint256"
        },
        {
          "name": "_refund",
          "type": "uint256"
        },
        {
          "name": "_ipfsHash",
          "type": "bytes32"
        }
      ],
      "name": "updateRefund",
      "outputs": [],
      "payable": false,
      "stateMutability": "nonpayable",
      "type": "function"
    },
    {
      "constant": false,
      "inputs": [
        {
          "name": "ipfsHash",
          "type": "bytes32"
        }
      ],
      "name": "addData",
      "outputs": [],
      "payable": false,
      "stateMutability": "nonpayable",
      "type": "function"
    },
    {
      "constant": false,
      "inputs": [
        {
          "name": "listingID",
          "type": "uint256"
        },
        {
          "name": "ipfsHash",
          "type": "bytes32"
        }
      ],
      "name": "addData",
      "outputs": [],
      "payable": false,
      "stateMutability": "nonpayable",
      "type": "function"
    },
    {
      "constant": false,
      "inputs": [
        {
          "name": "listingID",
          "type": "uint256"
        },
        {
          "name": "offerID",
          "type": "uint256"
        },
        {
          "name": "ipfsHash",
          "type": "bytes32"
        }
      ],
      "name": "addData",
      "outputs": [],
      "payable": false,
      "stateMutability": "nonpayable",
      "type": "function"
    },
    {
      "constant": false,
      "inputs": [
        {
          "name": "_tokenAddr",
          "type": "address"
        }
      ],
      "name": "setTokenAddr",
      "outputs": [],
      "payable": false,
      "stateMutability": "nonpayable",
      "type": "function"
    },
    {
      "constant": false,
      "inputs": [
        {
          "name": "_affiliate",
          "type": "address"
        },
        {
          "name": "ipfsHash",
          "type": "bytes32"
        }
      ],
      "name": "addAffiliate",
      "outputs": [],
      "payable": false,
      "stateMutability": "nonpayable",
      "type": "function"
    },
    {
      "constant": false,
      "inputs": [
        {
          "name": "_affiliate",
          "type": "address"
        },
        {
          "name": "ipfsHash",
          "type": "bytes32"
        }
      ],
      "name": "removeAffiliate",
      "outputs": [],
      "payable": false,
      "stateMutability": "nonpayable",
      "type": "function"
    },
    {
      "constant": false,
      "inputs": [
        {
          "name": "sellers",
          "type": "address[]"
        },
        {
          "name": "listingIds",
          "type": "uint256[]"
        },
        {
          "name": "ipfsHashes",
          "type": "bytes32[]"
        }
      ],
      "name": "createListings",
      "outputs": [],
      "payable": false,
      "stateMutability": "nonpayable",
      "type": "function"
    },
    {
      "constant": false,
      "inputs": [
        {
          "name": "sellers",
          "type": "address[]"
        },
        {
          "name": "listingIds",
          "type": "uint256[]"
        },
        {
          "name": "ipfsHashes",
          "type": "bytes32[]"
        }
      ],
      "name": "updateListings",
      "outputs": [],
      "payable": false,
      "stateMutability": "nonpayable",
      "type": "function"
    },
    {
      "constant": false,
      "inputs": [
        {
          "name": "sellers",
          "type": "address[]"
        },
        {
          "name": "listingIds",
          "type": "uint256[]"
        },
        {
          "name": "ipfsHashes",
          "type": "bytes32[]"
        }
      ],
      "name": "withdrawListings",
      "outputs": [],
      "payable": false,
      "stateMutability": "nonpayable",
      "type": "function"
    }
  ],
  "bytecode": "0x60806040523480156200001157600080fd5b5060405160408062003c6f8339810160405280516020909101516000805433600160a060020a03199182168117909116179055620000588264010000000062000097810204565b6000805260026020527fac33ff75c19e70fe83507db0d683fd3465c996598dc972688b7ace676c89077b805460ff1916600117905560035550620000d1565b600054600160a060020a03163314620000af57600080fd5b60048054600160a060020a031916600160a060020a0392909216919091179055565b613b8e80620000e16000396000f3006080604052600436106101695763ffffffff7c0100000000000000000000000000000000000000000000000000000000600035041663063127f6811461016e5780631d34be47146101a057806328af94c8146101c15780632ebd1e28146101d9578063347b8a62146101fa5780633b0118751461023057806347bb8e66146102695780634d03a9a5146103305780635fbe4d1d146103a357806368604924146103d457806369394202146104195780637080975714610453578063715018a61461047157806378572816146104865780637d0c3624146104aa5780637d19514d1461057157806388bd6167146105855780638da5cb5b1461064c57806391f1f31014610661578063963ff4cb1461068b5780639a8d10a3146106c05780639c3f7ca2146106db578063a0823111146106f9578063c73111dd1461071d578063d9fefbf814610741578063ebe65f601461075f578063f2fde38b1461077d578063fde34dc41461079e575b600080fd5b34801561017a57600080fd5b5061019e60043560243560443560643560843560ff60a4351660c43560e4356107bc565b005b3480156101ac57600080fd5b5061019e600435602435604435606435610892565b3480156101cd57600080fd5b5061019e600435610a16565b3480156101e557600080fd5b5061019e600160a060020a0360043516610a4f565b61019e600435602435604435606435608435600160a060020a0360a43581169060c43581169060e4358116906101043516610a95565b34801561023c57600080fd5b5061019e600435602435604435606435600160a060020a036084351660ff60a4351660c43560e435610e7f565b34801561027557600080fd5b506040805160206004803580820135838102808601850190965280855261019e95369593946024949385019291829185019084908082843750506040805187358901803560208181028481018201909552818452989b9a998901989297509082019550935083925085019084908082843750506040805187358901803560208181028481018201909552818452989b9a9989019892975090820195509350839250850190849080828437509497506112c39650505050505050565b34801561033c57600080fd5b5061034b6004356024356114e6565b60408051998a5260208a0198909852600160a060020a03968716898901529486166060890152928516608088015260a087019190915260ff1660c0860152821660e08501521661010083015251908190036101200190f35b3480156103af57600080fd5b506103b8611563565b60408051600160a060020a039092168252519081900360200190f35b3480156103e057600080fd5b5061019e60043560243560443560643560843560a43560ff60c43581169060e43590610104359061012435166101443561016435611572565b61019e600435602435604435606435608435600160a060020a0360a43581169060c43581169060e43581169061010435166101243561173f565b34801561045f57600080fd5b5061019e600435602435604435611767565b34801561047d57600080fd5b5061019e61190e565b34801561049257600080fd5b5061019e600160a060020a036004351660243561197a565b3480156104b657600080fd5b506040805160206004803580820135838102808601850190965280855261019e95369593946024949385019291829185019084908082843750506040805187358901803560208181028481018201909552818452989b9a998901989297509082019550935083925085019084908082843750506040805187358901803560208181028481018201909552818452989b9a9989019892975090820195509350839250850190849080828437509497506119ed9650505050505050565b61019e600435602435604435606435611c09565b34801561059157600080fd5b506040805160206004803580820135838102808601850190965280855261019e95369593946024949385019291829185019084908082843750506040805187358901803560208181028481018201909552818452989b9a998901989297509082019550935083925085019084908082843750506040805187358901803560208181028481018201909552818452989b9a998901989297509082019550935083925085019084908082843750949750611eeb9650505050505050565b34801561065857600080fd5b506103b8612107565b34801561066d57600080fd5b50610679600435612116565b60408051918252519081900360200190f35b34801561069757600080fd5b506106ac600160a060020a0360043516612128565b604080519115158252519081900360200190f35b3480156106cc57600080fd5b5061019e60043560243561213d565b3480156106e757600080fd5b5061019e600435602435604435612178565b34801561070557600080fd5b5061019e600160a060020a03600435166024356122fe565b34801561072957600080fd5b5061019e60043560243560443560643560843561236e565b34801561074d57600080fd5b5061019e6004356024356044356125d4565b34801561076b57600080fd5b5061019e600435602435604435612613565b34801561078957600080fd5b5061019e600160a060020a03600435166127e8565b3480156107aa57600080fd5b5061019e60043560243560443561280b565b60008881526001602052604090208054339190899081106107d957fe5b60009182526020909120600890910201600601546101009004600160a060020a031614610876576040805160e560020a62461bcd02815260206004820152603560248201527f4f6e6c79207468652073656c6c65722063616e207665726966792066696e616c60448201527f697a652074686973207472616e73616374696f6e2e0000000000000000000000606482015290519081900360840190fd5b610888888888600089898989896129d8565b5050505050505050565b60008481526001602052604081208054859081106108ac57fe5b6000918252602090912060089091020160068101549091506101009004600160a060020a03163314610928576040805160e560020a62461bcd02815260206004820152601060248201527f53656c6c6572206d7573742063616c6c00000000000000000000000000000000604482015290519081900360640190fd5b600681015460ff16600214610975576040805160e560020a62461bcd0281526020600482015260126024820152600080516020613b43833981519152604482015290519081900360640190fd5b80548311156109ce576040805160e560020a62461bcd02815260206004820152601060248201527f45786365737369766520726566756e6400000000000000000000000000000000604482015290519081900360640190fd5b600181018390556040805183815290518591879133917f9b7312a236066d2da679eba7e3a2e86d2d07a973819499846c0efd2fd2506c80919081900360200190a45050505050565b60408051828152905133917f8e530f3a09c59fdf1b0d5ed714b7a5b94c059256cdc29b8521e9891734c6a2b7919081900360200190a250565b600054600160a060020a03163314610a6657600080fd5b6004805473ffffffffffffffffffffffffffffffffffffffff1916600160a060020a0392909216919091179055565b600160008a8152602001908152602001600020610120604051908101604052808781526020016000815260200186600160a060020a0316815260200133600160a060020a0316815260200185600160a060020a03168152602001888152602001600160ff16815260200184600160a060020a0316815260200183600160a060020a031681525090806001815401808255809150509060018203906000526020600020906008020160009091929091909150600082015181600001556020820151816001015560408201518160020160006101000a815481600160a060020a030219169083600160a060020a0316021790555060608201518160030160006101000a815481600160a060020a030219169083600160a060020a0316021790555060808201518160040160006101000a815481600160a060020a030219169083600160a060020a0316021790555060a0820151816005015560c08201518160060160006101000a81548160ff021916908360ff16021790555060e08201518160060160016101000a815481600160a060020a030219169083600160a060020a031602179055506101008201518160070160006101000a815481600160a060020a030219169083600160a060020a0316021790555050505083600160a060020a031660001415610cd857348514610cd3576040805160e560020a62461bcd02815260206004820152601d60248201527f4554482076616c756520646f65736e2774206d61746368206f66666572000000604482015290519081900360640190fd5b610e1e565b3415610d2e576040805160e560020a62461bcd02815260206004820152601160248201527f45544820776f756c64206265206c6f7374000000000000000000000000000000604482015290519081900360640190fd5b604080517f23b872dd000000000000000000000000000000000000000000000000000000008152336004820152306024820152604481018790529051600160a060020a038616916323b872dd9160648083019260209291908290030181600087803b158015610d9c57600080fd5b505af1158015610db0573d6000803e3d6000fd5b505050506040513d6020811015610dc657600080fd5b50511515610e1e576040805160e560020a62461bcd02815260206004820152601360248201527f7472616e7366657246726f6d206661696c656400000000000000000000000000604482015290519081900360640190fd5b6000898152600160209081526040918290205482518a81529182018b90528251600019909101928c9233927f51925063546fd5f89ac754d8da769e20ede0fbc4adbfdbd397862aceb9533521929181900390910190a4505050505050505050565b600084600160a060020a03166001610e998b8b8b8b612e59565b60408051600080825260208083018085529490945260ff8a16828401526060820189905260808201889052915160a08083019493601f198301938390039091019190865af1158015610eef573d6000803e3d6000fd5b50505060206040510351600160a060020a0316141515610f7f576040805160e560020a62461bcd02815260206004820152603860248201527f546865206f6666657220616363657074616e6365207369676e6174757265206460448201527f6f6573206e6f74206d61746368207468652073656c6c65720000000000000000606482015290519081900360840190fd5b6000898152600160205260409020805489908110610f9957fe5b9060005260206000209060080201905084600160a060020a03168160060160019054906101000a9004600160a060020a0316600160a060020a03161480611007575060068101546101009004600160a060020a031615801561100757506003810154600160a060020a031633145b15156110a9576040805160e560020a62461bcd02815260206004820152604560248201527f546865206c697374696e67206d7573742062656c6f6e6720746f20656974686560448201527f72207468652073656e646572206f722074686520626568616c66206f6620736560648201527f6e6465722e000000000000000000000000000000000000000000000000000000608482015290519081900360a40190fd5b80548610611127576040805160e560020a62461bcd02815260206004820152603360248201527f5468657265206973206e6f7420656e6f7567682076616c756520746f2070617960448201527f206f66662074686520626568616c662066656500000000000000000000000000606482015290519081900360840190fd5b80548690038155604051339087156108fc029088906000818181858888f1935050505015156111a0576040805160e560020a62461bcd02815260206004820152601960248201527f43616e6e6f742073656e642066656520746f2073656e64657200000000000000604482015290519081900360640190fd5b6006810154600160a060020a0386811661010090920416146111ec5760068101805474ffffffffffffffffffffffffffffffffffffffff001916610100600160a060020a038816021790555b600681015460ff1660011461124b576040805160e560020a62461bcd02815260206004820152601160248201527f73746174757320213d2063726561746564000000000000000000000000000000604482015290519081900360640190fd5b633b9aca008160050154101561126657600581018054420190555b60068101805460ff1916600217905560408051888152905189918b91600160a060020a038916917f449224201a35688b74a38ff24770e8b2a326ebf42357bf19a36f5fedbbe552a0919081900360200190a4505050505050505050565b3060009081526002602052604081205460ff169081806112f257503360009081526002602052604090205460ff165b1515611348576040805160e560020a62461bcd02815260206004820152601560248201527f416666696c69617465206e6f7420616c6c6f7765640000000000000000000000604482015290519081900360640190fd5b83518551146113c7576040805160e560020a62461bcd02815260206004820152603160248201527f4c697374696e6773206c656e67746820616e642073656c6c657273206c656e6760448201527f746820646f6573206e6f74206d61746368000000000000000000000000000000606482015290519081900360840190fd5b8251855114611446576040805160e560020a62461bcd02815260206004820152602f60248201527f486173686573206c656e67746820616e642073656c6c657273206c656e67746860448201527f20646f6573206e6f74206d617463680000000000000000000000000000000000606482015290519081900360840190fd5b5060005b84518110156114df57838181518110151561146157fe5b90602001906020020151858281518110151561147957fe5b90602001906020020151600160a060020a03167fafa3dc4f271ef3419006f21140d375eba48ef3def56e8bfe6d54d0c72a81a30785848151811015156114bb57fe5b602090810290910181015160408051918252519081900390910190a360010161144a565b5050505050565b60016020528160005260406000208181548110151561150157fe5b600091825260209091206008909102018054600182015460028301546003840154600485015460058601546006870154600790970154959850939650600160a060020a039283169591831694908316939260ff83169261010090048116911689565b600454600160a060020a031681565b8887116115ef576040805160e560020a62461bcd02815260206004820152602760248201527f5061796f7574206d757374206265206d6f7265207468616e207468652062656860448201527f616c662066656500000000000000000000000000000000000000000000000000606482015290519081900360840190fd5b60008c815260016020526040902080548c90811061160957fe5b60009182526020909120600890910201600601546101009004600160a060020a0316600161163a8e8e8e8c8f6130db565b60408051600080825260208083018085529490945260ff8c1682840152606082018b9052608082018a9052915160a08083019493601f198301938390039091019190865af1158015611690573d6000803e3d6000fd5b50505060206040510351600160a060020a0316141515611720576040805160e560020a62461bcd02815260206004820152603760248201527f54686520626568616c662066696e616c697a65207369676e617475726520646f60448201527f6573206e6f74206d61746368207468652073656c6c6572000000000000000000606482015290519081900360840190fd5b6117318c8c8c8c8c8c8989896129d8565b505050505050505050505050565b61174a8a828a612613565b61175b8a8a8a8a8a8a8a8a8a610a95565b50505050505050505050565b600083815260016020526040812080548490811061178157fe5b600091825260209091206008909102016003810154909150600160a060020a03163314806117c0575060068101546101009004600160a060020a031633145b1515611816576040805160e560020a62461bcd02815260206004820152601760248201527f4d7573742062652073656c6c6572206f72206275796572000000000000000000604482015290519081900360640190fd5b600681015460ff16600214611863576040805160e560020a62461bcd0281526020600482015260126024820152600080516020613b43833981519152604482015290519081900360640190fd5b60058101544211156118bf576040805160e560020a62461bcd02815260206004820152601160248201527f416c72656164792066696e616c697a6564000000000000000000000000000000604482015290519081900360640190fd5b60068101805460ff191660031790556040805183815290518491869133917f11c45991938e1dec0b00887cd2368a2195fccb46b08cc56483ac3053ddb609b2919081900360200190a450505050565b600054600160a060020a0316331461192557600080fd5b60008054604051600160a060020a03909116917ff8df31144d9c2f0f6b59d69b8b98abd5459d07f2742c4df920b25aae33c6482091a26000805473ffffffffffffffffffffffffffffffffffffffff19169055565b600054600160a060020a0316331461199157600080fd5b600160a060020a038216600081815260026020908152604091829020805460ff19166001179055815184815291517f5e48128fde8c162f70ea9f59d0a58f1d1cc40c2eec4b4c71356ab395650bfbdf9281900390910190a25050565b3060009081526002602052604081205460ff16908180611a1c57503360009081526002602052604090205460ff165b1515611a72576040805160e560020a62461bcd02815260206004820152601560248201527f416666696c69617465206e6f7420616c6c6f7765640000000000000000000000604482015290519081900360640190fd5b8351855114611af1576040805160e560020a62461bcd02815260206004820152603160248201527f4c697374696e6773206c656e67746820616e642073656c6c657273206c656e6760448201527f746820646f6573206e6f74206d61746368000000000000000000000000000000606482015290519081900360840190fd5b8251855114611b70576040805160e560020a62461bcd02815260206004820152602f60248201527f486173686573206c656e67746820616e642073656c6c657273206c656e67746860448201527f20646f6573206e6f74206d617463680000000000000000000000000000000000606482015290519081900360840190fd5b5060005b84518110156114df578381815181101515611b8b57fe5b906020019060200201518582815181101515611ba357fe5b90602001906020020151600160a060020a03167f470503ad37642fff73a57bac35e69733b6b38281a893f39b50c285aad1f040e08584815181101515611be557fe5b602090810290910181015160408051918252519081900390910190a3600101611b74565b6000848152600160205260408120805485908110611c2357fe5b600091825260209091206008909102016003810154909150600160a060020a03163314611c9a576040805160e560020a62461bcd02815260206004820152600f60248201527f4275796572206d7573742063616c6c0000000000000000000000000000000000604482015290519081900360640190fd5b600681015460ff16600214611ce7576040805160e560020a62461bcd0281526020600482015260126024820152600080516020613b43833981519152604482015290519081900360640190fd5b6002810154600160a060020a03161515611d5757348214611d52576040805160e560020a62461bcd02815260206004820152601560248201527f73656e7420213d206f6666657265642076616c75650000000000000000000000604482015290519081900360640190fd5b611ea4565b3415611dad576040805160e560020a62461bcd02815260206004820152601460248201527f455448206d757374206e6f742062652073656e74000000000000000000000000604482015290519081900360640190fd5b6002810154604080517f23b872dd000000000000000000000000000000000000000000000000000000008152336004820152306024820152604481018590529051600160a060020a03909216916323b872dd916064808201926020929091908290030181600087803b158015611e2257600080fd5b505af1158015611e36573d6000803e3d6000fd5b505050506040513d6020811015611e4c57600080fd5b50511515611ea4576040805160e560020a62461bcd02815260206004820152601360248201527f7472616e7366657246726f6d206661696c656400000000000000000000000000604482015290519081900360640190fd5b8054820181556040805184815290518591879133917f5f0e66c42b81a43cbd35b11ea0a599d0be1d8e1fdb61d1d4f7a98243ba6cc26b919081900360200190a45050505050565b3060009081526002602052604081205460ff16908180611f1a57503360009081526002602052604090205460ff165b1515611f70576040805160e560020a62461bcd02815260206004820152601560248201527f416666696c69617465206e6f7420616c6c6f7765640000000000000000000000604482015290519081900360640190fd5b8351855114611fef576040805160e560020a62461bcd02815260206004820152603160248201527f4c697374696e6773206c656e67746820616e642073656c6c657273206c656e6760448201527f746820646f6573206e6f74206d61746368000000000000000000000000000000606482015290519081900360840190fd5b825185511461206e576040805160e560020a62461bcd02815260206004820152602f60248201527f486173686573206c656e67746820616e642073656c6c657273206c656e67746860448201527f20646f6573206e6f74206d617463680000000000000000000000000000000000606482015290519081900360840190fd5b5060005b84518110156114df57838181518110151561208957fe5b9060200190602002015185828151811015156120a157fe5b90602001906020020151600160a060020a03167fec3d306143145322b45d2788d826e3b7b9ad062f16e1ec59a5eaba214f96ee3c85848151811015156120e357fe5b602090810290910181015160408051918252519081900390910190a3600101612072565b600054600160a060020a031681565b60009081526001602052604090205490565b60026020526000908152604090205460ff1681565b604080518281529051839133917f12dc84d4005dd5b86fd88951106aa76927a62b83b85ba9c912a7268582906aa99181900360200190a35050565b600083815260016020526040812080548490811061219257fe5b600091825260209091206006600890920201908101549091506101009004600160a060020a03163314612235576040805160e560020a62461bcd02815260206004820152602660248201527f546865206c697374696e67206d7573742062656c6f6e6720746f20746865207360448201527f656e6465722e0000000000000000000000000000000000000000000000000000606482015290519081900360840190fd5b600681015460ff16600114612294576040805160e560020a62461bcd02815260206004820152601160248201527f73746174757320213d2063726561746564000000000000000000000000000000604482015290519081900360640190fd5b633b9aca00816005015410156122af57600581018054420190555b60068101805460ff191660021790556040805183815290518491869133917f449224201a35688b74a38ff24770e8b2a326ebf42357bf19a36f5fedbbe552a0919081900360200190a450505050565b600054600160a060020a0316331461231557600080fd5b600160a060020a038216600081815260026020908152604091829020805460ff19169055815184815291517f3553c89fbe376344fc3e6cfb39cce65e6d961cece468c297dad2a1e31d4fa2b69281900390910190a25050565b600085815260016020526040812080548690811061238857fe5b600091825260209091206008909102016004810154909150600160a060020a031633146123ff576040805160e560020a62461bcd02815260206004820152601260248201527f4d7573742062652061726269747261746f720000000000000000000000000000604482015290519081900360640190fd5b600681015460ff1660031461245e576040805160e560020a62461bcd02815260206004820152601260248201527f73746174757320213d2064697370757465640000000000000000000000000000604482015290519081900360640190fd5b80548211156124b7576040805160e560020a62461bcd02815260206004820152600f60248201527f726566756e6420746f6f20686967680000000000000000000000000000000000604482015290519081900360640190fd5b600180820183905583811614156124d7576124d28686613365565b6124e1565b6124e1868661352c565b60048101546040805186815260208101869052815188938a93600160a060020a03909116927f3e4d55eb2a402ba6f500db5d75f9303dfe863a2e8319054aeddb6a35ec7e3c61929081900390910190a4600086815260016020526040902080548690811061254b57fe5b6000918252602082206008909102018181556001810182905560028101805473ffffffffffffffffffffffffffffffffffffffff199081169091556003820180548216905560048201805482169055600582019290925560068101805474ffffffffffffffffffffffffffffffffffffffffff1916905560070180549091169055505050505050565b6040805182815290518391859133917f9b7312a236066d2da679eba7e3a2e86d2d07a973819499846c0efd2fd2506c80919081900360200190a4505050565b600083815260016020526040812080548490811061262d57fe5b600091825260209091206008909102016003810154909150600160a060020a031633146126a4576040805160e560020a62461bcd02815260206004820152601360248201527f5265737472696374656420746f20627579657200000000000000000000000000604482015290519081900360640190fd5b600681015460ff16600114612703576040805160e560020a62461bcd02815260206004820152601160248201527f73746174757320213d2063726561746564000000000000000000000000000000604482015290519081900360640190fd5b61270d8484613365565b6040805183815290518491869133917fe9ae767ab1c8f3f874a5b2810a1f6323b43283a5b462b52a4de5f8ed53a4fe25919081900360200190a4600084815260016020526040902080548490811061276157fe5b6000918252602082206008909102018181556001810182905560028101805473ffffffffffffffffffffffffffffffffffffffff199081169091556003820180548216905560048201805482169055600582019290925560068101805474ffffffffffffffffffffffffffffffffffffffffff191690556007018054909116905550505050565b600054600160a060020a031633146127ff57600080fd5b61280881613889565b50565b600083815260016020526040812080548490811061282557fe5b906000526020600020906008020190508060050154421115156128ab576003810154600160a060020a031633146128a6576040805160e560020a62461bcd02815260206004820152601760248201527f4f6e6c792062757965722063616e2066696e616c697a65000000000000000000604482015290519081900360640190fd5b61292d565b6003810154600160a060020a03163314806128d7575060068101546101009004600160a060020a031633145b151561292d576040805160e560020a62461bcd02815260206004820152601d60248201527f53656c6c6572206f72206275796572206d7573742066696e616c697a65000000604482015290519081900360640190fd5b600681015460ff1660021461297a576040805160e560020a62461bcd0281526020600482015260126024820152600080516020613b43833981519152604482015290519081900360640190fd5b612984848461352c565b6040805183815290518491869133917fbfefa76df66ac53c6517b1939b14bfc4d5fdf714b93a71aea2e50977d1b3b8e6919081900360200190a4600084815260016020526040902080548490811061276157fe5b600089815260016020526040812080548291908b9081106129f557fe5b600091825260209091206008909102016007810154909250600160a060020a03166001612a258d8d8d8b8d6130db565b60408051600080825260208083018085529490945260ff8b1682840152606082018a905260808201899052915160a08083019493601f198301938390039091019190865af1158015612a7b573d6000803e3d6000fd5b50505060206040510351600160a060020a0316141515612b0b576040805160e560020a62461bcd02815260206004820152603260248201527f5468652066696e616c697a65207369676e617475726520646f6573206e6f742060448201527f6d61746368207468652076657269666965720000000000000000000000000000606482015290519081900360840190fd5b600682015460ff16600214612b58576040805160e560020a62461bcd0281526020600482015260126024820152600080516020613b43833981519152604482015290519081900360640190fd5b6001820154825403861115612bb7576040805160e560020a62461bcd02815260206004820152601860248201527f4f666665722063616e6e6f74206d616b65207061796f75740000000000000000604482015290519081900360640190fd5b8787018611612c10576040805160e560020a62461bcd02815260206004820152601360248201527f43616e6e6f7420706179206f6666206665657300000000000000000000000000604482015290519081900360640190fd5b50846000881115612c9957815488900382556040519088900390339089156108fc02908a906000818181858888f193505050501515612c99576040805160e560020a62461bcd02815260206004820181905260248201527f43616e6e6f742073656e6420626568616c662066656520746f2073656e646572604482015290519081900360640190fd5b6000871115612d55578154879003825560078201546040519188900391600160a060020a039091169088156108fc029089906000818181858888f193505050501515612d55576040805160e560020a62461bcd02815260206004820152602260248201527f43616e6e6f742073656e64207665726966792066656520746f2076657269666960448201527f6572000000000000000000000000000000000000000000000000000000000000606482015290519081900360840190fd5b81548190036001830155612d698b8b61352c565b6007820154604080518b815290518c928e92600160a060020a03909116917fbfefa76df66ac53c6517b1939b14bfc4d5fdf714b93a71aea2e50977d1b3b8e69181900360200190a460008b815260016020526040902080548b908110612dcb57fe5b6000918252602082206008909102018181556001810182905560028101805473ffffffffffffffffffffffffffffffffffffffff199081169091556003820180548216905560048201805482169055600582019290925560068101805474ffffffffffffffffffffffffffffffffffffffffff19169055600701805490911690555050505050505050505050565b6000612e63613906565b608060405190810160405280605181526020017f4163636570744f666665722875696e74323536206c697374696e6749442c756981526020017f6e74323536206f6666657249442c627974657333322069706673486173682c7581526020017f696e7432353620626568616c66466565290000000000000000000000000000008152506040516020018082805190602001908083835b60208310612f185780518252601f199092019160209182019101612ef9565b6001836020036101000a0380198251168184511680821785525050505050509050019150506040516020818303038152906040526040518082805190602001908083835b60208310612f7b5780518252601f199092019160209182019101612f5c565b51815160209384036101000a600019018019909216911617905260408051929094018290038220828201528184018c9052606082018b9052608082018a905260a08083018a90528451808403909101815260c09092019384905281519195509293508392850191508083835b602083106130065780518252601f199092019160209182019101612fe7565b51815160209384036101000a6000190180199092169116179052604080519290940182900382207f190100000000000000000000000000000000000000000000000000000000000083830152602283019790975260428083019790975283518083039097018752606290910192839052855192945084935085019190508083835b602083106130a65780518252601f199092019160209182019101613087565b5181516020939093036101000a6000190180199091169216919091179052604051920182900390912098975050505050505050565b60006130e5613906565b608060405190810160405280605d81526020017f46696e616c697a652875696e74323536206c697374696e6749442c75696e743281526020017f3536206f6666657249442c627974657333322069706673486173682c75696e7481526020017f323536207061794f75742c75696e7432353620626568616c66466565290000008152506040516020018082805190602001908083835b6020831061319a5780518252601f19909201916020918201910161317b565b6001836020036101000a0380198251168184511680821785525050505050509050019150506040516020818303038152906040526040518082805190602001908083835b602083106131fd5780518252601f1990920191602091820191016131de565b51815160209384036101000a600019018019909216911617905260408051929094018290038220828201528184018d9052606082018c9052608082018b905260a082018a905260c08083018a90528451808403909101815260e09092019384905281519195509293508392850191508083835b6020831061328f5780518252601f199092019160209182019101613270565b51815160209384036101000a6000190180199092169116179052604080519290940182900382207f190100000000000000000000000000000000000000000000000000000000000083830152602283019790975260428083019790975283518083039097018752606290910192839052855192945084935085019190508083835b6020831061332f5780518252601f199092019160209182019101613310565b5181516020939093036101000a600019018019909116921691909117905260405192018290039091209998505050505050505050565b600082815260016020526040812080548390811061337f57fe5b600091825260209091206008909102016002810154909150600160a060020a0316151561342d5760038101548154604051600160a060020a039092169181156108fc0291906000818181858888f193505050501515613428576040805160e560020a62461bcd02815260206004820152601160248201527f45544820726566756e64206661696c6564000000000000000000000000000000604482015290519081900360640190fd5b613527565b600281015460038201548254604080517fa9059cbb000000000000000000000000000000000000000000000000000000008152600160a060020a039384166004820152602481019290925251919092169163a9059cbb9160448083019260209291908290030181600087803b1580156134a557600080fd5b505af11580156134b9573d6000803e3d6000fd5b505050506040513d60208110156134cf57600080fd5b50511515613527576040805160e560020a62461bcd02815260206004820152600d60248201527f526566756e64206661696c656400000000000000000000000000000000000000604482015290519081900360640190fd5b505050565b600082815260016020526040812080548291908490811061354957fe5b60009182526020909120600890910201600181015481546002830154929450039150600160a060020a031615156136895760038201546001830154604051600160a060020a039092169181156108fc0291906000818181858888f1935050505015156135ff576040805160e560020a62461bcd02815260206004820152601160248201527f45544820726566756e64206661696c6564000000000000000000000000000000604482015290519081900360640190fd5b6006820154604051610100909104600160a060020a0316906108fc8315029083906000818181858888f193505050501515613684576040805160e560020a62461bcd02815260206004820152600f60248201527f4554482073656e64206661696c65640000000000000000000000000000000000604482015290519081900360640190fd5b613883565b600282015460038301546001840154604080517fa9059cbb000000000000000000000000000000000000000000000000000000008152600160a060020a039384166004820152602481019290925251919092169163a9059cbb9160448083019260209291908290030181600087803b15801561370457600080fd5b505af1158015613718573d6000803e3d6000fd5b505050506040513d602081101561372e57600080fd5b50511515613786576040805160e560020a62461bcd02815260206004820152600d60248201527f526566756e64206661696c656400000000000000000000000000000000000000604482015290519081900360640190fd5b60028201546006830154604080517fa9059cbb000000000000000000000000000000000000000000000000000000008152610100909204600160a060020a03908116600484015260248301859052905192169163a9059cbb916044808201926020929091908290030181600087803b15801561380157600080fd5b505af1158015613815573d6000803e3d6000fd5b505050506040513d602081101561382b57600080fd5b50511515613883576040805160e560020a62461bcd02815260206004820152600f60248201527f5472616e73666572206661696c65640000000000000000000000000000000000604482015290519081900360640190fd5b50505050565b600160a060020a038116151561389e57600080fd5b60008054604051600160a060020a03808516939216917f8be0079c531659141344cd1fd0a4f28419497f9722a3daafe3b4186f6b6457e091a36000805473ffffffffffffffffffffffffffffffffffffffff1916600160a060020a0392909216919091179055565b60408051608081018252605f8082527f454950373132446f6d61696e28737472696e67206e616d652c737472696e672060208084019182527f76657273696f6e2c75696e7432353620636861696e49642c6164647265737320848601527f766572696679696e67436f6e74726163742c627974657333322073616c7429006060850152935160009401918291908083835b602083106139b65780518252601f199092019160209182019101613997565b6001836020036101000a0380198251168184511680821785525050505050509050019150506040516020818303038152906040526040518082805190602001908083835b60208310613a195780518252601f1990920191602091820191016139fa565b51815160001960209485036101000a01908116901991909116179052604080519490920184900384207f4f726967696e2050726f746f636f6c00000000000000000000000000000000008552825194859003600f0185207f3100000000000000000000000000000000000000000000000000000000000000865283519586900360010186206003548785019390935286850191909152606086015260808501523060a085015261066660c0808601919091528251808603909101815260e0909401918290528351939550909350839290850191508083835b60208310613b105780518252601f199092019160209182019101613af1565b6001836020036101000a0380198251168184511680821785525050505050509050019150506040518091039020905090560073746174757320213d2061636365707465640000000000000000000000000000a165627a7a7230582049bd35aee8130f2d49f3a8716d1fd8b7e92bf136cc4933da9954b3d425cc1f420029",
  "source": "pragma solidity ^0.4.24;\n\nimport \"../../../node_modules/openzeppelin-solidity/contracts/ownership/Ownable.sol\";\n\n/**\n * @title A Marketplace contract for managing listings, offers, payments, escrow and arbitration\n * @author Nick Poulden <nick@poulden.com>\n *\n * Listings may be priced in Eth or ERC20.\n */\n\n\ncontract ERC20 {\n    function transfer(address _to, uint256 _value) external returns (bool);\n    function transferFrom(address _from, address _to, uint256 _value) external returns (bool);\n}\n\n\ncontract VA_Marketplace is Ownable {\n\n    /**\n    * @notice All events have the same indexed signature offsets for easy filtering\n    */\n    event MarketplaceData  (address indexed party, bytes32 ipfsHash);\n    event AffiliateAdded   (address indexed party, bytes32 ipfsHash);\n    event AffiliateRemoved (address indexed party, bytes32 ipfsHash);\n    event ListingCreated   (address indexed party, uint indexed listingID, bytes32 ipfsHash);\n    event ListingUpdated   (address indexed party, uint indexed listingID, bytes32 ipfsHash);\n    event ListingWithdrawn (address indexed party, uint indexed listingID, bytes32 ipfsHash);\n    event ListingArbitrated(address indexed party, uint indexed listingID, bytes32 ipfsHash);\n    event ListingData      (address indexed party, uint indexed listingID, bytes32 ipfsHash);\n    event OfferCreated     (address indexed party, uint indexed listingID, uint indexed offerID, bytes32 ipfsHash, bytes32 listingIpfsHash);\n    event OfferAccepted    (address indexed party, uint indexed listingID, uint indexed offerID, bytes32 ipfsHash);\n    event OfferFinalized   (address indexed party, uint indexed listingID, uint indexed offerID, bytes32 ipfsHash);\n    event OfferWithdrawn   (address indexed party, uint indexed listingID, uint indexed offerID, bytes32 ipfsHash);\n    event OfferFundsAdded  (address indexed party, uint indexed listingID, uint indexed offerID, bytes32 ipfsHash);\n    event OfferDisputed    (address indexed party, uint indexed listingID, uint indexed offerID, bytes32 ipfsHash);\n    event OfferRuling      (address indexed party, uint indexed listingID, uint indexed offerID, bytes32 ipfsHash, uint ruling);\n    event OfferData        (address indexed party, uint indexed listingID, uint indexed offerID, bytes32 ipfsHash);\n\n    struct Offer {\n        uint value;         // Amount in Eth or ERC20 buyer is offering\n        uint refund;        // Amount to refund buyer upon finalization\n        ERC20 currency;     // Currency of listing\n        address buyer;      // Buyer wallet / identity contract / other contract\n        address arbitrator; // Address that settles disputes\n        uint finalizes;     // Timestamp offer finalizes\n        uint8 status;       // 0: Undefined, 1: Created, 2: Accepted, 3: Disputed\n        address seller;            // the address of the seller\n        address verifier;          // Address whose signature can verify the terms\n    }\n\n    mapping(uint => Offer[]) public offers; // listingID => Offers\n    mapping(address => bool) public allowedAffiliates;\n\n    uint chainId;\n\n    ERC20 public tokenAddr; // Origin Token address\n\n\n    bytes32 private constant salt = 0x0000000000000000000000000000000000000000000000000000000000000666;\n\n    string private constant EIP712_DOMAIN  = \"EIP712Domain(string name,string version,uint256 chainId,address verifyingContract,bytes32 salt)\";\n    string private constant ACCEPT_OFFER_TYPE = \"AcceptOffer(uint256 listingID,uint256 offerID,bytes32 ipfsHash,uint256 behalfFee)\";\n    string private constant FINALIZE_TYPE = \"Finalize(uint256 listingID,uint256 offerID,bytes32 ipfsHash,uint256 payOut,uint256 behalfFee)\";\n\n    bytes32 private constant EIP712_DOMAIN_TYPEHASH = keccak256(abi.encodePacked(EIP712_DOMAIN));\n    bytes32 private constant ACCEPT_OFFER_TYPEHASH = keccak256(abi.encodePacked(ACCEPT_OFFER_TYPE));\n    bytes32 private constant FINALIZE_TYPEHASH = keccak256(abi.encodePacked(FINALIZE_TYPE));\n\n    constructor(address _tokenAddr, uint _chainId) public {\n        owner = msg.sender;\n        setTokenAddr(_tokenAddr); // Origin Token contract\n        allowedAffiliates[0x0] = true; // Allow null affiliate by default\n        chainId = _chainId;\n    }\n\n    // @dev Return the total number of offers\n    function totalOffers(uint listingID) public view returns (uint) {\n        return offers[listingID].length;\n    }\n\n    // @dev Buyer makes offer.\n    function makeOffer(\n        uint listingID,\n        bytes32 _listingIpfsHash, // listing IPFS hash that we're making an offer on\n        bytes32 _ipfsHash,   // IPFS hash containing offer data\n        uint _finalizes,     // Timestamp an accepted offer will finalize\n        uint _value,         // Offer amount in ERC20 or Eth\n        ERC20 _currency,     // ERC20 token address or 0x0 for Eth\n        address _arbitrator,  // Escrow arbitrator\n        address _seller,\n        address _verifier\n    )\n        public\n        payable\n    {\n        offers[listingID].push(Offer({\n            status: 1,\n            buyer: msg.sender,\n            finalizes: _finalizes,\n            currency: _currency,\n            value: _value,\n            arbitrator: _arbitrator,\n            refund: 0,\n            seller: _seller,\n            verifier: _verifier\n        }));\n\n        if (address(_currency) == 0x0) { // Listing is in ETH\n            require(msg.value == _value, \"ETH value doesn't match offer\");\n        } else { // Listing is in ERC20\n            require(msg.value == 0, \"ETH would be lost\");\n            require(\n                _currency.transferFrom(msg.sender, this, _value),\n                \"transferFrom failed\"\n            );\n        }\n\n        emit OfferCreated(msg.sender, listingID, offers[listingID].length-1, _ipfsHash, _listingIpfsHash);\n    }\n\n    // @dev Make new offer after withdraw\n    function makeOffer(\n        uint listingID,\n        bytes32 _listingIpfsHash,\n        bytes32 _ipfsHash,\n        uint _finalizes,\n        uint _value,\n        ERC20 _currency,\n        address _arbitrator,\n        address _seller,\n        address _verifier,\n        uint _withdrawOfferID\n    )\n        public\n        payable\n    {\n        withdrawOffer(listingID, _withdrawOfferID, _ipfsHash);\n        makeOffer(listingID, _listingIpfsHash, _ipfsHash, _finalizes, _value, _currency, _arbitrator, _seller, _verifier);\n    }\n\n\n    function hashDomain() internal view returns (bytes32)\n    {\n        return keccak256(\n            abi.encode(\n                EIP712_DOMAIN_TYPEHASH,\n                keccak256(\"Origin Protocol\"),\n                keccak256(\"1\"),\n                chainId,\n                address(this),\n                salt\n        ));\n    }\n\n    function hashAcceptOffer(uint listingID, uint offerID, bytes32 ipfsHash, uint behalfFee) internal view returns (bytes32)\n    {\n        return keccak256(\n            abi.encodePacked(\n                \"\\x19\\x01\",\n                hashDomain(),\n                keccak256(\n                    abi.encode(\n                        ACCEPT_OFFER_TYPEHASH,\n                        listingID,\n                        offerID,\n                        ipfsHash,\n                        behalfFee))\n        ));\n    }\n\n    function hashFinalize(uint listingID, uint offerID, bytes32 ipfsHash, uint payOut, uint behalfFee) internal view returns (bytes32)\n    {\n        return keccak256(\n            abi.encodePacked(\n                \"\\x19\\x01\",\n                hashDomain(),\n                keccak256(\n                    abi.encode(\n                        FINALIZE_TYPEHASH,\n                        listingID,\n                        offerID,\n                        ipfsHash,\n                        payOut,\n                        behalfFee))\n        ));\n    }\n\n    function acceptOfferOnBehalf(uint listingID, uint offerID, bytes32 _ipfsHash, uint _behalfFee, address seller, uint8 v, bytes32 r, bytes32 s) public \n    {\n        // Either the seller or a buyer generated offer must accept\n        require(ecrecover(hashAcceptOffer(listingID, offerID, _ipfsHash, _behalfFee), v, r, s) == seller, \"The offer acceptance signature does not match the seller\");\n        Offer storage offer = offers[listingID][offerID];\n        require(offer.seller == seller || (offer.seller == address(0) && offer.buyer == msg.sender), \"The listing must belong to either the sender or the behalf of sender.\");\n        require(offer.value > _behalfFee, \"There is not enough value to pay off the behalf fee\");\n        offer.value -= _behalfFee;\n        require(msg.sender.send(_behalfFee), \"Cannot send fee to sender\");\n        if (offer.seller != seller) {\n            offer.seller = seller;\n        }\n        require(offer.status == 1, \"status != created\");\n        if (offer.finalizes < 1000000000) { // Relative finalization window\n            offer.finalizes = now + offer.finalizes;\n        }\n        offer.status = 2; // Set offer to 'Accepted'\n        emit OfferAccepted(seller, listingID, offerID, _ipfsHash);\n    }\n\n\n    // @dev Seller accepts offer\n    function acceptOffer(uint listingID, uint offerID, bytes32 _ipfsHash) public \n    {\n        Offer storage offer = offers[listingID][offerID];\n        require(offer.seller == msg.sender, \"The listing must belong to the sender.\");\n        require(offer.status == 1, \"status != created\");\n        if (offer.finalizes < 1000000000) { // Relative finalization window\n            offer.finalizes = now + offer.finalizes;\n        }\n        offer.status = 2; // Set offer to 'Accepted'\n        emit OfferAccepted(msg.sender, listingID, offerID, _ipfsHash);\n    }\n\n    // @dev Buyer withdraws offer. IPFS hash contains reason for withdrawl.\n    function withdrawOffer(uint listingID, uint offerID, bytes32 _ipfsHash) public {\n        Offer storage offer = offers[listingID][offerID];\n        require(\n            msg.sender == offer.buyer,\n            \"Restricted to buyer\"\n        );\n        require(offer.status == 1, \"status != created\");\n        refundBuyer(listingID, offerID);\n        emit OfferWithdrawn(msg.sender, listingID, offerID, _ipfsHash);\n        delete offers[listingID][offerID];\n    }\n\n    // @dev Buyer adds extra funds to an accepted offer.\n    function addFunds(uint listingID, uint offerID, bytes32 _ipfsHash, uint _value) public payable {\n        Offer storage offer = offers[listingID][offerID];\n        require(msg.sender == offer.buyer, \"Buyer must call\");\n        require(offer.status == 2, \"status != accepted\");\n        if (address(offer.currency) == 0x0) { // Listing is in ETH\n            require(\n                msg.value == _value,\n                \"sent != offered value\"\n            );\n        } else { // Listing is in ERC20\n            require(msg.value == 0, \"ETH must not be sent\");\n            require(\n                offer.currency.transferFrom(msg.sender, this, _value),\n                \"transferFrom failed\"\n            );\n        }\n        offer.value += _value;\n        emit OfferFundsAdded(msg.sender, listingID, offerID, _ipfsHash);\n    }\n\n    // @dev verifier finalize transaction to receive commission\n    function _verifiedFinalize(uint listingID, uint offerID, bytes32 _ipfsHash, uint _behalfFee, uint _verifyFee, uint payOut, uint8 v, bytes32 r, bytes32 s) internal \n    {\n\n        Offer storage offer = offers[listingID][offerID];\n        // Verifier will not take into account behalfFee\n        require(ecrecover(hashFinalize(listingID, offerID, _ipfsHash, payOut, _verifyFee), v, r, s) == offer.verifier, \"The finalize signature does not match the verifier\");\n\n        require(offer.status == 2, \"status != accepted\");\n        require((offer.value - offer.refund) >= payOut, \"Offer cannot make payout\");\n        require(payOut > (_behalfFee + _verifyFee), \"Cannot pay off fees\");\n        uint actualPayOut = payOut;\n        if (_behalfFee > 0) {\n            offer.value -= _behalfFee;\n            actualPayOut -= _behalfFee;\n            require(msg.sender.send(_behalfFee), \"Cannot send behalf fee to sender\");\n        }\n        if (_verifyFee > 0) {\n            offer.value -= _verifyFee;\n            actualPayOut -= _verifyFee;\n            require(offer.verifier.send(_verifyFee), \"Cannot send verify fee to verifier\");\n        }\n        offer.refund = offer.value - actualPayOut;\n        paySeller(listingID, offerID); // Pay seller\n        emit OfferFinalized(offer.verifier, listingID, offerID, _ipfsHash);\n        delete offers[listingID][offerID];\n    }\n\n    function verifiedFinalize(uint listingID, uint offerID, bytes32 _ipfsHash, uint verifyFee, uint payOut, uint8 v, bytes32 r, bytes32 s) public \n    {\n        require(offers[listingID][offerID].seller == msg.sender, \"Only the seller can verify finalize this transaction.\");\n        _verifiedFinalize(listingID, offerID, _ipfsHash, 0, verifyFee, payOut, v, r, s);\n    }\n\n    function verifiedOnBehalfFinalize(uint listingID, uint offerID, bytes32 _ipfsHash, uint behalfFee, uint verifyFee, uint payOut, uint8 v_seller, bytes32 r_seller, bytes32 s_seller, uint8 v, bytes32 r, bytes32 s) public \n    {\n        require(payOut > behalfFee, \"Payout must be more than the behalf fee\");\n        require(ecrecover(hashFinalize(listingID, offerID, _ipfsHash, payOut, behalfFee), v_seller, r_seller, s_seller) == offers[listingID][offerID].seller, \"The behalf finalize signature does not match the seller\");\n        _verifiedFinalize(listingID, offerID, _ipfsHash, behalfFee, verifyFee, payOut, v, r, s);\n    }\n\n    // @dev Buyer must finalize transaction to receive commission\n    function finalize(uint listingID, uint offerID, bytes32 _ipfsHash) public {\n        Offer storage offer = offers[listingID][offerID];\n        if (now <= offer.finalizes) { // Only buyer can finalize before finalization window\n            require(\n                msg.sender == offer.buyer,\n                \"Only buyer can finalize\"\n            );\n        } else { // Allow both seller and buyer to finalize if finalization window has passed\n            require(\n                msg.sender == offer.buyer || msg.sender == offer.seller,\n                \"Seller or buyer must finalize\"\n            );\n        }\n        require(offer.status == 2, \"status != accepted\");\n        paySeller(listingID, offerID); // Pay seller\n        emit OfferFinalized(msg.sender, listingID, offerID, _ipfsHash);\n        delete offers[listingID][offerID];\n    }\n\n    // @dev Buyer or seller can dispute transaction during finalization window\n    function dispute(uint listingID, uint offerID, bytes32 _ipfsHash) public {\n        Offer storage offer = offers[listingID][offerID];\n        require(\n            msg.sender == offer.buyer || msg.sender == offer.seller,\n            \"Must be seller or buyer\"\n        );\n        require(offer.status == 2, \"status != accepted\");\n        require(now <= offer.finalizes, \"Already finalized\");\n        offer.status = 3; // Set status to \"Disputed\"\n        emit OfferDisputed(msg.sender, listingID, offerID, _ipfsHash);\n    }\n\n    // @dev Called by arbitrator\n    function executeRuling(\n        uint listingID,\n        uint offerID,\n        bytes32 _ipfsHash,\n        uint _ruling, // 0: Seller, 1: Buyer, 2: Com + Seller, 3: Com + Buyer\n        uint _refund\n    ) public {\n        Offer storage offer = offers[listingID][offerID];\n        require(msg.sender == offer.arbitrator, \"Must be arbitrator\");\n        require(offer.status == 3, \"status != disputed\");\n        require(_refund <= offer.value, \"refund too high\");\n        offer.refund = _refund;\n        if (_ruling & 1 == 1) {\n            refundBuyer(listingID, offerID);\n        } else  {\n            paySeller(listingID, offerID);\n        }\n        emit OfferRuling(offer.arbitrator, listingID, offerID, _ipfsHash, _ruling);\n        delete offers[listingID][offerID];\n    }\n\n    // @dev Sets the amount that a seller wants to refund to a buyer.\n    function updateRefund(uint listingID, uint offerID, uint _refund, bytes32 _ipfsHash) public {\n        Offer storage offer = offers[listingID][offerID];\n        require(msg.sender == offer.seller, \"Seller must call\");\n        require(offer.status == 2, \"status != accepted\");\n        require(_refund <= offer.value, \"Excessive refund\");\n        offer.refund = _refund;\n        emit OfferData(msg.sender, listingID, offerID, _ipfsHash);\n    }\n\n    // @dev Refunds buyer in ETH or ERC20 - used by 1) executeRuling() and 2) to allow a seller to refund a purchase\n    function refundBuyer(uint listingID, uint offerID) private {\n        Offer storage offer = offers[listingID][offerID];\n        if (address(offer.currency) == 0x0) {\n            require(offer.buyer.send(offer.value), \"ETH refund failed\");\n        } else {\n            require(\n                offer.currency.transfer(offer.buyer, offer.value),\n                \"Refund failed\"\n            );\n        }\n    }\n\n    // @dev Pay seller in ETH or ERC20\n    function paySeller(uint listingID, uint offerID) private {\n        Offer storage offer = offers[listingID][offerID];\n        uint value = offer.value - offer.refund;\n\n        if (address(offer.currency) == 0x0) {\n            require(offer.buyer.send(offer.refund), \"ETH refund failed\");\n            require(offer.seller.send(value), \"ETH send failed\");\n        } else {\n            require(\n                offer.currency.transfer(offer.buyer, offer.refund),\n                \"Refund failed\"\n            );\n            require(\n                offer.currency.transfer(offer.seller, value),\n                \"Transfer failed\"\n            );\n        }\n    }\n\n\n    // @dev Associate ipfs data with the marketplace\n    function addData(bytes32 ipfsHash) public {\n        emit MarketplaceData(msg.sender, ipfsHash);\n    }\n\n    // @dev Associate ipfs data with a listing\n    function addData(uint listingID, bytes32 ipfsHash) public {\n        emit ListingData(msg.sender, listingID, ipfsHash);\n    }\n\n    // @dev Associate ipfs data with an offer\n    function addData(uint listingID, uint offerID, bytes32 ipfsHash) public {\n        emit OfferData(msg.sender, listingID, offerID, ipfsHash);\n    }\n\n    // @dev Set the address of the Origin token contract\n    function setTokenAddr(address _tokenAddr) public onlyOwner {\n        tokenAddr = ERC20(_tokenAddr);\n    }\n\n    // @dev Add affiliate to whitelist. Set to address(this) to disable.\n    function addAffiliate(address _affiliate, bytes32 ipfsHash) public onlyOwner {\n        allowedAffiliates[_affiliate] = true;\n        emit AffiliateAdded(_affiliate, ipfsHash);\n    }\n\n    // @dev Remove affiliate from whitelist.\n    function removeAffiliate(address _affiliate, bytes32 ipfsHash) public onlyOwner {\n        delete allowedAffiliates[_affiliate];\n        emit AffiliateRemoved(_affiliate, ipfsHash);\n    }\n\n    function createListings(address[] sellers, uint[] listingIds, bytes32[] ipfsHashes)\n    public\n    {\n        bool affiliateWhitelistDisabled = allowedAffiliates[address(this)];\n        require(\n            affiliateWhitelistDisabled || allowedAffiliates[msg.sender],\n            \"Affiliate not allowed\"\n        );\n        require(sellers.length == listingIds.length, \"Listings length and sellers length does not match\");\n        require(sellers.length == ipfsHashes.length, \"Hashes length and sellers length does not match\");\n\n        for (uint i = 0; i < sellers.length; i++) {\n            emit ListingCreated(sellers[i], listingIds[i], ipfsHashes[i]);\n        }\n    }\n\n    function updateListings(address[] sellers, uint[] listingIds, bytes32[] ipfsHashes)\n    public\n    {\n        bool affiliateWhitelistDisabled = allowedAffiliates[address(this)];\n        require(\n            affiliateWhitelistDisabled || allowedAffiliates[msg.sender],\n            \"Affiliate not allowed\"\n        );\n        require(sellers.length == listingIds.length, \"Listings length and sellers length does not match\");\n        require(sellers.length == ipfsHashes.length, \"Hashes length and sellers length does not match\");\n\n        for (uint i = 0; i < sellers.length; i++) {\n            emit ListingUpdated(sellers[i], listingIds[i], ipfsHashes[i]);\n        }\n    }\n\n    function withdrawListings(address[] sellers, uint[] listingIds, bytes32[] ipfsHashes)\n    public\n    {\n        bool affiliateWhitelistDisabled = allowedAffiliates[address(this)];\n        require(\n            affiliateWhitelistDisabled || allowedAffiliates[msg.sender],\n            \"Affiliate not allowed\"\n        );\n        require(sellers.length == listingIds.length, \"Listings length and sellers length does not match\");\n        require(sellers.length == ipfsHashes.length, \"Hashes length and sellers length does not match\");\n\n        for (uint i = 0; i < sellers.length; i++) {\n            emit ListingWithdrawn(sellers[i], listingIds[i], ipfsHashes[i]);\n        }\n    }\n}\n",
  "sourcePath": "/Users/tom/Code/origin/origin-contracts/contracts/marketplace/vA/Marketplace.sol",
  "compiler": {
    "name": "solc",
    "version": "0.4.25+commit.59dbf8f1.Emscripten.clang"
  },
  "schemaVersion": "2.0.2",
  "updatedAt": "2019-02-12T22:29:02.411Z"
}