{
  "contractName": "ListingsRegistry",
  "abi": [
    {
      "constant": true,
      "inputs": [],
      "name": "listingStorage",
      "outputs": [
        {
          "name": "",
          "type": "address"
        }
      ],
      "payable": false,
      "stateMutability": "view",
      "type": "function"
    },
    {
      "constant": true,
      "inputs": [],
      "name": "owner",
      "outputs": [
        {
          "name": "",
          "type": "address"
        }
      ],
      "payable": false,
      "stateMutability": "view",
      "type": "function"
    },
    {
      "inputs": [
        {
          "name": "_listingStorage",
          "type": "address"
        }
      ],
      "payable": false,
      "stateMutability": "nonpayable",
      "type": "constructor"
    },
    {
      "anonymous": false,
      "inputs": [
        {
          "indexed": false,
          "name": "_index",
          "type": "uint256"
        },
        {
          "indexed": false,
          "name": "_address",
          "type": "address"
        }
      ],
      "name": "NewListing",
      "type": "event"
    },
    {
      "constant": true,
      "inputs": [],
      "name": "listingsLength",
      "outputs": [
        {
          "name": "",
          "type": "uint256"
        }
      ],
      "payable": false,
      "stateMutability": "view",
      "type": "function"
    },
    {
      "constant": true,
      "inputs": [
        {
          "name": "_index",
          "type": "uint256"
        }
      ],
      "name": "getListingAddress",
      "outputs": [
        {
          "name": "",
          "type": "address"
        }
      ],
      "payable": false,
      "stateMutability": "view",
      "type": "function"
    },
    {
      "constant": false,
      "inputs": [
        {
          "name": "_ipfsHash",
          "type": "bytes32"
        },
        {
          "name": "_price",
          "type": "uint256"
        },
        {
          "name": "_unitsAvailable",
          "type": "uint256"
        }
      ],
      "name": "create",
      "outputs": [
        {
          "name": "",
          "type": "uint256"
        }
      ],
      "payable": false,
      "stateMutability": "nonpayable",
      "type": "function"
    },
    {
      "constant": false,
      "inputs": [
        {
          "name": "_ipfsHash",
          "type": "bytes32"
        }
      ],
      "name": "createFractional",
      "outputs": [
        {
          "name": "",
          "type": "uint256"
        }
      ],
      "payable": false,
      "stateMutability": "nonpayable",
      "type": "function"
    },
    {
      "constant": false,
      "inputs": [
        {
          "name": "_ipfsHash",
          "type": "bytes32"
        },
        {
          "name": "_price",
          "type": "uint256"
        },
        {
          "name": "_unitsAvailable",
          "type": "uint256"
        },
        {
          "name": "_creatorAddress",
          "type": "address"
        }
      ],
      "name": "createOnBehalf",
      "outputs": [
        {
          "name": "",
          "type": "uint256"
        }
      ],
      "payable": false,
      "stateMutability": "nonpayable",
      "type": "function"
    },
    {
      "constant": true,
      "inputs": [
        {
          "name": "_listingAddress",
          "type": "address"
        }
      ],
      "name": "isTrustedListing",
      "outputs": [
        {
          "name": "",
          "type": "bool"
        }
      ],
      "payable": false,
      "stateMutability": "view",
      "type": "function"
    }
  ],
  "bytecode": "0x608060405234801561001057600080fd5b50604051602080611989833981016040525160008054600160a060020a03338116600160a060020a0319928316179092556001805492909316911617905561192c8061005d6000396000f3006080604052600436106100745763ffffffff60e060020a6000350416637afd81f581146100795780638085346e146100a05780638a7b3f64146100d15780638da5cb5b146100e9578063951dc844146100fe57806395d7d65014610128578063b5f8c36b14610140578063ceb288331461015e575b600080fd5b34801561008557600080fd5b5061008e610193565b60408051918252519081900360200190f35b3480156100ac57600080fd5b506100b561020d565b60408051600160a060020a039092168252519081900360200190f35b3480156100dd57600080fd5b506100b560043561021c565b3480156100f557600080fd5b506100b56102b4565b34801561010a57600080fd5b5061008e600435602435604435600160a060020a03606435166102c3565b34801561013457600080fd5b5061008e60043561056c565b34801561014c57600080fd5b5061008e600435602435604435610780565b34801561016a57600080fd5b5061017f600160a060020a03600435166109ab565b604080519115158252519081900360200190f35b6001546040805160e160020a630fbdb6990281529051600092600160a060020a031691631f7b6d3291600480830192602092919082900301818787803b1580156101dc57600080fd5b505af11580156101f0573d6000803e3d6000fd5b505050506040513d602081101561020657600080fd5b5051905090565b600154600160a060020a031681565b600154604080517fde74e57b000000000000000000000000000000000000000000000000000000008152600481018490529051600092600160a060020a03169163de74e57b91602480830192602092919082900301818787803b15801561028257600080fd5b505af1158015610296573d6000803e3d6000fd5b505050506040513d60208110156102ac57600080fd5b505192915050565b600054600160a060020a031681565b60008054819033600160a060020a0390811691161461034357604080517f08c379a000000000000000000000000000000000000000000000000000000000815260206004820152601f60248201527f4f6e6c792063616c6c61626c65206279207265676973747279206f776e657200604482015290519081900360640190fd5b8286868661034f610a16565b600160a060020a039094168452602084019290925260408084019190915260608301919091525190819003608001906000f080158015610393573d6000803e3d6000fd5b50600154604080517f0a3b0a4f000000000000000000000000000000000000000000000000000000008152600160a060020a0380851660048301529151939450911691630a3b0a4f916024808201926020929091908290030181600087803b1580156103fe57600080fd5b505af1158015610412573d6000803e3d6000fd5b505050506040513d602081101561042857600080fd5b5050600180546040805160e160020a630fbdb69902815290517f98dbbb083475ed309c94885d643f328b7c9a638d93f9162caba7f6b050ebd28c9392600160a060020a031691631f7b6d329160048083019260209291908290030181600087803b15801561049557600080fd5b505af11580156104a9573d6000803e3d6000fd5b505050506040513d60208110156104bf57600080fd5b505160408051929091038252600160a060020a03841660208301528051918290030190a1600160009054906101000a9004600160a060020a0316600160a060020a0316631f7b6d326040518163ffffffff1660e060020a028152600401602060405180830381600087803b15801561053657600080fd5b505af115801561054a573d6000803e3d6000fd5b505050506040513d602081101561056057600080fd5b50519695505050505050565b6000803383610579610a26565b600160a060020a0390921682526020820152604080519182900301906000f0801580156105aa573d6000803e3d6000fd5b50600154604080517f0a3b0a4f000000000000000000000000000000000000000000000000000000008152600160a060020a0380851660048301529151939450911691630a3b0a4f916024808201926020929091908290030181600087803b15801561061557600080fd5b505af1158015610629573d6000803e3d6000fd5b505050506040513d602081101561063f57600080fd5b5050600180546040805160e160020a630fbdb69902815290517f98dbbb083475ed309c94885d643f328b7c9a638d93f9162caba7f6b050ebd28c9392600160a060020a031691631f7b6d329160048083019260209291908290030181600087803b1580156106ac57600080fd5b505af11580156106c0573d6000803e3d6000fd5b505050506040513d60208110156106d657600080fd5b505160408051929091038252600160a060020a03841660208301528051918290030190a1600160009054906101000a9004600160a060020a0316600160a060020a0316631f7b6d326040518163ffffffff1660e060020a028152600401602060405180830381600087803b15801561074d57600080fd5b505af1158015610761573d6000803e3d6000fd5b505050506040513d602081101561077757600080fd5b50519392505050565b6000803385858561078f610a16565b600160a060020a039094168452602084019290925260408084019190915260608301919091525190819003608001906000f0801580156107d3573d6000803e3d6000fd5b50600154604080517f0a3b0a4f000000000000000000000000000000000000000000000000000000008152600160a060020a0380851660048301529151939450911691630a3b0a4f916024808201926020929091908290030181600087803b15801561083e57600080fd5b505af1158015610852573d6000803e3d6000fd5b505050506040513d602081101561086857600080fd5b5050600180546040805160e160020a630fbdb69902815290517f98dbbb083475ed309c94885d643f328b7c9a638d93f9162caba7f6b050ebd28c9392600160a060020a031691631f7b6d329160048083019260209291908290030181600087803b1580156108d557600080fd5b505af11580156108e9573d6000803e3d6000fd5b505050506040513d60208110156108ff57600080fd5b505160408051929091038252600160a060020a03841660208301528051918290030190a1600160009054906101000a9004600160a060020a0316600160a060020a0316631f7b6d326040518163ffffffff1660e060020a028152600401602060405180830381600087803b15801561097657600080fd5b505af115801561098a573d6000803e3d6000fd5b505050506040513d60208110156109a057600080fd5b505195945050505050565b600154604080517fceb28833000000000000000000000000000000000000000000000000000000008152600160a060020a0384811660048301529151600093929092169163ceb288339160248082019260209290919082900301818787803b15801561028257600080fd5b6040516106ec80610a3783390190565b6040516107de80611123833901905600608060405234801561001057600080fd5b506040516080806106ec833981016040908152815160208301519183015160609093015160008054600160a060020a03938416600160a060020a03199182161790915560018054339094169390911692909217909155600891909155600691909155600755426002819055624f1a00016003556004805460ff191690556106508061009c6000396000f3006080604052600436106100e55763ffffffff7c010000000000000000000000000000000000000000000000000000000060003504166328e671b981146100ea578063325a19f1146101115780633742a9f71461012657806343d726d61461015a5780634665096d146101715780634884f459146101865780635ebf3e9b14610191578063673448dd146101a657806373d4a13a146101db5780638392fe311461022d5780638da5cb5b146102455780639d888e861461025a578063a035b1fe1461026f578063b3fbc3dc14610284578063c623674f14610299578063c6bbd6af146102ae575b600080fd5b3480156100f657600080fd5b506100ff6102c3565b60408051918252519081900360200190f35b34801561011d57600080fd5b506100ff6102c9565b34801561013257600080fd5b5061013e6004356102cf565b60408051600160a060020a039092168252519081900360200190f35b34801561016657600080fd5b5061016f6102fb565b005b34801561017d57600080fd5b506100ff610346565b61016f60043561034c565b34801561019d57600080fd5b5061013e610583565b3480156101b257600080fd5b506101c7600160a060020a0360043516610592565b604080519115158252519081900360200190f35b3480156101e757600080fd5b506101f06105a7565b60408051600160a060020a0390971687526020870195909552858501939093526060850191909152608084015260a0830152519081900360c00190f35b34801561023957600080fd5b5061013e6004356105cd565b34801561025157600080fd5b5061013e6105f5565b34801561026657600080fd5b506100ff610604565b34801561027b57600080fd5b506100ff610609565b34801561029057600080fd5b506101c761060f565b3480156102a557600080fd5b506100ff610618565b3480156102ba57600080fd5b506100ff61061e565b60055490565b60025481565b60006005828154811015156102e057fe5b600091825260209091200154600160a060020a031692915050565b60005433600160a060020a0390811691161461031657600080fd5b600060078190556040517ffa378a7d48087b5b4be3b8236f6f8829009c67d0dc3a6a431e43385d52ea2d1d9190a1565b60035481565b6000805433600160a060020a039081169116141561036957600080fd5b600354421061037757600080fd5b60075482111561038657600080fd5b73__PurchaseLibrary_______________________6328ab7e98306103a9610604565b6040805163ffffffff85167c0100000000000000000000000000000000000000000000000000000000028152600160a060020a03938416600482015260248101929092526000604483015233909216606482015290516084808301926020929190829003018186803b15801561041e57600080fd5b505af4158015610432573d6000803e3d6000fd5b505050506040513d602081101561044857600080fd5b50516007805484900390556005805460018101825560009182527f036b6384b5eca791c62761152d0c79bb0604c104a5fb6f4eb0703f3154bb3db001805473ffffffffffffffffffffffffffffffffffffffff1916600160a060020a038416908117909155604080517f1b9265b800000000000000000000000000000000000000000000000000000000815290519394509092631b9265b89234926004808201939182900301818588803b1580156104ff57600080fd5b505af1158015610513573d6000803e3d6000fd5b505060408051600160a060020a038616815290517f2df0d5ee1e33bfff4ba740237ef59eef9093cf4c8ebb55ad1a6e63f6801089be94509081900360200192509050a16040517ffa378a7d48087b5b4be3b8236f6f8829009c67d0dc3a6a431e43385d52ea2d1d90600090a15050565b600154600160a060020a031681565b600654600160a060020a038216311015919050565b600054600854600654600754600254600354600160a060020a0390951694909192939495565b60058054829081106105db57fe5b600091825260209091200154600160a060020a0316905081565b600054600160a060020a031681565b600090565b60065481565b60045460ff1681565b60085490565b600754815600a165627a7a723058201fb2fafca4dc52c1d9385bb795983068e9b1fb0ac960bd73039fcb46c19318460029608060405234801561001057600080fd5b506040516040806107de833981016040818152825160209384015160008054600160a060020a03938416600160a060020a0319918216178255600180543390951694909116939093178355838501909352428085529484019081526006805480840182559352925160029283027ff652222313e28459528d920b65115c16c04f3efc82aaedc97be59f3f377c0d3f81019190915592517ff652222313e28459528d920b65115c16c04f3efc82aaedc97be59f3f377c0d4090930192909255829055624f1a009091016003556004805460ff191690911790556106e7806100f76000396000f3006080604052600436106100da5763ffffffff7c010000000000000000000000000000000000000000000000000000000060003504166328e671b981146100df578063325a19f1146101065780633742a9f71461011b5780634665096d1461014f57806359c87d70146101645780635ebf3e9b14610171578063673448dd146101865780638392fe31146101bb57806387aee00e146101d35780638da5cb5b146102045780639d888e8614610219578063b3fbc3dc1461022e578063c623674f14610243578063d3b7576c14610258578063f0ba844014610273575b600080fd5b3480156100eb57600080fd5b506100f461028b565b60408051918252519081900360200190f35b34801561011257600080fd5b506100f4610291565b34801561012757600080fd5b50610133600435610297565b60408051600160a060020a039092168252519081900360200190f35b34801561015b57600080fd5b506100f46102c3565b61016f6004356102c9565b005b34801561017d57600080fd5b506101336104e8565b34801561019257600080fd5b506101a7600160a060020a03600435166104f7565b604080519115158252519081900360200190f35b3480156101c757600080fd5b506101336004356104fd565b3480156101df57600080fd5b506101eb600435610525565b6040805192835260208301919091528051918290030190f35b34801561021057600080fd5b50610133610551565b34801561022557600080fd5b506100f4610560565b34801561023a57600080fd5b506101a761056a565b34801561024f57600080fd5b506100f4610573565b34801561026457600080fd5b5061016f6004356024356105a0565b34801561027f57600080fd5b506101eb60043561066d565b60055490565b60025481565b60006005828154811015156102a857fe5b600091825260209091200154600160a060020a031692915050565b60035481565b6000805433600160a060020a03908116911614156102e657600080fd5b60035442106102f457600080fd5b73__PurchaseLibrary_______________________6328ab7e9830610317610560565b6040805163ffffffff85167c0100000000000000000000000000000000000000000000000000000000028152600160a060020a03938416600482015260248101929092526044820187905233909216606482015290516084808301926020929190829003018186803b15801561038c57600080fd5b505af41580156103a0573d6000803e3d6000fd5b505050506040513d60208110156103b657600080fd5b50516005805460018101825560009182527f036b6384b5eca791c62761152d0c79bb0604c104a5fb6f4eb0703f3154bb3db001805473ffffffffffffffffffffffffffffffffffffffff1916600160a060020a038416908117909155604080517f1b9265b800000000000000000000000000000000000000000000000000000000815290519394509092631b9265b89234926004808201939182900301818588803b15801561046457600080fd5b505af1158015610478573d6000803e3d6000fd5b505060408051600160a060020a038616815290517f2df0d5ee1e33bfff4ba740237ef59eef9093cf4c8ebb55ad1a6e63f6801089be94509081900360200192509050a16040517ffa378a7d48087b5b4be3b8236f6f8829009c67d0dc3a6a431e43385d52ea2d1d90600090a15050565b600154600160a060020a031681565b50600090565b600580548290811061050b57fe5b600091825260209091200154600160a060020a0316905081565b600680548290811061053357fe5b60009182526020909120600290910201805460019091015490915082565b600054600160a060020a031681565b6006546000190190565b60045460ff1681565b6000600661057f610560565b8154811061058957fe5b906000526020600020906002020160010154905090565b60005433600160a060020a039081169116146105bb57600080fd5b6105c3610560565b821415610669576040805180820182524281526020810183815260068054600181018255600091825292517ff652222313e28459528d920b65115c16c04f3efc82aaedc97be59f3f377c0d3f60029094029384015590517ff652222313e28459528d920b65115c16c04f3efc82aaedc97be59f3f377c0d409092019190915590517ffa378a7d48087b5b4be3b8236f6f8829009c67d0dc3a6a431e43385d52ea2d1d9190a15b5050565b60008060068381548110151561067f57fe5b9060005260206000209060020201600001546006848154811015156106a057fe5b906000526020600020906002020160010154915091509150915600a165627a7a72305820a3534b42e4717995e0f8831bfee13ccc4a86d7e5b16287c93eb7c1ac18e6dc770029a165627a7a7230582046f16f64f550953e52604b02ae9360acc8b0848e4616afd37d3167f5e892deec0029",
  "source": "pragma solidity 0.4.23;\n\n/// @title Listing\n/// @dev Used to keep marketplace of listings for buyers and sellers\n/// @author Matt Liu <matt@originprotocol.com>, Josh Fraser <josh@originprotocol.com>, Stan James <stan@originprotocol.com>\n\nimport \"./UnitListing.sol\";\nimport \"./FractionalListing.sol\";\nimport \"./ListingsRegistryStorage.sol\";\n\ncontract ListingsRegistry {\n\n  /*\n   * Events\n   */\n\n  event NewListing(uint _index, address _address);\n\n  /*\n   * Storage\n   */\n\n  address public owner;\n\n  ListingsRegistryStorage public listingStorage;\n\n  /*\n   * Public functions\n   */\n\n  constructor(ListingsRegistryStorage _listingStorage)\n    public\n  {\n    // Defines origin admin address - may be removed for public deployment\n    owner = msg.sender;\n    listingStorage = _listingStorage;\n  }\n\n  /// @dev listingsLength(): Return number of listings\n  function listingsLength()\n    public\n    constant\n    returns (uint)\n  {\n      return listingStorage.length();\n  }\n\n  /// @dev getListingAddress(): Return listing address\n  /// @param _index the index of the listing\n  function getListingAddress(uint _index)\n    public\n    constant\n    returns (address)\n  {\n    return listingStorage.listings(_index);\n  }\n\n  /// @dev create(): Create a new listing\n  /// @param _ipfsHash Hash of data on ipfsHash\n  /// @param _price Price of unit in wei\n  /// @param _unitsAvailable Number of units availabe for sale at start\n  ///\n  /// Sample Remix invocation:\n  /// [\"0x01\",\"0x7d\",\"0xfd\",\"0x85\",\"0xd4\",\"0xf6\",\"0xcb\",\"0x4d\",\"0xcd\",\"0x71\",\"0x5a\",\"0x88\",\"0x10\",\"0x1f\",\"0x7b\",\"0x1f\",\"0x06\",\"0xcd\",\"0x1e\",\"0x00\",\"0x9b\",\"0x23\",\"0x27\",\"0xa0\",\"0x80\",\"0x9d\",\"0x01\",\"0xeb\",\"0x9c\",\"0x91\",\"0xf2\",\"0x31\"],\"3140000000000000000\",42\n  function create(\n    bytes32 _ipfsHash,\n    uint _price,\n    uint _unitsAvailable\n  )\n    public\n    returns (uint)\n  {\n    Listing newListing = new UnitListing(msg.sender, _ipfsHash, _price, _unitsAvailable);\n    listingStorage.add(newListing);\n    emit NewListing((listingStorage.length())-1, address(newListing));\n    return listingStorage.length();\n  }\n\n  /// @dev createFractional(): Create a new fractional listing\n  /// @param _ipfsHash Hash of data on ipfsHash\n  function createFractional(\n    bytes32 _ipfsHash\n  )\n    public\n    returns (uint)\n  {\n    Listing newListing = new FractionalListing(msg.sender, _ipfsHash);\n    listingStorage.add(newListing);\n    emit NewListing((listingStorage.length())-1, address(newListing));\n    return listingStorage.length();\n  }\n\n  /// @dev createOnBehalf(): Create a new listing with specified creator\n  ///                        Used for migrating from old contracts (admin only)\n  /// @param _ipfsHash Hash of data on ipfsHash\n  /// @param _price Price of unit in wei\n  /// @param _unitsAvailable Number of units availabe for sale at start\n  /// @param _creatorAddress Address of account to be the creator\n  function createOnBehalf(\n    bytes32 _ipfsHash,\n    uint _price,\n    uint _unitsAvailable,\n    address _creatorAddress\n  )\n    public\n    returns (uint)\n  {\n    require (msg.sender == owner, \"Only callable by registry owner\");\n    Listing newListing = new UnitListing(_creatorAddress, _ipfsHash, _price, _unitsAvailable);\n    listingStorage.add(newListing);\n    emit NewListing(listingStorage.length()-1, address(newListing));\n    return listingStorage.length();\n  }\n\n  // @dev isTrustedListing(): Checks to see if a listing belongs to\n  //                          this registry, and thus trusting that\n  //                          it was created with good bytecode and\n  //                          the proper initialization was completed.\n  function isTrustedListing(\n    address _listingAddress\n  )\n    public\n    view\n    returns(bool)\n  {\n    return listingStorage.isTrustedListing(_listingAddress);\n  }\n}\n",
  "sourcePath": "/Users/stan/Origin/origin-box/origin-js/contracts/contracts/ListingsRegistry.sol",
  "compiler": {
    "name": "solc",
    "version": "0.4.23+commit.124ca40d.Emscripten.clang"
  },
  "schemaVersion": "2.0.0",
  "updatedAt": "2018-08-13T22:21:55.889Z"
}