{
  "contractName": "OriginToken",
  "abi": [
    {
      "constant": true,
      "inputs": [],
      "name": "whitelistActive",
      "outputs": [
        {
          "name": "",
          "type": "bool"
        }
      ],
      "payable": false,
      "stateMutability": "view",
      "type": "function"
    },
    {
      "constant": true,
      "inputs": [],
      "name": "mintingFinished",
      "outputs": [
        {
          "name": "",
          "type": "bool"
        }
      ],
      "payable": false,
      "stateMutability": "view",
      "type": "function"
    },
    {
      "constant": true,
      "inputs": [],
      "name": "name",
      "outputs": [
        {
          "name": "",
          "type": "string"
        }
      ],
      "payable": false,
      "stateMutability": "view",
      "type": "function"
    },
    {
      "constant": false,
      "inputs": [
        {
          "name": "_spender",
          "type": "address"
        },
        {
          "name": "_value",
          "type": "uint256"
        }
      ],
      "name": "approve",
      "outputs": [
        {
          "name": "",
          "type": "bool"
        }
      ],
      "payable": false,
      "stateMutability": "nonpayable",
      "type": "function"
    },
    {
      "constant": true,
      "inputs": [],
      "name": "totalSupply",
      "outputs": [
        {
          "name": "",
          "type": "uint256"
        }
      ],
      "payable": false,
      "stateMutability": "view",
      "type": "function"
    },
    {
      "constant": false,
      "inputs": [
        {
          "name": "_from",
          "type": "address"
        },
        {
          "name": "_to",
          "type": "address"
        },
        {
          "name": "_value",
          "type": "uint256"
        }
      ],
      "name": "transferFrom",
      "outputs": [
        {
          "name": "",
          "type": "bool"
        }
      ],
      "payable": false,
      "stateMutability": "nonpayable",
      "type": "function"
    },
    {
      "constant": false,
      "inputs": [
        {
          "name": "_transactor",
          "type": "address"
        }
      ],
      "name": "addAllowedTransactor",
      "outputs": [],
      "payable": false,
      "stateMutability": "nonpayable",
      "type": "function"
    },
    {
      "constant": true,
      "inputs": [],
      "name": "decimals",
      "outputs": [
        {
          "name": "",
          "type": "uint8"
        }
      ],
      "payable": false,
      "stateMutability": "view",
      "type": "function"
    },
    {
      "constant": false,
      "inputs": [],
      "name": "unpause",
      "outputs": [],
      "payable": false,
      "stateMutability": "nonpayable",
      "type": "function"
    },
    {
      "constant": false,
      "inputs": [
        {
          "name": "_to",
          "type": "address"
        },
        {
          "name": "_amount",
          "type": "uint256"
        }
      ],
      "name": "mint",
      "outputs": [
        {
          "name": "",
          "type": "bool"
        }
      ],
      "payable": false,
      "stateMutability": "nonpayable",
      "type": "function"
    },
    {
      "constant": false,
      "inputs": [
        {
          "name": "_transactor",
          "type": "address"
        }
      ],
      "name": "removeAllowedTransactor",
      "outputs": [],
      "payable": false,
      "stateMutability": "nonpayable",
      "type": "function"
    },
    {
      "constant": true,
      "inputs": [],
      "name": "paused",
      "outputs": [
        {
          "name": "",
          "type": "bool"
        }
      ],
      "payable": false,
      "stateMutability": "view",
      "type": "function"
    },
    {
      "constant": false,
      "inputs": [
        {
          "name": "_spender",
          "type": "address"
        },
        {
          "name": "_subtractedValue",
          "type": "uint256"
        }
      ],
      "name": "decreaseApproval",
      "outputs": [
        {
          "name": "success",
          "type": "bool"
        }
      ],
      "payable": false,
      "stateMutability": "nonpayable",
      "type": "function"
    },
    {
      "constant": true,
      "inputs": [
        {
          "name": "_owner",
          "type": "address"
        }
      ],
      "name": "balanceOf",
      "outputs": [
        {
          "name": "",
          "type": "uint256"
        }
      ],
      "payable": false,
      "stateMutability": "view",
      "type": "function"
    },
    {
      "constant": false,
      "inputs": [],
      "name": "renounceOwnership",
      "outputs": [],
      "payable": false,
      "stateMutability": "nonpayable",
      "type": "function"
    },
    {
      "constant": false,
      "inputs": [],
      "name": "finishMinting",
      "outputs": [
        {
          "name": "",
          "type": "bool"
        }
      ],
      "payable": false,
      "stateMutability": "nonpayable",
      "type": "function"
    },
    {
      "constant": false,
      "inputs": [],
      "name": "pause",
      "outputs": [],
      "payable": false,
      "stateMutability": "nonpayable",
      "type": "function"
    },
    {
      "constant": true,
      "inputs": [],
      "name": "owner",
      "outputs": [
        {
          "name": "",
          "type": "address"
        }
      ],
      "payable": false,
      "stateMutability": "view",
      "type": "function"
    },
    {
      "constant": true,
      "inputs": [],
      "name": "symbol",
      "outputs": [
        {
          "name": "",
          "type": "string"
        }
      ],
      "payable": false,
      "stateMutability": "view",
      "type": "function"
    },
    {
      "constant": false,
      "inputs": [
        {
          "name": "_to",
          "type": "address"
        },
        {
          "name": "_value",
          "type": "uint256"
        }
      ],
      "name": "transfer",
      "outputs": [
        {
          "name": "",
          "type": "bool"
        }
      ],
      "payable": false,
      "stateMutability": "nonpayable",
      "type": "function"
    },
    {
      "constant": true,
      "inputs": [],
      "name": "whitelistExpiration",
      "outputs": [
        {
          "name": "",
          "type": "uint256"
        }
      ],
      "payable": false,
      "stateMutability": "view",
      "type": "function"
    },
    {
      "constant": true,
      "inputs": [
        {
          "name": "",
          "type": "address"
        }
      ],
      "name": "allowedTransactors",
      "outputs": [
        {
          "name": "",
          "type": "bool"
        }
      ],
      "payable": false,
      "stateMutability": "view",
      "type": "function"
    },
    {
      "constant": false,
      "inputs": [
        {
          "name": "_expiration",
          "type": "uint256"
        }
      ],
      "name": "setWhitelistExpiration",
      "outputs": [],
      "payable": false,
      "stateMutability": "nonpayable",
      "type": "function"
    },
    {
      "constant": false,
      "inputs": [
        {
          "name": "_spender",
          "type": "address"
        },
        {
          "name": "_addedValue",
          "type": "uint256"
        }
      ],
      "name": "increaseApproval",
      "outputs": [
        {
          "name": "success",
          "type": "bool"
        }
      ],
      "payable": false,
      "stateMutability": "nonpayable",
      "type": "function"
    },
    {
      "constant": true,
      "inputs": [
        {
          "name": "_owner",
          "type": "address"
        },
        {
          "name": "_spender",
          "type": "address"
        }
      ],
      "name": "allowance",
      "outputs": [
        {
          "name": "",
          "type": "uint256"
        }
      ],
      "payable": false,
      "stateMutability": "view",
      "type": "function"
    },
    {
      "constant": false,
      "inputs": [
        {
          "name": "_newOwner",
          "type": "address"
        }
      ],
      "name": "transferOwnership",
      "outputs": [],
      "payable": false,
      "stateMutability": "nonpayable",
      "type": "function"
    },
    {
      "constant": true,
      "inputs": [
        {
          "name": "",
          "type": "address"
        }
      ],
      "name": "callSpenderWhitelist",
      "outputs": [
        {
          "name": "",
          "type": "bool"
        }
      ],
      "payable": false,
      "stateMutability": "view",
      "type": "function"
    },
    {
      "inputs": [
        {
          "name": "_initialSupply",
          "type": "uint256"
        }
      ],
      "payable": false,
      "stateMutability": "nonpayable",
      "type": "constructor"
    },
    {
      "anonymous": false,
      "inputs": [
        {
          "indexed": false,
          "name": "enabler",
          "type": "address"
        },
        {
          "indexed": false,
          "name": "spender",
          "type": "address"
        }
      ],
      "name": "AddCallSpenderWhitelist",
      "type": "event"
    },
    {
      "anonymous": false,
      "inputs": [
        {
          "indexed": false,
          "name": "disabler",
          "type": "address"
        },
        {
          "indexed": false,
          "name": "spender",
          "type": "address"
        }
      ],
      "name": "RemoveCallSpenderWhitelist",
      "type": "event"
    },
    {
      "anonymous": false,
      "inputs": [
        {
          "indexed": false,
          "name": "expiration",
          "type": "uint256"
        }
      ],
      "name": "SetWhitelistExpiration",
      "type": "event"
    },
    {
      "anonymous": false,
      "inputs": [
        {
          "indexed": false,
          "name": "sender",
          "type": "address"
        }
      ],
      "name": "AllowedTransactorAdded",
      "type": "event"
    },
    {
      "anonymous": false,
      "inputs": [
        {
          "indexed": false,
          "name": "sender",
          "type": "address"
        }
      ],
      "name": "AllowedTransactorRemoved",
      "type": "event"
    },
    {
      "anonymous": false,
      "inputs": [],
      "name": "Pause",
      "type": "event"
    },
    {
      "anonymous": false,
      "inputs": [],
      "name": "Unpause",
      "type": "event"
    },
    {
      "anonymous": false,
      "inputs": [
        {
          "indexed": true,
          "name": "to",
          "type": "address"
        },
        {
          "indexed": false,
          "name": "amount",
          "type": "uint256"
        }
      ],
      "name": "Mint",
      "type": "event"
    },
    {
      "anonymous": false,
      "inputs": [],
      "name": "MintFinished",
      "type": "event"
    },
    {
      "anonymous": false,
      "inputs": [
        {
          "indexed": true,
          "name": "previousOwner",
          "type": "address"
        }
      ],
      "name": "OwnershipRenounced",
      "type": "event"
    },
    {
      "anonymous": false,
      "inputs": [
        {
          "indexed": true,
          "name": "previousOwner",
          "type": "address"
        },
        {
          "indexed": true,
          "name": "newOwner",
          "type": "address"
        }
      ],
      "name": "OwnershipTransferred",
      "type": "event"
    },
    {
      "anonymous": false,
      "inputs": [
        {
          "indexed": true,
          "name": "burner",
          "type": "address"
        },
        {
          "indexed": false,
          "name": "value",
          "type": "uint256"
        }
      ],
      "name": "Burn",
      "type": "event"
    },
    {
      "anonymous": false,
      "inputs": [
        {
          "indexed": true,
          "name": "owner",
          "type": "address"
        },
        {
          "indexed": true,
          "name": "spender",
          "type": "address"
        },
        {
          "indexed": false,
          "name": "value",
          "type": "uint256"
        }
      ],
      "name": "Approval",
      "type": "event"
    },
    {
      "anonymous": false,
      "inputs": [
        {
          "indexed": true,
          "name": "from",
          "type": "address"
        },
        {
          "indexed": true,
          "name": "to",
          "type": "address"
        },
        {
          "indexed": false,
          "name": "value",
          "type": "uint256"
        }
      ],
      "name": "Transfer",
      "type": "event"
    },
    {
      "constant": false,
      "inputs": [
        {
          "name": "_value",
          "type": "uint256"
        }
      ],
      "name": "burn",
      "outputs": [],
      "payable": false,
      "stateMutability": "nonpayable",
      "type": "function"
    },
    {
      "constant": false,
      "inputs": [
        {
          "name": "_who",
          "type": "address"
        },
        {
          "name": "_value",
          "type": "uint256"
        }
      ],
      "name": "burn",
      "outputs": [],
      "payable": false,
      "stateMutability": "nonpayable",
      "type": "function"
    },
    {
      "constant": false,
      "inputs": [
        {
          "name": "_spender",
          "type": "address"
        }
      ],
      "name": "addCallSpenderWhitelist",
      "outputs": [],
      "payable": false,
      "stateMutability": "nonpayable",
      "type": "function"
    },
    {
      "constant": false,
      "inputs": [
        {
          "name": "_spender",
          "type": "address"
        }
      ],
      "name": "removeCallSpenderWhitelist",
      "outputs": [],
      "payable": false,
      "stateMutability": "nonpayable",
      "type": "function"
    },
    {
      "constant": false,
      "inputs": [
        {
          "name": "_spender",
          "type": "address"
        },
        {
          "name": "_value",
          "type": "uint256"
        },
        {
          "name": "_selector",
          "type": "bytes4"
        },
        {
          "name": "_callParams",
          "type": "bytes"
        }
      ],
      "name": "approveAndCallWithSender",
      "outputs": [
        {
          "name": "",
          "type": "bool"
        }
      ],
      "payable": true,
      "stateMutability": "payable",
      "type": "function"
    }
  ],
  "bytecode": "0x60806040526003805460a060020a61ffff02191690553480156200002257600080fd5b5060405160208062001d5683398101604081815291518282018352600b82527f4f726967696e546f6b656e0000000000000000000000000000000000000000006020808401918252845180860190955260038086527f4f474e0000000000000000000000000000000000000000000000000000000000918601919091528054600160a060020a031916331790558251919391601291620000c6916006919062000273565b508151620000dc90600790602085019062000273565b506008805460ff90921660ff19909216919091179055505060038054600160a060020a0319163317908190556200012690600160a060020a0316826401000000006200012e810204565b505062000318565b600354600090600160a060020a031633146200014957600080fd5b60035474010000000000000000000000000000000000000000900460ff16156200017257600080fd5b6001546200018f9083640100000000620014656200025f82021704565b600155600160a060020a038316600090815260208190526040902054620001c59083640100000000620014656200025f82021704565b600160a060020a03841660008181526020818152604091829020939093558051858152905191927f0f6798a560793a54c3bcfe86a93cde1e73087d944c0ea20544137d412139688592918290030190a2604080518381529051600160a060020a038516916000917fddf252ad1be2c89b69c2b068fc378daa952ba7f163c4a11628f55a4df523b3ef9181900360200190a350600192915050565b818101828110156200026d57fe5b92915050565b828054600181600116156101000203166002900490600052602060002090601f016020900481019282601f10620002b657805160ff1916838001178555620002e6565b82800160010185558215620002e6579182015b82811115620002e6578251825591602001919060010190620002c9565b50620002f4929150620002f8565b5090565b6200031591905b80821115620002f45760008155600101620002ff565b90565b611a2e80620003286000396000f3006080604052600436106101955763ffffffff7c010000000000000000000000000000000000000000000000000000000060003504166302ce5813811461019a57806305d2035b146101c357806306fdde03146101d8578063095ea7b31461026257806318160ddd1461028657806323b872dd146102ad5780632faad46f146102d7578063313ce567146102fa5780633f4ba83a1461032557806340c10f191461033a57806342966c681461035e5780635c561fff146103765780635c975abb1461039757806366188463146103ac57806370a08231146103d0578063715018a6146103f15780637d64bcb41461040657806382857a031461041b5780638456cb591461049c5780638da5cb5b146104b15780638e09c8cd146104e257806395d89b41146105035780639dc29fac14610518578063a9059cbb1461053c578063c5e1edcb14610560578063c985321114610575578063ce73a61d14610596578063d73dd623146105ae578063dd62ed3e146105d2578063f2fde38b146105f9578063f75eb2401461061a578063f7613fb11461063b575b600080fd5b3480156101a657600080fd5b506101af61065c565b604080519115158252519081900360200190f35b3480156101cf57600080fd5b506101af610664565b3480156101e457600080fd5b506101ed610685565b6040805160208082528351818301528351919283929083019185019080838360005b8381101561022757818101518382015260200161020f565b50505050905090810190601f1680156102545780820380516001836020036101000a031916815260200191505b509250505060405180910390f35b34801561026e57600080fd5b506101af600160a060020a0360043516602435610713565b34801561029257600080fd5b5061029b61073e565b60408051918252519081900360200190f35b3480156102b957600080fd5b506101af600160a060020a0360043581169060243516604435610744565b3480156102e357600080fd5b506102f8600160a060020a0360043516610828565b005b34801561030657600080fd5b5061030f61089f565b6040805160ff9092168252519081900360200190f35b34801561033157600080fd5b506102f86108a8565b34801561034657600080fd5b506101af600160a060020a0360043516602435610921565b34801561036a57600080fd5b506102f8600435610a2a565b34801561038257600080fd5b506102f8600160a060020a0360043516610a4d565b3480156103a357600080fd5b506101af610ac1565b3480156103b857600080fd5b506101af600160a060020a0360043516602435610ad1565b3480156103dc57600080fd5b5061029b600160a060020a0360043516610af5565b3480156103fd57600080fd5b506102f8610b10565b34801561041257600080fd5b506101af610b7e565b604080516020601f6064356004818101359283018490048402850184019095528184526101af94600160a060020a038135169460248035957fffffffff00000000000000000000000000000000000000000000000000000000604435169536956084949301918190840183828082843750949750610c249650505050505050565b3480156104a857600080fd5b506102f8610ef5565b3480156104bd57600080fd5b506104c6610f73565b60408051600160a060020a039092168252519081900360200190f35b3480156104ee57600080fd5b506102f8600160a060020a0360043516610f82565b34801561050f57600080fd5b506101ed610ffb565b34801561052457600080fd5b506102f8600160a060020a0360043516602435611056565b34801561054857600080fd5b506101af600160a060020a036004351660243561107b565b34801561056c57600080fd5b5061029b61115d565b34801561058157600080fd5b506101af600160a060020a0360043516611163565b3480156105a257600080fd5b506102f8600435611178565b3480156105ba57600080fd5b506101af600160a060020a03600435166024356112d8565b3480156105de57600080fd5b5061029b600160a060020a03600435811690602435166112fc565b34801561060557600080fd5b506102f8600160a060020a0360043516611327565b34801561062657600080fd5b506102f8600160a060020a0360043516611347565b34801561064757600080fd5b506101af600160a060020a03600435166113bd565b600454421090565b60035474010000000000000000000000000000000000000000900460ff1681565b6006805460408051602060026001851615610100026000190190941693909304601f8101849004840282018401909252818152929183018282801561070b5780601f106106e05761010080835404028352916020019161070b565b820191906000526020600020905b8154815290600101906020018083116106ee57829003601f168201915b505050505081565b60035460009060a860020a900460ff161561072d57600080fd5b61073783836113d2565b9392505050565b60015490565b6000838361075061065c565b15806107745750600160a060020a03821660009081526005602052604090205460ff165b806107975750600160a060020a03811660009081526005602052604090205460ff165b1515610813576040805160e560020a62461bcd02815260206004820152602860248201527f6e6569746865722073656e646572206e6f7220726563697069656e742061726560448201527f20616c6c6f776564000000000000000000000000000000000000000000000000606482015290519081900360840190fd5b61081e868686611438565b9695505050505050565b600354600160a060020a0316331461083f57600080fd5b60408051600160a060020a038316815290517fe504b838e935ead8d5abd80b50f40c979d04e5a09fb1a3ffad89d2652a458a319181900360200190a1600160a060020a03166000908152600560205260409020805460ff19166001179055565b60085460ff1681565b600354600160a060020a031633146108bf57600080fd5b60035460a860020a900460ff1615156108d757600080fd5b6003805475ff000000000000000000000000000000000000000000191690556040517f7805862f689e2f13df9f062ff482ad3ad112aca9e0847911ed832e158c525b3390600090a1565b600354600090600160a060020a0316331461093b57600080fd5b60035474010000000000000000000000000000000000000000900460ff161561096357600080fd5b600154610976908363ffffffff61146516565b600155600160a060020a0383166000908152602081905260409020546109a2908363ffffffff61146516565b600160a060020a03841660008181526020818152604091829020939093558051858152905191927f0f6798a560793a54c3bcfe86a93cde1e73087d944c0ea20544137d412139688592918290030190a2604080518381529051600160a060020a038516916000916000805160206119e38339815191529181900360200190a350600192915050565b600354600160a060020a03163314610a4157600080fd5b610a4a81611478565b50565b600354600160a060020a03163314610a6457600080fd5b60408051600160a060020a038316815290517ffd1d27a7b372eaafdb0f7bb6231d45a1557a67d539850354457c36e54b65b4799181900360200190a1600160a060020a03166000908152600560205260409020805460ff19169055565b60035460a860020a900460ff1681565b60035460009060a860020a900460ff1615610aeb57600080fd5b6107378383611482565b600160a060020a031660009081526020819052604090205490565b600354600160a060020a03163314610b2757600080fd5b600354604051600160a060020a03909116907ff8df31144d9c2f0f6b59d69b8b98abd5459d07f2742c4df920b25aae33c6482090600090a26003805473ffffffffffffffffffffffffffffffffffffffff19169055565b600354600090600160a060020a03163314610b9857600080fd5b60035474010000000000000000000000000000000000000000900460ff1615610bc057600080fd5b6003805474ff00000000000000000000000000000000000000001916740100000000000000000000000000000000000000001790556040517fae5184fba832cb2b1f702aca6117b8d265eaf03ad33eb133f19dde0f5920fa0890600090a150600190565b60006060600160a060020a038616301415610c89576040805160e560020a62461bcd02815260206004820181905260248201527f746f6b656e20636f6e74726163742063616e277420626520617070726f766564604482015290519081900360640190fd5b600160a060020a03861660009081526009602052604090205460ff161515610cfb576040805160e560020a62461bcd02815260206004820152601860248201527f7370656e646572206e6f7420696e2077686974656c6973740000000000000000604482015290519081900360640190fd5b610d058686610713565b1515610d5b576040805160e560020a62461bcd02815260206004820152600e60248201527f617070726f7665206661696c6564000000000000000000000000000000000000604482015290519081900360640190fd5b8333600160a060020a03168460405160200180847bffffffffffffffffffffffffffffffffffffffffffffffffffffffff19167bffffffffffffffffffffffffffffffffffffffffffffffffffffffff1916815260040183815260200182805190602001908083835b60208310610de35780518252601f199092019160209182019101610dc4565b6001836020036101000a0380198251168184511680821785525050505050509050019350505050604051602081830303815290604052905085600160a060020a0316348260405180828051906020019080838360005b83811015610e51578181015183820152602001610e39565b50505050905090810190601f168015610e7e5780820380516001836020036101000a031916815260200191505b5091505060006040518083038185875af1925050501515610ee9576040805160e560020a62461bcd02815260206004820152601360248201527f70726f786965642063616c6c206661696c656400000000000000000000000000604482015290519081900360640190fd5b50600195945050505050565b600354600160a060020a03163314610f0c57600080fd5b60035460a860020a900460ff1615610f2357600080fd5b6003805475ff000000000000000000000000000000000000000000191660a860020a1790556040517f6985a02210a168e66602d3235cb6db0e70f92b3ba4d376a33c0f3d9434bff62590600090a1565b600354600160a060020a031681565b600354600160a060020a03163314610f9957600080fd5b600160a060020a038116600081815260096020908152604091829020805460ff1916600117905581513381529081019290925280517f1ba6e2be05698ce865c32566beec57943dafda4497692900d3d5b3c15fecfbb39281900390910190a150565b6007805460408051602060026001851615610100026000190190941693909304601f8101849004840282018401909252818152929183018282801561070b5780601f106106e05761010080835404028352916020019161070b565b600354600160a060020a0316331461106d57600080fd5b6110778282611572565b5050565b6000338361108761065c565b15806110ab5750600160a060020a03821660009081526005602052604090205460ff165b806110ce5750600160a060020a03811660009081526005602052604090205460ff165b151561114a576040805160e560020a62461bcd02815260206004820152602860248201527f6e6569746865722073656e646572206e6f7220726563697069656e742061726560448201527f20616c6c6f776564000000000000000000000000000000000000000000000000606482015290519081900360840190fd5b6111548585611661565b95945050505050565b60045481565b60056020526000908152604090205460ff1681565b600354600160a060020a0316331461118f57600080fd5b60045415806111a157506111a161065c565b151561121d576040805160e560020a62461bcd02815260206004820152602760248201527f616e20657870697265642077686974656c6973742063616e6e6f74206265206560448201527f7874656e64656400000000000000000000000000000000000000000000000000606482015290519081900360840190fd5b6201518042018110156112a0576040805160e560020a62461bcd02815260206004820152603360248201527f77686974656c6973742065787069726174696f6e206e6f742066617220656e6f60448201527f75676820696e746f207468652066757475726500000000000000000000000000606482015290519081900360840190fd5b6040805182815290517f425185790737a8bc9659e0a4633a6b6b0428202b2e51b787b431d5fa68242f589181900360200190a1600455565b60035460009060a860020a900460ff16156112f257600080fd5b6107378383611685565b600160a060020a03918216600090815260026020908152604080832093909416825291909152205490565b600354600160a060020a0316331461133e57600080fd5b610a4a8161171e565b600354600160a060020a0316331461135e57600080fd5b600160a060020a038116600081815260096020908152604091829020805460ff1916905581513381529081019290925280517fe840dc5b604bdf9f0bb0eafea84c8542625377dd1fe6116b6b63323e4855a85a9281900390910190a150565b60096020526000908152604090205460ff1681565b336000818152600260209081526040808320600160a060020a038716808552908352818420869055815186815291519394909390927f8c5be1e5ebec7d5bd14f71427d1e84f3dd0314c0f7b2291e5b200ac8c7c3b925928290030190a350600192915050565b60035460009060a860020a900460ff161561145257600080fd5b61145d84848461179c565b949350505050565b8181018281101561147257fe5b92915050565b610a4a3382611572565b336000908152600260209081526040808320600160a060020a0386168452909152812054808311156114d757336000908152600260209081526040808320600160a060020a038816845290915281205561150c565b6114e7818463ffffffff61190116565b336000908152600260209081526040808320600160a060020a03891684529091529020555b336000818152600260209081526040808320600160a060020a0389168085529083529281902054815190815290519293927f8c5be1e5ebec7d5bd14f71427d1e84f3dd0314c0f7b2291e5b200ac8c7c3b925929181900390910190a35060019392505050565b600160a060020a03821660009081526020819052604090205481111561159757600080fd5b600160a060020a0382166000908152602081905260409020546115c0908263ffffffff61190116565b600160a060020a0383166000908152602081905260409020556001546115ec908263ffffffff61190116565b600155604080518281529051600160a060020a038416917fcc16f5dbb4873280815c1ee09dbd06736cffcc184412cf7a71a0fdb75d397ca5919081900360200190a2604080518281529051600091600160a060020a038516916000805160206119e38339815191529181900360200190a35050565b60035460009060a860020a900460ff161561167b57600080fd5b6107378383611913565b336000908152600260209081526040808320600160a060020a03861684529091528120546116b9908363ffffffff61146516565b336000818152600260209081526040808320600160a060020a0389168085529083529281902085905580519485525191937f8c5be1e5ebec7d5bd14f71427d1e84f3dd0314c0f7b2291e5b200ac8c7c3b925929081900390910190a350600192915050565b600160a060020a038116151561173357600080fd5b600354604051600160a060020a038084169216907f8be0079c531659141344cd1fd0a4f28419497f9722a3daafe3b4186f6b6457e090600090a36003805473ffffffffffffffffffffffffffffffffffffffff1916600160a060020a0392909216919091179055565b6000600160a060020a03831615156117b357600080fd5b600160a060020a0384166000908152602081905260409020548211156117d857600080fd5b600160a060020a038416600090815260026020908152604080832033845290915290205482111561180857600080fd5b600160a060020a038416600090815260208190526040902054611831908363ffffffff61190116565b600160a060020a038086166000908152602081905260408082209390935590851681522054611866908363ffffffff61146516565b600160a060020a038085166000908152602081815260408083209490945591871681526002825282812033825290915220546118a8908363ffffffff61190116565b600160a060020a03808616600081815260026020908152604080832033845282529182902094909455805186815290519287169391926000805160206119e3833981519152929181900390910190a35060019392505050565b60008282111561190d57fe5b50900390565b6000600160a060020a038316151561192a57600080fd5b3360009081526020819052604090205482111561194657600080fd5b33600090815260208190526040902054611966908363ffffffff61190116565b3360009081526020819052604080822092909255600160a060020a03851681522054611998908363ffffffff61146516565b600160a060020a038416600081815260208181526040918290209390935580518581529051919233926000805160206119e38339815191529281900390910190a3506001929150505600ddf252ad1be2c89b69c2b068fc378daa952ba7f163c4a11628f55a4df523b3efa165627a7a72305820a1f23bff07bb597b5589c638de2919d4ce0fbc00cabdca1bde3ce5d034fde43a0029",
  "source": "pragma solidity ^0.4.24;\n\nimport \"../../../node_modules/openzeppelin-solidity/contracts/token/ERC20/BurnableToken.sol\";\nimport \"../../../node_modules/openzeppelin-solidity/contracts/token/ERC20/MintableToken.sol\";\nimport \"../../../node_modules/openzeppelin-solidity/contracts/token/ERC20/DetailedERC20.sol\";\n\nimport \"./WhitelistedPausableToken.sol\";\n\n\n/**\n * @title Origin token\n * @dev Token that allows minting, burning, and pausing by contract owner\n */\ncontract OriginToken is BurnableToken, MintableToken, WhitelistedPausableToken, DetailedERC20 {\n    event AddCallSpenderWhitelist(address enabler, address spender);\n    event RemoveCallSpenderWhitelist(address disabler, address spender);\n\n    mapping (address => bool) public callSpenderWhitelist;\n\n    // @dev Constructor that gives msg.sender all initial tokens.\n    constructor(uint256 _initialSupply) DetailedERC20(\"OriginToken\", \"OGN\", 18) public {\n        owner = msg.sender;\n        mint(owner, _initialSupply);\n    }\n\n    //\n    // Burn methods\n    //\n\n    // @dev Burns tokens belonging to the sender\n    // @param _value Amount of token to be burned\n    function burn(uint256 _value) public onlyOwner {\n        // TODO: add a function & modifier to enable for all accounts without doing\n        // a contract migration?\n        super.burn(_value);\n    }\n\n    // @dev Burns tokens belonging to the specified address\n    // @param _who The account whose tokens we're burning\n    // @param _value Amount of token to be burned\n    function burn(address _who, uint256 _value) public onlyOwner {\n        _burn(_who, _value);\n    }\n\n    //\n    // approveAndCall methods\n    //\n\n    // @dev Add spender to whitelist of spenders for approveAndCall\n    // @param _spender Address to add\n    function addCallSpenderWhitelist(address _spender) public onlyOwner {\n        callSpenderWhitelist[_spender] = true;\n        emit AddCallSpenderWhitelist(msg.sender, _spender);\n    }\n\n    // @dev Remove spender from whitelist of spenders for approveAndCall\n    // @param _spender Address to remove\n    function removeCallSpenderWhitelist(address _spender) public onlyOwner {\n        delete callSpenderWhitelist[_spender];\n        emit RemoveCallSpenderWhitelist(msg.sender, _spender);\n    }\n\n    // @dev Approve transfer of tokens and make a contract call in a single\n    // @dev transaction. This allows a DApp to avoid requiring two MetaMask\n    // @dev approvals for a single logical action, such as creating a listing,\n    // @dev which requires the seller to approve a token transfer and the\n    // @dev marketplace contract to transfer tokens from the seller.\n    //\n    // @dev This is based on the ERC827 function approveAndCall and avoids\n    // @dev security issues by only working with a whitelisted set of _spender\n    // @dev addresses. The other difference is that the combination of this\n    // @dev function ensures that the proxied function call receives the\n    // @dev msg.sender for this function as its first parameter.\n    //\n    // @param _spender The address that will spend the funds.\n    // @param _value The amount of tokens to be spent.\n    // @param _selector Function selector for function to be called.\n    // @param _callParams Packed, encoded parameters, omitting the first parameter which is always msg.sender\n    function approveAndCallWithSender(\n        address _spender,\n        uint256 _value,\n        bytes4 _selector,\n        bytes _callParams\n    )\n        public\n        payable\n        returns (bool)\n    {\n        require(_spender != address(this), \"token contract can't be approved\");\n        require(callSpenderWhitelist[_spender], \"spender not in whitelist\");\n\n        require(super.approve(_spender, _value), \"approve failed\");\n\n        bytes memory callData = abi.encodePacked(_selector, uint256(msg.sender), _callParams);\n        // solium-disable-next-line security/no-call-value\n        require(_spender.call.value(msg.value)(callData), \"proxied call failed\");\n        return true;\n    }\n}\n",
  "sourcePath": "/app/contracts/contracts/token/OriginToken.sol",
  "compiler": {
    "name": "solc",
    "version": "0.4.24+commit.e67f0147.Emscripten.clang"
  },
  "schemaVersion": "2.0.1",
  "updatedAt": "2018-10-01T23:20:27.410Z"
}