{
  "contractName": "KeyHolder",
  "abi": [
    {
      "inputs": [],
      "payable": false,
      "stateMutability": "nonpayable",
      "type": "constructor"
    },
    {
      "anonymous": false,
      "inputs": [
        {
          "indexed": true,
          "name": "key",
          "type": "bytes32"
        },
        {
          "indexed": true,
          "name": "purpose",
          "type": "uint256"
        },
        {
          "indexed": true,
          "name": "keyType",
          "type": "uint256"
        }
      ],
      "name": "KeyAdded",
      "type": "event"
    },
    {
      "anonymous": false,
      "inputs": [
        {
          "indexed": true,
          "name": "key",
          "type": "bytes32"
        },
        {
          "indexed": true,
          "name": "purpose",
          "type": "uint256"
        },
        {
          "indexed": true,
          "name": "keyType",
          "type": "uint256"
        }
      ],
      "name": "KeyRemoved",
      "type": "event"
    },
    {
      "anonymous": false,
      "inputs": [
        {
          "indexed": true,
          "name": "executionId",
          "type": "uint256"
        },
        {
          "indexed": true,
          "name": "to",
          "type": "address"
        },
        {
          "indexed": true,
          "name": "value",
          "type": "uint256"
        },
        {
          "indexed": false,
          "name": "data",
          "type": "bytes"
        }
      ],
      "name": "ExecutionRequested",
      "type": "event"
    },
    {
      "anonymous": false,
      "inputs": [
        {
          "indexed": true,
          "name": "executionId",
          "type": "uint256"
        },
        {
          "indexed": true,
          "name": "to",
          "type": "address"
        },
        {
          "indexed": true,
          "name": "value",
          "type": "uint256"
        },
        {
          "indexed": false,
          "name": "data",
          "type": "bytes"
        }
      ],
      "name": "Executed",
      "type": "event"
    },
    {
      "anonymous": false,
      "inputs": [
        {
          "indexed": true,
          "name": "executionId",
          "type": "uint256"
        },
        {
          "indexed": false,
          "name": "approved",
          "type": "bool"
        }
      ],
      "name": "Approved",
      "type": "event"
    },
    {
      "constant": true,
      "inputs": [
        {
          "name": "_key",
          "type": "bytes32"
        }
      ],
      "name": "getKey",
      "outputs": [
        {
          "name": "purpose",
          "type": "uint256"
        },
        {
          "name": "keyType",
          "type": "uint256"
        },
        {
          "name": "key",
          "type": "bytes32"
        }
      ],
      "payable": false,
      "stateMutability": "view",
      "type": "function"
    },
    {
      "constant": true,
      "inputs": [
        {
          "name": "_key",
          "type": "bytes32"
        }
      ],
      "name": "getKeyPurpose",
      "outputs": [
        {
          "name": "purpose",
          "type": "uint256"
        }
      ],
      "payable": false,
      "stateMutability": "view",
      "type": "function"
    },
    {
      "constant": true,
      "inputs": [
        {
          "name": "_purpose",
          "type": "uint256"
        }
      ],
      "name": "getKeysByPurpose",
      "outputs": [
        {
          "name": "_keys",
          "type": "bytes32[]"
        }
      ],
      "payable": false,
      "stateMutability": "view",
      "type": "function"
    },
    {
      "constant": false,
      "inputs": [
        {
          "name": "_key",
          "type": "bytes32"
        },
        {
          "name": "_purpose",
          "type": "uint256"
        },
        {
          "name": "_type",
          "type": "uint256"
        }
      ],
      "name": "addKey",
      "outputs": [
        {
          "name": "success",
          "type": "bool"
        }
      ],
      "payable": false,
      "stateMutability": "nonpayable",
      "type": "function"
    },
    {
      "constant": false,
      "inputs": [
        {
          "name": "_id",
          "type": "uint256"
        },
        {
          "name": "_approve",
          "type": "bool"
        }
      ],
      "name": "approve",
      "outputs": [
        {
          "name": "success",
          "type": "bool"
        }
      ],
      "payable": false,
      "stateMutability": "nonpayable",
      "type": "function"
    },
    {
      "constant": false,
      "inputs": [
        {
          "name": "_to",
          "type": "address"
        },
        {
          "name": "_value",
          "type": "uint256"
        },
        {
          "name": "_data",
          "type": "bytes"
        }
      ],
      "name": "execute",
      "outputs": [
        {
          "name": "executionId",
          "type": "uint256"
        }
      ],
      "payable": false,
      "stateMutability": "nonpayable",
      "type": "function"
    },
    {
      "constant": false,
      "inputs": [
        {
          "name": "_key",
          "type": "bytes32"
        }
      ],
      "name": "removeKey",
      "outputs": [
        {
          "name": "success",
          "type": "bool"
        }
      ],
      "payable": false,
      "stateMutability": "nonpayable",
      "type": "function"
    },
    {
      "constant": true,
      "inputs": [
        {
          "name": "_key",
          "type": "bytes32"
        },
        {
          "name": "_purpose",
          "type": "uint256"
        }
      ],
      "name": "keyHasPurpose",
      "outputs": [
        {
          "name": "result",
          "type": "bool"
        }
      ],
      "payable": false,
      "stateMutability": "view",
      "type": "function"
    }
  ],
  "bytecode": "0x608060405234801561001057600080fd5b5073__KeyHolderLibrary______________________6330864be560006040518263ffffffff167c01000000000000000000000000000000000000000000000000000000000281526004018082815260200191505060006040518083038186803b15801561007d57600080fd5b505af4158015610091573d6000803e3d6000fd5b50505050610804806100a46000396000f3006080604052600436106100745763ffffffff60e060020a600035041663032c1a8a811461007957806312aaac70146100a35780631d381240146100d9578063747442d31461010b578063862642f5146101285780639010f72614610140578063b61d27f6146101a8578063d202158d1461021e575b600080fd5b34801561008557600080fd5b50610091600435610239565b60408051918252519081900360200190f35b3480156100af57600080fd5b506100bb6004356102df565b60408051938452602084019290925282820152519081900360600190f35b3480156100e557600080fd5b506100f760043560243560443561039b565b604080519115158252519081900360200190f35b34801561011757600080fd5b506100f76004356024351515610451565b34801561013457600080fd5b506100f7600435610500565b34801561014c57600080fd5b50610158600435610574565b60408051602080825283518183015283519192839290830191858101910280838360005b8381101561019457818101518382015260200161017c565b505050509050019250505060405180910390f35b3480156101b457600080fd5b50604080516020600460443581810135601f810184900484028501840190955284845261009194823573ffffffffffffffffffffffffffffffffffffffff169460248035953695946064949201919081908401838280828437509497506106629650505050505050565b34801561022a57600080fd5b506100f760043560243561075d565b604080517fcf58f45b00000000000000000000000000000000000000000000000000000000815260006004820181905260248201849052915173__KeyHolderLibrary______________________9163cf58f45b916044808301926020929190829003018186803b1580156102ad57600080fd5b505af41580156102c1573d6000803e3d6000fd5b505050506040513d60208110156102d757600080fd5b505192915050565b604080517fb01a9fb30000000000000000000000000000000000000000000000000000000081526000600482018190526024820184905291518291829173__KeyHolderLibrary______________________9163b01a9fb3916044808301926060929190829003018186803b15801561035757600080fd5b505af415801561036b573d6000803e3d6000fd5b505050506040513d606081101561038157600080fd5b508051602082015160409092015190969195509350915050565b604080517f5d601c3a000000000000000000000000000000000000000000000000000000008152600060048201819052602482018690526044820185905260648201849052915173__KeyHolderLibrary______________________91635d601c3a916084808301926020929190829003018186803b15801561041d57600080fd5b505af4158015610431573d6000803e3d6000fd5b505050506040513d602081101561044757600080fd5b5051949350505050565b604080517f67d4865f000000000000000000000000000000000000000000000000000000008152600060048201819052602482018590528315156044830152915173__KeyHolderLibrary______________________916367d4865f916064808301926020929190829003018186803b1580156104cd57600080fd5b505af41580156104e1573d6000803e3d6000fd5b505050506040513d60208110156104f757600080fd5b50519392505050565b604080517f7ab17ba700000000000000000000000000000000000000000000000000000000815260006004820181905260248201849052915173__KeyHolderLibrary______________________91637ab17ba7916044808301926020929190829003018186803b1580156102ad57600080fd5b606073__KeyHolderLibrary______________________63746199f96000846040518363ffffffff1660e060020a028152600401808381526020018281526020019250505060006040518083038186803b1580156105d157600080fd5b505af41580156105e5573d6000803e3d6000fd5b505050506040513d6000823e601f3d908101601f19168201604052602081101561060e57600080fd5b81019080805164010000000081111561062657600080fd5b8201602081018481111561063957600080fd5b815185602082028301116401000000008211171561065657600080fd5b50909695505050505050565b600073__KeyHolderLibrary______________________63e9356c6f60008686866040518563ffffffff1660e060020a028152600401808581526020018473ffffffffffffffffffffffffffffffffffffffff1673ffffffffffffffffffffffffffffffffffffffff16815260200183815260200180602001828103825283818151815260200191508051906020019080838360005b838110156107105781810151838201526020016106f8565b50505050905090810190601f16801561073d5780820380516001836020036101000a031916815260200191505b509550505050505060206040518083038186803b15801561041d57600080fd5b604080517fd8188a400000000000000000000000000000000000000000000000000000000081526000600482018190526024820185905260448201849052915173__KeyHolderLibrary______________________9163d8188a40916064808301926020929190829003018186803b1580156104cd57600080fd00a165627a7a72305820b71b2cf7adb1511b6abcbb57ce445eaaeeb3f764f64618b5a9900481cc0c98980029",
  "deployedBytecode": "0x6080604052600436106100745763ffffffff60e060020a600035041663032c1a8a811461007957806312aaac70146100a35780631d381240146100d9578063747442d31461010b578063862642f5146101285780639010f72614610140578063b61d27f6146101a8578063d202158d1461021e575b600080fd5b34801561008557600080fd5b50610091600435610239565b60408051918252519081900360200190f35b3480156100af57600080fd5b506100bb6004356102df565b60408051938452602084019290925282820152519081900360600190f35b3480156100e557600080fd5b506100f760043560243560443561039b565b604080519115158252519081900360200190f35b34801561011757600080fd5b506100f76004356024351515610451565b34801561013457600080fd5b506100f7600435610500565b34801561014c57600080fd5b50610158600435610574565b60408051602080825283518183015283519192839290830191858101910280838360005b8381101561019457818101518382015260200161017c565b505050509050019250505060405180910390f35b3480156101b457600080fd5b50604080516020600460443581810135601f810184900484028501840190955284845261009194823573ffffffffffffffffffffffffffffffffffffffff169460248035953695946064949201919081908401838280828437509497506106629650505050505050565b34801561022a57600080fd5b506100f760043560243561075d565b604080517fcf58f45b00000000000000000000000000000000000000000000000000000000815260006004820181905260248201849052915173__KeyHolderLibrary______________________9163cf58f45b916044808301926020929190829003018186803b1580156102ad57600080fd5b505af41580156102c1573d6000803e3d6000fd5b505050506040513d60208110156102d757600080fd5b505192915050565b604080517fb01a9fb30000000000000000000000000000000000000000000000000000000081526000600482018190526024820184905291518291829173__KeyHolderLibrary______________________9163b01a9fb3916044808301926060929190829003018186803b15801561035757600080fd5b505af415801561036b573d6000803e3d6000fd5b505050506040513d606081101561038157600080fd5b508051602082015160409092015190969195509350915050565b604080517f5d601c3a000000000000000000000000000000000000000000000000000000008152600060048201819052602482018690526044820185905260648201849052915173__KeyHolderLibrary______________________91635d601c3a916084808301926020929190829003018186803b15801561041d57600080fd5b505af4158015610431573d6000803e3d6000fd5b505050506040513d602081101561044757600080fd5b5051949350505050565b604080517f67d4865f000000000000000000000000000000000000000000000000000000008152600060048201819052602482018590528315156044830152915173__KeyHolderLibrary______________________916367d4865f916064808301926020929190829003018186803b1580156104cd57600080fd5b505af41580156104e1573d6000803e3d6000fd5b505050506040513d60208110156104f757600080fd5b50519392505050565b604080517f7ab17ba700000000000000000000000000000000000000000000000000000000815260006004820181905260248201849052915173__KeyHolderLibrary______________________91637ab17ba7916044808301926020929190829003018186803b1580156102ad57600080fd5b606073__KeyHolderLibrary______________________63746199f96000846040518363ffffffff1660e060020a028152600401808381526020018281526020019250505060006040518083038186803b1580156105d157600080fd5b505af41580156105e5573d6000803e3d6000fd5b505050506040513d6000823e601f3d908101601f19168201604052602081101561060e57600080fd5b81019080805164010000000081111561062657600080fd5b8201602081018481111561063957600080fd5b815185602082028301116401000000008211171561065657600080fd5b50909695505050505050565b600073__KeyHolderLibrary______________________63e9356c6f60008686866040518563ffffffff1660e060020a028152600401808581526020018473ffffffffffffffffffffffffffffffffffffffff1673ffffffffffffffffffffffffffffffffffffffff16815260200183815260200180602001828103825283818151815260200191508051906020019080838360005b838110156107105781810151838201526020016106f8565b50505050905090810190601f16801561073d5780820380516001836020036101000a031916815260200191505b509550505050505060206040518083038186803b15801561041d57600080fd5b604080517fd8188a400000000000000000000000000000000000000000000000000000000081526000600482018190526024820185905260448201849052915173__KeyHolderLibrary______________________9163d8188a40916064808301926020929190829003018186803b1580156104cd57600080fd00a165627a7a72305820b71b2cf7adb1511b6abcbb57ce445eaaeeb3f764f64618b5a9900481cc0c98980029",
  "source": "pragma solidity ^0.4.23;\n\nimport './ERC725.sol';\nimport './KeyHolderLibrary.sol';\n\ncontract KeyHolder is ERC725 {\n    KeyHolderLibrary.KeyHolderData keyHolderData;\n\n    constructor() public {\n        KeyHolderLibrary.init(keyHolderData);\n    }\n\n    function getKey(bytes32 _key)\n        public\n        view\n        returns(uint256 purpose, uint256 keyType, bytes32 key)\n    {\n        return KeyHolderLibrary.getKey(keyHolderData, _key);\n    }\n\n    function getKeyPurpose(bytes32 _key)\n        public\n        view\n        returns(uint256 purpose)\n    {\n        return KeyHolderLibrary.getKeyPurpose(keyHolderData, _key);\n    }\n\n    function getKeysByPurpose(uint256 _purpose)\n        public\n        view\n        returns(bytes32[] _keys)\n    {\n        return KeyHolderLibrary.getKeysByPurpose(keyHolderData, _purpose);\n    }\n\n    function addKey(bytes32 _key, uint256 _purpose, uint256 _type)\n        public\n        returns (bool success)\n    {\n        return KeyHolderLibrary.addKey(keyHolderData, _key, _purpose, _type);\n    }\n\n    function approve(uint256 _id, bool _approve)\n        public\n        returns (bool success)\n    {\n        return KeyHolderLibrary.approve(keyHolderData, _id, _approve);\n    }\n\n    function execute(address _to, uint256 _value, bytes _data)\n        public\n        returns (uint256 executionId)\n    {\n        return KeyHolderLibrary.execute(keyHolderData, _to, _value, _data);\n    }\n\n    function removeKey(bytes32 _key)\n        public\n        returns (bool success)\n    {\n        return KeyHolderLibrary.removeKey(keyHolderData, _key);\n    }\n\n    function keyHasPurpose(bytes32 _key, uint256 _purpose)\n        public\n        view\n        returns(bool result)\n    {\n        return KeyHolderLibrary.keyHasPurpose(keyHolderData, _key, _purpose);\n    }\n\n}\n",
  "sourcePath": "/home/gagan/Documents/origin-platform/contracts/contracts/identity/KeyHolder.sol",
  "compiler": {
    "name": "solc",
    "version": "0.4.23+commit.124ca40d.Emscripten.clang"
  },
  "schemaVersion": "2.0.0",
  "updatedAt": "2018-05-20T22:01:20.376Z"
}