{
  "contractName": "KeyHolderLibrary",
  "abi": [
    {
      "anonymous": false,
      "inputs": [
        {
          "indexed": true,
          "name": "key",
          "type": "bytes32"
        },
        {
          "indexed": true,
          "name": "purpose",
          "type": "uint256"
        },
        {
          "indexed": true,
          "name": "keyType",
          "type": "uint256"
        }
      ],
      "name": "KeyAdded",
      "type": "event"
    },
    {
      "anonymous": false,
      "inputs": [
        {
          "indexed": true,
          "name": "key",
          "type": "bytes32"
        },
        {
          "indexed": true,
          "name": "purpose",
          "type": "uint256"
        },
        {
          "indexed": true,
          "name": "keyType",
          "type": "uint256"
        }
      ],
      "name": "KeyRemoved",
      "type": "event"
    },
    {
      "anonymous": false,
      "inputs": [
        {
          "indexed": true,
          "name": "executionId",
          "type": "uint256"
        },
        {
          "indexed": true,
          "name": "to",
          "type": "address"
        },
        {
          "indexed": true,
          "name": "value",
          "type": "uint256"
        },
        {
          "indexed": false,
          "name": "data",
          "type": "bytes"
        }
      ],
      "name": "ExecutionRequested",
      "type": "event"
    },
    {
      "anonymous": false,
      "inputs": [
        {
          "indexed": true,
          "name": "executionId",
          "type": "uint256"
        },
        {
          "indexed": true,
          "name": "to",
          "type": "address"
        },
        {
          "indexed": true,
          "name": "value",
          "type": "uint256"
        },
        {
          "indexed": false,
          "name": "data",
          "type": "bytes"
        }
      ],
      "name": "ExecutionFailed",
      "type": "event"
    },
    {
      "anonymous": false,
      "inputs": [
        {
          "indexed": true,
          "name": "executionId",
          "type": "uint256"
        },
        {
          "indexed": true,
          "name": "to",
          "type": "address"
        },
        {
          "indexed": true,
          "name": "value",
          "type": "uint256"
        },
        {
          "indexed": false,
          "name": "data",
          "type": "bytes"
        }
      ],
      "name": "Executed",
      "type": "event"
    },
    {
      "anonymous": false,
      "inputs": [
        {
          "indexed": true,
          "name": "executionId",
          "type": "uint256"
        },
        {
          "indexed": false,
          "name": "approved",
          "type": "bool"
        }
      ],
      "name": "Approved",
      "type": "event"
    },
    {
      "constant": false,
      "inputs": [
        {
          "name": "_keyHolderData",
          "type": "KeyHolderLibrary.KeyHolderData storage"
        }
      ],
      "name": "init",
      "outputs": [],
      "payable": false,
      "stateMutability": "nonpayable",
      "type": "function"
    },
    {
      "constant": true,
      "inputs": [
        {
          "name": "_keyHolderData",
          "type": "KeyHolderLibrary.KeyHolderData storage"
        },
        {
          "name": "_key",
          "type": "bytes32"
        }
      ],
      "name": "getKey",
      "outputs": [
        {
          "name": "purpose",
          "type": "uint256"
        },
        {
          "name": "keyType",
          "type": "uint256"
        },
        {
          "name": "key",
          "type": "bytes32"
        }
      ],
      "payable": false,
      "stateMutability": "view",
      "type": "function"
    },
    {
      "constant": true,
      "inputs": [
        {
          "name": "_keyHolderData",
          "type": "KeyHolderLibrary.KeyHolderData storage"
        },
        {
          "name": "_key",
          "type": "bytes32"
        }
      ],
      "name": "getKeyPurpose",
      "outputs": [
        {
          "name": "purpose",
          "type": "uint256"
        }
      ],
      "payable": false,
      "stateMutability": "view",
      "type": "function"
    },
    {
      "constant": true,
      "inputs": [
        {
          "name": "_keyHolderData",
          "type": "KeyHolderLibrary.KeyHolderData storage"
        },
        {
          "name": "_purpose",
          "type": "uint256"
        }
      ],
      "name": "getKeysByPurpose",
      "outputs": [
        {
          "name": "_keys",
          "type": "bytes32[]"
        }
      ],
      "payable": false,
      "stateMutability": "view",
      "type": "function"
    },
    {
      "constant": false,
      "inputs": [
        {
          "name": "_keyHolderData",
          "type": "KeyHolderLibrary.KeyHolderData storage"
        },
        {
          "name": "_key",
          "type": "bytes32"
        },
        {
          "name": "_purpose",
          "type": "uint256"
        },
        {
          "name": "_type",
          "type": "uint256"
        }
      ],
      "name": "addKey",
      "outputs": [
        {
          "name": "success",
          "type": "bool"
        }
      ],
      "payable": false,
      "stateMutability": "nonpayable",
      "type": "function"
    },
    {
      "constant": false,
      "inputs": [
        {
          "name": "_keyHolderData",
          "type": "KeyHolderLibrary.KeyHolderData storage"
        },
        {
          "name": "_id",
          "type": "uint256"
        },
        {
          "name": "_approve",
          "type": "bool"
        }
      ],
      "name": "approve",
      "outputs": [
        {
          "name": "success",
          "type": "bool"
        }
      ],
      "payable": false,
      "stateMutability": "nonpayable",
      "type": "function"
    },
    {
      "constant": false,
      "inputs": [
        {
          "name": "_keyHolderData",
          "type": "KeyHolderLibrary.KeyHolderData storage"
        },
        {
          "name": "_to",
          "type": "address"
        },
        {
          "name": "_value",
          "type": "uint256"
        },
        {
          "name": "_data",
          "type": "bytes"
        }
      ],
      "name": "execute",
      "outputs": [
        {
          "name": "executionId",
          "type": "uint256"
        }
      ],
      "payable": false,
      "stateMutability": "nonpayable",
      "type": "function"
    },
    {
      "constant": false,
      "inputs": [
        {
          "name": "_keyHolderData",
          "type": "KeyHolderLibrary.KeyHolderData storage"
        },
        {
          "name": "_key",
          "type": "bytes32"
        }
      ],
      "name": "removeKey",
      "outputs": [
        {
          "name": "success",
          "type": "bool"
        }
      ],
      "payable": false,
      "stateMutability": "nonpayable",
      "type": "function"
    },
    {
      "constant": true,
      "inputs": [
        {
          "name": "_keyHolderData",
          "type": "KeyHolderLibrary.KeyHolderData storage"
        },
        {
          "name": "_key",
          "type": "bytes32"
        },
        {
          "name": "_purpose",
          "type": "uint256"
        }
      ],
      "name": "keyHasPurpose",
      "outputs": [
        {
          "name": "result",
          "type": "bool"
        }
      ],
      "payable": false,
      "stateMutability": "view",
      "type": "function"
    }
  ],
  "bytecode": "0x610c9e610030600b82828239805160001a6073146000811461002057610022565bfe5b5030600052607381538281f30073000000000000000000000000000000000000000030146080604052600436106100af5763ffffffff7c010000000000000000000000000000000000000000000000000000000060003504166330864be581146100b45780635d601c3a146100ce57806367d4865f14610103578063746199f9146101235780637ab17ba714610181578063b01a9fb31461019c578063cf58f45b146101c8578063d8188a40146101e8578063e9356c6f146101f9575b600080fd5b8180156100c057600080fd5b506100cc600435610268565b005b8180156100da57600080fd5b506100ef600435602435604435606435610302565b604080519115158252519081900360200190f35b81801561010f57600080fd5b506100ef60043560243560443515156104b1565b610131600435602435610806565b60408051602080825283518183015283519192839290830191858101910280838360005b8381101561016d578181015183820152602001610155565b505050509050019250505060405180910390f35b81801561018d57600080fd5b506100ef60043560243561086c565b6101aa60043560243561093d565b60408051938452602084019290925282820152519081900360600190f35b6101d6600435602435610961565b60408051918252519081900360200190f35b6100ef600435602435604435610977565b81801561020557600080fd5b50604080516020601f6064356004818101359283018490048402850184019095528184526101d694803594600160a060020a0360248035919091169560443595369560849493019181908401838280828437509497506109bc9650505050505050565b604080516c01000000000000000000000000600160a060020a0333160281528151908190036014018120600081815260018086016020818152868420600280820187905584825581850185905584865289018252968420805480850182559085528185200185905584845252935491939284917f480000bb1edad8ca1470381cc334b1917fbd51c6531f3a623ea8e0ec7e38a6e991a45050565b600083815260018501602052604081206002015484141561036d576040805160e560020a62461bcd02815260206004820152601260248201527f4b657920616c7265616479206578697374730000000000000000000000000000604482015290519081900360640190fd5b30600160a060020a031633600160a060020a031614151561043b57604080516c01000000000000000000000000600160a060020a03331602815290519081900360140190206103bf9086906001610977565b151561043b576040805160e560020a62461bcd02815260206004820152602360248201527f53656e64657220646f6573206e6f742068617665206d616e6167656d656e742060448201527f6b65790000000000000000000000000000000000000000000000000000000000606482015290519081900360840190fd5b600084815260018087016020908152604080842060028082018a905588825590840187905587855289018252808420805493840181558452908320909101869055518391859187917f480000bb1edad8ca1470381cc334b1917fbd51c6531f3a623ea8e0ec7e38a6e991a4506001949350505050565b604080516c01000000000000000000000000600160a060020a03331602815290519081900360140190206000906104eb9085906002610977565b1515610541576040805160e560020a62461bcd02815260206004820152601f60248201527f53656e64657220646f6573206e6f74206861766520616374696f6e206b657900604482015290519081900360640190fd5b604080518315158152905184917fb3932da477fe5d6c8ff2eafef050c0f3a1af18fc07121001482600f36f3715d8919081900360200190a2600182151514156107e057600083815260038086016020526040808320918201805460ff191660019081179091558254915160029384018054600160a060020a039094169590949093919283928692600019928216156101000292909201160480156106265780601f106105fb57610100808354040283529160200191610626565b820191906000526020600020905b81548152906001019060200180831161060957829003601f168201915b50508260ff168152602001925050506000604051808303816000865af19150509050801561073e57600083815260038581016020908152604092839020918201805461010061ff00199091168117909155600180840154845486518581526002968701805494851615909502600019019093169590950493820184905294600160a060020a039094169388937f1f920dbda597d7bf95035464170fa58d0a4b57f13a1c315ace6793b9f63688b89392918291908201908490801561072b5780601f106107005761010080835404028352916020019161072b565b820191906000526020600020905b81548152906001019060200180831161070e57829003601f168201915b50509250505060405180910390a46107ff565b60008381526003850160209081526040918290206001808201548254855185815260029485018054600019958116156101000295909501909416949094049484018590529094600160a060020a039091169388937fe10c49d9f7c71da23262367013434763cfdb2332267641728d25cd712c5c6a689392909182918201908490801561072b5780601f106107005761010080835404028352916020019161072b565b60008381526003808601602052604090912001805460ff191690555060015b9392505050565b600081815260028301602090815260409182902080548351818402810184019094528084526060939283018282801561085f57602002820191906000526020600020905b8154815260019091019060200180831161084a575b5050505050905092915050565b600081815260018301602052604081206002015482146108d6576040805160e560020a62461bcd02815260206004820152600b60248201527f4e6f2073756368206b6579000000000000000000000000000000000000000000604482015290519081900360640190fd5b600082815260018085016020526040808320918201548254600290930154915190937f585a4aef50f8267a92b32412b331b20f7f8b96f2245b253b9cc50dcc621d339791a45060009081526001918201602052604081208181558083018290556002015590565b60009081526001918201602052604090208054918101546002909101549192909190565b6000908152600191909101602052604090205490565b60008281526001840160205260408120600201548190151561099c57600091506109b4565b50506000828152600184016020526040902054811015805b509392505050565b835460009081526003808601602052604082200154610100900460ff1615610a2e576040805160e560020a62461bcd02815260206004820152601060248201527f416c726561647920657865637574656400000000000000000000000000000000604482015290519081900360640190fd5b845460009081526003860160209081526040808320805473ffffffffffffffffffffffffffffffffffffffff1916600160a060020a03891617905587548352808320600101869055875483529091208351610a9192600290920191850190610bd7565b508284600160a060020a031686600001547f8afcfabcb00e47a53a8fc3e9f23ff47ee1926194bb1350dd007c50b412a6cee8856040518080602001828103825283818151815260200191508051906020019080838360005b83811015610b01578181015183820152602001610ae9565b50505050905090810190601f168015610b2e5780820380516001836020036101000a031916815260200191505b509250505060405180910390a4604080516c01000000000000000000000000600160a060020a0333160281529051908190036014019020610b729086906001610977565b80610baf5750604080516c01000000000000000000000000600160a060020a0333160281529051908190036014019020610baf9086906002610977565b15610bc657610bc485866000015460016104b1565b505b508354600181018555949350505050565b828054600181600116156101000203166002900490600052602060002090601f016020900481019282601f10610c1857805160ff1916838001178555610c45565b82800160010185558215610c45579182015b82811115610c45578251825591602001919060010190610c2a565b50610c51929150610c55565b5090565b610c6f91905b80821115610c515760008155600101610c5b565b905600a165627a7a723058208c031a6bc424b684bf961db3aa0ea06cfb23749d00a7c5e1e00c07779ccc08830029",
  "source": "pragma solidity ^0.4.23;\n\nlibrary KeyHolderLibrary {\n  event KeyAdded(bytes32 indexed key, uint256 indexed purpose, uint256 indexed keyType);\n  event KeyRemoved(bytes32 indexed key, uint256 indexed purpose, uint256 indexed keyType);\n  event ExecutionRequested(uint256 indexed executionId, address indexed to, uint256 indexed value, bytes data);\n  event ExecutionFailed(uint256 indexed executionId, address indexed to, uint256 indexed value, bytes data);\n  event Executed(uint256 indexed executionId, address indexed to, uint256 indexed value, bytes data);\n  event Approved(uint256 indexed executionId, bool approved);\n\n  struct Key {\n      uint256 purpose; //e.g., MANAGEMENT_KEY = 1, ACTION_KEY = 2, etc.\n      uint256 keyType; // e.g. 1 = ECDSA, 2 = RSA, etc.\n      bytes32 key;\n  }\n\n  struct KeyHolderData {\n      uint256 executionNonce;\n      mapping (bytes32 => Key) keys;\n      mapping (uint256 => bytes32[]) keysByPurpose;\n      mapping (uint256 => Execution) executions;\n  }\n\n  struct Execution {\n      address to;\n      uint256 value;\n      bytes data;\n      bool approved;\n      bool executed;\n  }\n\n  function init(KeyHolderData storage _keyHolderData)\n      public\n  {\n      bytes32 _key = keccak256(msg.sender);\n      _keyHolderData.keys[_key].key = _key;\n      _keyHolderData.keys[_key].purpose = 1;\n      _keyHolderData.keys[_key].keyType = 1;\n      _keyHolderData.keysByPurpose[1].push(_key);\n      emit KeyAdded(_key, _keyHolderData.keys[_key].purpose, 1);\n  }\n\n  function getKey(KeyHolderData storage _keyHolderData, bytes32 _key)\n      public\n      view\n      returns(uint256 purpose, uint256 keyType, bytes32 key)\n  {\n      return (\n          _keyHolderData.keys[_key].purpose,\n          _keyHolderData.keys[_key].keyType,\n          _keyHolderData.keys[_key].key\n      );\n  }\n\n  function getKeyPurpose(KeyHolderData storage _keyHolderData, bytes32 _key)\n      public\n      view\n      returns(uint256 purpose)\n  {\n      return (_keyHolderData.keys[_key].purpose);\n  }\n\n  function getKeysByPurpose(KeyHolderData storage _keyHolderData, uint256 _purpose)\n      public\n      view\n      returns(bytes32[] _keys)\n  {\n      return _keyHolderData.keysByPurpose[_purpose];\n  }\n\n  function addKey(KeyHolderData storage _keyHolderData, bytes32 _key, uint256 _purpose, uint256 _type)\n      public\n      returns (bool success)\n  {\n      require(_keyHolderData.keys[_key].key != _key, \"Key already exists\"); // Key should not already exist\n      if (msg.sender != address(this)) {\n        require(keyHasPurpose(_keyHolderData, keccak256(msg.sender), 1), \"Sender does not have management key\"); // Sender has MANAGEMENT_KEY\n      }\n\n      _keyHolderData.keys[_key].key = _key;\n      _keyHolderData.keys[_key].purpose = _purpose;\n      _keyHolderData.keys[_key].keyType = _type;\n\n      _keyHolderData.keysByPurpose[_purpose].push(_key);\n\n      emit KeyAdded(_key, _purpose, _type);\n\n      return true;\n  }\n\n  function approve(KeyHolderData storage _keyHolderData, uint256 _id, bool _approve)\n      public\n      returns (bool success)\n  {\n      require(keyHasPurpose(_keyHolderData, keccak256(msg.sender), 2), \"Sender does not have action key\");\n\n      emit Approved(_id, _approve);\n\n      if (_approve == true) {\n          _keyHolderData.executions[_id].approved = true;\n          success = _keyHolderData.executions[_id].to.call(_keyHolderData.executions[_id].data, 0);\n          if (success) {\n              _keyHolderData.executions[_id].executed = true;\n              emit Executed(\n                  _id,\n                  _keyHolderData.executions[_id].to,\n                  _keyHolderData.executions[_id].value,\n                  _keyHolderData.executions[_id].data\n              );\n              return;\n          } else {\n              emit ExecutionFailed(\n                  _id,\n                  _keyHolderData.executions[_id].to,\n                  _keyHolderData.executions[_id].value,\n                  _keyHolderData.executions[_id].data\n              );\n              return;\n          }\n      } else {\n          _keyHolderData.executions[_id].approved = false;\n      }\n      return true;\n  }\n\n  function execute(KeyHolderData storage _keyHolderData, address _to, uint256 _value, bytes _data)\n      public\n      returns (uint256 executionId)\n  {\n      require(!_keyHolderData.executions[_keyHolderData.executionNonce].executed, \"Already executed\");\n      _keyHolderData.executions[_keyHolderData.executionNonce].to = _to;\n      _keyHolderData.executions[_keyHolderData.executionNonce].value = _value;\n      _keyHolderData.executions[_keyHolderData.executionNonce].data = _data;\n\n      emit ExecutionRequested(_keyHolderData.executionNonce, _to, _value, _data);\n\n      if (keyHasPurpose(_keyHolderData, keccak256(msg.sender),1) || keyHasPurpose(_keyHolderData, keccak256(msg.sender),2)) {\n          approve(_keyHolderData, _keyHolderData.executionNonce, true);\n      }\n\n      _keyHolderData.executionNonce++;\n      return _keyHolderData.executionNonce-1;\n  }\n\n  function removeKey(KeyHolderData storage _keyHolderData, bytes32 _key)\n      public\n      returns (bool success)\n  {\n      require(_keyHolderData.keys[_key].key == _key, \"No such key\");\n      emit KeyRemoved(_keyHolderData.keys[_key].key, _keyHolderData.keys[_key].purpose, _keyHolderData.keys[_key].keyType);\n\n      delete _keyHolderData.keys[_key];\n\n      return true;\n  }\n\n  function keyHasPurpose(KeyHolderData storage _keyHolderData, bytes32 _key, uint256 _purpose)\n      public\n      view\n      returns(bool result)\n  {\n      bool isThere;\n      if (_keyHolderData.keys[_key].key == 0) return false;\n      isThere = _keyHolderData.keys[_key].purpose <= _purpose;\n      return isThere;\n  }\n}\n",
  "sourcePath": "/home/gagan/Documents/origin-platform/contracts/contracts/identity/KeyHolderLibrary.sol",
  "compiler": {
    "name": "solc",
    "version": "0.4.23+commit.124ca40d.Emscripten.clang"
  },
  "schemaVersion": "2.0.0",
  "updatedAt": "2018-05-20T22:01:20.402Z"
}