{
  "contractName": "ListingsRegistry",
  "abi": [
    {
      "constant": true,
      "inputs": [],
      "name": "owner",
      "outputs": [
        {
          "name": "",
          "type": "address"
        }
      ],
      "payable": false,
      "stateMutability": "view",
      "type": "function"
    },
    {
      "constant": true,
      "inputs": [
        {
          "name": "",
          "type": "uint256"
        }
      ],
      "name": "listings",
      "outputs": [
        {
          "name": "",
          "type": "address"
        }
      ],
      "payable": false,
      "stateMutability": "view",
      "type": "function"
    },
    {
      "inputs": [],
      "payable": false,
      "stateMutability": "nonpayable",
      "type": "constructor"
    },
    {
      "anonymous": false,
      "inputs": [
        {
          "indexed": false,
          "name": "_index",
          "type": "uint256"
        }
      ],
      "name": "NewListing",
      "type": "event"
    },
    {
      "constant": true,
      "inputs": [],
      "name": "listingsLength",
      "outputs": [
        {
          "name": "",
          "type": "uint256"
        }
      ],
      "payable": false,
      "stateMutability": "view",
      "type": "function"
    },
    {
      "constant": true,
      "inputs": [
        {
          "name": "_index",
          "type": "uint256"
        }
      ],
      "name": "getListing",
      "outputs": [
        {
          "name": "",
          "type": "address"
        },
        {
          "name": "",
          "type": "address"
        },
        {
          "name": "",
          "type": "bytes32"
        },
        {
          "name": "",
          "type": "uint256"
        },
        {
          "name": "",
          "type": "uint256"
        }
      ],
      "payable": false,
      "stateMutability": "view",
      "type": "function"
    },
    {
      "constant": false,
      "inputs": [
        {
          "name": "_ipfsHash",
          "type": "bytes32"
        },
        {
          "name": "_price",
          "type": "uint256"
        },
        {
          "name": "_unitsAvailable",
          "type": "uint256"
        }
      ],
      "name": "create",
      "outputs": [
        {
          "name": "",
          "type": "uint256"
        }
      ],
      "payable": false,
      "stateMutability": "nonpayable",
      "type": "function"
    },
    {
      "constant": false,
      "inputs": [
        {
          "name": "_ipfsHash",
          "type": "bytes32"
        },
        {
          "name": "_price",
          "type": "uint256"
        },
        {
          "name": "_unitsAvailable",
          "type": "uint256"
        },
        {
          "name": "_creatorAddress",
          "type": "address"
        }
      ],
      "name": "createOnBehalf",
      "outputs": [
        {
          "name": "",
          "type": "uint256"
        }
      ],
      "payable": false,
      "stateMutability": "nonpayable",
      "type": "function"
    }
  ],
  "bytecode": "0x608060405234801561001057600080fd5b5060008054600160a060020a033316600160a060020a0319909116179055610cb68061003d6000396000f30060806040526004361061005e5763ffffffff60e060020a600035041663107a274a81146100635780637afd81f5146100b25780638da5cb5b146100d9578063951dc8441461010a578063b5f8c36b14610134578063de74e57b14610152575b600080fd5b34801561006f57600080fd5b5061007b60043561016a565b60408051600160a060020a039687168152949095166020850152838501929092526060830152608082015290519081900360a00190f35b3480156100be57600080fd5b506100c76103ff565b60408051918252519081900360200190f35b3480156100e557600080fd5b506100ee610405565b60408051600160a060020a039092168252519081900360200190f35b34801561011657600080fd5b506100c7600435602435604435600160a060020a0360643516610414565b34801561014057600080fd5b506100c760043560243560443561056d565b34801561015e57600080fd5b506100ee600435610649565b600080600080600060018681548110151561018157fe5b60009182526020909120015460018054600160a060020a0390921691889081106101a757fe5b9060005260206000200160009054906101000a9004600160a060020a0316600160a060020a0316638da5cb5b6040518163ffffffff1660e060020a028152600401602060405180830381600087803b15801561020257600080fd5b505af1158015610216573d6000803e3d6000fd5b505050506040513d602081101561022c57600080fd5b5051600180548990811061023c57fe5b9060005260206000200160009054906101000a9004600160a060020a0316600160a060020a031663c623674f6040518163ffffffff1660e060020a028152600401602060405180830381600087803b15801561029757600080fd5b505af11580156102ab573d6000803e3d6000fd5b505050506040513d60208110156102c157600080fd5b5051600180548a9081106102d157fe5b9060005260206000200160009054906101000a9004600160a060020a0316600160a060020a031663a035b1fe6040518163ffffffff1660e060020a028152600401602060405180830381600087803b15801561032c57600080fd5b505af1158015610340573d6000803e3d6000fd5b505050506040513d602081101561035657600080fd5b5051600180548b90811061036657fe5b9060005260206000200160009054906101000a9004600160a060020a0316600160a060020a031663c6bbd6af6040518163ffffffff1660e060020a028152600401602060405180830381600087803b1580156103c157600080fd5b505af11580156103d5573d6000803e3d6000fd5b505050506040513d60208110156103eb57600080fd5b5051939a9299509097509550909350915050565b60015490565b600054600160a060020a031681565b6000805433600160a060020a0390811691161461049257604080517f08c379a000000000000000000000000000000000000000000000000000000000815260206004820152601f60248201527f4f6e6c792063616c6c61626c65206279207265676973747279206f776e657200604482015290519081900360640190fd5b6001828686866104a0610671565b600160a060020a039094168452602084019290925260408084019190915260608301919091525190819003608001906000f0801580156104e4573d6000803e3d6000fd5b508154600180820184556000938452602093849020909101805473ffffffffffffffffffffffffffffffffffffffff1916600160a060020a03939093169290921790915554604080516000199092018252517fd8562534ed9a3ce564a595a66dbcc871a37cff70205ea8bc8d0276dcaa4d1009929181900390910190a150600154949350505050565b600060013385858561057d610671565b600160a060020a039094168452602084019290925260408084019190915260608301919091525190819003608001906000f0801580156105c1573d6000803e3d6000fd5b508154600180820184556000938452602093849020909101805473ffffffffffffffffffffffffffffffffffffffff1916600160a060020a03939093169290921790915554604080516000199092018252517fd8562534ed9a3ce564a595a66dbcc871a37cff70205ea8bc8d0276dcaa4d1009929181900390910190a1506001549392505050565b600180548290811061065757fe5b600091825260209091200154600160a060020a0316905081565b60405161060980610682833901905600608060405234801561001057600080fd5b50604051608080610609833981016040908152815160208301519183015160609093015160008054600160a060020a03938416600160a060020a03199182161790915560018054339094169390911692909217909155600291909155600391909155600455426005819055624f1a0001600655610577806100926000396000f3006080604052600436106100c45763ffffffff7c010000000000000000000000000000000000000000000000000000000060003504166328e671b981146100c9578063325a19f1146100f05780633742a9f71461010557806343d726d6146101395780634665096d146101505780634884f459146101655780635ebf3e9b1461017057806373d4a13a146101855780638392fe31146101d75780638da5cb5b146101ef578063a035b1fe14610204578063c623674f14610219578063c6bbd6af1461022e575b600080fd5b3480156100d557600080fd5b506100de610243565b60408051918252519081900360200190f35b3480156100fc57600080fd5b506100de610249565b34801561011157600080fd5b5061011d60043561024f565b60408051600160a060020a039092168252519081900360200190f35b34801561014557600080fd5b5061014e61027b565b005b34801561015c57600080fd5b506100de6102c6565b61014e6004356102cc565b34801561017c57600080fd5b5061011d6104cd565b34801561019157600080fd5b5061019a6104dc565b60408051600160a060020a0390971687526020870195909552858501939093526060850191909152608084015260a0830152519081900360c00190f35b3480156101e357600080fd5b5061011d600435610502565b3480156101fb57600080fd5b5061011d61052a565b34801561021057600080fd5b506100de610539565b34801561022557600080fd5b506100de61053f565b34801561023a57600080fd5b506100de610545565b60075490565b60055481565b600060078281548110151561026057fe5b600091825260209091200154600160a060020a031692915050565b60005433600160a060020a0390811691161461029657600080fd5b600060048190556040517ffa378a7d48087b5b4be3b8236f6f8829009c67d0dc3a6a431e43385d52ea2d1d9190a1565b60065481565b6004546000908211156102de57600080fd5b60065442106102ec57600080fd5b604080517f1c6b9b03000000000000000000000000000000000000000000000000000000008152600160a060020a03308116600483015233166024820152905173__PurchaseLibrary_______________________91631c6b9b03916044808301926020929190829003018186803b15801561036757600080fd5b505af415801561037b573d6000803e3d6000fd5b505050506040513d602081101561039157600080fd5b50516004805484900381556007805460018101825560009182527fa66cc928b5edb82af9bd49922954155ab7b0942694bea4ce44661d9a8736c68801805473ffffffffffffffffffffffffffffffffffffffff1916600160a060020a038516908117909155604080517f1b9265b800000000000000000000000000000000000000000000000000000000815290519495509093631b9265b8933493838201939092919082900301818588803b15801561044957600080fd5b505af115801561045d573d6000803e3d6000fd5b505060408051600160a060020a038616815290517f2df0d5ee1e33bfff4ba740237ef59eef9093cf4c8ebb55ad1a6e63f6801089be94509081900360200192509050a16040517ffa378a7d48087b5b4be3b8236f6f8829009c67d0dc3a6a431e43385d52ea2d1d90600090a15050565b600154600160a060020a031681565b600054600254600354600454600554600654600160a060020a0390951694909192939495565b600780548290811061051057fe5b600091825260209091200154600160a060020a0316905081565b600054600160a060020a031681565b60035481565b60025481565b600454815600a165627a7a723058209b41c467323a3a9e5c1be75d91eda4216aba4657dc8701e8f599b43dac9acbe50029a165627a7a723058207f539ff4e820d3d5d32466ec9597e96f46304c0759956c7f91687382f431ba120029",
  "source": "pragma solidity 0.4.23;\n\n/// @title Listing\n/// @dev Used to keep marketplace of listings for buyers and sellers\n/// @author Matt Liu <matt@originprotocol.com>, Josh Fraser <josh@originprotocol.com>, Stan James <stan@originprotocol.com>\n\nimport \"./Listing.sol\";\n\ncontract ListingsRegistry {\n\n  /*\n   * Events\n   */\n\n  event NewListing(uint _index);\n\n  /*\n   * Storage\n   */\n\n  // Contract owner\n  address public owner;\n\n  // Array of all listings\n  Listing[] public listings;\n\n  /*\n   * Public functions\n   */\n\n  constructor()\n    public\n  {\n    // Defines origin admin address - may be removed for public deployment\n    owner = msg.sender;\n  }\n\n  /// @dev listingsLength(): Return number of listings\n  function listingsLength()\n    public\n    constant\n    returns (uint)\n  {\n      return listings.length;\n  }\n\n  /// @dev getListing(): Return listing info for a given listing\n  /// @param _index the index of the listing we want info about\n  function getListing(uint _index)\n    public\n    constant\n    returns (Listing, address, bytes32, uint, uint)\n  {\n    // Test in truffle deelop:\n    // ListingsRegistry.deployed().then(function(instance){ return instance.getListing.call(0) })\n\n    // TODO (Stan): Determine if less gas to do one array lookup into var, and\n    // return var struct parts\n    return (\n      listings[_index],\n      listings[_index].owner(),\n      listings[_index].ipfsHash(),\n      listings[_index].price(),\n      listings[_index].unitsAvailable()\n    );\n  }\n\n  /// @dev create(): Create a new listing\n  /// @param _ipfsHash Hash of data on ipfsHash\n  /// @param _price Price of unit in wei\n  /// @param _unitsAvailable Number of units availabe for sale at start\n  ///\n  /// Sample Remix invocation:\n  /// [\"0x01\",\"0x7d\",\"0xfd\",\"0x85\",\"0xd4\",\"0xf6\",\"0xcb\",\"0x4d\",\"0xcd\",\"0x71\",\"0x5a\",\"0x88\",\"0x10\",\"0x1f\",\"0x7b\",\"0x1f\",\"0x06\",\"0xcd\",\"0x1e\",\"0x00\",\"0x9b\",\"0x23\",\"0x27\",\"0xa0\",\"0x80\",\"0x9d\",\"0x01\",\"0xeb\",\"0x9c\",\"0x91\",\"0xf2\",\"0x31\"],\"3140000000000000000\",42\n  function create(\n    bytes32 _ipfsHash,\n    uint _price,\n    uint _unitsAvailable\n  )\n    public\n    returns (uint)\n  {\n    listings.push(new Listing(msg.sender, _ipfsHash, _price, _unitsAvailable));\n    emit NewListing(listings.length-1);\n    return listings.length;\n  }\n\n  /// @dev createOnBehalf(): Create a new listing with specified creator\n  ///                        Used for migrating from old contracts (admin only)\n  /// @param _ipfsHash Hash of data on ipfsHash\n  /// @param _price Price of unit in wei\n  /// @param _unitsAvailable Number of units availabe for sale at start\n  /// @param _creatorAddress Address of account to be the creator\n  function createOnBehalf(\n    bytes32 _ipfsHash,\n    uint _price,\n    uint _unitsAvailable,\n    address _creatorAddress\n  )\n    public\n    returns (uint)\n  {\n    require (msg.sender == owner, \"Only callable by registry owner\");\n    listings.push(new Listing(_creatorAddress, _ipfsHash, _price, _unitsAvailable));\n    emit NewListing(listings.length-1);\n    return listings.length;\n  }\n}\n",
  "sourcePath": "/home/gagan/Documents/origin-platform/contracts/contracts/ListingsRegistry.sol",
  "compiler": {
    "name": "solc",
    "version": "0.4.23+commit.124ca40d.Emscripten.clang"
  },
  "schemaVersion": "2.0.0",
  "updatedAt": "2018-05-20T22:01:21.478Z"
}