{
  "contractName": "Listing",
  "abi": [
    {
      "constant": true,
      "inputs": [],
      "name": "expiration",
      "outputs": [
        {
          "name": "",
          "type": "uint256"
        }
      ],
      "payable": false,
      "stateMutability": "view",
      "type": "function"
    },
    {
      "constant": true,
      "inputs": [],
      "name": "listingRegistry",
      "outputs": [
        {
          "name": "",
          "type": "address"
        }
      ],
      "payable": false,
      "stateMutability": "view",
      "type": "function"
    },
    {
      "constant": true,
      "inputs": [
        {
          "name": "",
          "type": "uint256"
        }
      ],
      "name": "purchases",
      "outputs": [
        {
          "name": "",
          "type": "address"
        }
      ],
      "payable": false,
      "stateMutability": "view",
      "type": "function"
    },
    {
      "constant": true,
      "inputs": [],
      "name": "owner",
      "outputs": [
        {
          "name": "",
          "type": "address"
        }
      ],
      "payable": false,
      "stateMutability": "view",
      "type": "function"
    },
    {
      "constant": true,
      "inputs": [],
      "name": "price",
      "outputs": [
        {
          "name": "",
          "type": "uint256"
        }
      ],
      "payable": false,
      "stateMutability": "view",
      "type": "function"
    },
    {
      "constant": true,
      "inputs": [],
      "name": "ipfsHash",
      "outputs": [
        {
          "name": "",
          "type": "bytes32"
        }
      ],
      "payable": false,
      "stateMutability": "view",
      "type": "function"
    },
    {
      "constant": true,
      "inputs": [],
      "name": "unitsAvailable",
      "outputs": [
        {
          "name": "",
          "type": "uint256"
        }
      ],
      "payable": false,
      "stateMutability": "view",
      "type": "function"
    },
    {
      "inputs": [
        {
          "name": "_owner",
          "type": "address"
        },
        {
          "name": "_ipfsHash",
          "type": "bytes32"
        },
        {
          "name": "_price",
          "type": "uint256"
        },
        {
          "name": "_unitsAvailable",
          "type": "uint256"
        }
      ],
      "payable": false,
      "stateMutability": "nonpayable",
      "type": "constructor"
    },
    {
      "anonymous": false,
      "inputs": [
        {
          "indexed": false,
          "name": "_purchaseContract",
          "type": "address"
        }
      ],
      "name": "ListingPurchased",
      "type": "event"
    },
    {
      "constant": false,
      "inputs": [
        {
          "name": "_unitsToBuy",
          "type": "uint256"
        }
      ],
      "name": "buyListing",
      "outputs": [],
      "payable": true,
      "stateMutability": "payable",
      "type": "function"
    },
    {
      "constant": false,
      "inputs": [],
      "name": "close",
      "outputs": [],
      "payable": false,
      "stateMutability": "nonpayable",
      "type": "function"
    },
    {
      "constant": true,
      "inputs": [],
      "name": "purchasesLength",
      "outputs": [
        {
          "name": "",
          "type": "uint256"
        }
      ],
      "payable": false,
      "stateMutability": "view",
      "type": "function"
    },
    {
      "constant": true,
      "inputs": [
        {
          "name": "_index",
          "type": "uint256"
        }
      ],
      "name": "getPurchase",
      "outputs": [
        {
          "name": "",
          "type": "address"
        }
      ],
      "payable": false,
      "stateMutability": "view",
      "type": "function"
    }
  ],
  "bytecode": "0x6060604052341561000f57600080fd5b6040516080806104cd8339810160405280805191906020018051919060200180519190602001805160008054600160a060020a03978816600160a060020a031991821617909155600180543390981697909116969096179095555050600291909155600355600455624f1a00420160055561043e8061008f6000396000f3006060604052600436106100955763ffffffff60e060020a60003504166328e671b9811461009a5780633742a9f7146100bf57806343d726d6146100f15780634665096d146101065780634884f459146101195780635ebf3e9b146101245780638392fe31146101375780638da5cb5b1461014d578063a035b1fe14610160578063c623674f14610173578063c6bbd6af14610186575b600080fd5b34156100a557600080fd5b6100ad610199565b60405190815260200160405180910390f35b34156100ca57600080fd5b6100d56004356101a0565b604051600160a060020a03909116815260200160405180910390f35b34156100fc57600080fd5b6101046101cc565b005b341561011157600080fd5b6100ad6101ee565b6101046004356101f4565b341561012f57600080fd5b6100d5610373565b341561014257600080fd5b6100d5600435610382565b341561015857600080fd5b6100d56103aa565b341561016b57600080fd5b6100ad6103b9565b341561017e57600080fd5b6100ad6103bf565b341561019157600080fd5b6100ad6103c5565b6006545b90565b60006006828154811015156101b157fe5b600091825260209091200154600160a060020a031692915050565b60005433600160a060020a039081169116146101e757600080fd5b6000600455565b60055481565b60045460009082111561020657600080fd5b600554421061021457600080fd5b73__PurchaseLibrary_______________________631c6b9b03303360006040516020015260405160e060020a63ffffffff8516028152600160a060020a0392831660048201529116602482015260440160206040518083038186803b151561027c57600080fd5b6102c65a03f4151561028d57600080fd5b5050506040518051600480548590039055600680549193509150600181016102b583826103cb565b506000918252602090912001805473ffffffffffffffffffffffffffffffffffffffff1916600160a060020a038316908117909155631b9265b8346040518263ffffffff1660e060020a0281526004016000604051808303818588803b151561031d57600080fd5b6125ee5a03f1151561032e57600080fd5b505050507f2df0d5ee1e33bfff4ba740237ef59eef9093cf4c8ebb55ad1a6e63f6801089be81604051600160a060020a03909116815260200160405180910390a15050565b600154600160a060020a031681565b600680548290811061039057fe5b600091825260209091200154600160a060020a0316905081565b600054600160a060020a031681565b60035481565b60025481565b60045481565b8154818355818115116103ef576000838152602090206103ef9181019083016103f4565b505050565b61019d91905b8082111561040e57600081556001016103fa565b50905600a165627a7a723058200c2463bf68c2f35892c09b1273ca5038e9cd4161c67f9debb9d3acb1c5d680870029",
  "source": "pragma solidity ^0.4.11;\n\n/// @title Listing\n/// @dev An indiviual Origin Listing representing an offer for booking/purchase\n\nimport \"./Purchase.sol\";\nimport \"./PurchaseLibrary.sol\";\n\n\ncontract Listing {\n\n  /*\n   * Events\n   */\n\n  event ListingPurchased(Purchase _purchaseContract);\n\n    /*\n    * Storage\n    */\n\n    address public owner;\n    address public listingRegistry; // TODO: Define interface for real ListingRegistry ?\n    // Assume IPFS defaults for hash: function:0x12=sha2, size:0x20=256 bits\n    // See: https://ethereum.stackexchange.com/a/17112/20332\n    // This assumption may have to change in future, but saves space now\n    bytes32 public ipfsHash;\n    uint public price;\n    uint public unitsAvailable;\n    uint public expiration;\n    Purchase[] public purchases;\n\n\n    function Listing (\n      address _owner,\n      bytes32 _ipfsHash,\n      uint _price,\n      uint _unitsAvailable\n    )\n    public\n    {\n      owner = _owner;\n      listingRegistry = msg.sender; // ListingRegistry(msg.sender);\n      ipfsHash = _ipfsHash;\n      price = _price;\n      unitsAvailable = _unitsAvailable;\n      expiration = now + 60 days;\n    }\n\n  /*\n    * Modifiers\n    */\n\n  modifier isSeller() {\n    require(msg.sender == owner);\n    _;\n  }\n\n  /*\n    * Public functions\n    */\n\n\n  /// @dev buyListing(): Buy a listing\n  /// @param _unitsToBuy Number of units to buy\n  function buyListing(uint _unitsToBuy)\n    public\n    payable\n  {\n    // Ensure that this is not trying to purchase more than is available.\n    require(_unitsToBuy <= unitsAvailable);\n\n    // Ensure that we are not past the expiration\n    require(now < expiration);\n\n    // Create purchase contract\n    Purchase purchaseContract = PurchaseLibrary.newPurchase(this, msg.sender);\n\n    // Count units as sold\n    unitsAvailable -= _unitsToBuy;\n\n    purchases.push(purchaseContract);\n\n    // TODO STAN: How to call function *AND* transfer value??\n    purchaseContract.pay.value(msg.value)();\n\n    ListingPurchased(purchaseContract);\n  }\n\n  /// @dev close(): Allows a seller to close the listing from further purchases\n  function close()\n    public\n    isSeller\n  {\n    unitsAvailable = 0;\n  }\n\n  /// @dev purchasesLength(): Return number of listings\n  function purchasesLength()\n    public\n    constant\n    returns (uint)\n  {\n      return purchases.length;\n  }\n\n  /// @dev getPurchase(): Return listing info for given listing\n  /// @param _index the index of the listing we want info about\n  function getPurchase(uint _index)\n    public\n    constant\n    returns (Purchase)\n  {\n    return (\n      purchases[_index]\n    );\n  }\n\n}",
  "sourcePath": "/home/gagan/Documents/platform/packages/contracts/contracts/Listing.sol",
  "compiler": {
    "name": "solc",
    "version": "0.4.19+commit.c4cbbb05.Emscripten.clang"
  },
  "schemaVersion": "2.0.0",
  "updatedAt": "2018-04-08T10:31:34.103Z"
}