{
  "contractName": "ListingsRegistry",
  "abi": [
    {
      "constant": true,
      "inputs": [],
      "name": "owner",
      "outputs": [
        {
          "name": "",
          "type": "address"
        }
      ],
      "payable": false,
      "stateMutability": "view",
      "type": "function"
    },
    {
      "constant": true,
      "inputs": [
        {
          "name": "",
          "type": "uint256"
        }
      ],
      "name": "listings",
      "outputs": [
        {
          "name": "",
          "type": "address"
        }
      ],
      "payable": false,
      "stateMutability": "view",
      "type": "function"
    },
    {
      "inputs": [],
      "payable": false,
      "stateMutability": "nonpayable",
      "type": "constructor"
    },
    {
      "anonymous": false,
      "inputs": [
        {
          "indexed": false,
          "name": "_index",
          "type": "uint256"
        }
      ],
      "name": "NewListing",
      "type": "event"
    },
    {
      "constant": true,
      "inputs": [],
      "name": "listingsLength",
      "outputs": [
        {
          "name": "",
          "type": "uint256"
        }
      ],
      "payable": false,
      "stateMutability": "view",
      "type": "function"
    },
    {
      "constant": true,
      "inputs": [
        {
          "name": "_index",
          "type": "uint256"
        }
      ],
      "name": "getListing",
      "outputs": [
        {
          "name": "",
          "type": "address"
        },
        {
          "name": "",
          "type": "address"
        },
        {
          "name": "",
          "type": "bytes32"
        },
        {
          "name": "",
          "type": "uint256"
        },
        {
          "name": "",
          "type": "uint256"
        }
      ],
      "payable": false,
      "stateMutability": "view",
      "type": "function"
    },
    {
      "constant": false,
      "inputs": [
        {
          "name": "_ipfsHash",
          "type": "bytes32"
        },
        {
          "name": "_price",
          "type": "uint256"
        },
        {
          "name": "_unitsAvailable",
          "type": "uint256"
        }
      ],
      "name": "create",
      "outputs": [
        {
          "name": "",
          "type": "uint256"
        }
      ],
      "payable": false,
      "stateMutability": "nonpayable",
      "type": "function"
    }
  ],
  "bytecode": "0x6060604052341561000f57600080fd5b60008054600160a060020a033316600160a060020a03199091161790556109d58061003b6000396000f3006060604052600436106100535763ffffffff60e060020a600035041663107a274a81146100585780637afd81f5146100a85780638da5cb5b146100cd578063b5f8c36b146100fc578063de74e57b14610118575b600080fd5b341561006357600080fd5b61006e60043561012e565b604051600160a060020a0395861681529390941660208401526040808401929092526060830152608082019290925260a001905180910390f35b34156100b357600080fd5b6100bb610325565b60405190815260200160405180910390f35b34156100d857600080fd5b6100e061032c565b604051600160a060020a03909116815260200160405180910390f35b341561010757600080fd5b6100bb60043560243560443561033b565b341561012357600080fd5b6100e0600435610416565b600080600080600060018681548110151561014557fe5b60009182526020909120015460018054600160a060020a03909216918890811061016b57fe5b600091825260209091200154600160a060020a0316638da5cb5b6040518163ffffffff1660e060020a028152600401602060405180830381600087803b15156101b357600080fd5b5af115156101c057600080fd5b505050604051805190506001888154811015156101d957fe5b600091825260209091200154600160a060020a031663c623674f6040518163ffffffff1660e060020a028152600401602060405180830381600087803b151561022157600080fd5b5af1151561022e57600080fd5b5050506040518051905060018981548110151561024757fe5b600091825260209091200154600160a060020a031663a035b1fe6040518163ffffffff1660e060020a028152600401602060405180830381600087803b151561028f57600080fd5b5af1151561029c57600080fd5b5050506040518051905060018a8154811015156102b557fe5b600091825260209091200154600160a060020a031663c6bbd6af6040518163ffffffff1660e060020a028152600401602060405180830381600087803b15156102fd57600080fd5b5af1151561030a57600080fd5b5050506040518051949b939a50919850965091945092505050565b6001545b90565b600054600160a060020a031681565b600060018054806001018281610351919061043e565b916000526020600020900160003387878761036a610467565b600160a060020a0390941684526020840192909252604080840191909152606083019190915260809091019051809103906000f08015156103aa57600080fd5b909190916101000a815481600160a060020a030219169083600160a060020a03160217905550507fd8562534ed9a3ce564a595a66dbcc871a37cff70205ea8bc8d0276dcaa4d1009600180805490500360405190815260200160405180910390a1506001549392505050565b600180548290811061042457fe5b600091825260209091200154600160a060020a0316905081565b81548183558181151161046257600083815260209020610462918101908301610477565b505050565b6040516105148061049683390190565b61032991905b80821115610491576000815560010161047d565b509056006060604052341561000f57600080fd5b6040516080806105148339810160405280805191906020018051919060200180519190602001805160008054600160a060020a03978816600160a060020a031991821617909155600180543390981697909116969096179095555050600291909155600355600455624f1a0042016005556104858061008f6000396000f3006060604052600436106100955763ffffffff60e060020a60003504166328e671b9811461009a5780633742a9f7146100bf57806343d726d6146100f15780634665096d146101065780634884f459146101195780635ebf3e9b146101245780638392fe31146101375780638da5cb5b1461014d578063a035b1fe14610160578063c623674f14610173578063c6bbd6af14610186575b600080fd5b34156100a557600080fd5b6100ad610199565b60405190815260200160405180910390f35b34156100ca57600080fd5b6100d56004356101a0565b604051600160a060020a03909116815260200160405180910390f35b34156100fc57600080fd5b6101046101cc565b005b341561011157600080fd5b6100ad61021a565b610104600435610220565b341561012f57600080fd5b6100d56103ba565b341561014257600080fd5b6100d56004356103c9565b341561015857600080fd5b6100d56103f1565b341561016b57600080fd5b6100ad610400565b341561017e57600080fd5b6100ad610406565b341561019157600080fd5b6100ad61040c565b6006545b90565b60006006828154811015156101b157fe5b600091825260209091200154600160a060020a031692915050565b60005433600160a060020a039081169116146101e757600080fd5b60006004557ffa378a7d48087b5b4be3b8236f6f8829009c67d0dc3a6a431e43385d52ea2d1d60405160405180910390a1565b60055481565b60045460009082111561023257600080fd5b600554421061024057600080fd5b73__PurchaseLibrary_______________________631c6b9b03303360405160e060020a63ffffffff8516028152600160a060020a0392831660048201529116602482015260440160206040518083038186803b151561029f57600080fd5b5af415156102ac57600080fd5b5050506040518051600480548590039055600680549193509150600181016102d48382610412565b506000918252602090912001805473ffffffffffffffffffffffffffffffffffffffff1916600160a060020a038316908117909155631b9265b8346040518263ffffffff1660e060020a0281526004016000604051808303818588803b151561033c57600080fd5b5af1151561034957600080fd5b505050507f2df0d5ee1e33bfff4ba740237ef59eef9093cf4c8ebb55ad1a6e63f6801089be81604051600160a060020a03909116815260200160405180910390a17ffa378a7d48087b5b4be3b8236f6f8829009c67d0dc3a6a431e43385d52ea2d1d60405160405180910390a15050565b600154600160a060020a031681565b60068054829081106103d757fe5b600091825260209091200154600160a060020a0316905081565b600054600160a060020a031681565b60035481565b60025481565b60045481565b8154818355818115116104365760008381526020902061043691810190830161043b565b505050565b61019d91905b808211156104555760008155600101610441565b50905600a165627a7a72305820d8be367637c34dea1af3a46f4ab82b0ab676059074be8f48b25b86782a8ca9630029a165627a7a723058202dceab27bdcb58e2e58d92934dd9071135954dcfbc896f305fd907628e1bd19d0029",
  "source": "pragma solidity 0.4.21;\n\n/// @title Listing\n/// @dev Used to keep marketplace of listings for buyers and sellers\n/// @author Matt Liu <matt@originprotocol.com>, Josh Fraser <josh@originprotocol.com>, Stan James <stan@originprotocol.com>\n\nimport \"./Listing.sol\";\n\ncontract ListingsRegistry {\n\n  /*\n   * Events\n   */\n\n  event NewListing(uint _index);\n\n  /*\n   * Storage\n   */\n\n  // Contract owner\n  address public owner;\n\n  // Array of all listings\n  Listing[] public listings;\n\n\n  /*\n   * Modifiers\n   */\n  modifier isValidListingIndex(uint _index) {\n    require (_index < listings.length);\n    _;\n  }\n\n\n  modifier isOwner() {\n    require (msg.sender == owner);\n    _;\n  }\n\n\n  /*\n   * Public functions\n   */\n\n  function ListingsRegistry()\n    public\n  {\n    // Defines origin admin address - may be removed for public deployment\n    owner = msg.sender;\n  }\n\n  /// @dev listingsLength(): Return number of listings\n  function listingsLength()\n    public\n    constant\n    returns (uint)\n  {\n      return listings.length;\n  }\n\n  /// @dev getListing(): Return listing info for given listing\n  /// @param _index the index of the listing we want info about\n  function getListing(uint _index)\n    public\n    constant\n    returns (Listing, address, bytes32, uint, uint)\n  {\n    // Test in truffle deelop:\n    // ListingsRegistry.deployed().then(function(instance){ return instance.getListing.call(0) })\n\n    // TODO (Stan): Determine if less gas to do one array lookup into var, and\n    // return var struct parts\n    return (\n      listings[_index],\n      listings[_index].owner(),\n      listings[_index].ipfsHash(),\n      listings[_index].price(),\n      listings[_index].unitsAvailable()\n    );\n  }\n\n  /// @dev create(): Create a new listing\n  /// @param _ipfsHash Hash of data on ipfsHash\n  /// @param _price Price of unit. Currently ETH, will change to 0T\n  /// @param _unitsAvailable Number of units availabe for sale at start\n  ///\n  /// Sample Remix invocation:\n  /// [\"0x01\",\"0x7d\",\"0xfd\",\"0x85\",\"0xd4\",\"0xf6\",\"0xcb\",\"0x4d\",\"0xcd\",\"0x71\",\"0x5a\",\"0x88\",\"0x10\",\"0x1f\",\"0x7b\",\"0x1f\",\"0x06\",\"0xcd\",\"0x1e\",\"0x00\",\"0x9b\",\"0x23\",\"0x27\",\"0xa0\",\"0x80\",\"0x9d\",\"0x01\",\"0xeb\",\"0x9c\",\"0x91\",\"0xf2\",\"0x31\"],\"3140000000000000000\",42\n  function create(\n    bytes32 _ipfsHash,\n    uint _price,\n    uint _unitsAvailable\n  )\n    public\n    returns (uint)\n  {\n    listings.push(new Listing(msg.sender, _ipfsHash, _price, _unitsAvailable));\n    emit NewListing(listings.length-1);\n    return listings.length;\n  }\n\n\n}\n",
  "sourcePath": "/home/gagan/Documents/origin-platform/contracts/contracts/ListingsRegistry.sol",
  "compiler": {
    "name": "solc",
    "version": "0.4.21+commit.dfe3193c.Emscripten.clang"
  },
  "schemaVersion": "2.0.0",
  "updatedAt": "2018-04-29T17:21:27.400Z"
}