{
  "contractName": "Listing",
  "abi": [
    {
      "constant": true,
      "inputs": [],
      "name": "created",
      "outputs": [
        {
          "name": "",
          "type": "uint256"
        }
      ],
      "payable": false,
      "stateMutability": "view",
      "type": "function"
    },
    {
      "constant": true,
      "inputs": [],
      "name": "expiration",
      "outputs": [
        {
          "name": "",
          "type": "uint256"
        }
      ],
      "payable": false,
      "stateMutability": "view",
      "type": "function"
    },
    {
      "constant": true,
      "inputs": [],
      "name": "listingRegistry",
      "outputs": [
        {
          "name": "",
          "type": "address"
        }
      ],
      "payable": false,
      "stateMutability": "view",
      "type": "function"
    },
    {
      "constant": true,
      "inputs": [
        {
          "name": "",
          "type": "uint256"
        }
      ],
      "name": "purchases",
      "outputs": [
        {
          "name": "",
          "type": "address"
        }
      ],
      "payable": false,
      "stateMutability": "view",
      "type": "function"
    },
    {
      "constant": true,
      "inputs": [],
      "name": "owner",
      "outputs": [
        {
          "name": "",
          "type": "address"
        }
      ],
      "payable": false,
      "stateMutability": "view",
      "type": "function"
    },
    {
      "constant": true,
      "inputs": [],
      "name": "price",
      "outputs": [
        {
          "name": "",
          "type": "uint256"
        }
      ],
      "payable": false,
      "stateMutability": "view",
      "type": "function"
    },
    {
      "constant": true,
      "inputs": [],
      "name": "ipfsHash",
      "outputs": [
        {
          "name": "",
          "type": "bytes32"
        }
      ],
      "payable": false,
      "stateMutability": "view",
      "type": "function"
    },
    {
      "constant": true,
      "inputs": [],
      "name": "unitsAvailable",
      "outputs": [
        {
          "name": "",
          "type": "uint256"
        }
      ],
      "payable": false,
      "stateMutability": "view",
      "type": "function"
    },
    {
      "inputs": [
        {
          "name": "_owner",
          "type": "address"
        },
        {
          "name": "_ipfsHash",
          "type": "bytes32"
        },
        {
          "name": "_price",
          "type": "uint256"
        },
        {
          "name": "_unitsAvailable",
          "type": "uint256"
        }
      ],
      "payable": false,
      "stateMutability": "nonpayable",
      "type": "constructor"
    },
    {
      "anonymous": false,
      "inputs": [
        {
          "indexed": false,
          "name": "_purchaseContract",
          "type": "address"
        }
      ],
      "name": "ListingPurchased",
      "type": "event"
    },
    {
      "anonymous": false,
      "inputs": [],
      "name": "ListingChange",
      "type": "event"
    },
    {
      "constant": true,
      "inputs": [],
      "name": "data",
      "outputs": [
        {
          "name": "_owner",
          "type": "address"
        },
        {
          "name": "_ipfsHash",
          "type": "bytes32"
        },
        {
          "name": "_price",
          "type": "uint256"
        },
        {
          "name": "_unitsAvailable",
          "type": "uint256"
        },
        {
          "name": "_created",
          "type": "uint256"
        },
        {
          "name": "_expiration",
          "type": "uint256"
        }
      ],
      "payable": false,
      "stateMutability": "view",
      "type": "function"
    },
    {
      "constant": false,
      "inputs": [
        {
          "name": "_unitsToBuy",
          "type": "uint256"
        }
      ],
      "name": "buyListing",
      "outputs": [],
      "payable": true,
      "stateMutability": "payable",
      "type": "function"
    },
    {
      "constant": false,
      "inputs": [],
      "name": "close",
      "outputs": [],
      "payable": false,
      "stateMutability": "nonpayable",
      "type": "function"
    },
    {
      "constant": true,
      "inputs": [],
      "name": "purchasesLength",
      "outputs": [
        {
          "name": "",
          "type": "uint256"
        }
      ],
      "payable": false,
      "stateMutability": "view",
      "type": "function"
    },
    {
      "constant": true,
      "inputs": [
        {
          "name": "_index",
          "type": "uint256"
        }
      ],
      "name": "getPurchase",
      "outputs": [
        {
          "name": "",
          "type": "address"
        }
      ],
      "payable": false,
      "stateMutability": "view",
      "type": "function"
    }
  ],
  "bytecode": "0x608060405234801561001057600080fd5b50604051608080610609833981016040908152815160208301519183015160609093015160008054600160a060020a03938416600160a060020a03199182161790915560018054339094169390911692909217909155600291909155600391909155600455426005819055624f1a0001600655610577806100926000396000f3006080604052600436106100c45763ffffffff7c010000000000000000000000000000000000000000000000000000000060003504166328e671b981146100c9578063325a19f1146100f05780633742a9f71461010557806343d726d6146101395780634665096d146101505780634884f459146101655780635ebf3e9b1461017057806373d4a13a146101855780638392fe31146101d75780638da5cb5b146101ef578063a035b1fe14610204578063c623674f14610219578063c6bbd6af1461022e575b600080fd5b3480156100d557600080fd5b506100de610243565b60408051918252519081900360200190f35b3480156100fc57600080fd5b506100de610249565b34801561011157600080fd5b5061011d60043561024f565b60408051600160a060020a039092168252519081900360200190f35b34801561014557600080fd5b5061014e61027b565b005b34801561015c57600080fd5b506100de6102c6565b61014e6004356102cc565b34801561017c57600080fd5b5061011d6104cd565b34801561019157600080fd5b5061019a6104dc565b60408051600160a060020a0390971687526020870195909552858501939093526060850191909152608084015260a0830152519081900360c00190f35b3480156101e357600080fd5b5061011d600435610502565b3480156101fb57600080fd5b5061011d61052a565b34801561021057600080fd5b506100de610539565b34801561022557600080fd5b506100de61053f565b34801561023a57600080fd5b506100de610545565b60075490565b60055481565b600060078281548110151561026057fe5b600091825260209091200154600160a060020a031692915050565b60005433600160a060020a0390811691161461029657600080fd5b600060048190556040517ffa378a7d48087b5b4be3b8236f6f8829009c67d0dc3a6a431e43385d52ea2d1d9190a1565b60065481565b6004546000908211156102de57600080fd5b60065442106102ec57600080fd5b604080517f1c6b9b03000000000000000000000000000000000000000000000000000000008152600160a060020a03308116600483015233166024820152905173__PurchaseLibrary_______________________91631c6b9b03916044808301926020929190829003018186803b15801561036757600080fd5b505af415801561037b573d6000803e3d6000fd5b505050506040513d602081101561039157600080fd5b50516004805484900381556007805460018101825560009182527fa66cc928b5edb82af9bd49922954155ab7b0942694bea4ce44661d9a8736c68801805473ffffffffffffffffffffffffffffffffffffffff1916600160a060020a038516908117909155604080517f1b9265b800000000000000000000000000000000000000000000000000000000815290519495509093631b9265b8933493838201939092919082900301818588803b15801561044957600080fd5b505af115801561045d573d6000803e3d6000fd5b505060408051600160a060020a038616815290517f2df0d5ee1e33bfff4ba740237ef59eef9093cf4c8ebb55ad1a6e63f6801089be94509081900360200192509050a16040517ffa378a7d48087b5b4be3b8236f6f8829009c67d0dc3a6a431e43385d52ea2d1d90600090a15050565b600154600160a060020a031681565b600054600254600354600454600554600654600160a060020a0390951694909192939495565b600780548290811061051057fe5b600091825260209091200154600160a060020a0316905081565b600054600160a060020a031681565b60035481565b60025481565b600454815600a165627a7a723058209b41c467323a3a9e5c1be75d91eda4216aba4657dc8701e8f599b43dac9acbe50029",
  "source": "pragma solidity 0.4.23;\n\n/// @title Listing\n/// @dev An indiviual Origin Listing representing an offer for booking/purchase\n\nimport \"./Purchase.sol\";\nimport \"./PurchaseLibrary.sol\";\n\n\ncontract Listing {\n\n  /*\n   * Events\n   */\n\n  event ListingPurchased(Purchase _purchaseContract);\n  event ListingChange();\n\n    /*\n    * Storage\n    */\n\n    address public owner;\n    address public listingRegistry; // TODO: Define interface for real ListingRegistry ?\n    // Assume IPFS defaults for hash: function:0x12=sha2, size:0x20=256 bits\n    // See: https://ethereum.stackexchange.com/a/17112/20332\n    // This assumption may have to change in future, but saves space now\n    bytes32 public ipfsHash;\n    uint public price;\n    uint public unitsAvailable;\n    uint public created;\n    uint public expiration;\n    Purchase[] public purchases;\n\n\n    constructor (\n      address _owner,\n      bytes32 _ipfsHash,\n      uint _price,\n      uint _unitsAvailable\n    )\n    public\n    {\n      owner = _owner;\n      listingRegistry = msg.sender; // ListingRegistry(msg.sender);\n      ipfsHash = _ipfsHash;\n      price = _price;\n      unitsAvailable = _unitsAvailable;\n      created = now;\n      expiration = created + 60 days;\n    }\n\n  /*\n    * Modifiers\n    */\n\n  modifier isSeller() {\n    require(msg.sender == owner);\n    _;\n  }\n\n  /*\n    * Public functions\n    */\n\n  function data()\n    public\n    view\n    returns (address _owner, bytes32 _ipfsHash, uint _price, uint _unitsAvailable, uint _created, uint _expiration)\n  {\n    return (owner, ipfsHash, price, unitsAvailable, created, expiration);\n  }\n\n  /// @dev buyListing(): Buy a listing\n  /// @param _unitsToBuy Number of units to buy\n  function buyListing(uint _unitsToBuy)\n    public\n    payable\n  {\n    // Ensure that this is not trying to purchase more than is available.\n    require(_unitsToBuy <= unitsAvailable);\n\n    // Ensure that we are not past the expiration\n    require(now < expiration);\n\n    // Create purchase contract\n    Purchase purchaseContract = PurchaseLibrary.newPurchase(this, msg.sender);\n\n    // Count units as sold\n    unitsAvailable -= _unitsToBuy;\n\n    purchases.push(purchaseContract);\n\n    // TODO STAN: How to call function *AND* transfer value??\n    purchaseContract.pay.value(msg.value)();\n\n    emit ListingPurchased(purchaseContract);\n    emit ListingChange();\n  }\n\n  /// @dev close(): Allows a seller to close the listing from further purchases\n  function close()\n    public\n    isSeller\n  {\n    unitsAvailable = 0;\n    emit ListingChange();\n  }\n\n  /// @dev purchasesLength(): Return number of purchases for a given listing\n  function purchasesLength()\n    public\n    constant\n    returns (uint)\n  {\n      return purchases.length;\n  }\n\n  /// @dev getPurchase(): Return purchase info for a given listing\n  /// @param _index the index of the listing we want info about\n  function getPurchase(uint _index)\n    public\n    constant\n    returns (Purchase)\n  {\n    return (\n      purchases[_index]\n    );\n  }\n\n}\n",
  "sourcePath": "/home/gagan/Documents/origin-platform/contracts/contracts/Listing.sol",
  "compiler": {
    "name": "solc",
    "version": "0.4.23+commit.124ca40d.Emscripten.clang"
  },
  "schemaVersion": "2.0.0",
  "updatedAt": "2018-05-20T22:01:21.481Z"
}