{
  "contractName": "PurchaseLibrary",
  "abi": [
    {
      "constant": false,
      "inputs": [
        {
          "name": "listing",
          "type": "Listing"
        },
        {
          "name": "_buyer",
          "type": "address"
        }
      ],
      "name": "newPurchase",
      "outputs": [
        {
          "name": "purchase",
          "type": "Purchase"
        }
      ],
      "payable": false,
      "stateMutability": "nonpayable",
      "type": "function"
    }
  ],
  "bytecode": "0x610cac610030600b82828239805160001a6073146000811461002057610022565bfe5b5030600052607381538281f30073000000000000000000000000000000000000000030146080604052600436106100575763ffffffff7c01000000000000000000000000000000000000000000000000000000006000350416631c6b9b03811461005c575b600080fd5b81801561006857600080fd5b5061009073ffffffffffffffffffffffffffffffffffffffff600435811690602435166100b9565b6040805173ffffffffffffffffffffffffffffffffffffffff9092168252519081900360200190f35b600082826100c561010d565b73ffffffffffffffffffffffffffffffffffffffff928316815291166020820152604080519182900301906000f080158015610105573d6000803e3d6000fd5b509392505050565b604051610b638061011e83390190560060806040526000805460ff1916905534801561001a57600080fd5b50604051604080610b63833981016040819052815160209092015160018054600160a060020a031916600160a060020a03808416919091179091556000805461010060a860020a0319166101009286169290920291909117908190554260025590917f297fa9ffcce4a8f1e427986966e131669169a104212e72d48d20e935391873399160ff1690808260068111156100af57fe5b60ff16815260200191505060405180910390a15050610a90806100d36000396000f3006080604052600436106100955763ffffffff60e060020a6000350416631b9265b8811461009a578063325a19f1146100a45780634fd6137c146100cb578063546be7b5146100e05780637150d8ae146100fe57806373d4a13a1461012f578063a3c0ac1014610191578063c040e6b8146101a6578063d5165327146101df578063e5a4e1be146101f4578063f96182cf14610209575b600080fd5b6100a2610227565b005b3480156100b057600080fd5b506100b9610320565b60408051918252519081900360200190f35b3480156100d757600080fd5b506100a2610326565b3480156100ec57600080fd5b506100a260ff6004351660243561045e565b34801561010a57600080fd5b506101136105f6565b60408051600160a060020a039092168252519081900360200190f35b34801561013b57600080fd5b50610144610605565b6040518086600681111561015457fe5b60ff168152600160a060020a0395861660208201529390941660408085019190915260608401929092526080830152519081900360a00192509050f35b34801561019d57600080fd5b506100a2610644565b3480156101b257600080fd5b506101bb610737565b604051808260068111156101cb57fe5b60ff16815260200191505060405180910390f35b3480156101eb57600080fd5b5061011361076f565b34801561020057600080fd5b506100b9610783565b34801561021557600080fd5b506100a260ff60043516602435610789565b600080610232610737565b600681111561023d57fe5b1461024757600080fd5b600060019054906101000a9004600160a060020a0316600160a060020a031663a035b1fe6040518163ffffffff1660e060020a028152600401602060405180830381600087803b15801561029a57600080fd5b505af11580156102ae573d6000803e3d6000fd5b505050506040513d60208110156102c457600080fd5b5051600160a060020a033016311061031d576000805460ff191660011790819055604051600080516020610a458339815191529160ff16908082600681111561030957fe5b60ff16815260200191505060405180910390a15b50565b60025481565b60015433600160a060020a03908116911614806103cd5750600060019054906101000a9004600160a060020a0316600160a060020a0316638da5cb5b6040518163ffffffff1660e060020a028152600401602060405180830381600087803b15801561039157600080fd5b505af11580156103a5573d6000803e3d6000fd5b505050506040513d60208110156103bb57600080fd5b505133600160a060020a039081169116145b15156103d857600080fd5b60026103e2610737565b60068111156103ed57fe5b148061040b575060036103fe610737565b600681111561040957fe5b145b151561041657600080fd5b6000805460ff191660041790819055604051600080516020610a458339815191529160ff16908082600681111561044957fe5b60ff16815260200191505060405180910390a1565b60015433600160a060020a0390811691161461047957600080fd5b600280610484610737565b600681111561048f57fe5b1461049957600080fd5b600160ff841610156104aa57600080fd5b600560ff841611156104bb57600080fd5b6000805460ff191660031790819055604051600080516020610a458339815191529160ff1690808260068111156104ee57fe5b60ff16815260200191505060405180910390a17f8c0b60a2085201dd932be0d3d6a63cccfb7d8ba44b923a03d2ff02aaa6dfcfcc600160009054906101000a9004600160a060020a0316600060019054906101000a9004600160a060020a0316600160a060020a0316638da5cb5b6040518163ffffffff1660e060020a028152600401602060405180830381600087803b15801561058b57600080fd5b505af115801561059f573d6000803e3d6000fd5b505050506040513d60208110156105b557600080fd5b505160408051600160a060020a03938416815292909116602083015260018282015260ff8616606083015260808201859052519081900360a00190a1505050565b600154600160a060020a031681565b6000806000806000610615610737565b6000546001546002546003549399610100909304600160a060020a039081169950909116965094509092509050565b600060019054906101000a9004600160a060020a0316600160a060020a0316638da5cb5b6040518163ffffffff1660e060020a028152600401602060405180830381600087803b15801561069757600080fd5b505af11580156106ab573d6000803e3d6000fd5b505050506040513d60208110156106c157600080fd5b505133600160a060020a039081169116146106db57600080fd5b6001806106e6610737565b60068111156106f157fe5b146106fb57600080fd5b6000805460ff19166002179081905542621baf8001600355604051600080516020610a458339815191529160ff16908082600681111561030957fe5b6000600260005460ff16600681111561074c57fe5b1415610764576003544211156107645750600361076c565b5060005460ff165b90565b6000546101009004600160a060020a031681565b60035481565b600060019054906101000a9004600160a060020a0316600160a060020a0316638da5cb5b6040518163ffffffff1660e060020a028152600401602060405180830381600087803b1580156107dc57600080fd5b505af11580156107f0573d6000803e3d6000fd5b505050506040513d602081101561080657600080fd5b505133600160a060020a0390811691161461082057600080fd5b60038061082b610737565b600681111561083657fe5b1461084057600080fd5b600160ff8416101561085157600080fd5b600560ff8416111561086257600080fd5b6000805460ff1916600690811791829055604051600080516020610a458339815191529260ff16918190839081111561089757fe5b60ff16815260200191505060405180910390a17f8c0b60a2085201dd932be0d3d6a63cccfb7d8ba44b923a03d2ff02aaa6dfcfcc600060019054906101000a9004600160a060020a0316600160a060020a0316638da5cb5b6040518163ffffffff1660e060020a028152600401602060405180830381600087803b15801561091e57600080fd5b505af1158015610932573d6000803e3d6000fd5b505050506040513d602081101561094857600080fd5b505160015460408051600160a060020a03938416815292909116602083015260008282015260ff8616606083015260808201859052519081900360a00190a1600060019054906101000a9004600160a060020a0316600160a060020a0316638da5cb5b6040518163ffffffff1660e060020a028152600401602060405180830381600087803b1580156109da57600080fd5b505af11580156109ee573d6000803e3d6000fd5b505050506040513d6020811015610a0457600080fd5b5051604051600160a060020a039182169130163180156108fc02916000818181858888f19350505050158015610a3e573d6000803e3d6000fd5b505050505600297fa9ffcce4a8f1e427986966e131669169a104212e72d48d20e93539187339a165627a7a7230582003adf7be21cc8c4df2039245d27d724aeeacdf8df2c41f79ebca0b2c8e387c160029a165627a7a72305820339ed4f14f9cd8583248bd99eddfdee014c1811706d872450144f3fd7cf1860c0029",
  "source": "pragma solidity 0.4.23;\n\n/// @title PurchaseLibrary\n/// @dev An collection of helper tools for a purchase\n\nimport \"./Purchase.sol\";\nimport \"./Listing.sol\";\n\nlibrary PurchaseLibrary {\n\n    function newPurchase(Listing listing, address _buyer)\n    public\n    returns (Purchase purchase)\n    {\n        purchase = new Purchase(listing, _buyer);\n    }\n\n}\n",
  "sourcePath": "/home/gagan/Documents/origin-platform/contracts/contracts/PurchaseLibrary.sol",
  "compiler": {
    "name": "solc",
    "version": "0.4.23+commit.124ca40d.Emscripten.clang"
  },
  "schemaVersion": "2.0.0",
  "updatedAt": "2018-05-20T22:01:20.392Z"
}