{
  "contractName": "Purchase",
  "abi": [
    {
      "constant": true,
      "inputs": [],
      "name": "created",
      "outputs": [
        {
          "name": "",
          "type": "uint256"
        }
      ],
      "payable": false,
      "stateMutability": "view",
      "type": "function"
    },
    {
      "constant": true,
      "inputs": [],
      "name": "buyer",
      "outputs": [
        {
          "name": "",
          "type": "address"
        }
      ],
      "payable": false,
      "stateMutability": "view",
      "type": "function"
    },
    {
      "constant": true,
      "inputs": [],
      "name": "listingContract",
      "outputs": [
        {
          "name": "",
          "type": "address"
        }
      ],
      "payable": false,
      "stateMutability": "view",
      "type": "function"
    },
    {
      "constant": true,
      "inputs": [],
      "name": "buyerTimout",
      "outputs": [
        {
          "name": "",
          "type": "uint256"
        }
      ],
      "payable": false,
      "stateMutability": "view",
      "type": "function"
    },
    {
      "inputs": [
        {
          "name": "_listingContractAddress",
          "type": "address"
        },
        {
          "name": "_buyer",
          "type": "address"
        }
      ],
      "payable": false,
      "stateMutability": "nonpayable",
      "type": "constructor"
    },
    {
      "constant": false,
      "inputs": [],
      "name": "pay",
      "outputs": [],
      "payable": true,
      "stateMutability": "payable",
      "type": "function"
    },
    {
      "constant": true,
      "inputs": [],
      "name": "stage",
      "outputs": [
        {
          "name": "_stage",
          "type": "uint8"
        }
      ],
      "payable": false,
      "stateMutability": "view",
      "type": "function"
    },
    {
      "constant": false,
      "inputs": [],
      "name": "buyerConfirmReceipt",
      "outputs": [],
      "payable": false,
      "stateMutability": "nonpayable",
      "type": "function"
    },
    {
      "constant": false,
      "inputs": [],
      "name": "sellerGetPayout",
      "outputs": [],
      "payable": false,
      "stateMutability": "nonpayable",
      "type": "function"
    },
    {
      "constant": false,
      "inputs": [],
      "name": "openDispute",
      "outputs": [],
      "payable": false,
      "stateMutability": "nonpayable",
      "type": "function"
    }
  ],
  "bytecode": "0x60606040526000805460ff19169055341561001957600080fd5b6040516040806105d1833981016040528080519190602001805160018054600160a060020a031916600160a060020a039283161790556000805461010060a860020a031916610100959092169490940217835550504260025561054f90819061008290396000f30060606040526004361061007f5763ffffffff60e060020a6000350416631b9265b88114610084578063252455cc1461008e578063325a19f1146100a15780634fd6137c146100c65780637150d8ae146100d9578063c040e6b814610108578063d51653271461013f578063e5a4e1be14610152578063f3c76fa914610165575b600080fd5b61008c610178565b005b341561009957600080fd5b61008c61022b565b34156100ac57600080fd5b6100b4610383565b60405190815260200160405180910390f35b34156100d157600080fd5b61008c610389565b34156100e457600080fd5b6100ec610477565b604051600160a060020a03909116815260200160405180910390f35b341561011357600080fd5b61011b610486565b6040518082600581111561012b57fe5b60ff16815260200191505060405180910390f35b341561014a57600080fd5b6100ec6104be565b341561015d57600080fd5b6100b46104d2565b341561017057600080fd5b61008c6104d8565b600080610183610486565b600581111561018e57fe5b1461019857600080fd5b600080546101009004600160a060020a03169063a035b1fe90604051602001526040518163ffffffff1660e060020a028152600401602060405180830381600087803b15156101e657600080fd5b6102c65a03f115156101f757600080fd5b5050506040518051600160a060020a03301631109050610228576000805460ff1916600117905542621baf80016003555b50565b600080546101009004600160a060020a031690638da5cb5b90604051602001526040518163ffffffff1660e060020a028152600401602060405180830381600087803b151561027957600080fd5b6102c65a03f1151561028a57600080fd5b50505060405180519050600160a060020a031633600160a060020a03161415156102b357600080fd5b6002806102be610486565b60058111156102c957fe5b146102d357600080fd5b6000805460ff1916600517808255600160a060020a036101009091041690638da5cb5b90604051602001526040518163ffffffff1660e060020a028152600401602060405180830381600087803b151561032c57600080fd5b6102c65a03f1151561033d57600080fd5b50505060405180519050600160a060020a03166108fc30600160a060020a0316319081150290604051600060405180830381858888f19350505050151561022857600080fd5b60025481565b60015433600160a060020a039081169116148061041f5750600080546101009004600160a060020a031690638da5cb5b90604051602001526040518163ffffffff1660e060020a028152600401602060405180830381600087803b15156103ef57600080fd5b6102c65a03f1151561040057600080fd5b50505060405180519050600160a060020a031633600160a060020a0316145b151561042a57600080fd5b6001610434610486565b600581111561043f57fe5b148061045d57506002610450610486565b600581111561045b57fe5b145b151561046857600080fd5b6000805460ff19166003179055565b600154600160a060020a031681565b6000600160005460ff16600581111561049b57fe5b14156104b3576003544211156104b3575060026104bb565b5060005460ff165b90565b6000546101009004600160a060020a031681565b60035481565b60015433600160a060020a039081169116146104f357600080fd5b6001806104fe610486565b600581111561050957fe5b1461051357600080fd5b506000805460ff191660021790555600a165627a7a723058209957082e75a608964d51a7be8ccad06de84b658bfef88e97c62b01d8df5336040029",
  "source": "pragma solidity ^0.4.11;\n\n/// @title Purchase\n/// @dev An purchase Origin Listing representing a purchase/booking\nimport \"./Listing.sol\";\n\n\ncontract Purchase {\n\n  enum Stages {\n    AWAITING_PAYMENT, // Buyer hasn't paid full amount yet\n    BUYER_PENDING, // Waiting for buyer to confirm receipt\n    SELLER_PENDING, // Waiting for seller to confirm all is good\n    IN_DISPUTE, // We are in a dispute\n    REVIEW_PERIOD, // Time for reviews (only when transaction did not go through)\n    COMPLETE // It's all over\n  }\n\n  /*\n  * Storage\n  */\n\n  Stages private internalStage = Stages.AWAITING_PAYMENT; \n\n  Listing public listingContract; // listing that is being purchased\n  address public buyer; // User who is buying. Seller is derived from listing\n  uint public created;\n  uint public buyerTimout;\n\n  /*\n  * Modifiers\n  */\n\n  modifier isSeller() {\n    require(msg.sender == listingContract.owner());\n    _;\n  }\n\n  modifier isBuyer() {\n    require(msg.sender == buyer);\n    _;\n  }\n\n  modifier atStage(Stages _stage) {\n    require(stage() == _stage);\n    _;\n  }\n\n  /*\n  * Public functions\n  */\n\n  function Purchase(\n    address _listingContractAddress,\n    address _buyer\n  )\n  public\n  {\n    buyer = _buyer;\n    listingContract = Listing(_listingContractAddress);\n    created = now;\n  }\n\n  // Pay for listing\n  // We used to limit this to buyer, but that prevents Listing contract from\n  // paying\n  function pay()\n  public\n  payable\n  atStage(Stages.AWAITING_PAYMENT)\n  {\n    if (this.balance >= listingContract.price()) {\n      // Buyer (or their proxy) has paid enough to cover purchase\n      internalStage = Stages.BUYER_PENDING;\n      buyerTimout = now + 21 days;\n    }\n    // Possible that nothing happens, and contract just accumulates sent value\n  }\n\n  function stage()\n  public\n  view \n  returns (Stages _stage)\n  {\n    if (internalStage == Stages.BUYER_PENDING) {\n      if (now > buyerTimout) {\n        return Stages.SELLER_PENDING;\n      }\n    }\n    return internalStage;\n  }\n\n  function buyerConfirmReceipt()\n  public\n  isBuyer\n  atStage(Stages.BUYER_PENDING)\n  {\n      internalStage = Stages.SELLER_PENDING;\n  }\n\n  function sellerGetPayout()\n  public\n  isSeller\n  atStage(Stages.SELLER_PENDING)\n  {\n    internalStage = Stages.COMPLETE;\n\n    // Send contract funds to seller (ie owner of Listing)\n    // Transfering money always needs to be the last thing we do, do avoid\n    // rentrancy bugs. (Though here the seller would just be getting their own money)\n    listingContract.owner().transfer(this.balance);\n  }\n\n  function openDispute()\n  public\n  {\n    // Must be buyer or seller\n    require(\n      (msg.sender == buyer) ||\n      (msg.sender == listingContract.owner())\n    );\n\n    // Must be in a valid stage\n    require(\n      (stage() == Stages.BUYER_PENDING) ||\n      (stage() == Stages.SELLER_PENDING)\n    );\n\n    internalStage = Stages.IN_DISPUTE;\n\n    // TODO: Create a dispute contract?\n    // Right now there's no way to exit this state.\n  }\n}\n\n",
  "sourcePath": "/home/gagan/Documents/platform/packages/contracts/contracts/Purchase.sol",
  "compiler": {
    "name": "solc",
    "version": "0.4.19+commit.c4cbbb05.Emscripten.clang"
  },
  "schemaVersion": "2.0.0",
  "updatedAt": "2018-04-08T10:30:43.616Z"
}