{
  "contractName": "Purchase",
  "abi": [
    {
      "constant": true,
      "inputs": [],
      "name": "created",
      "outputs": [
        {
          "name": "",
          "type": "uint256"
        }
      ],
      "payable": false,
      "stateMutability": "view",
      "type": "function"
    },
    {
      "constant": true,
      "inputs": [],
      "name": "buyer",
      "outputs": [
        {
          "name": "",
          "type": "address"
        }
      ],
      "payable": false,
      "stateMutability": "view",
      "type": "function"
    },
    {
      "constant": true,
      "inputs": [],
      "name": "listingContract",
      "outputs": [
        {
          "name": "",
          "type": "address"
        }
      ],
      "payable": false,
      "stateMutability": "view",
      "type": "function"
    },
    {
      "constant": true,
      "inputs": [],
      "name": "buyerTimout",
      "outputs": [
        {
          "name": "",
          "type": "uint256"
        }
      ],
      "payable": false,
      "stateMutability": "view",
      "type": "function"
    },
    {
      "inputs": [
        {
          "name": "_listingContractAddress",
          "type": "address"
        },
        {
          "name": "_buyer",
          "type": "address"
        }
      ],
      "payable": false,
      "stateMutability": "nonpayable",
      "type": "constructor"
    },
    {
      "anonymous": false,
      "inputs": [
        {
          "indexed": false,
          "name": "stage",
          "type": "uint8"
        }
      ],
      "name": "PurchaseChange",
      "type": "event"
    },
    {
      "anonymous": false,
      "inputs": [
        {
          "indexed": false,
          "name": "reviewer",
          "type": "address"
        },
        {
          "indexed": false,
          "name": "reviewee",
          "type": "address"
        },
        {
          "indexed": false,
          "name": "revieweeRole",
          "type": "uint8"
        },
        {
          "indexed": false,
          "name": "rating",
          "type": "uint8"
        },
        {
          "indexed": false,
          "name": "ipfsHash",
          "type": "bytes32"
        }
      ],
      "name": "PurchaseReview",
      "type": "event"
    },
    {
      "constant": true,
      "inputs": [],
      "name": "data",
      "outputs": [
        {
          "name": "_stage",
          "type": "uint8"
        },
        {
          "name": "_listingContract",
          "type": "address"
        },
        {
          "name": "_buyer",
          "type": "address"
        },
        {
          "name": "_created",
          "type": "uint256"
        },
        {
          "name": "_buyerTimout",
          "type": "uint256"
        }
      ],
      "payable": false,
      "stateMutability": "view",
      "type": "function"
    },
    {
      "constant": false,
      "inputs": [],
      "name": "pay",
      "outputs": [],
      "payable": true,
      "stateMutability": "payable",
      "type": "function"
    },
    {
      "constant": true,
      "inputs": [],
      "name": "stage",
      "outputs": [
        {
          "name": "_stage",
          "type": "uint8"
        }
      ],
      "payable": false,
      "stateMutability": "view",
      "type": "function"
    },
    {
      "constant": false,
      "inputs": [],
      "name": "sellerConfirmShipped",
      "outputs": [],
      "payable": false,
      "stateMutability": "nonpayable",
      "type": "function"
    },
    {
      "constant": false,
      "inputs": [
        {
          "name": "_rating",
          "type": "uint8"
        },
        {
          "name": "_ipfsHash",
          "type": "bytes32"
        }
      ],
      "name": "buyerConfirmReceipt",
      "outputs": [],
      "payable": false,
      "stateMutability": "nonpayable",
      "type": "function"
    },
    {
      "constant": false,
      "inputs": [
        {
          "name": "_rating",
          "type": "uint8"
        },
        {
          "name": "_ipfsHash",
          "type": "bytes32"
        }
      ],
      "name": "sellerCollectPayout",
      "outputs": [],
      "payable": false,
      "stateMutability": "nonpayable",
      "type": "function"
    },
    {
      "constant": false,
      "inputs": [],
      "name": "openDispute",
      "outputs": [],
      "payable": false,
      "stateMutability": "nonpayable",
      "type": "function"
    }
  ],
  "bytecode": "0x60806040526000805460ff1916905534801561001a57600080fd5b50604051604080610b63833981016040819052815160209092015160018054600160a060020a031916600160a060020a03808416919091179091556000805461010060a860020a0319166101009286169290920291909117908190554260025590917f297fa9ffcce4a8f1e427986966e131669169a104212e72d48d20e935391873399160ff1690808260068111156100af57fe5b60ff16815260200191505060405180910390a15050610a90806100d36000396000f3006080604052600436106100955763ffffffff60e060020a6000350416631b9265b8811461009a578063325a19f1146100a45780634fd6137c146100cb578063546be7b5146100e05780637150d8ae146100fe57806373d4a13a1461012f578063a3c0ac1014610191578063c040e6b8146101a6578063d5165327146101df578063e5a4e1be146101f4578063f96182cf14610209575b600080fd5b6100a2610227565b005b3480156100b057600080fd5b506100b9610320565b60408051918252519081900360200190f35b3480156100d757600080fd5b506100a2610326565b3480156100ec57600080fd5b506100a260ff6004351660243561045e565b34801561010a57600080fd5b506101136105f6565b60408051600160a060020a039092168252519081900360200190f35b34801561013b57600080fd5b50610144610605565b6040518086600681111561015457fe5b60ff168152600160a060020a0395861660208201529390941660408085019190915260608401929092526080830152519081900360a00192509050f35b34801561019d57600080fd5b506100a2610644565b3480156101b257600080fd5b506101bb610737565b604051808260068111156101cb57fe5b60ff16815260200191505060405180910390f35b3480156101eb57600080fd5b5061011361076f565b34801561020057600080fd5b506100b9610783565b34801561021557600080fd5b506100a260ff60043516602435610789565b600080610232610737565b600681111561023d57fe5b1461024757600080fd5b600060019054906101000a9004600160a060020a0316600160a060020a031663a035b1fe6040518163ffffffff1660e060020a028152600401602060405180830381600087803b15801561029a57600080fd5b505af11580156102ae573d6000803e3d6000fd5b505050506040513d60208110156102c457600080fd5b5051600160a060020a033016311061031d576000805460ff191660011790819055604051600080516020610a458339815191529160ff16908082600681111561030957fe5b60ff16815260200191505060405180910390a15b50565b60025481565b60015433600160a060020a03908116911614806103cd5750600060019054906101000a9004600160a060020a0316600160a060020a0316638da5cb5b6040518163ffffffff1660e060020a028152600401602060405180830381600087803b15801561039157600080fd5b505af11580156103a5573d6000803e3d6000fd5b505050506040513d60208110156103bb57600080fd5b505133600160a060020a039081169116145b15156103d857600080fd5b60026103e2610737565b60068111156103ed57fe5b148061040b575060036103fe610737565b600681111561040957fe5b145b151561041657600080fd5b6000805460ff191660041790819055604051600080516020610a458339815191529160ff16908082600681111561044957fe5b60ff16815260200191505060405180910390a1565b60015433600160a060020a0390811691161461047957600080fd5b600280610484610737565b600681111561048f57fe5b1461049957600080fd5b600160ff841610156104aa57600080fd5b600560ff841611156104bb57600080fd5b6000805460ff191660031790819055604051600080516020610a458339815191529160ff1690808260068111156104ee57fe5b60ff16815260200191505060405180910390a17f8c0b60a2085201dd932be0d3d6a63cccfb7d8ba44b923a03d2ff02aaa6dfcfcc600160009054906101000a9004600160a060020a0316600060019054906101000a9004600160a060020a0316600160a060020a0316638da5cb5b6040518163ffffffff1660e060020a028152600401602060405180830381600087803b15801561058b57600080fd5b505af115801561059f573d6000803e3d6000fd5b505050506040513d60208110156105b557600080fd5b505160408051600160a060020a03938416815292909116602083015260018282015260ff8616606083015260808201859052519081900360a00190a1505050565b600154600160a060020a031681565b6000806000806000610615610737565b6000546001546002546003549399610100909304600160a060020a039081169950909116965094509092509050565b600060019054906101000a9004600160a060020a0316600160a060020a0316638da5cb5b6040518163ffffffff1660e060020a028152600401602060405180830381600087803b15801561069757600080fd5b505af11580156106ab573d6000803e3d6000fd5b505050506040513d60208110156106c157600080fd5b505133600160a060020a039081169116146106db57600080fd5b6001806106e6610737565b60068111156106f157fe5b146106fb57600080fd5b6000805460ff19166002179081905542621baf8001600355604051600080516020610a458339815191529160ff16908082600681111561030957fe5b6000600260005460ff16600681111561074c57fe5b1415610764576003544211156107645750600361076c565b5060005460ff165b90565b6000546101009004600160a060020a031681565b60035481565b600060019054906101000a9004600160a060020a0316600160a060020a0316638da5cb5b6040518163ffffffff1660e060020a028152600401602060405180830381600087803b1580156107dc57600080fd5b505af11580156107f0573d6000803e3d6000fd5b505050506040513d602081101561080657600080fd5b505133600160a060020a0390811691161461082057600080fd5b60038061082b610737565b600681111561083657fe5b1461084057600080fd5b600160ff8416101561085157600080fd5b600560ff8416111561086257600080fd5b6000805460ff1916600690811791829055604051600080516020610a458339815191529260ff16918190839081111561089757fe5b60ff16815260200191505060405180910390a17f8c0b60a2085201dd932be0d3d6a63cccfb7d8ba44b923a03d2ff02aaa6dfcfcc600060019054906101000a9004600160a060020a0316600160a060020a0316638da5cb5b6040518163ffffffff1660e060020a028152600401602060405180830381600087803b15801561091e57600080fd5b505af1158015610932573d6000803e3d6000fd5b505050506040513d602081101561094857600080fd5b505160015460408051600160a060020a03938416815292909116602083015260008282015260ff8616606083015260808201859052519081900360a00190a1600060019054906101000a9004600160a060020a0316600160a060020a0316638da5cb5b6040518163ffffffff1660e060020a028152600401602060405180830381600087803b1580156109da57600080fd5b505af11580156109ee573d6000803e3d6000fd5b505050506040513d6020811015610a0457600080fd5b5051604051600160a060020a039182169130163180156108fc02916000818181858888f19350505050158015610a3e573d6000803e3d6000fd5b505050505600297fa9ffcce4a8f1e427986966e131669169a104212e72d48d20e93539187339a165627a7a7230582003adf7be21cc8c4df2039245d27d724aeeacdf8df2c41f79ebca0b2c8e387c160029",
  "source": "pragma solidity 0.4.23;\n\n/// @title Purchase\n/// @dev An purchase Origin Listing representing a purchase/booking\nimport \"./Listing.sol\";\n\n\ncontract Purchase {\n\n  /*\n  * Events\n  */\n\n  event PurchaseChange(Stages stage);\n  event PurchaseReview(address reviewer, address reviewee, Roles revieweeRole, uint8 rating, bytes32 ipfsHash);\n\n  /*\n  * Enum\n  */\n\n  enum Stages {\n    AWAITING_PAYMENT, // Buyer hasn't paid full amount yet\n    SHIPPING_PENDING, // Waiting for the seller to ship\n    BUYER_PENDING, // Waiting for buyer to confirm receipt\n    SELLER_PENDING, // Waiting for seller to confirm all is good\n    IN_DISPUTE, // We are in a dispute\n    REVIEW_PERIOD, // Time for reviews (only when transaction did not go through)\n    COMPLETE // It's all over\n  }\n\n  enum Roles {\n    BUYER,\n    SELLER\n  }\n\n  /*\n  * Storage\n  */\n\n  Stages private internalStage = Stages.AWAITING_PAYMENT;\n\n  Listing public listingContract; // listing that is being purchased\n  address public buyer; // User who is buying. Seller is derived from listing\n  uint public created;\n  uint public buyerTimout;\n\n  /*\n  * Modifiers\n  */\n\n  modifier isSeller() {\n    require(msg.sender == listingContract.owner());\n    _;\n  }\n\n  modifier isBuyer() {\n    require(msg.sender == buyer);\n    _;\n  }\n\n  modifier atStage(Stages _stage) {\n    require(stage() == _stage);\n    _;\n  }\n\n  /*\n  * Public functions\n  */\n\n  constructor(\n    address _listingContractAddress,\n    address _buyer\n  )\n  public\n  {\n    buyer = _buyer;\n    listingContract = Listing(_listingContractAddress);\n    created = now;\n    emit PurchaseChange(internalStage);\n  }\n\n  function data()\n  public\n  view\n  returns (Stages _stage, Listing _listingContract, address _buyer, uint _created, uint _buyerTimout) {\n      return (stage(), listingContract, buyer, created, buyerTimout);\n  }\n\n  // Pay for listing\n  // We used to limit this to buyer, but that prevents Listing contract from\n  // paying\n  function pay()\n  public\n  payable\n  atStage(Stages.AWAITING_PAYMENT)\n  {\n    if (address(this).balance >= listingContract.price()) {\n      // Buyer (or their proxy) has paid enough to cover purchase\n      internalStage = Stages.SHIPPING_PENDING;\n      emit PurchaseChange(internalStage);\n    }\n    // Possible that nothing happens, and contract just accumulates sent value\n  }\n\n  function stage()\n  public\n  view\n  returns (Stages _stage)\n  {\n    if (internalStage == Stages.BUYER_PENDING) {\n      if (now > buyerTimout) {\n        return Stages.SELLER_PENDING;\n      }\n    }\n    return internalStage;\n  }\n\n  function sellerConfirmShipped()\n  public\n  isSeller\n  atStage(Stages.SHIPPING_PENDING)\n  {\n      internalStage = Stages.BUYER_PENDING;\n      buyerTimout = now + 21 days;\n      emit PurchaseChange(internalStage);\n  }\n\n  function buyerConfirmReceipt(uint8 _rating, bytes32 _ipfsHash)\n  public\n  isBuyer\n  atStage(Stages.BUYER_PENDING)\n  {\n    // Checks\n    require(_rating >= 1);\n    require(_rating <= 5);\n\n    // State changes\n    internalStage = Stages.SELLER_PENDING;\n\n    // Events\n    emit PurchaseChange(internalStage);\n    emit PurchaseReview(buyer, listingContract.owner(), Roles.SELLER, _rating, _ipfsHash);\n  }\n\n  function sellerCollectPayout(uint8 _rating, bytes32 _ipfsHash)\n  public\n  isSeller\n  atStage(Stages.SELLER_PENDING)\n  {\n    // Checks\n    require(_rating >= 1);\n    require(_rating <= 5);\n\n    // State changes\n    internalStage = Stages.COMPLETE;\n    \n    // Events\n    emit PurchaseChange(internalStage);\n    emit PurchaseReview(listingContract.owner(), buyer, Roles.BUYER, _rating, _ipfsHash);\n\n    // Transfers\n    // Send contract funds to seller (ie owner of Listing)\n    // Transfering money always needs to be the last thing we do, do avoid\n    // rentrancy bugs. (Though here the seller would just be getting their own money)\n    listingContract.owner().transfer(address(this).balance);\n  }\n\n  function openDispute()\n  public\n  {\n    // Must be buyer or seller\n    require(\n      (msg.sender == buyer) ||\n      (msg.sender == listingContract.owner())\n    );\n\n    // Must be in a valid stage\n    require(\n      (stage() == Stages.BUYER_PENDING) ||\n      (stage() == Stages.SELLER_PENDING)\n    );\n\n    internalStage = Stages.IN_DISPUTE;\n    emit PurchaseChange(internalStage);\n\n    // TODO: Create a dispute contract?\n    // Right now there's no way to exit this state.\n  }\n}\n",
  "sourcePath": "/home/gagan/Documents/origin-platform/contracts/contracts/Purchase.sol",
  "compiler": {
    "name": "solc",
    "version": "0.4.23+commit.124ca40d.Emscripten.clang"
  },
  "schemaVersion": "2.0.0",
  "updatedAt": "2018-05-20T22:01:21.484Z"
}