{
  "contractName": "PurchaseLibrary",
  "abi": [
    {
      "constant": false,
      "inputs": [
        {
          "name": "listing",
          "type": "Listing"
        },
        {
          "name": "_buyer",
          "type": "address"
        }
      ],
      "name": "newPurchase",
      "outputs": [
        {
          "name": "purchase",
          "type": "Purchase"
        }
      ],
      "payable": false,
      "stateMutability": "nonpayable",
      "type": "function"
    }
  ],
  "bytecode": "0x6109ae610030600b82828239805160001a6073146000811461002057610022565bfe5b5030600052607381538281f30073000000000000000000000000000000000000000030146060604052600436106100575763ffffffff7c01000000000000000000000000000000000000000000000000000000006000350416631c6b9b03811461005c575b600080fd5b811561006757600080fd5b61008e73ffffffffffffffffffffffffffffffffffffffff600435811690602435166100b7565b60405173ffffffffffffffffffffffffffffffffffffffff909116815260200160405180910390f35b600082826100c3610105565b73ffffffffffffffffffffffffffffffffffffffff92831681529116602082015260409081019051809103906000f08015156100fe57600080fd5b9392505050565b60405161086d8061011683390190560060606040526000805460ff19169055341561001957600080fd5b60405160408061086d833981016040528080519190602001805160018054600160a060020a031916600160a060020a03838116919091179091556000805461010060a860020a031916610100928716929092029190911790819055426002559092507f297fa9ffcce4a8f1e427986966e131669169a104212e72d48d20e93539187339915060ff16604051808260068111156100b157fe5b60ff16815260200191505060405180910390a15050610798806100d56000396000f3006060604052600436106100955763ffffffff60e060020a6000350416631b9265b8811461009a578063325a19f1146100a45780633d7b7400146100c95780634fd6137c146100dc5780637150d8ae146100ef57806373d4a13a1461011e578063a3c0ac1014610195578063c040e6b8146101a8578063d5165327146101df578063e5a4e1be146101f2578063f3c76fa914610205575b600080fd5b6100a2610218565b005b34156100af57600080fd5b6100b76102f4565b60405190815260200160405180910390f35b34156100d457600080fd5b6100a26102fa565b34156100e757600080fd5b6100a2610470565b34156100fa57600080fd5b610102610588565b604051600160a060020a03909116815260200160405180910390f35b341561012957600080fd5b610131610597565b6040518086600681111561014157fe5b60ff16815260200185600160a060020a0316600160a060020a0316815260200184600160a060020a0316600160a060020a031681526020018381526020018281526020019550505050505060405180910390f35b34156101a057600080fd5b6100a26105d6565b34156101b357600080fd5b6101bb6106ab565b604051808260068111156101cb57fe5b60ff16815260200191505060405180910390f35b34156101ea57600080fd5b6101026106e3565b34156101fd57600080fd5b6100b76106f7565b341561021057600080fd5b6100a26106fd565b6000806102236106ab565b600681111561022e57fe5b1461023857600080fd5b6000546101009004600160a060020a031663a035b1fe6040518163ffffffff1660e060020a028152600401602060405180830381600087803b151561027c57600080fd5b5af1151561028957600080fd5b5050506040518051600160a060020a033016311090506102f157600080546001919060ff191682805b021790555060005460008051602061074d8339815191529060ff16604051808260068111156102dd57fe5b60ff16815260200191505060405180910390a15b50565b60025481565b6000546101009004600160a060020a0316638da5cb5b6040518163ffffffff1660e060020a028152600401602060405180830381600087803b151561033e57600080fd5b5af1151561034b57600080fd5b50505060405180519050600160a060020a031633600160a060020a031614151561037457600080fd5b60038061037f6106ab565b600681111561038a57fe5b1461039457600080fd5b6000805460ff19166006179081905560008051602061074d8339815191529060ff16604051808260068111156103c657fe5b60ff16815260200191505060405180910390a16000546101009004600160a060020a0316638da5cb5b6040518163ffffffff1660e060020a028152600401602060405180830381600087803b151561041d57600080fd5b5af1151561042a57600080fd5b50505060405180519050600160a060020a03166108fc30600160a060020a0316319081150290604051600060405180830381858888f1935050505015156102f157600080fd5b60015433600160a060020a03908116911614806104f857506000546101009004600160a060020a0316638da5cb5b6040518163ffffffff1660e060020a028152600401602060405180830381600087803b15156104cc57600080fd5b5af115156104d957600080fd5b50505060405180519050600160a060020a031633600160a060020a0316145b151561050357600080fd5b600261050d6106ab565b600681111561051857fe5b1480610536575060036105296106ab565b600681111561053457fe5b145b151561054157600080fd5b6000805460ff19166004179081905560008051602061074d8339815191529060ff166040518082600681111561057357fe5b60ff16815260200191505060405180910390a1565b600154600160a060020a031681565b60008060008060006105a76106ab565b6000546001546002546003549399610100909304600160a060020a039081169950909116965094509092509050565b6000546101009004600160a060020a0316638da5cb5b6040518163ffffffff1660e060020a028152600401602060405180830381600087803b151561061a57600080fd5b5af1151561062757600080fd5b50505060405180519050600160a060020a031633600160a060020a031614151561065057600080fd5b60018061065b6106ab565b600681111561066657fe5b1461067057600080fd5b6000805460ff19166002179081905542621baf800160035560008051602061074d8339815191529060ff16604051808260068111156102dd57fe5b6000600260005460ff1660068111156106c057fe5b14156106d8576003544211156106d8575060036106e0565b5060005460ff165b90565b6000546101009004600160a060020a031681565b60035481565b60015433600160a060020a0390811691161461071857600080fd5b6002806107236106ab565b600681111561072e57fe5b1461073857600080fd5b600080546003919060ff19166001836102b25600297fa9ffcce4a8f1e427986966e131669169a104212e72d48d20e93539187339a165627a7a72305820574a1a269c434fd457af8722562f6ec30b6f26d9bc5c1b75f615548f0fa3ac7e0029a165627a7a723058203e7c1fed351b47545c1d93251806252259b0eb6690d36153639ce8d5adda52fc0029",
  "source": "pragma solidity 0.4.21;\n\n/// @title PurchaseLibrary\n/// @dev An collection of helper tools for a purchase\n\nimport \"./Purchase.sol\";\nimport \"./Listing.sol\";\n\nlibrary PurchaseLibrary {\n\n    function newPurchase(Listing listing, address _buyer)\n    public\n    returns (Purchase purchase)\n    {\n        purchase = new Purchase(listing, _buyer);\n    }\n    \n}\n",
  "sourcePath": "/home/gagan/Documents/origin-platform/contracts/contracts/PurchaseLibrary.sol",
  "compiler": {
    "name": "solc",
    "version": "0.4.21+commit.dfe3193c.Emscripten.clang"
  },
  "schemaVersion": "2.0.0",
  "updatedAt": "2018-04-29T17:21:27.404Z"
}