{
  "contractName": "Purchase",
  "abi": [
    {
      "constant": true,
      "inputs": [],
      "name": "created",
      "outputs": [
        {
          "name": "",
          "type": "uint256"
        }
      ],
      "payable": false,
      "stateMutability": "view",
      "type": "function"
    },
    {
      "constant": true,
      "inputs": [],
      "name": "buyer",
      "outputs": [
        {
          "name": "",
          "type": "address"
        }
      ],
      "payable": false,
      "stateMutability": "view",
      "type": "function"
    },
    {
      "constant": true,
      "inputs": [],
      "name": "listingContract",
      "outputs": [
        {
          "name": "",
          "type": "address"
        }
      ],
      "payable": false,
      "stateMutability": "view",
      "type": "function"
    },
    {
      "constant": true,
      "inputs": [],
      "name": "buyerTimout",
      "outputs": [
        {
          "name": "",
          "type": "uint256"
        }
      ],
      "payable": false,
      "stateMutability": "view",
      "type": "function"
    },
    {
      "inputs": [
        {
          "name": "_listingContractAddress",
          "type": "address"
        },
        {
          "name": "_buyer",
          "type": "address"
        }
      ],
      "payable": false,
      "stateMutability": "nonpayable",
      "type": "constructor"
    },
    {
      "anonymous": false,
      "inputs": [
        {
          "indexed": false,
          "name": "stage",
          "type": "uint8"
        }
      ],
      "name": "PurchaseChange",
      "type": "event"
    },
    {
      "constant": true,
      "inputs": [],
      "name": "data",
      "outputs": [
        {
          "name": "_stage",
          "type": "uint8"
        },
        {
          "name": "_listingContract",
          "type": "address"
        },
        {
          "name": "_buyer",
          "type": "address"
        },
        {
          "name": "_created",
          "type": "uint256"
        },
        {
          "name": "_buyerTimout",
          "type": "uint256"
        }
      ],
      "payable": false,
      "stateMutability": "view",
      "type": "function"
    },
    {
      "constant": false,
      "inputs": [],
      "name": "pay",
      "outputs": [],
      "payable": true,
      "stateMutability": "payable",
      "type": "function"
    },
    {
      "constant": true,
      "inputs": [],
      "name": "stage",
      "outputs": [
        {
          "name": "_stage",
          "type": "uint8"
        }
      ],
      "payable": false,
      "stateMutability": "view",
      "type": "function"
    },
    {
      "constant": false,
      "inputs": [],
      "name": "sellerConfirmShipped",
      "outputs": [],
      "payable": false,
      "stateMutability": "nonpayable",
      "type": "function"
    },
    {
      "constant": false,
      "inputs": [],
      "name": "buyerConfirmReceipt",
      "outputs": [],
      "payable": false,
      "stateMutability": "nonpayable",
      "type": "function"
    },
    {
      "constant": false,
      "inputs": [],
      "name": "sellerCollectPayout",
      "outputs": [],
      "payable": false,
      "stateMutability": "nonpayable",
      "type": "function"
    },
    {
      "constant": false,
      "inputs": [],
      "name": "openDispute",
      "outputs": [],
      "payable": false,
      "stateMutability": "nonpayable",
      "type": "function"
    }
  ],
  "bytecode": "0x60606040526000805460ff19169055341561001957600080fd5b60405160408061086d833981016040528080519190602001805160018054600160a060020a031916600160a060020a03838116919091179091556000805461010060a860020a031916610100928716929092029190911790819055426002559092507f297fa9ffcce4a8f1e427986966e131669169a104212e72d48d20e93539187339915060ff16604051808260068111156100b157fe5b60ff16815260200191505060405180910390a15050610798806100d56000396000f3006060604052600436106100955763ffffffff60e060020a6000350416631b9265b8811461009a578063325a19f1146100a45780633d7b7400146100c95780634fd6137c146100dc5780637150d8ae146100ef57806373d4a13a1461011e578063a3c0ac1014610195578063c040e6b8146101a8578063d5165327146101df578063e5a4e1be146101f2578063f3c76fa914610205575b600080fd5b6100a2610218565b005b34156100af57600080fd5b6100b76102f4565b60405190815260200160405180910390f35b34156100d457600080fd5b6100a26102fa565b34156100e757600080fd5b6100a2610470565b34156100fa57600080fd5b610102610588565b604051600160a060020a03909116815260200160405180910390f35b341561012957600080fd5b610131610597565b6040518086600681111561014157fe5b60ff16815260200185600160a060020a0316600160a060020a0316815260200184600160a060020a0316600160a060020a031681526020018381526020018281526020019550505050505060405180910390f35b34156101a057600080fd5b6100a26105d6565b34156101b357600080fd5b6101bb6106ab565b604051808260068111156101cb57fe5b60ff16815260200191505060405180910390f35b34156101ea57600080fd5b6101026106e3565b34156101fd57600080fd5b6100b76106f7565b341561021057600080fd5b6100a26106fd565b6000806102236106ab565b600681111561022e57fe5b1461023857600080fd5b6000546101009004600160a060020a031663a035b1fe6040518163ffffffff1660e060020a028152600401602060405180830381600087803b151561027c57600080fd5b5af1151561028957600080fd5b5050506040518051600160a060020a033016311090506102f157600080546001919060ff191682805b021790555060005460008051602061074d8339815191529060ff16604051808260068111156102dd57fe5b60ff16815260200191505060405180910390a15b50565b60025481565b6000546101009004600160a060020a0316638da5cb5b6040518163ffffffff1660e060020a028152600401602060405180830381600087803b151561033e57600080fd5b5af1151561034b57600080fd5b50505060405180519050600160a060020a031633600160a060020a031614151561037457600080fd5b60038061037f6106ab565b600681111561038a57fe5b1461039457600080fd5b6000805460ff19166006179081905560008051602061074d8339815191529060ff16604051808260068111156103c657fe5b60ff16815260200191505060405180910390a16000546101009004600160a060020a0316638da5cb5b6040518163ffffffff1660e060020a028152600401602060405180830381600087803b151561041d57600080fd5b5af1151561042a57600080fd5b50505060405180519050600160a060020a03166108fc30600160a060020a0316319081150290604051600060405180830381858888f1935050505015156102f157600080fd5b60015433600160a060020a03908116911614806104f857506000546101009004600160a060020a0316638da5cb5b6040518163ffffffff1660e060020a028152600401602060405180830381600087803b15156104cc57600080fd5b5af115156104d957600080fd5b50505060405180519050600160a060020a031633600160a060020a0316145b151561050357600080fd5b600261050d6106ab565b600681111561051857fe5b1480610536575060036105296106ab565b600681111561053457fe5b145b151561054157600080fd5b6000805460ff19166004179081905560008051602061074d8339815191529060ff166040518082600681111561057357fe5b60ff16815260200191505060405180910390a1565b600154600160a060020a031681565b60008060008060006105a76106ab565b6000546001546002546003549399610100909304600160a060020a039081169950909116965094509092509050565b6000546101009004600160a060020a0316638da5cb5b6040518163ffffffff1660e060020a028152600401602060405180830381600087803b151561061a57600080fd5b5af1151561062757600080fd5b50505060405180519050600160a060020a031633600160a060020a031614151561065057600080fd5b60018061065b6106ab565b600681111561066657fe5b1461067057600080fd5b6000805460ff19166002179081905542621baf800160035560008051602061074d8339815191529060ff16604051808260068111156102dd57fe5b6000600260005460ff1660068111156106c057fe5b14156106d8576003544211156106d8575060036106e0565b5060005460ff165b90565b6000546101009004600160a060020a031681565b60035481565b60015433600160a060020a0390811691161461071857600080fd5b6002806107236106ab565b600681111561072e57fe5b1461073857600080fd5b600080546003919060ff19166001836102b25600297fa9ffcce4a8f1e427986966e131669169a104212e72d48d20e93539187339a165627a7a72305820574a1a269c434fd457af8722562f6ec30b6f26d9bc5c1b75f615548f0fa3ac7e0029",
  "source": "pragma solidity 0.4.21;\n\n/// @title Purchase\n/// @dev An purchase Origin Listing representing a purchase/booking\nimport \"./Listing.sol\";\n\n\ncontract Purchase {\n  \n  /*\n  * Events\n  */\n\n  event PurchaseChange(Stages stage);\n\n  /*\n  * Enum\n  */\n\n  enum Stages {\n    AWAITING_PAYMENT, // Buyer hasn't paid full amount yet\n    SHIPPING_PENDING, // Waiting for the seller to ship\n    BUYER_PENDING, // Waiting for buyer to confirm receipt\n    SELLER_PENDING, // Waiting for seller to confirm all is good\n    IN_DISPUTE, // We are in a dispute\n    REVIEW_PERIOD, // Time for reviews (only when transaction did not go through)\n    COMPLETE // It's all over\n  }\n\n  /*\n  * Storage\n  */\n\n  Stages private internalStage = Stages.AWAITING_PAYMENT; \n\n  Listing public listingContract; // listing that is being purchased\n  address public buyer; // User who is buying. Seller is derived from listing\n  uint public created;\n  uint public buyerTimout;\n\n  /*\n  * Modifiers\n  */\n\n  modifier isSeller() {\n    require(msg.sender == listingContract.owner());\n    _;\n  }\n\n  modifier isBuyer() {\n    require(msg.sender == buyer);\n    _;\n  }\n\n  modifier atStage(Stages _stage) {\n    require(stage() == _stage);\n    _;\n  }\n\n  /*\n  * Public functions\n  */\n\n  function Purchase(\n    address _listingContractAddress,\n    address _buyer\n  )\n  public\n  {\n    buyer = _buyer;\n    listingContract = Listing(_listingContractAddress);\n    created = now;\n    emit PurchaseChange(internalStage);\n  }\n\n  function data()\n  public\n  view\n  returns (Stages _stage, Listing _listingContract, address _buyer, uint _created, uint _buyerTimout) {\n      return (stage(), listingContract, buyer, created, buyerTimout);\n  }\n\n  // Pay for listing\n  // We used to limit this to buyer, but that prevents Listing contract from\n  // paying\n  function pay()\n  public\n  payable\n  atStage(Stages.AWAITING_PAYMENT)\n  {\n    if (address(this).balance >= listingContract.price()) {\n      // Buyer (or their proxy) has paid enough to cover purchase\n      internalStage = Stages.SHIPPING_PENDING;\n      emit PurchaseChange(internalStage);\n    }\n    // Possible that nothing happens, and contract just accumulates sent value\n  }\n\n  function stage()\n  public\n  view \n  returns (Stages _stage)\n  {\n    if (internalStage == Stages.BUYER_PENDING) {\n      if (now > buyerTimout) {\n        return Stages.SELLER_PENDING;\n      }\n    }\n    return internalStage;\n  }\n\n  function sellerConfirmShipped()\n  public\n  isSeller\n  atStage(Stages.SHIPPING_PENDING)\n  {\n      internalStage = Stages.BUYER_PENDING;\n      buyerTimout = now + 21 days;\n      emit PurchaseChange(internalStage);\n  }\n\n  function buyerConfirmReceipt()\n  public\n  isBuyer\n  atStage(Stages.BUYER_PENDING)\n  {\n      internalStage = Stages.SELLER_PENDING;\n      emit PurchaseChange(internalStage);\n  }\n\n  function sellerCollectPayout()\n  public\n  isSeller\n  atStage(Stages.SELLER_PENDING)\n  {\n    internalStage = Stages.COMPLETE;\n    emit PurchaseChange(internalStage);\n\n    // Send contract funds to seller (ie owner of Listing)\n    // Transfering money always needs to be the last thing we do, do avoid\n    // rentrancy bugs. (Though here the seller would just be getting their own money)\n    listingContract.owner().transfer(address(this).balance);\n  }\n\n  function openDispute()\n  public\n  {\n    // Must be buyer or seller\n    require(\n      (msg.sender == buyer) ||\n      (msg.sender == listingContract.owner())\n    );\n\n    // Must be in a valid stage\n    require(\n      (stage() == Stages.BUYER_PENDING) ||\n      (stage() == Stages.SELLER_PENDING)\n    );\n\n    internalStage = Stages.IN_DISPUTE;\n    emit PurchaseChange(internalStage);\n\n    // TODO: Create a dispute contract?\n    // Right now there's no way to exit this state.\n  }\n}\n\n",
  "sourcePath": "/home/gagan/Documents/origin-platform/contracts/contracts/Purchase.sol",
  "compiler": {
    "name": "solc",
    "version": "0.4.21+commit.dfe3193c.Emscripten.clang"
  },
  "schemaVersion": "2.0.0",
  "updatedAt": "2018-04-29T17:21:26.955Z"
}