{
  "contractName": "UserRegistry",
  "abi": [
    {
      "constant": true,
      "inputs": [
        {
          "name": "",
          "type": "address"
        }
      ],
      "name": "users",
      "outputs": [
        {
          "name": "",
          "type": "bytes32"
        }
      ],
      "payable": false,
      "stateMutability": "view",
      "type": "function"
    },
    {
      "anonymous": false,
      "inputs": [
        {
          "indexed": false,
          "name": "_address",
          "type": "address"
        }
      ],
      "name": "NewUser",
      "type": "event"
    },
    {
      "constant": false,
      "inputs": [
        {
          "name": "_ipfsHash",
          "type": "bytes32"
        }
      ],
      "name": "set",
      "outputs": [],
      "payable": false,
      "stateMutability": "nonpayable",
      "type": "function"
    },
    {
      "constant": true,
      "inputs": [
        {
          "name": "_id",
          "type": "string"
        },
        {
          "name": "payload",
          "type": "string"
        }
      ],
      "name": "createAnother",
      "outputs": [
        {
          "name": "",
          "type": "string"
        }
      ],
      "payable": false,
      "stateMutability": "pure",
      "type": "function"
    },
    {
      "constant": true,
      "inputs": [
        {
          "name": "_id",
          "type": "string"
        }
      ],
      "name": "get",
      "outputs": [
        {
          "name": "",
          "type": "string"
        }
      ],
      "payable": false,
      "stateMutability": "pure",
      "type": "function"
    }
  ],
  "bytecode": "0x6060604052341561000f57600080fd5b6102f88061001e6000396000f3006060604052600436106100615763ffffffff7c0100000000000000000000000000000000000000000000000000000000600035041663693ec85e8114610066578063a554dfe41461012e578063a87430ba146101c1578063db80813f146101ff575b600080fd5b341561007157600080fd5b6100b760046024813581810190830135806020601f8201819004810201604051908101604052818152929190602084018383808284375094965061021795505050505050565b60405160208082528190810183818151815260200191508051906020019080838360005b838110156100f35780820151838201526020016100db565b50505050905090810190601f1680156101205780820380516001836020036101000a031916815260200191505b509250505060405180910390f35b341561013957600080fd5b6100b760046024813581810190830135806020601f8201819004810201604051908101604052818152929190602084018383808284378201915050505050509190803590602001908201803590602001908080601f01602080910402602001604051908101604052818152929190602084018383808284375094965061022395505050505050565b34156101cc57600080fd5b6101ed73ffffffffffffffffffffffffffffffffffffffff60043516610231565b60405190815260200160405180910390f35b341561020a57600080fd5b610215600435610243565b005b61021f6102ba565b5090565b61022b6102ba565b50919050565b60006020819052908152604090205481565b3373ffffffffffffffffffffffffffffffffffffffff8116600090815260208190526040908190208390557f7ee9b70bf129b91a237044ce07c93c79f5562b96b53c04f7edaf7c9d6711f3d891905173ffffffffffffffffffffffffffffffffffffffff909116815260200160405180910390a150565b602060405190810160405260008152905600a165627a7a72305820f813777a9cabc474903cf68b3fe8c9dd00c106e37c9a1b09f02f1acb149a15ef0029",
  "source": "pragma solidity 0.4.21;\n\n/// @title UserRegistry\n/// @dev Used to keep registry of user identifies\n/// @author Matt Liu <matt@originprotocol.com>, Josh Fraser <josh@originprotocol.com>, Stan James <stan@originprotocol.com>\n\ncontract UserRegistry {\n    /*\n    * Events\n    */\n\n    event NewUser(address _address);\n\n    /*\n    * Storage\n    */\n\n    // Mapping of all users\n    mapping(address => bytes32) public users;\n\n    /*\n    * Public functions\n    */\n\n    /// @dev create(): Create a new user\n    /// @param _ipfsHash Hash of data on ipfsHash\n    function set(\n        bytes32 _ipfsHash\n    )\n        public\n    {\n        users[msg.sender] = _ipfsHash;\n        emit NewUser(msg.sender);\n    }\n\n    /// @dev createAnother(): Create a new user and associates attenstion or proof with user\n    // @param wallet id\n    // Attestation or proof to associate to the user\n    // TODO: (Brad David) replace with real function\n    function createAnother(\n        string _id,\n        string payload)\n        public\n        pure\n        returns (string)\n    {\n        _id; // Dummy \"operation\" to silence copiler warnigns\n        return payload;\n    }\n\n    /// @dev get(): returns and existing user associated with wallet id\n    // @param wallet id\n    function get(\n        string _id\n    )\n        public\n        pure\n        returns (string)\n    {\n        return _id;\n    }\n}\n",
  "sourcePath": "/home/gagan/Documents/origin-platform/contracts/contracts/UserRegistry.sol",
  "compiler": {
    "name": "solc",
    "version": "0.4.21+commit.dfe3193c.Emscripten.clang"
  },
  "schemaVersion": "2.0.0",
  "updatedAt": "2018-04-29T17:21:27.405Z"
}