{
  "contractName": "UserRegistry",
  "abi": [
    {
      "constant": true,
      "inputs": [
        {
          "name": "",
          "type": "address"
        }
      ],
      "name": "users",
      "outputs": [
        {
          "name": "",
          "type": "address"
        }
      ],
      "payable": false,
      "stateMutability": "view",
      "type": "function"
    },
    {
      "anonymous": false,
      "inputs": [
        {
          "indexed": false,
          "name": "_address",
          "type": "address"
        },
        {
          "indexed": false,
          "name": "_identity",
          "type": "address"
        }
      ],
      "name": "NewUser",
      "type": "event"
    },
    {
      "constant": false,
      "inputs": [],
      "name": "registerUser",
      "outputs": [],
      "payable": false,
      "stateMutability": "nonpayable",
      "type": "function"
    },
    {
      "constant": false,
      "inputs": [],
      "name": "clearUser",
      "outputs": [],
      "payable": false,
      "stateMutability": "nonpayable",
      "type": "function"
    }
  ],
  "bytecode": "0x608060405234801561001057600080fd5b506101f9806100206000396000f3006080604052600436106100565763ffffffff7c01000000000000000000000000000000000000000000000000000000006000350416634d3820eb811461005b57806376b1658814610072578063a87430ba14610087575b600080fd5b34801561006757600080fd5b506100706100de565b005b34801561007e57600080fd5b50610070610163565b34801561009357600080fd5b506100b573ffffffffffffffffffffffffffffffffffffffff600435166101a5565b6040805173ffffffffffffffffffffffffffffffffffffffff9092168252519081900360200190f35b3273ffffffffffffffffffffffffffffffffffffffff90811660008181526020818152604091829020805473ffffffffffffffffffffffffffffffffffffffff1916339095169485179055815192835282019290925281517fff3eabe1067b08ba8af3e8d3191eebeae9b35de7a7aeee40f2ad1ceb6a887607929181900390910190a1565b73ffffffffffffffffffffffffffffffffffffffff33166000908152602081905260409020805473ffffffffffffffffffffffffffffffffffffffff19169055565b60006020819052908152604090205473ffffffffffffffffffffffffffffffffffffffff16815600a165627a7a7230582028fc24c4e6141c0536d63133e349b42d8a89075417024bd5e8c63cd1a124f6d80029",
  "source": "pragma solidity 0.4.23;\n\nimport './identity/ClaimHolderPresigned.sol';\n\n/// @title UserRegistry\n/// @dev Used to keep registry of user identifies\n/// @author Matt Liu <matt@originprotocol.com>, Josh Fraser <josh@originprotocol.com>, Stan James <stan@originprotocol.com>\n\ncontract UserRegistry {\n    /*\n    * Events\n    */\n\n    event NewUser(address _address, address _identity);\n\n    /*\n    * Storage\n    */\n\n    // Mapping from ethereum wallet to ERC725 identity\n    mapping(address => address) public users;\n\n    /*\n    * Public functions\n    */\n\n    /// @dev registerUser(): Add a user to the registry\n    function registerUser()\n      public\n    {\n        users[tx.origin] = msg.sender;\n        emit NewUser(tx.origin, msg.sender);\n    }\n\n    /// @dev clearUser(): Remove user from the registry\n    function clearUser()\n      public\n    {\n        users[msg.sender] = 0;\n    }\n}\n",
  "sourcePath": "/home/gagan/Documents/origin-platform/contracts/contracts/UserRegistry.sol",
  "compiler": {
    "name": "solc",
    "version": "0.4.23+commit.124ca40d.Emscripten.clang"
  },
  "schemaVersion": "2.0.0",
  "updatedAt": "2018-05-20T22:01:20.391Z"
}