{
  "contractName": "KeyHolder",
  "abi": [
    {
      "inputs": [],
      "payable": false,
      "stateMutability": "nonpayable",
      "type": "constructor"
    },
    {
      "anonymous": false,
      "inputs": [
        {
          "indexed": true,
          "name": "key",
          "type": "bytes32"
        },
        {
          "indexed": true,
          "name": "purpose",
          "type": "uint256"
        },
        {
          "indexed": true,
          "name": "keyType",
          "type": "uint256"
        }
      ],
      "name": "KeyAdded",
      "type": "event"
    },
    {
      "anonymous": false,
      "inputs": [
        {
          "indexed": true,
          "name": "key",
          "type": "bytes32"
        },
        {
          "indexed": true,
          "name": "purpose",
          "type": "uint256"
        },
        {
          "indexed": true,
          "name": "keyType",
          "type": "uint256"
        }
      ],
      "name": "KeyRemoved",
      "type": "event"
    },
    {
      "anonymous": false,
      "inputs": [
        {
          "indexed": true,
          "name": "executionId",
          "type": "uint256"
        },
        {
          "indexed": true,
          "name": "to",
          "type": "address"
        },
        {
          "indexed": true,
          "name": "value",
          "type": "uint256"
        },
        {
          "indexed": false,
          "name": "data",
          "type": "bytes"
        }
      ],
      "name": "ExecutionRequested",
      "type": "event"
    },
    {
      "anonymous": false,
      "inputs": [
        {
          "indexed": true,
          "name": "executionId",
          "type": "uint256"
        },
        {
          "indexed": true,
          "name": "to",
          "type": "address"
        },
        {
          "indexed": true,
          "name": "value",
          "type": "uint256"
        },
        {
          "indexed": false,
          "name": "data",
          "type": "bytes"
        }
      ],
      "name": "Executed",
      "type": "event"
    },
    {
      "anonymous": false,
      "inputs": [
        {
          "indexed": true,
          "name": "executionId",
          "type": "uint256"
        },
        {
          "indexed": false,
          "name": "approved",
          "type": "bool"
        }
      ],
      "name": "Approved",
      "type": "event"
    },
    {
      "constant": true,
      "inputs": [
        {
          "name": "_key",
          "type": "bytes32"
        }
      ],
      "name": "getKey",
      "outputs": [
        {
          "name": "purposes",
          "type": "uint256[]"
        },
        {
          "name": "keyType",
          "type": "uint256"
        },
        {
          "name": "key",
          "type": "bytes32"
        }
      ],
      "payable": false,
      "stateMutability": "view",
      "type": "function"
    },
    {
      "constant": true,
      "inputs": [
        {
          "name": "_key",
          "type": "bytes32"
        }
      ],
      "name": "getKeyPurposes",
      "outputs": [
        {
          "name": "purposes",
          "type": "uint256[]"
        }
      ],
      "payable": false,
      "stateMutability": "view",
      "type": "function"
    },
    {
      "constant": true,
      "inputs": [
        {
          "name": "_purpose",
          "type": "uint256"
        }
      ],
      "name": "getKeysByPurpose",
      "outputs": [
        {
          "name": "_keys",
          "type": "bytes32[]"
        }
      ],
      "payable": false,
      "stateMutability": "view",
      "type": "function"
    },
    {
      "constant": false,
      "inputs": [
        {
          "name": "_key",
          "type": "bytes32"
        },
        {
          "name": "_purpose",
          "type": "uint256"
        },
        {
          "name": "_type",
          "type": "uint256"
        }
      ],
      "name": "addKey",
      "outputs": [
        {
          "name": "success",
          "type": "bool"
        }
      ],
      "payable": false,
      "stateMutability": "nonpayable",
      "type": "function"
    },
    {
      "constant": false,
      "inputs": [
        {
          "name": "_id",
          "type": "uint256"
        },
        {
          "name": "_approve",
          "type": "bool"
        }
      ],
      "name": "approve",
      "outputs": [
        {
          "name": "success",
          "type": "bool"
        }
      ],
      "payable": false,
      "stateMutability": "nonpayable",
      "type": "function"
    },
    {
      "constant": false,
      "inputs": [
        {
          "name": "_to",
          "type": "address"
        },
        {
          "name": "_value",
          "type": "uint256"
        },
        {
          "name": "_data",
          "type": "bytes"
        }
      ],
      "name": "execute",
      "outputs": [
        {
          "name": "executionId",
          "type": "uint256"
        }
      ],
      "payable": false,
      "stateMutability": "nonpayable",
      "type": "function"
    },
    {
      "constant": false,
      "inputs": [
        {
          "name": "_key",
          "type": "bytes32"
        },
        {
          "name": "_purpose",
          "type": "uint256"
        }
      ],
      "name": "removeKey",
      "outputs": [
        {
          "name": "success",
          "type": "bool"
        }
      ],
      "payable": false,
      "stateMutability": "nonpayable",
      "type": "function"
    },
    {
      "constant": true,
      "inputs": [
        {
          "name": "_key",
          "type": "bytes32"
        },
        {
          "name": "_purpose",
          "type": "uint256"
        }
      ],
      "name": "keyHasPurpose",
      "outputs": [
        {
          "name": "exists",
          "type": "bool"
        }
      ],
      "payable": false,
      "stateMutability": "view",
      "type": "function"
    }
  ],
  "bytecode": "0x608060405234801561001057600080fd5b5073__KeyHolderLibrary______________________6330864be560006040518263ffffffff167c01000000000000000000000000000000000000000000000000000000000281526004018082815260200191505060006040518083038186803b15801561007d57600080fd5b505af4158015610091573d6000803e3d6000fd5b5050505061087b806100a46000396000f3006080604052600436106100745763ffffffff60e060020a60003504166312aaac7081146100795780631d381240146100f257806353d413c514610124578063747442d31461013f5780639010f7261461015c578063b61d27f6146101c4578063d202158d1461024c578063fb307b3414610267575b600080fd5b34801561008557600080fd5b5061009160043561027f565b60408051602080820185905291810183905260608082528551908201528451909182916080830191878101910280838360005b838110156100dc5781810151838201526020016100c4565b5050505090500194505050505060405180910390f35b3480156100fe57600080fd5b50610110600435602435604435610398565b604080519115158252519081900360200190f35b34801561013057600080fd5b5061011060043560243561044e565b34801561014b57600080fd5b5061011060043560243515156104fc565b34801561016857600080fd5b50610174600435610578565b60408051602080825283518183015283519192839290830191858101910280838360005b838110156101b0578181015183820152602001610198565b505050509050019250505060405180910390f35b3480156101d057600080fd5b50604080516020600460443581810135601f810184900484028501840190955284845261023a94823573ffffffffffffffffffffffffffffffffffffffff169460248035953695946064949201919081908401838280828437509497506106669650505050505050565b60408051918252519081900360200190f35b34801561025857600080fd5b50610110600435602435610761565b34801561027357600080fd5b506101746004356107dc565b604080517fb01a9fb300000000000000000000000000000000000000000000000000000000815260006004820181905260248201849052915160609291829173__KeyHolderLibrary______________________9163b01a9fb39160448083019286929190829003018186803b1580156102f857600080fd5b505af415801561030c573d6000803e3d6000fd5b505050506040513d6000823e601f3d908101601f19168201604052606081101561033557600080fd5b81019080805164010000000081111561034d57600080fd5b8201602081018481111561036057600080fd5b815185602082028301116401000000008211171561037d57600080fd5b50506020820151604090920151909891975095509350505050565b604080517f5d601c3a000000000000000000000000000000000000000000000000000000008152600060048201819052602482018690526044820185905260648201849052915173__KeyHolderLibrary______________________91635d601c3a916084808301926020929190829003018186803b15801561041a57600080fd5b505af415801561042e573d6000803e3d6000fd5b505050506040513d602081101561044457600080fd5b5051949350505050565b604080517f3f47616d0000000000000000000000000000000000000000000000000000000081526000600482018190526024820185905260448201849052915173__KeyHolderLibrary______________________91633f47616d916064808301926020929190829003018186803b1580156104c957600080fd5b505af41580156104dd573d6000803e3d6000fd5b505050506040513d60208110156104f357600080fd5b50519392505050565b604080517f67d4865f000000000000000000000000000000000000000000000000000000008152600060048201819052602482018590528315156044830152915173__KeyHolderLibrary______________________916367d4865f916064808301926020929190829003018186803b1580156104c957600080fd5b606073__KeyHolderLibrary______________________63746199f96000846040518363ffffffff1660e060020a028152600401808381526020018281526020019250505060006040518083038186803b1580156105d557600080fd5b505af41580156105e9573d6000803e3d6000fd5b505050506040513d6000823e601f3d908101601f19168201604052602081101561061257600080fd5b81019080805164010000000081111561062a57600080fd5b8201602081018481111561063d57600080fd5b815185602082028301116401000000008211171561065a57600080fd5b50909695505050505050565b600073__KeyHolderLibrary______________________63e9356c6f60008686866040518563ffffffff1660e060020a028152600401808581526020018473ffffffffffffffffffffffffffffffffffffffff1673ffffffffffffffffffffffffffffffffffffffff16815260200183815260200180602001828103825283818151815260200191508051906020019080838360005b838110156107145781810151838201526020016106fc565b50505050905090810190601f1680156107415780820380516001836020036101000a031916815260200191505b509550505050505060206040518083038186803b15801561041a57600080fd5b604080517fd8188a400000000000000000000000000000000000000000000000000000000081526000600482018190526024820185905260448201849052915173__KeyHolderLibrary______________________9163d8188a40916064808301926020929190829003018186803b1580156104c957600080fd5b604080517f0f982bac00000000000000000000000000000000000000000000000000000000815260006004820181905260248201849052915160609273__KeyHolderLibrary______________________92630f982bac9260448083019392829003018186803b1580156105d557600080fd00a165627a7a7230582069b4e3e091b1a6aa9ffbb58f191ecd75583f7e05a5870c77157504d1106d836f0029",
  "deployedBytecode": "0x6080604052600436106100745763ffffffff60e060020a60003504166312aaac7081146100795780631d381240146100f257806353d413c514610124578063747442d31461013f5780639010f7261461015c578063b61d27f6146101c4578063d202158d1461024c578063fb307b3414610267575b600080fd5b34801561008557600080fd5b5061009160043561027f565b60408051602080820185905291810183905260608082528551908201528451909182916080830191878101910280838360005b838110156100dc5781810151838201526020016100c4565b5050505090500194505050505060405180910390f35b3480156100fe57600080fd5b50610110600435602435604435610398565b604080519115158252519081900360200190f35b34801561013057600080fd5b5061011060043560243561044e565b34801561014b57600080fd5b5061011060043560243515156104fc565b34801561016857600080fd5b50610174600435610578565b60408051602080825283518183015283519192839290830191858101910280838360005b838110156101b0578181015183820152602001610198565b505050509050019250505060405180910390f35b3480156101d057600080fd5b50604080516020600460443581810135601f810184900484028501840190955284845261023a94823573ffffffffffffffffffffffffffffffffffffffff169460248035953695946064949201919081908401838280828437509497506106669650505050505050565b60408051918252519081900360200190f35b34801561025857600080fd5b50610110600435602435610761565b34801561027357600080fd5b506101746004356107dc565b604080517fb01a9fb300000000000000000000000000000000000000000000000000000000815260006004820181905260248201849052915160609291829173__KeyHolderLibrary______________________9163b01a9fb39160448083019286929190829003018186803b1580156102f857600080fd5b505af415801561030c573d6000803e3d6000fd5b505050506040513d6000823e601f3d908101601f19168201604052606081101561033557600080fd5b81019080805164010000000081111561034d57600080fd5b8201602081018481111561036057600080fd5b815185602082028301116401000000008211171561037d57600080fd5b50506020820151604090920151909891975095509350505050565b604080517f5d601c3a000000000000000000000000000000000000000000000000000000008152600060048201819052602482018690526044820185905260648201849052915173__KeyHolderLibrary______________________91635d601c3a916084808301926020929190829003018186803b15801561041a57600080fd5b505af415801561042e573d6000803e3d6000fd5b505050506040513d602081101561044457600080fd5b5051949350505050565b604080517f3f47616d0000000000000000000000000000000000000000000000000000000081526000600482018190526024820185905260448201849052915173__KeyHolderLibrary______________________91633f47616d916064808301926020929190829003018186803b1580156104c957600080fd5b505af41580156104dd573d6000803e3d6000fd5b505050506040513d60208110156104f357600080fd5b50519392505050565b604080517f67d4865f000000000000000000000000000000000000000000000000000000008152600060048201819052602482018590528315156044830152915173__KeyHolderLibrary______________________916367d4865f916064808301926020929190829003018186803b1580156104c957600080fd5b606073__KeyHolderLibrary______________________63746199f96000846040518363ffffffff1660e060020a028152600401808381526020018281526020019250505060006040518083038186803b1580156105d557600080fd5b505af41580156105e9573d6000803e3d6000fd5b505050506040513d6000823e601f3d908101601f19168201604052602081101561061257600080fd5b81019080805164010000000081111561062a57600080fd5b8201602081018481111561063d57600080fd5b815185602082028301116401000000008211171561065a57600080fd5b50909695505050505050565b600073__KeyHolderLibrary______________________63e9356c6f60008686866040518563ffffffff1660e060020a028152600401808581526020018473ffffffffffffffffffffffffffffffffffffffff1673ffffffffffffffffffffffffffffffffffffffff16815260200183815260200180602001828103825283818151815260200191508051906020019080838360005b838110156107145781810151838201526020016106fc565b50505050905090810190601f1680156107415780820380516001836020036101000a031916815260200191505b509550505050505060206040518083038186803b15801561041a57600080fd5b604080517fd8188a400000000000000000000000000000000000000000000000000000000081526000600482018190526024820185905260448201849052915173__KeyHolderLibrary______________________9163d8188a40916064808301926020929190829003018186803b1580156104c957600080fd5b604080517f0f982bac00000000000000000000000000000000000000000000000000000000815260006004820181905260248201849052915160609273__KeyHolderLibrary______________________92630f982bac9260448083019392829003018186803b1580156105d557600080fd00a165627a7a7230582069b4e3e091b1a6aa9ffbb58f191ecd75583f7e05a5870c77157504d1106d836f0029",
  "source": "pragma solidity ^0.4.24;\n\nimport \"./ERC725.sol\";\nimport \"./KeyHolderLibrary.sol\";\n\n\ncontract KeyHolder is ERC725 {\n    KeyHolderLibrary.KeyHolderData keyHolderData;\n\n    constructor() public {\n        KeyHolderLibrary.init(keyHolderData);\n    }\n\n    function getKey(bytes32 _key)\n        public\n        view\n        returns(uint256[] purposes, uint256 keyType, bytes32 key)\n    {\n        return KeyHolderLibrary.getKey(keyHolderData, _key);\n    }\n\n    function getKeyPurposes(bytes32 _key)\n        public\n        view\n        returns(uint256[] purposes)\n    {\n        return KeyHolderLibrary.getKeyPurposes(keyHolderData, _key);\n    }\n\n    function getKeysByPurpose(uint256 _purpose)\n        public\n        view\n        returns(bytes32[] _keys)\n    {\n        return KeyHolderLibrary.getKeysByPurpose(keyHolderData, _purpose);\n    }\n\n    function addKey(bytes32 _key, uint256 _purpose, uint256 _type)\n        public\n        returns (bool success)\n    {\n        return KeyHolderLibrary.addKey(keyHolderData, _key, _purpose, _type);\n    }\n\n    function approve(uint256 _id, bool _approve)\n        public\n        returns (bool success)\n    {\n        return KeyHolderLibrary.approve(keyHolderData, _id, _approve);\n    }\n\n    function execute(address _to, uint256 _value, bytes _data)\n        public\n        returns (uint256 executionId)\n    {\n        return KeyHolderLibrary.execute(keyHolderData, _to, _value, _data);\n    }\n\n    function removeKey(bytes32 _key, uint256 _purpose)\n        public\n        returns (bool success)\n    {\n        return KeyHolderLibrary.removeKey(keyHolderData, _key, _purpose);\n    }\n\n    function keyHasPurpose(bytes32 _key, uint256 _purpose)\n        public\n        view\n        returns(bool exists)\n    {\n        return KeyHolderLibrary.keyHasPurpose(keyHolderData, _key, _purpose);\n    }\n\n}\n",
  "sourcePath": "/Users/franck/src/3rd_origin/origin/origin-contracts/contracts/identity/KeyHolder.sol",
  "compiler": {
    "name": "solc",
    "version": "0.4.25+commit.59dbf8f1.Emscripten.clang"
  },
  "schemaVersion": "2.0.2",
  "updatedAt": "2019-01-11T06:04:45.975Z"
}