{
  "contractName": "WhitelistedPausableToken",
  "abi": [
    {
      "constant": false,
      "inputs": [
        {
          "name": "_spender",
          "type": "address"
        },
        {
          "name": "_value",
          "type": "uint256"
        }
      ],
      "name": "approve",
      "outputs": [
        {
          "name": "",
          "type": "bool"
        }
      ],
      "payable": false,
      "stateMutability": "nonpayable",
      "type": "function"
    },
    {
      "constant": true,
      "inputs": [],
      "name": "totalSupply",
      "outputs": [
        {
          "name": "",
          "type": "uint256"
        }
      ],
      "payable": false,
      "stateMutability": "view",
      "type": "function"
    },
    {
      "constant": false,
      "inputs": [],
      "name": "unpause",
      "outputs": [],
      "payable": false,
      "stateMutability": "nonpayable",
      "type": "function"
    },
    {
      "constant": true,
      "inputs": [],
      "name": "paused",
      "outputs": [
        {
          "name": "",
          "type": "bool"
        }
      ],
      "payable": false,
      "stateMutability": "view",
      "type": "function"
    },
    {
      "constant": false,
      "inputs": [
        {
          "name": "_spender",
          "type": "address"
        },
        {
          "name": "_subtractedValue",
          "type": "uint256"
        }
      ],
      "name": "decreaseApproval",
      "outputs": [
        {
          "name": "success",
          "type": "bool"
        }
      ],
      "payable": false,
      "stateMutability": "nonpayable",
      "type": "function"
    },
    {
      "constant": true,
      "inputs": [
        {
          "name": "_owner",
          "type": "address"
        }
      ],
      "name": "balanceOf",
      "outputs": [
        {
          "name": "",
          "type": "uint256"
        }
      ],
      "payable": false,
      "stateMutability": "view",
      "type": "function"
    },
    {
      "constant": false,
      "inputs": [],
      "name": "renounceOwnership",
      "outputs": [],
      "payable": false,
      "stateMutability": "nonpayable",
      "type": "function"
    },
    {
      "constant": false,
      "inputs": [],
      "name": "pause",
      "outputs": [],
      "payable": false,
      "stateMutability": "nonpayable",
      "type": "function"
    },
    {
      "constant": true,
      "inputs": [],
      "name": "owner",
      "outputs": [
        {
          "name": "",
          "type": "address"
        }
      ],
      "payable": false,
      "stateMutability": "view",
      "type": "function"
    },
    {
      "constant": true,
      "inputs": [],
      "name": "whitelistExpiration",
      "outputs": [
        {
          "name": "",
          "type": "uint256"
        }
      ],
      "payable": false,
      "stateMutability": "view",
      "type": "function"
    },
    {
      "constant": true,
      "inputs": [
        {
          "name": "",
          "type": "address"
        }
      ],
      "name": "allowedTransactors",
      "outputs": [
        {
          "name": "",
          "type": "bool"
        }
      ],
      "payable": false,
      "stateMutability": "view",
      "type": "function"
    },
    {
      "constant": false,
      "inputs": [
        {
          "name": "_spender",
          "type": "address"
        },
        {
          "name": "_addedValue",
          "type": "uint256"
        }
      ],
      "name": "increaseApproval",
      "outputs": [
        {
          "name": "success",
          "type": "bool"
        }
      ],
      "payable": false,
      "stateMutability": "nonpayable",
      "type": "function"
    },
    {
      "constant": true,
      "inputs": [
        {
          "name": "_owner",
          "type": "address"
        },
        {
          "name": "_spender",
          "type": "address"
        }
      ],
      "name": "allowance",
      "outputs": [
        {
          "name": "",
          "type": "uint256"
        }
      ],
      "payable": false,
      "stateMutability": "view",
      "type": "function"
    },
    {
      "constant": false,
      "inputs": [
        {
          "name": "_newOwner",
          "type": "address"
        }
      ],
      "name": "transferOwnership",
      "outputs": [],
      "payable": false,
      "stateMutability": "nonpayable",
      "type": "function"
    },
    {
      "anonymous": false,
      "inputs": [
        {
          "indexed": false,
          "name": "expiration",
          "type": "uint256"
        }
      ],
      "name": "SetWhitelistExpiration",
      "type": "event"
    },
    {
      "anonymous": false,
      "inputs": [
        {
          "indexed": false,
          "name": "sender",
          "type": "address"
        }
      ],
      "name": "AllowedTransactorAdded",
      "type": "event"
    },
    {
      "anonymous": false,
      "inputs": [
        {
          "indexed": false,
          "name": "sender",
          "type": "address"
        }
      ],
      "name": "AllowedTransactorRemoved",
      "type": "event"
    },
    {
      "anonymous": false,
      "inputs": [],
      "name": "Pause",
      "type": "event"
    },
    {
      "anonymous": false,
      "inputs": [],
      "name": "Unpause",
      "type": "event"
    },
    {
      "anonymous": false,
      "inputs": [
        {
          "indexed": true,
          "name": "previousOwner",
          "type": "address"
        }
      ],
      "name": "OwnershipRenounced",
      "type": "event"
    },
    {
      "anonymous": false,
      "inputs": [
        {
          "indexed": true,
          "name": "previousOwner",
          "type": "address"
        },
        {
          "indexed": true,
          "name": "newOwner",
          "type": "address"
        }
      ],
      "name": "OwnershipTransferred",
      "type": "event"
    },
    {
      "anonymous": false,
      "inputs": [
        {
          "indexed": true,
          "name": "owner",
          "type": "address"
        },
        {
          "indexed": true,
          "name": "spender",
          "type": "address"
        },
        {
          "indexed": false,
          "name": "value",
          "type": "uint256"
        }
      ],
      "name": "Approval",
      "type": "event"
    },
    {
      "anonymous": false,
      "inputs": [
        {
          "indexed": true,
          "name": "from",
          "type": "address"
        },
        {
          "indexed": true,
          "name": "to",
          "type": "address"
        },
        {
          "indexed": false,
          "name": "value",
          "type": "uint256"
        }
      ],
      "name": "Transfer",
      "type": "event"
    },
    {
      "constant": true,
      "inputs": [],
      "name": "whitelistActive",
      "outputs": [
        {
          "name": "",
          "type": "bool"
        }
      ],
      "payable": false,
      "stateMutability": "view",
      "type": "function"
    },
    {
      "constant": false,
      "inputs": [
        {
          "name": "_transactor",
          "type": "address"
        }
      ],
      "name": "addAllowedTransactor",
      "outputs": [],
      "payable": false,
      "stateMutability": "nonpayable",
      "type": "function"
    },
    {
      "constant": false,
      "inputs": [
        {
          "name": "_transactor",
          "type": "address"
        }
      ],
      "name": "removeAllowedTransactor",
      "outputs": [],
      "payable": false,
      "stateMutability": "nonpayable",
      "type": "function"
    },
    {
      "constant": false,
      "inputs": [
        {
          "name": "_expiration",
          "type": "uint256"
        }
      ],
      "name": "setWhitelistExpiration",
      "outputs": [],
      "payable": false,
      "stateMutability": "nonpayable",
      "type": "function"
    },
    {
      "constant": false,
      "inputs": [
        {
          "name": "_to",
          "type": "address"
        },
        {
          "name": "_value",
          "type": "uint256"
        }
      ],
      "name": "transfer",
      "outputs": [
        {
          "name": "",
          "type": "bool"
        }
      ],
      "payable": false,
      "stateMutability": "nonpayable",
      "type": "function"
    },
    {
      "constant": false,
      "inputs": [
        {
          "name": "_from",
          "type": "address"
        },
        {
          "name": "_to",
          "type": "address"
        },
        {
          "name": "_value",
          "type": "uint256"
        }
      ],
      "name": "transferFrom",
      "outputs": [
        {
          "name": "",
          "type": "bool"
        }
      ],
      "payable": false,
      "stateMutability": "nonpayable",
      "type": "function"
    }
  ],
  "bytecode": "0x608060405260038054600160a860020a03191633179055610f9a806100256000396000f3006080604052600436106101115763ffffffff7c010000000000000000000000000000000000000000000000000000000060003504166302ce58138114610116578063095ea7b31461013f57806318160ddd1461016357806323b872dd1461018a5780632faad46f146101b45780633f4ba83a146101d75780635c561fff146101ec5780635c975abb1461020d578063661884631461022257806370a0823114610246578063715018a6146102675780638456cb591461027c5780638da5cb5b14610291578063a9059cbb146102c2578063c5e1edcb146102e6578063c9853211146102fb578063ce73a61d1461031c578063d73dd62314610334578063dd62ed3e14610358578063f2fde38b1461037f575b600080fd5b34801561012257600080fd5b5061012b6103a0565b604080519115158252519081900360200190f35b34801561014b57600080fd5b5061012b600160a060020a03600435166024356103a8565b34801561016f57600080fd5b506101786103d3565b60408051918252519081900360200190f35b34801561019657600080fd5b5061012b600160a060020a03600435811690602435166044356103d9565b3480156101c057600080fd5b506101d5600160a060020a03600435166104bd565b005b3480156101e357600080fd5b506101d5610534565b3480156101f857600080fd5b506101d5600160a060020a03600435166105ac565b34801561021957600080fd5b5061012b610620565b34801561022e57600080fd5b5061012b600160a060020a0360043516602435610630565b34801561025257600080fd5b50610178600160a060020a0360043516610654565b34801561027357600080fd5b506101d561066f565b34801561028857600080fd5b506101d56106dd565b34801561029d57600080fd5b506102a661075a565b60408051600160a060020a039092168252519081900360200190f35b3480156102ce57600080fd5b5061012b600160a060020a0360043516602435610769565b3480156102f257600080fd5b5061017861084b565b34801561030757600080fd5b5061012b600160a060020a0360043516610851565b34801561032857600080fd5b506101d5600435610866565b34801561034057600080fd5b5061012b600160a060020a03600435166024356109c6565b34801561036457600080fd5b50610178600160a060020a03600435811690602435166109ea565b34801561038b57600080fd5b506101d5600160a060020a0360043516610a15565b600454421090565b60035460009060a060020a900460ff16156103c257600080fd5b6103cc8383610a38565b9392505050565b60015490565b600083836103e56103a0565b15806104095750600160a060020a03821660009081526005602052604090205460ff165b8061042c5750600160a060020a03811660009081526005602052604090205460ff165b15156104a8576040805160e560020a62461bcd02815260206004820152602860248201527f6e6569746865722073656e646572206e6f7220726563697069656e742061726560448201527f20616c6c6f776564000000000000000000000000000000000000000000000000606482015290519081900360840190fd5b6104b3868686610a9e565b9695505050505050565b600354600160a060020a031633146104d457600080fd5b60408051600160a060020a038316815290517fe504b838e935ead8d5abd80b50f40c979d04e5a09fb1a3ffad89d2652a458a319181900360200190a1600160a060020a03166000908152600560205260409020805460ff19166001179055565b600354600160a060020a0316331461054b57600080fd5b60035460a060020a900460ff16151561056357600080fd5b6003805474ff0000000000000000000000000000000000000000191690556040517f7805862f689e2f13df9f062ff482ad3ad112aca9e0847911ed832e158c525b3390600090a1565b600354600160a060020a031633146105c357600080fd5b60408051600160a060020a038316815290517ffd1d27a7b372eaafdb0f7bb6231d45a1557a67d539850354457c36e54b65b4799181900360200190a1600160a060020a03166000908152600560205260409020805460ff19169055565b60035460a060020a900460ff1681565b60035460009060a060020a900460ff161561064a57600080fd5b6103cc8383610acb565b600160a060020a031660009081526020819052604090205490565b600354600160a060020a0316331461068657600080fd5b600354604051600160a060020a03909116907ff8df31144d9c2f0f6b59d69b8b98abd5459d07f2742c4df920b25aae33c6482090600090a26003805473ffffffffffffffffffffffffffffffffffffffff19169055565b600354600160a060020a031633146106f457600080fd5b60035460a060020a900460ff161561070b57600080fd5b6003805474ff0000000000000000000000000000000000000000191660a060020a1790556040517f6985a02210a168e66602d3235cb6db0e70f92b3ba4d376a33c0f3d9434bff62590600090a1565b600354600160a060020a031681565b600033836107756103a0565b15806107995750600160a060020a03821660009081526005602052604090205460ff165b806107bc5750600160a060020a03811660009081526005602052604090205460ff165b1515610838576040805160e560020a62461bcd02815260206004820152602860248201527f6e6569746865722073656e646572206e6f7220726563697069656e742061726560448201527f20616c6c6f776564000000000000000000000000000000000000000000000000606482015290519081900360840190fd5b6108428585610bba565b95945050505050565b60045481565b60056020526000908152604090205460ff1681565b600354600160a060020a0316331461087d57600080fd5b600454158061088f575061088f6103a0565b151561090b576040805160e560020a62461bcd02815260206004820152602760248201527f616e20657870697265642077686974656c6973742063616e6e6f74206265206560448201527f7874656e64656400000000000000000000000000000000000000000000000000606482015290519081900360840190fd5b62015180420181101561098e576040805160e560020a62461bcd02815260206004820152603360248201527f77686974656c6973742065787069726174696f6e206e6f742066617220656e6f60448201527f75676820696e746f207468652066757475726500000000000000000000000000606482015290519081900360840190fd5b6040805182815290517f425185790737a8bc9659e0a4633a6b6b0428202b2e51b787b431d5fa68242f589181900360200190a1600455565b60035460009060a060020a900460ff16156109e057600080fd5b6103cc8383610bde565b600160a060020a03918216600090815260026020908152604080832093909416825291909152205490565b600354600160a060020a03163314610a2c57600080fd5b610a3581610c77565b50565b336000818152600260209081526040808320600160a060020a038716808552908352818420869055815186815291519394909390927f8c5be1e5ebec7d5bd14f71427d1e84f3dd0314c0f7b2291e5b200ac8c7c3b925928290030190a350600192915050565b60035460009060a060020a900460ff1615610ab857600080fd5b610ac3848484610cf5565b949350505050565b336000908152600260209081526040808320600160a060020a0386168452909152812054808310610b1f57336000908152600260209081526040808320600160a060020a0388168452909152812055610b54565b610b2f818463ffffffff610e6a16565b336000908152600260209081526040808320600160a060020a03891684529091529020555b336000818152600260209081526040808320600160a060020a0389168085529083529281902054815190815290519293927f8c5be1e5ebec7d5bd14f71427d1e84f3dd0314c0f7b2291e5b200ac8c7c3b925929181900390910190a35060019392505050565b60035460009060a060020a900460ff1615610bd457600080fd5b6103cc8383610e7c565b336000908152600260209081526040808320600160a060020a0386168452909152812054610c12908363ffffffff610f5b16565b336000818152600260209081526040808320600160a060020a0389168085529083529281902085905580519485525191937f8c5be1e5ebec7d5bd14f71427d1e84f3dd0314c0f7b2291e5b200ac8c7c3b925929081900390910190a350600192915050565b600160a060020a0381161515610c8c57600080fd5b600354604051600160a060020a038084169216907f8be0079c531659141344cd1fd0a4f28419497f9722a3daafe3b4186f6b6457e090600090a36003805473ffffffffffffffffffffffffffffffffffffffff1916600160a060020a0392909216919091179055565b600160a060020a038316600090815260208190526040812054821115610d1a57600080fd5b600160a060020a0384166000908152600260209081526040808320338452909152902054821115610d4a57600080fd5b600160a060020a0383161515610d5f57600080fd5b600160a060020a038416600090815260208190526040902054610d88908363ffffffff610e6a16565b600160a060020a038086166000908152602081905260408082209390935590851681522054610dbd908363ffffffff610f5b16565b600160a060020a03808516600090815260208181526040808320949094559187168152600282528281203382529091522054610dff908363ffffffff610e6a16565b600160a060020a03808616600081815260026020908152604080832033845282529182902094909455805186815290519287169391927fddf252ad1be2c89b69c2b068fc378daa952ba7f163c4a11628f55a4df523b3ef929181900390910190a35060019392505050565b600082821115610e7657fe5b50900390565b33600090815260208190526040812054821115610e9857600080fd5b600160a060020a0383161515610ead57600080fd5b33600090815260208190526040902054610ecd908363ffffffff610e6a16565b3360009081526020819052604080822092909255600160a060020a03851681522054610eff908363ffffffff610f5b16565b600160a060020a038416600081815260208181526040918290209390935580518581529051919233927fddf252ad1be2c89b69c2b068fc378daa952ba7f163c4a11628f55a4df523b3ef9281900390910190a350600192915050565b81810182811015610f6857fe5b929150505600a165627a7a723058203e01cf23bca605627a6a6a3c556260f89cececd8bcba4423977c1864410f4fd40029",
  "source": "pragma solidity ^0.4.24;\n\nimport \"../../node_modules/openzeppelin-solidity/contracts/token/ERC20/PausableToken.sol\";\n\n\n/**\n * @title Contract for enforcing a list of addresses allowed to send or receive tokens\n * @dev Until the whitelist expiration expires, this contract only permits\n * token transfers in which an allowed transactor is either the sender or\n * recipient. Once the whitelist expiration passes, it becomes impossible to\n * re-enable the whitelist.\n *\n * This contract inherits from PausableToken to enforce both pausing and\n * whitelists for transfer calls.\n */\ncontract WhitelistedPausableToken is PausableToken {\n    // UNIX timestamp (in seconds) after which this whitelist no longer applies\n    uint256 public whitelistExpiration;\n    // While the whitelist is active, either the sender or recipient must be\n    // in allowedTransactors.\n    mapping (address => bool) public allowedTransactors;\n\n    event SetWhitelistExpiration(uint256 expiration);\n    event AllowedTransactorAdded(address sender);\n    event AllowedTransactorRemoved(address sender);\n\n    //\n    // Functions for maintaining whitelist\n    //\n\n    modifier allowedTransfer(address _from, address _to) {\n        require(\n            // solium-disable-next-line operator-whitespace\n            !whitelistActive() ||\n            allowedTransactors[_from] ||\n            allowedTransactors[_to],\n            \"neither sender nor recipient are allowed\"\n        );\n        _;\n    }\n\n    function whitelistActive() public view returns (bool) {\n        return block.timestamp < whitelistExpiration;\n    }\n\n    function addAllowedTransactor(address _transactor) public onlyOwner {\n        emit AllowedTransactorAdded(_transactor);\n        allowedTransactors[_transactor] = true;\n    }\n\n    function removeAllowedTransactor(address _transactor) public onlyOwner {\n        emit AllowedTransactorRemoved(_transactor);\n        delete allowedTransactors[_transactor];\n    }\n\n    /**\n    * @dev Set the whitelist expiration, after which the whitelist no longer\n    * applies.\n    */\n    function setWhitelistExpiration(uint256 _expiration) public onlyOwner {\n        // allow only if whitelist expiration hasn't yet been set, or if the\n        // whitelist expiration hasn't passed yet\n        require(\n            whitelistExpiration == 0 || whitelistActive(),\n            \"an expired whitelist cannot be extended\"\n        );\n        // prevent possible mistakes in calling this function\n        require(\n            _expiration >= block.timestamp + 1 days,\n            \"whitelist expiration not far enough into the future\"\n        );\n        emit SetWhitelistExpiration(_expiration);\n        whitelistExpiration = _expiration;\n    }\n\n    //\n    // ERC20 transfer functions that have been overridden to enforce the\n    // whitelist.\n    //\n\n    function transfer(\n        address _to,\n        uint256 _value\n    )\n        public\n        allowedTransfer(msg.sender, _to)\n        returns (bool)\n    {\n        return super.transfer(_to, _value);\n    }\n\n    function transferFrom(\n        address _from,\n        address _to,\n        uint256 _value\n    )\n    public\n        allowedTransfer(_from, _to)\n    returns (bool)\n    {\n        return super.transferFrom(_from, _to, _value);\n    }\n}\n",
  "sourcePath": "/Users/franck/src/3rd_origin/origin/origin-contracts/contracts/token/WhitelistedPausableToken.sol",
  "compiler": {
    "name": "solc",
    "version": "0.4.25+commit.59dbf8f1.Emscripten.clang"
  },
  "schemaVersion": "2.0.2",
  "updatedAt": "2019-01-11T06:04:45.979Z"
}