{
  "contractName": "IdentityEvents",
  "abi": [
    {
      "anonymous": false,
      "inputs": [
        {
          "indexed": true,
          "name": "account",
          "type": "address"
        },
        {
          "indexed": false,
          "name": "ipfsHash",
          "type": "bytes32"
        }
      ],
      "name": "IdentityUpdated",
      "type": "event"
    },
    {
      "anonymous": false,
      "inputs": [
        {
          "indexed": true,
          "name": "account",
          "type": "address"
        }
      ],
      "name": "IdentityDeleted",
      "type": "event"
    },
    {
      "constant": false,
      "inputs": [
        {
          "name": "ipfsHash",
          "type": "bytes32"
        }
      ],
      "name": "emitIdentityUpdated",
      "outputs": [],
      "payable": false,
      "stateMutability": "nonpayable",
      "type": "function"
    },
    {
      "constant": false,
      "inputs": [],
      "name": "emitIdentityDeleted",
      "outputs": [],
      "payable": false,
      "stateMutability": "nonpayable",
      "type": "function"
    }
  ],
  "bytecode": "0x608060405234801561001057600080fd5b50610108806100206000396000f30060806040526004361060485763ffffffff7c0100000000000000000000000000000000000000000000000000000000600035041663a30749df8114604d578063a3ded896146064575b600080fd5b348015605857600080fd5b5060626004356076565b005b348015606f57600080fd5b50606260af565b60408051828152905133917f8a49a94a170e0377e29de8e4b741993bed3dc902443fdc59d79e455137ecab18919081900360200190a250565b60405133907fc24bb9f4ebb7a8b8d37e375af6ac3f7e39d0218d2042bbd057d783048a904cd890600090a25600a165627a7a723058204d6dd6e5b330b52bfb57de6c3e36159ec823fc2ae92ea36eb490486af94a5fb80029",
  "source": "pragma solidity ^0.4.24;\n\n//\n// A contract to emit events to track changes of users identity data stored in IPFS.\n//\n\ncontract IdentityEvents {\n    event IdentityUpdated(address indexed account, bytes32 ipfsHash);\n    event IdentityDeleted(address indexed account);\n\n    // @param ipfsHash IPFS hash of the updated identity.\n    function emitIdentityUpdated(bytes32 ipfsHash) public {\n        emit IdentityUpdated(msg.sender, ipfsHash);\n    }\n\n    function emitIdentityDeleted() public {\n        emit IdentityDeleted(msg.sender);\n    }\n}",
  "sourcePath": "/Users/tom/Code/origin/packages/contracts/contracts/identity/IdentityEvents.sol",
  "compiler": {
    "name": "solc",
    "version": "0.4.25+commit.59dbf8f1.Emscripten.clang"
  },
  "schemaVersion": "2.0.2",
  "updatedAt": "2019-04-27T09:55:23.861Z"
}