{
  "contractName": "TokenMigration",
  "abi": [
    {
      "constant": true,
      "inputs": [],
      "name": "fromToken",
      "outputs": [
        {
          "name": "",
          "type": "address"
        }
      ],
      "payable": false,
      "stateMutability": "view",
      "type": "function"
    },
    {
      "constant": true,
      "inputs": [],
      "name": "toToken",
      "outputs": [
        {
          "name": "",
          "type": "address"
        }
      ],
      "payable": false,
      "stateMutability": "view",
      "type": "function"
    },
    {
      "constant": true,
      "inputs": [
        {
          "name": "",
          "type": "address"
        }
      ],
      "name": "migrated",
      "outputs": [
        {
          "name": "",
          "type": "bool"
        }
      ],
      "payable": false,
      "stateMutability": "view",
      "type": "function"
    },
    {
      "constant": false,
      "inputs": [],
      "name": "renounceOwnership",
      "outputs": [],
      "payable": false,
      "stateMutability": "nonpayable",
      "type": "function"
    },
    {
      "constant": true,
      "inputs": [],
      "name": "owner",
      "outputs": [
        {
          "name": "",
          "type": "address"
        }
      ],
      "payable": false,
      "stateMutability": "view",
      "type": "function"
    },
    {
      "constant": true,
      "inputs": [],
      "name": "finished",
      "outputs": [
        {
          "name": "",
          "type": "bool"
        }
      ],
      "payable": false,
      "stateMutability": "view",
      "type": "function"
    },
    {
      "constant": false,
      "inputs": [
        {
          "name": "_newOwner",
          "type": "address"
        }
      ],
      "name": "transferOwnership",
      "outputs": [],
      "payable": false,
      "stateMutability": "nonpayable",
      "type": "function"
    },
    {
      "inputs": [
        {
          "name": "_fromToken",
          "type": "address"
        },
        {
          "name": "_toToken",
          "type": "address"
        }
      ],
      "payable": false,
      "stateMutability": "nonpayable",
      "type": "constructor"
    },
    {
      "anonymous": false,
      "inputs": [
        {
          "indexed": true,
          "name": "account",
          "type": "address"
        },
        {
          "indexed": false,
          "name": "balance",
          "type": "uint256"
        }
      ],
      "name": "Migrated",
      "type": "event"
    },
    {
      "anonymous": false,
      "inputs": [],
      "name": "MigrationFinished",
      "type": "event"
    },
    {
      "anonymous": false,
      "inputs": [
        {
          "indexed": true,
          "name": "previousOwner",
          "type": "address"
        }
      ],
      "name": "OwnershipRenounced",
      "type": "event"
    },
    {
      "anonymous": false,
      "inputs": [
        {
          "indexed": true,
          "name": "previousOwner",
          "type": "address"
        },
        {
          "indexed": true,
          "name": "newOwner",
          "type": "address"
        }
      ],
      "name": "OwnershipTransferred",
      "type": "event"
    },
    {
      "constant": false,
      "inputs": [
        {
          "name": "_holders",
          "type": "address[]"
        }
      ],
      "name": "migrateAccounts",
      "outputs": [],
      "payable": false,
      "stateMutability": "nonpayable",
      "type": "function"
    },
    {
      "constant": false,
      "inputs": [
        {
          "name": "_holder",
          "type": "address"
        }
      ],
      "name": "migrateAccount",
      "outputs": [],
      "payable": false,
      "stateMutability": "nonpayable",
      "type": "function"
    },
    {
      "constant": false,
      "inputs": [
        {
          "name": "_newTokenOwner",
          "type": "address"
        }
      ],
      "name": "finish",
      "outputs": [],
      "payable": false,
      "stateMutability": "nonpayable",
      "type": "function"
    }
  ],
  "bytecode": "0x608060405234801561001057600080fd5b50604051604080610e5183398101604052805160209091015160008054600160a060020a03199081163390811782161790915560018054600160a060020a0394851690831617905560028054939092169216919091179055610dda806100776000396000f30060806040526004361061008a5763ffffffff60e060020a600035041663305ec69e811461008f57806332a46857146100b25780633c930575146100e35780634ba0a5ee146100f8578063715018a61461012d5780638da5cb5b14610142578063a45c52d114610157578063bef4876b14610178578063c8df7fc61461018d578063f2fde38b146101e2575b600080fd5b34801561009b57600080fd5b506100b0600160a060020a0360043516610203565b005b3480156100be57600080fd5b506100c761053d565b60408051600160a060020a039092168252519081900360200190f35b3480156100ef57600080fd5b506100c761054c565b34801561010457600080fd5b50610119600160a060020a036004351661055b565b604080519115158252519081900360200190f35b34801561013957600080fd5b506100b0610570565b34801561014e57600080fd5b506100c76105dc565b34801561016357600080fd5b506100b0600160a060020a03600435166105eb565b34801561018457600080fd5b5061011961085f565b34801561019957600080fd5b50604080516020600480358082013583810280860185019096528085526100b0953695939460249493850192918291850190849080828437509497506108689650505050505050565b3480156101ee57600080fd5b506100b0600160a060020a0360043516610b0a565b600054600160a060020a0316331461021a57600080fd5b60045460ff1615610275576040805160e560020a62461bcd02815260206004820152601a60248201527f6d6967726174696f6e20616c72656164792066696e6973686564000000000000604482015290519081900360640190fd5b600260009054906101000a9004600160a060020a0316600160a060020a03166318160ddd6040518163ffffffff1660e060020a028152600401602060405180830381600087803b1580156102c857600080fd5b505af11580156102dc573d6000803e3d6000fd5b505050506040513d60208110156102f257600080fd5b5051600154604080517f18160ddd0000000000000000000000000000000000000000000000000000000081529051600160a060020a03909216916318160ddd916004808201926020929091908290030181600087803b15801561035457600080fd5b505af1158015610368573d6000803e3d6000fd5b505050506040513d602081101561037e57600080fd5b5051146103fb576040805160e560020a62461bcd02815260206004820152602160248201527f746f74616c20746f6b656e20737570706c69657320646f206e6f74206d61746360448201527f6800000000000000000000000000000000000000000000000000000000000000606482015290519081900360840190fd5b600160a060020a038116301415610482576040805160e560020a62461bcd02815260206004820152602b60248201527f7468697320636f6e74726163742063616e6e6f74206f776e2074686520746f6b60448201527f656e20636f6e7472616374000000000000000000000000000000000000000000606482015290519081900360840190fd5b6004805460ff19166001178155600254604080517ff2fde38b000000000000000000000000000000000000000000000000000000008152600160a060020a03858116948201949094529051929091169163f2fde38b9160248082019260009290919082900301818387803b1580156104f957600080fd5b505af115801561050d573d6000803e3d6000fd5b50506040517fceab6b91af27f4253aa8bd4ee8179c32d60bede7297c333dcb56de2641c05544925060009150a150565b600154600160a060020a031681565b600254600160a060020a031681565b60036020526000908152604090205460ff1681565b600054600160a060020a0316331461058757600080fd5b60008054604051600160a060020a03909116917ff8df31144d9c2f0f6b59d69b8b98abd5459d07f2742c4df920b25aae33c6482091a26000805473ffffffffffffffffffffffffffffffffffffffff19169055565b600054600160a060020a031681565b600054600160a060020a0316331461060257600080fd5b60045460ff161561065d576040805160e560020a62461bcd02815260206004820152601a60248201527f6d6967726174696f6e20616c72656164792066696e6973686564000000000000604482015290519081900360640190fd5b600160009054906101000a9004600160a060020a0316600160a060020a0316635c975abb6040518163ffffffff1660e060020a028152600401602060405180830381600087803b1580156106b057600080fd5b505af11580156106c4573d6000803e3d6000fd5b505050506040513d60208110156106da57600080fd5b50511515610758576040805160e560020a62461bcd02815260206004820152602b60248201527f66726f6d546f6b656e2073686f756c642062652070617573656420647572696e60448201527f67206d6967726174696f6e000000000000000000000000000000000000000000606482015290519081900360840190fd5b600260009054906101000a9004600160a060020a0316600160a060020a0316635c975abb6040518163ffffffff1660e060020a028152600401602060405180830381600087803b1580156107ab57600080fd5b505af11580156107bf573d6000803e3d6000fd5b505050506040513d60208110156107d557600080fd5b50511515610853576040805160e560020a62461bcd02815260206004820152602960248201527f746f546f6b656e2073686f756c642062652070617573656420647572696e672060448201527f6d6967726174696f6e0000000000000000000000000000000000000000000000606482015290519081900360840190fd5b61085c81610b2a565b50565b60045460ff1681565b60008054600160a060020a0316331461088057600080fd5b60045460ff16156108db576040805160e560020a62461bcd02815260206004820152601a60248201527f6d6967726174696f6e20616c72656164792066696e6973686564000000000000604482015290519081900360640190fd5b600160009054906101000a9004600160a060020a0316600160a060020a0316635c975abb6040518163ffffffff1660e060020a028152600401602060405180830381600087803b15801561092e57600080fd5b505af1158015610942573d6000803e3d6000fd5b505050506040513d602081101561095857600080fd5b505115156109d6576040805160e560020a62461bcd02815260206004820152602b60248201527f66726f6d546f6b656e2073686f756c642062652070617573656420647572696e60448201527f67206d6967726174696f6e000000000000000000000000000000000000000000606482015290519081900360840190fd5b600260009054906101000a9004600160a060020a0316600160a060020a0316635c975abb6040518163ffffffff1660e060020a028152600401602060405180830381600087803b158015610a2957600080fd5b505af1158015610a3d573d6000803e3d6000fd5b505050506040513d6020811015610a5357600080fd5b50511515610ad1576040805160e560020a62461bcd02815260206004820152602960248201527f746f546f6b656e2073686f756c642062652070617573656420647572696e672060448201527f6d6967726174696f6e0000000000000000000000000000000000000000000000606482015290519081900360840190fd5b5060005b8151811015610b0657610afe8282815181101515610aef57fe5b90602001906020020151610b2a565b600101610ad5565b5050565b600054600160a060020a03163314610b2157600080fd5b61085c81610d31565b600160a060020a03811660009081526003602052604081205460ff1615610b9b576040805160e560020a62461bcd02815260206004820152601760248201527f686f6c64657220616c7265616479206d69677261746564000000000000000000604482015290519081900360640190fd5b600154604080517f70a08231000000000000000000000000000000000000000000000000000000008152600160a060020a038581166004830152915191909216916370a082319160248083019260209291908290030181600087803b158015610c0357600080fd5b505af1158015610c17573d6000803e3d6000fd5b505050506040513d6020811015610c2d57600080fd5b505190506000811115610b0657600254604080517f40c10f19000000000000000000000000000000000000000000000000000000008152600160a060020a03858116600483015260248201859052915191909216916340c10f199160448083019260209291908290030181600087803b158015610ca957600080fd5b505af1158015610cbd573d6000803e3d6000fd5b505050506040513d6020811015610cd357600080fd5b5050600160a060020a038216600081815260036020908152604091829020805460ff19166001179055815184815291517f8b80bd19aea7b735bc6d75db8d6adbe18b28c30d62b3555245eb67b2340caedc9281900390910190a25050565b600160a060020a0381161515610d4657600080fd5b60008054604051600160a060020a03808516939216917f8be0079c531659141344cd1fd0a4f28419497f9722a3daafe3b4186f6b6457e091a36000805473ffffffffffffffffffffffffffffffffffffffff1916600160a060020a03929092169190911790555600a165627a7a723058205f78a45b823876252d345a55382ba95b79259b088b2315711ef1e99481dc8e960029",
  "source": "pragma solidity ^0.4.24;\n\nimport \"../../node_modules/openzeppelin-solidity/contracts/ownership/Ownable.sol\";\nimport \"../../node_modules/openzeppelin-solidity/contracts/token/ERC20/ERC20.sol\";\nimport \"./OriginToken.sol\";\n\n\n/**\n * @title Migrates balances from one token contract to another\n * @dev Migrates all balances from one token contract to another. Both contracts\n * must be pausable (to prevent changes during migration), and the target\n * contract must support minting tokens.\n */\ncontract TokenMigration is Ownable {\n    OriginToken public fromToken;\n    OriginToken public toToken;\n    mapping (address => bool) public migrated;\n    bool public finished;\n\n    event Migrated(address indexed account, uint256 balance);\n    event MigrationFinished();\n\n    modifier notFinished() {\n        require(!finished, \"migration already finished\");\n        _;\n    }\n\n    // @dev Public constructor\n    constructor(OriginToken _fromToken, OriginToken _toToken) public {\n        owner = msg.sender;\n        fromToken = _fromToken;\n        toToken = _toToken;\n    }\n\n    // @dev Migrates a set of accounts, which should be limited in size so that\n    // the transaction is under the gas limit.\n    function migrateAccounts(address[] _holders) public onlyOwner notFinished {\n        require(fromToken.paused(), \"fromToken should be paused during migration\");\n        require(toToken.paused(), \"toToken should be paused during migration\");\n        \n        for (uint i = 0; i < _holders.length; i++) {\n            _migrateAccount(_holders[i]);\n        }\n    }\n\n    // @dev Migrates the balance for a single address by minting the same number\n    // of new tokens the address had with the old token.\n    function migrateAccount(address _holder) public onlyOwner notFinished {\n        require(fromToken.paused(), \"fromToken should be paused during migration\");\n        require(toToken.paused(), \"toToken should be paused during migration\");\n\n        _migrateAccount(_holder);\n    }\n\n    // @dev Finishes migration and transfers token ownership to new owner.\n    function finish(address _newTokenOwner) public onlyOwner notFinished {\n        require(\n            fromToken.totalSupply() == toToken.totalSupply(),\n            \"total token supplies do not match\"\n        );\n        require(\n            _newTokenOwner != address(this),\n            \"this contract cannot own the token contract\"\n        );\n        finished = true;\n        toToken.transferOwnership(_newTokenOwner);\n        emit MigrationFinished();\n    }\n\n    // @dev Internal account migration function.\n    function _migrateAccount(address _holder) internal {\n        require(!migrated[_holder], \"holder already migrated\");\n\n        uint256 balance = fromToken.balanceOf(_holder);\n        if (balance > 0) {\n            toToken.mint(_holder, balance);\n            migrated[_holder] = true;\n            emit Migrated(_holder, balance);\n        }\n    }\n\n    // TODO: revisit whether we want to migrate approvals\n}",
  "sourcePath": "/Users/tom/Code/origin/packages/contracts/contracts/token/TokenMigration.sol",
  "compiler": {
    "name": "solc",
    "version": "0.4.25+commit.59dbf8f1.Emscripten.clang"
  },
  "schemaVersion": "2.0.2",
  "updatedAt": "2019-04-27T07:02:41.170Z"
}