{
  "contractName": "Listing",
  "abi": [
    {
      "constant": true,
      "inputs": [
        {
          "name": "_index",
          "type": "uint256"
        }
      ],
      "name": "getListing",
      "outputs": [
        {
          "name": "",
          "type": "uint256"
        },
        {
          "name": "",
          "type": "address"
        },
        {
          "name": "",
          "type": "bytes32"
        },
        {
          "name": "",
          "type": "uint256"
        },
        {
          "name": "",
          "type": "uint256"
        }
      ],
      "payable": false,
      "stateMutability": "view",
      "type": "function"
    },
    {
      "constant": false,
      "inputs": [
        {
          "name": "_index",
          "type": "uint256"
        },
        {
          "name": "_unitsToBuy",
          "type": "uint256"
        }
      ],
      "name": "buyListing",
      "outputs": [],
      "payable": true,
      "stateMutability": "payable",
      "type": "function"
    },
    {
      "constant": true,
      "inputs": [],
      "name": "listingsLength",
      "outputs": [
        {
          "name": "",
          "type": "uint256"
        }
      ],
      "payable": false,
      "stateMutability": "view",
      "type": "function"
    },
    {
      "constant": true,
      "inputs": [],
      "name": "owner_address",
      "outputs": [
        {
          "name": "",
          "type": "address"
        }
      ],
      "payable": false,
      "stateMutability": "view",
      "type": "function"
    },
    {
      "constant": false,
      "inputs": [
        {
          "name": "_ipfsHash",
          "type": "bytes32"
        },
        {
          "name": "_price",
          "type": "uint256"
        },
        {
          "name": "_unitsAvailable",
          "type": "uint256"
        }
      ],
      "name": "create",
      "outputs": [
        {
          "name": "",
          "type": "uint256"
        }
      ],
      "payable": false,
      "stateMutability": "nonpayable",
      "type": "function"
    },
    {
      "constant": false,
      "inputs": [],
      "name": "testingAddSampleListings",
      "outputs": [],
      "payable": false,
      "stateMutability": "nonpayable",
      "type": "function"
    },
    {
      "constant": true,
      "inputs": [
        {
          "name": "",
          "type": "uint256"
        }
      ],
      "name": "listings",
      "outputs": [
        {
          "name": "lister",
          "type": "address"
        },
        {
          "name": "ipfsHash",
          "type": "bytes32"
        },
        {
          "name": "price",
          "type": "uint256"
        },
        {
          "name": "unitsAvailable",
          "type": "uint256"
        }
      ],
      "payable": false,
      "stateMutability": "view",
      "type": "function"
    },
    {
      "inputs": [],
      "payable": false,
      "stateMutability": "nonpayable",
      "type": "constructor"
    },
    {
      "anonymous": false,
      "inputs": [
        {
          "indexed": false,
          "name": "_from",
          "type": "address"
        }
      ],
      "name": "UpdateListings",
      "type": "event"
    },
    {
      "anonymous": false,
      "inputs": [
        {
          "indexed": false,
          "name": "_index",
          "type": "uint256"
        }
      ],
      "name": "NewListing",
      "type": "event"
    },
    {
      "anonymous": false,
      "inputs": [
        {
          "indexed": false,
          "name": "_index",
          "type": "uint256"
        },
        {
          "indexed": false,
          "name": "_unitsToBuy",
          "type": "uint256"
        },
        {
          "indexed": false,
          "name": "_value",
          "type": "uint256"
        }
      ],
      "name": "ListingPurchased",
      "type": "event"
    }
  ],
  "bytecode": "0x6060604052341561000f57600080fd5b60008054600160a060020a03191633600160a060020a031617905561003f64010000000061004481026104d61704565b610331565b60005433600160a060020a0390811691161461005f57600080fd5b6100a07f4f32f7a7d40b4d65a917926cbfd8fd521483e7472bcc4d024179735622447dc967377f4d4ff8c9800060016401000000006103b46101ab82021704565b506100e27fa183d4eb3552e730c2dd3df91384426eb88879869b890ad12698320d8b88cb48670853a0d2313c000060016401000000006103b46101ab82021704565b506101247fab92c0500ba26fa6f5244f8ba54746e15dd455a7c99a67f0e8f8868c8fab4a1a6775f610f70ed2000060016401000000006103b46101ab82021704565b506101667f6b14cac30356789cd0c39fec0acc2176c3573abdb799f3b17ccc6972ab4d39ba6714d1120d7b16000060016401000000006103b46101ab82021704565b506101a87fff5957ff4035d28dcee79e65aa4124a4de4dcc8cb028faca54c883a5497d8917670429d069189e000060196401000000006103b46101ab82021704565b50565b6000600180548060010182816101c191906102c0565b9160005260206000209060040201600060806040519081016040908152600160a060020a03331682526020820189905281018790526060810186905291905081518154600160a060020a031916600160a060020a03919091161781556020820151600182015560408201518160020155606082015181600301555050507f03531c5c818e79a3e5eeacb3ac38d4caf6a195f3237c8d61efe0a72385a3b8d833604051600160a060020a03909116815260200160405180910390a16001547fd8562534ed9a3ce564a595a66dbcc871a37cff70205ea8bc8d0276dcaa4d1009906000190160405190815260200160405180910390a1506001549392505050565b8154818355818115116102ec576004028160040283600052602060002091820191016102ec91906102f1565b505050565b61032e91905b8082111561032a578054600160a060020a03191681556000600182018190556002820181905560038201556004016102f7565b5090565b90565b6106e5806103406000396000f3006060604052600436106100825763ffffffff7c0100000000000000000000000000000000000000000000000000000000600035041663107a274a81146100875780636d0ba1d3146100d65780637afd81f5146100e657806380edef8e1461010b578063b5f8c36b1461013a578063c72c59d614610156578063de74e57b14610169575b600080fd5b341561009257600080fd5b61009d6004356101b5565b604051948552600160a060020a0390931660208501526040808501929092526060840152608083019190915260a0909101905180910390f35b6100e460043560243561025f565b005b34156100f157600080fd5b6100f961039e565b60405190815260200160405180910390f35b341561011657600080fd5b61011e6103a5565b604051600160a060020a03909116815260200160405180910390f35b341561014557600080fd5b6100f96004356024356044356103b4565b341561016157600080fd5b6100e46104d6565b341561017457600080fd5b61017f6004356105fc565b604051600160a060020a039094168452602084019290925260408084019190915260608301919091526080909101905180910390f35b6000806000806000856001878154811015156101cd57fe5b600091825260209091206004909102015460018054600160a060020a0390921691899081106101f857fe5b90600052602060002090600402016001015460018981548110151561021957fe5b90600052602060002090600402016002015460018a81548110151561023a57fe5b9060005260206000209060040201600301549450945094509450945091939590929450565b6001548290811061026f57600080fd5b828260018281548110151561028057fe5b90600052602060002090600402016003015481111515156102a057600080fd5b8484806001838154811015156102b257fe5b9060005260206000209060040201600201540234101515156102d357600080fd5b856001888154811015156102e357fe5b600091825260209091206003600490920201018054919091039055600180548890811061030c57fe5b6000918252602090912060049091020154600160a060020a03163480156108fc0290604051600060405180830381858888f19350505050151561034e57600080fd5b7febc52b25c0108d30cc8822c3d55c316fe0dbcd325738f0a17a673c04acf5e36f87873460405180848152602001838152602001828152602001935050505060405180910390a150505050505050565b6001545b90565b600054600160a060020a031681565b6000600180548060010182816103ca919061063e565b9160005260206000209060040201600060806040519081016040908152600160a060020a0333168252602082018990528101879052606081018690529190508151815473ffffffffffffffffffffffffffffffffffffffff1916600160a060020a03919091161781556020820151600182015560408201518160020155606082015181600301555050507f03531c5c818e79a3e5eeacb3ac38d4caf6a195f3237c8d61efe0a72385a3b8d833604051600160a060020a03909116815260200160405180910390a16001547fd8562534ed9a3ce564a595a66dbcc871a37cff70205ea8bc8d0276dcaa4d1009906000190160405190815260200160405180910390a1506001549392505050565b60005433600160a060020a039081169116146104f157600080fd5b6105257f4f32f7a7d40b4d65a917926cbfd8fd521483e7472bcc4d024179735622447dc967377f4d4ff8c9800060016103b4565b5061055a7fa183d4eb3552e730c2dd3df91384426eb88879869b890ad12698320d8b88cb48670853a0d2313c000060016103b4565b5061058f7fab92c0500ba26fa6f5244f8ba54746e15dd455a7c99a67f0e8f8868c8fab4a1a6775f610f70ed2000060016103b4565b506105c47f6b14cac30356789cd0c39fec0acc2176c3573abdb799f3b17ccc6972ab4d39ba6714d1120d7b16000060016103b4565b506105f97fff5957ff4035d28dcee79e65aa4124a4de4dcc8cb028faca54c883a5497d8917670429d069189e000060196103b4565b50565b600180548290811061060a57fe5b60009182526020909120600490910201805460018201546002830154600390930154600160a060020a039092169350919084565b81548183558181151161066a5760040281600402836000526020600020918201910161066a919061066f565b505050565b6103a291905b808211156106b557805473ffffffffffffffffffffffffffffffffffffffff19168155600060018201819055600282018190556003820155600401610675565b50905600a165627a7a7230582059434fc130288dba1e181f83a0a1413a8de16a2708a480e4e14819c578e384c30029",
  "source": "pragma solidity ^0.4.11;\n\n/// @title Listing\n/// @dev Used to keep marketplace of listings for buyers and sellers\n/// @author Matt Liu <matt@originprotocol.com>, Josh Fraser <josh@originprotocol.com>, Stan James <stan@originprotocol.com>\n\ncontract Listing {\n\n  /*\n   * Events\n   */\n\n  // Event denoting that a given address has updated its array of listings\n  // Currently, this means creating or deleting listings\n  // In the future, we will have separate events for specific actions\n  event UpdateListings(address _from);\n  event NewListing(uint _index);\n  event ListingPurchased(uint _index, uint _unitsToBuy, uint _value);\n\n  /*\n   * Storage\n   */\n\n  // Contract owner\n  address public owner_address;\n\n  // Array of all listings\n  listingStruct[] public listings;\n\n\n  /*\n   * Structs\n   */\n\n  struct listingStruct {\n    address lister;\n    // Assume IPFS defaults for hash: function:0x12=sha2, size:0x20=256 bits\n    // See: https://ethereum.stackexchange.com/a/17112/20332\n    // This assumption may have to change in future, but saves space now\n    bytes32 ipfsHash;\n    uint price;\n    uint unitsAvailable;\n  }\n\n\n  /*\n   * Modifiers\n   */\n  modifier isValidListingIndex(uint _index) {\n    require (_index < listings.length);\n    _;\n  }\n\n  modifier hasUnitsAvailable(uint _index, uint _unitsToBuy) {\n    require (_unitsToBuy <= listings[_index].unitsAvailable);\n    _;\n  }\n\n  modifier hasValueToPurchase(uint _index, uint _unitsToBuy) {\n    require (msg.value >= (listings[_index].price * _unitsToBuy));\n    _;\n  }\n\n  modifier isOwner() {\n    require (msg.sender == owner_address);\n    _;\n  }\n\n\n  /*\n   * Public functions\n   */\n\n  function Listing()\n    public\n  {\n    // Defines origin admin address - may be removed for public deployment\n    owner_address = msg.sender;\n\n    // Sample Listings - May be removed for public deployment\n    testingAddSampleListings();\n  }\n\n  function testingAddSampleListings()\n    public\n    isOwner\n  {\n    // We get stripped hex value from IPFS hash using getBytes32FromIpfsHash()\n    // in contract-service.js\n\n    // Zinc house - Hash: QmTfozaMrUBZdYBzPgxuSC15zBRgLCEfQmWFZwmDHYGY1e\n    create(\n      0x4f32f7a7d40b4d65a917926cbfd8fd521483e7472bcc4d024179735622447dc9,\n      3.999 ether, 1\n    );\n\n    // Scout II - Hash: QmZD8wZWEqzKwvEtGWXzCb3MuXvmxLdCxXGHMRocQFnpoy\n    create(\n      0xa183d4eb3552e730c2dd3df91384426eb88879869b890ad12698320d8b88cb48,\n      0.600 ether, 1\n    );\n\n    // Mamalahoa Estate - Hash: QmZtQDL4UjQWryQLjsS5JUsbdbn2B27Tmvz2gvLkw7wmmb\n    create(\n      0xab92c0500ba26fa6f5244f8ba54746e15dd455a7c99a67f0e8f8868c8fab4a1a,\n      8.500 ether, 1\n    );\n\n    // Casa Wolf - Hash: QmVYeipL2JWFkpWsGqNNXDFUVAmPWEEK8u3Q45CZ1YrZPf\n    create(\n      0x6b14cac30356789cd0c39fec0acc2176c3573abdb799f3b17ccc6972ab4d39ba,\n      1.500 ether, 1\n    );\n\n    // Taylor Swift - Hash: QmfXRgtSbrGggApvaFCa88ofeNQP79G18DpWaSW1Wya1u8\n    create(\n      0xff5957ff4035d28dcee79e65aa4124a4de4dcc8cb028faca54c883a5497d8917,\n      0.300 ether, 25\n    );\n\n    // // Red shoe - Hash: QmfF4JBA4fEYDkZqjRHnDxWGGoXg5D1T4WqfDrN4GXP33p\n    // create(\n    //   0xfb27dcfe2c7febe98d755e2f9df0ff73fb8abecaa778f540d0cbf28b059306db,\n    //   0.01 ether, 1\n    // );\n\n    // // Lambo - Hash: QmYsNo3fYTXQRHREYeoGUGLuYETnjx3HxQFMeiZuE7zPSf\n    // create(\n    //   0x9c73e11ffa575504295be4ece1d4ea49df33261f8eb6a4a7e313e4bb74abf150,\n    //   2.50 ether, 1\n    // );\n  }\n\n  /// @dev listingsLength(): Return number of listings\n  function listingsLength()\n    public\n    constant\n    returns (uint)\n  {\n      return listings.length;\n  }\n\n  /// @dev getListing(): Return listing info for given listing\n  /// @param _index the index of the listing we want info about\n  function getListing(uint _index)\n    public\n    constant\n    returns (uint, address, bytes32, uint, uint)\n  {\n    // TODO (Stan): Determine if less gas to do one array lookup into var, and\n    // return var struct parts\n    return (\n      _index,\n      listings[_index].lister,\n      listings[_index].ipfsHash,\n      listings[_index].price,\n      listings[_index].unitsAvailable\n    );\n  }\n\n  /// @dev create(): Create a new listing\n  /// @param _ipfsHash Hash of data on ipfsHash\n  /// @param _price Price of unit. Currently ETH, will change to 0T\n  /// @param _unitsAvailable Number of units availabe for sale at start\n  function create(\n    bytes32 _ipfsHash,\n    uint _price,\n    uint _unitsAvailable\n  )\n    public\n    returns (uint)\n  {\n    listings.push(listingStruct(msg.sender, _ipfsHash, _price, _unitsAvailable));\n    UpdateListings(msg.sender);\n    NewListing(listings.length-1);\n    return listings.length;\n  }\n\n\n  /// @dev buyListing(): Buy a listing\n  /// @param _index Index of listing to buy\n  /// @param _unitsToBuy Number of units to buy\n  function buyListing(uint _index, uint _unitsToBuy)\n    public\n    payable\n    isValidListingIndex(_index)\n    hasUnitsAvailable(_index, _unitsToBuy)\n    hasValueToPurchase(_index, _unitsToBuy)\n  {\n    // Count units as sold\n    listings[_index].unitsAvailable -= _unitsToBuy;\n\n    // Send funds to lister\n    // TODO: In future there will likely be some sort of escrow\n    listings[_index].lister.transfer(msg.value);\n\n    ListingPurchased(_index, _unitsToBuy, msg.value);\n  }\n\n}\n",
  "sourcePath": "/Users/stan/Documents/Origin/platform/packages/originSmartContracts/contracts/Listing.sol",
  "compiler": {
    "name": "solc",
    "version": "0.4.18+commit.9cf6e910.Emscripten.clang"
  },
  "schemaVersion": "2.0.0",
  "updatedAt": "2018-02-27T15:21:47.567Z"
}