{
  "contractName": "Listing",
  "abi": [
    {
      "constant": true,
      "inputs": [],
      "name": "listingRegistry",
      "outputs": [
        {
          "name": "",
          "type": "address"
        }
      ],
      "payable": false,
      "stateMutability": "view",
      "type": "function"
    },
    {
      "constant": true,
      "inputs": [],
      "name": "owner",
      "outputs": [
        {
          "name": "",
          "type": "address"
        }
      ],
      "payable": false,
      "stateMutability": "view",
      "type": "function"
    },
    {
      "constant": true,
      "inputs": [],
      "name": "price",
      "outputs": [
        {
          "name": "",
          "type": "uint256"
        }
      ],
      "payable": false,
      "stateMutability": "view",
      "type": "function"
    },
    {
      "constant": true,
      "inputs": [],
      "name": "ipfsHash",
      "outputs": [
        {
          "name": "",
          "type": "bytes32"
        }
      ],
      "payable": false,
      "stateMutability": "view",
      "type": "function"
    },
    {
      "constant": true,
      "inputs": [],
      "name": "unitsAvailable",
      "outputs": [
        {
          "name": "",
          "type": "uint256"
        }
      ],
      "payable": false,
      "stateMutability": "view",
      "type": "function"
    },
    {
      "inputs": [
        {
          "name": "_owner",
          "type": "address"
        },
        {
          "name": "_ipfsHash",
          "type": "bytes32"
        },
        {
          "name": "_price",
          "type": "uint256"
        },
        {
          "name": "_unitsAvailable",
          "type": "uint256"
        }
      ],
      "payable": false,
      "stateMutability": "nonpayable",
      "type": "constructor"
    },
    {
      "anonymous": false,
      "inputs": [
        {
          "indexed": false,
          "name": "_unitsToBuy",
          "type": "uint256"
        },
        {
          "indexed": false,
          "name": "_value",
          "type": "uint256"
        }
      ],
      "name": "ListingPurchased",
      "type": "event"
    },
    {
      "constant": false,
      "inputs": [
        {
          "name": "_unitsToBuy",
          "type": "uint256"
        }
      ],
      "name": "buyListing",
      "outputs": [],
      "payable": true,
      "stateMutability": "payable",
      "type": "function"
    }
  ],
  "bytecode": "0x6060604052341561000f57600080fd5b6040516080806102c68339810160405280805191906020018051919060200180519190602001805160008054600160a060020a03978816600160a060020a031991821617909155600180543390981697909116969096179095555050600291909155600355600455610240806100866000396000f3006060604052600436106100775763ffffffff7c01000000000000000000000000000000000000000000000000000000006000350416634884f459811461007c5780635ebf3e9b146100895780638da5cb5b146100c5578063a035b1fe146100d8578063c623674f146100fd578063c6bbd6af14610110575b600080fd5b610087600435610123565b005b341561009457600080fd5b61009c6101ca565b60405173ffffffffffffffffffffffffffffffffffffffff909116815260200160405180910390f35b34156100d057600080fd5b61009c6101e6565b34156100e357600080fd5b6100eb610202565b60405190815260200160405180910390f35b341561010857600080fd5b6100eb610208565b341561011b57600080fd5b6100eb61020e565b600354810234101561013457600080fd5b60045481111561014357600080fd5b60048054829003905560005473ffffffffffffffffffffffffffffffffffffffff163480156108fc0290604051600060405180830381858888f19350505050151561018d57600080fd5b7f34927e40c3dd0bb68bcfa236352bd151e560ff83b73630cde0f8f20dd621871a813460405191825260208201526040908101905180910390a150565b60015473ffffffffffffffffffffffffffffffffffffffff1681565b60005473ffffffffffffffffffffffffffffffffffffffff1681565b60035481565b60025481565b600454815600a165627a7a7230582083e86c8080958aff73032b630d85fb3a6ce07787388bcc897828a57339b728220029",
  "source": "pragma solidity ^0.4.11;\n\ncontract Listing {\n\n  /*\n   * Events\n   */\n\n  event ListingPurchased(uint _unitsToBuy, uint _value);\n\n    /*\n    * Storage\n    */\n\n    address public owner;\n    address public listingRegistry; // TODO: Define interface for real ListingRegistry ?\n    // Assume IPFS defaults for hash: function:0x12=sha2, size:0x20=256 bits\n    // See: https://ethereum.stackexchange.com/a/17112/20332\n    // This assumption may have to change in future, but saves space now\n    bytes32 public ipfsHash;\n    uint public price;\n    uint public unitsAvailable;\n\n\n    function Listing (\n      address _owner,\n      bytes32 _ipfsHash,\n      uint _price,\n      uint _unitsAvailable\n    )\n    public\n    {\n      owner = _owner;\n      listingRegistry = msg.sender; // ListingRegistry(msg.sender);\n      ipfsHash = _ipfsHash;\n      price = _price;\n      unitsAvailable = _unitsAvailable;\n    }\n\n\n  /// @dev buyListing(): Buy a listing\n  /// @param _unitsToBuy Number of units to buy\n  function buyListing(uint _unitsToBuy)\n    public\n    payable\n  {\n    // Insure there is money to pay\n    require (msg.value >= (price * _unitsToBuy));\n\n    require (_unitsToBuy <= unitsAvailable);\n\n    // Count units as sold\n    unitsAvailable -= _unitsToBuy;\n\n    // Send funds to lister\n    // TODO: In future there will likely be some sort of escrow\n    owner.transfer(msg.value);\n\n    // TODO: this needs to call logging back on the registry\n    ListingPurchased(_unitsToBuy, msg.value);\n  }\n\n}\n",
  "sourcePath": "/Users/braddavis/Developer/origin_protocol/that1guy/platform/packages/originSmartContracts/contracts/Listing.sol",
  "compiler": {
    "name": "solc",
    "version": "0.4.19+commit.c4cbbb05.Emscripten.clang"
  },
  "schemaVersion": "2.0.0",
  "updatedAt": "2018-03-07T17:21:21.061Z"
}