{
  "contractName": "ListingsRegistry",
  "abi": [
    {
      "constant": true,
      "inputs": [],
      "name": "owner_address",
      "outputs": [
        {
          "name": "",
          "type": "address"
        }
      ],
      "payable": false,
      "stateMutability": "view",
      "type": "function"
    },
    {
      "constant": true,
      "inputs": [
        {
          "name": "",
          "type": "uint256"
        }
      ],
      "name": "listings",
      "outputs": [
        {
          "name": "",
          "type": "address"
        }
      ],
      "payable": false,
      "stateMutability": "view",
      "type": "function"
    },
    {
      "inputs": [],
      "payable": false,
      "stateMutability": "nonpayable",
      "type": "constructor"
    },
    {
      "anonymous": false,
      "inputs": [
        {
          "indexed": false,
          "name": "_index",
          "type": "uint256"
        }
      ],
      "name": "NewListing",
      "type": "event"
    },
    {
      "constant": false,
      "inputs": [],
      "name": "testingAddSampleListings",
      "outputs": [],
      "payable": false,
      "stateMutability": "nonpayable",
      "type": "function"
    },
    {
      "constant": true,
      "inputs": [],
      "name": "listingsLength",
      "outputs": [
        {
          "name": "",
          "type": "uint256"
        }
      ],
      "payable": false,
      "stateMutability": "view",
      "type": "function"
    },
    {
      "constant": true,
      "inputs": [
        {
          "name": "_index",
          "type": "uint256"
        }
      ],
      "name": "getListing",
      "outputs": [
        {
          "name": "",
          "type": "address"
        },
        {
          "name": "",
          "type": "address"
        },
        {
          "name": "",
          "type": "bytes32"
        },
        {
          "name": "",
          "type": "uint256"
        },
        {
          "name": "",
          "type": "uint256"
        }
      ],
      "payable": false,
      "stateMutability": "view",
      "type": "function"
    },
    {
      "constant": false,
      "inputs": [
        {
          "name": "_ipfsHash",
          "type": "bytes32"
        },
        {
          "name": "_price",
          "type": "uint256"
        },
        {
          "name": "_unitsAvailable",
          "type": "uint256"
        }
      ],
      "name": "create",
      "outputs": [
        {
          "name": "",
          "type": "uint256"
        }
      ],
      "payable": false,
      "stateMutability": "nonpayable",
      "type": "function"
    }
  ],
  "bytecode": "0x6060604052341561000f57600080fd5b60008054600160a060020a03191633600160a060020a031617905561003f64010000000061004481026104661704565b6102e0565b60005433600160a060020a0390811691161461005f57600080fd5b6100a07f4f32f7a7d40b4d65a917926cbfd8fd521483e7472bcc4d024179735622447dc967377f4d4ff8c98000600164010000000061038b6101ab82021704565b506100e27fa183d4eb3552e730c2dd3df91384426eb88879869b890ad12698320d8b88cb48670853a0d2313c0000600164010000000061038b6101ab82021704565b506101247fab92c0500ba26fa6f5244f8ba54746e15dd455a7c99a67f0e8f8868c8fab4a1a6775f610f70ed20000600164010000000061038b6101ab82021704565b506101667f6b14cac30356789cd0c39fec0acc2176c3573abdb799f3b17ccc6972ab4d39ba6714d1120d7b160000600164010000000061038b6101ab82021704565b506101a87fff5957ff4035d28dcee79e65aa4124a4de4dcc8cb028faca54c883a5497d8917670429d069189e0000601964010000000061038b6101ab82021704565b50565b6000600180548060010182816101c19190610286565b91600052602060002090016000338787876101da6102af565b600160a060020a0390941684526020840192909252604080840191909152606083019190915260809091019051809103906000f080151561021a57600080fd5b909190916101000a815481600160a060020a030219169083600160a060020a03160217905550507fd8562534ed9a3ce564a595a66dbcc871a37cff70205ea8bc8d0276dcaa4d1009600180805490500360405190815260200160405180910390a1506001549392505050565b8154818355818115116102aa576000838152602090206102aa9181019083016102bf565b505050565b6040516102c680610bec83390190565b6102dd91905b808211156102d957600081556001016102c5565b5090565b90565b6108fd806102ef6000396000f30060606040526004361061005e5763ffffffff60e060020a600035041663107a274a81146100635780637afd81f5146100b357806380edef8e146100d8578063b5f8c36b14610107578063c72c59d614610123578063de74e57b14610138575b600080fd5b341561006e57600080fd5b61007960043561014e565b604051600160a060020a0395861681529390941660208401526040808401929092526060830152608082019290925260a001905180910390f35b34156100be57600080fd5b6100c6610375565b60405190815260200160405180910390f35b34156100e357600080fd5b6100eb61037c565b604051600160a060020a03909116815260200160405180910390f35b341561011257600080fd5b6100c660043560243560443561038b565b341561012e57600080fd5b610136610466565b005b341561014357600080fd5b6100eb60043561058c565b600080600080600060018681548110151561016557fe5b60009182526020909120015460018054600160a060020a03909216918890811061018b57fe5b6000918252602082200154600160a060020a031690638da5cb5b90604051602001526040518163ffffffff1660e060020a028152600401602060405180830381600087803b15156101db57600080fd5b6102c65a03f115156101ec57600080fd5b5050506040518051905060018881548110151561020557fe5b6000918252602082200154600160a060020a03169063c623674f90604051602001526040518163ffffffff1660e060020a028152600401602060405180830381600087803b151561025557600080fd5b6102c65a03f1151561026657600080fd5b5050506040518051905060018981548110151561027f57fe5b6000918252602082200154600160a060020a03169063a035b1fe90604051602001526040518163ffffffff1660e060020a028152600401602060405180830381600087803b15156102cf57600080fd5b6102c65a03f115156102e057600080fd5b5050506040518051905060018a8154811015156102f957fe5b6000918252602082200154600160a060020a03169063c6bbd6af90604051602001526040518163ffffffff1660e060020a028152600401602060405180830381600087803b151561034957600080fd5b6102c65a03f1151561035a57600080fd5b5050506040518051949b939a50919850965091945092505050565b6001545b90565b600054600160a060020a031681565b6000600180548060010182816103a191906105b4565b91600052602060002090016000338787876103ba6105dd565b600160a060020a0390941684526020840192909252604080840191909152606083019190915260809091019051809103906000f08015156103fa57600080fd5b909190916101000a815481600160a060020a030219169083600160a060020a03160217905550507fd8562534ed9a3ce564a595a66dbcc871a37cff70205ea8bc8d0276dcaa4d1009600180805490500360405190815260200160405180910390a1506001549392505050565b60005433600160a060020a0390811691161461048157600080fd5b6104b57f4f32f7a7d40b4d65a917926cbfd8fd521483e7472bcc4d024179735622447dc967377f4d4ff8c98000600161038b565b506104ea7fa183d4eb3552e730c2dd3df91384426eb88879869b890ad12698320d8b88cb48670853a0d2313c0000600161038b565b5061051f7fab92c0500ba26fa6f5244f8ba54746e15dd455a7c99a67f0e8f8868c8fab4a1a6775f610f70ed20000600161038b565b506105547f6b14cac30356789cd0c39fec0acc2176c3573abdb799f3b17ccc6972ab4d39ba6714d1120d7b160000600161038b565b506105897fff5957ff4035d28dcee79e65aa4124a4de4dcc8cb028faca54c883a5497d8917670429d069189e0000601961038b565b50565b600180548290811061059a57fe5b600091825260209091200154600160a060020a0316905081565b8154818355818115116105d8576000838152602090206105d89181019083016105ed565b505050565b6040516102c68061060c83390190565b61037991905b8082111561060757600081556001016105f3565b509056006060604052341561000f57600080fd5b6040516080806102c68339810160405280805191906020018051919060200180519190602001805160008054600160a060020a03978816600160a060020a031991821617909155600180543390981697909116969096179095555050600291909155600355600455610240806100866000396000f3006060604052600436106100775763ffffffff7c01000000000000000000000000000000000000000000000000000000006000350416634884f459811461007c5780635ebf3e9b146100895780638da5cb5b146100c5578063a035b1fe146100d8578063c623674f146100fd578063c6bbd6af14610110575b600080fd5b610087600435610123565b005b341561009457600080fd5b61009c6101ca565b60405173ffffffffffffffffffffffffffffffffffffffff909116815260200160405180910390f35b34156100d057600080fd5b61009c6101e6565b34156100e357600080fd5b6100eb610202565b60405190815260200160405180910390f35b341561010857600080fd5b6100eb610208565b341561011b57600080fd5b6100eb61020e565b600354810234101561013457600080fd5b60045481111561014357600080fd5b60048054829003905560005473ffffffffffffffffffffffffffffffffffffffff163480156108fc0290604051600060405180830381858888f19350505050151561018d57600080fd5b7f34927e40c3dd0bb68bcfa236352bd151e560ff83b73630cde0f8f20dd621871a813460405191825260208201526040908101905180910390a150565b60015473ffffffffffffffffffffffffffffffffffffffff1681565b60005473ffffffffffffffffffffffffffffffffffffffff1681565b60035481565b60025481565b600454815600a165627a7a7230582075e5f4b41689c08797c63df62b55c6bfd6d206bc030d2ad36569a7f307a0ec700029a165627a7a72305820060bde25923f8dfa782c71d8ffd3a6514b372167d6f2366c5e5fbc4cb7b0fab300296060604052341561000f57600080fd5b6040516080806102c68339810160405280805191906020018051919060200180519190602001805160008054600160a060020a03978816600160a060020a031991821617909155600180543390981697909116969096179095555050600291909155600355600455610240806100866000396000f3006060604052600436106100775763ffffffff7c01000000000000000000000000000000000000000000000000000000006000350416634884f459811461007c5780635ebf3e9b146100895780638da5cb5b146100c5578063a035b1fe146100d8578063c623674f146100fd578063c6bbd6af14610110575b600080fd5b610087600435610123565b005b341561009457600080fd5b61009c6101ca565b60405173ffffffffffffffffffffffffffffffffffffffff909116815260200160405180910390f35b34156100d057600080fd5b61009c6101e6565b34156100e357600080fd5b6100eb610202565b60405190815260200160405180910390f35b341561010857600080fd5b6100eb610208565b341561011b57600080fd5b6100eb61020e565b600354810234101561013457600080fd5b60045481111561014357600080fd5b60048054829003905560005473ffffffffffffffffffffffffffffffffffffffff163480156108fc0290604051600060405180830381858888f19350505050151561018d57600080fd5b7f34927e40c3dd0bb68bcfa236352bd151e560ff83b73630cde0f8f20dd621871a813460405191825260208201526040908101905180910390a150565b60015473ffffffffffffffffffffffffffffffffffffffff1681565b60005473ffffffffffffffffffffffffffffffffffffffff1681565b60035481565b60025481565b600454815600a165627a7a7230582075e5f4b41689c08797c63df62b55c6bfd6d206bc030d2ad36569a7f307a0ec700029",
  "source": "pragma solidity ^0.4.11;\n\n/// @title Listing\n/// @dev Used to keep marketplace of listings for buyers and sellers\n/// @author Matt Liu <matt@originprotocol.com>, Josh Fraser <josh@originprotocol.com>, Stan James <stan@originprotocol.com>\n\nimport \"./Listing.sol\";\n\ncontract ListingsRegistry {\n\n  /*\n   * Events\n   */\n\n  event NewListing(uint _index);\n\n  /*\n   * Storage\n   */\n\n  // Contract owner\n  address public owner_address;\n\n  // Array of all listings\n  Listing[] public listings;\n\n\n  /*\n   * Modifiers\n   */\n  modifier isValidListingIndex(uint _index) {\n    require (_index < listings.length);\n    _;\n  }\n\n\n  modifier isOwner() {\n    require (msg.sender == owner_address);\n    _;\n  }\n\n\n  /*\n   * Public functions\n   */\n\n  function ListingsRegistry()\n    public\n  {\n    // Defines origin admin address - may be removed for public deployment\n    owner_address = msg.sender;\n\n    // Sample Listings - May be removed for public deployment\n    testingAddSampleListings();\n  }\n\n  function testingAddSampleListings()\n    public\n    isOwner\n  {\n    // We get stripped hex value from IPFS hash using getBytes32FromIpfsHash()\n    // in contract-service.js\n\n    // Zinc house - Hash: QmTfozaMrUBZdYBzPgxuSC15zBRgLCEfQmWFZwmDHYGY1e\n    create(\n      0x4f32f7a7d40b4d65a917926cbfd8fd521483e7472bcc4d024179735622447dc9,\n      3.999 ether, 1\n    );\n\n    // Scout II - Hash: QmZD8wZWEqzKwvEtGWXzCb3MuXvmxLdCxXGHMRocQFnpoy\n    create(\n      0xa183d4eb3552e730c2dd3df91384426eb88879869b890ad12698320d8b88cb48,\n      0.600 ether, 1\n    );\n\n    // Mamalahoa Estate - Hash: QmZtQDL4UjQWryQLjsS5JUsbdbn2B27Tmvz2gvLkw7wmmb\n    create(\n      0xab92c0500ba26fa6f5244f8ba54746e15dd455a7c99a67f0e8f8868c8fab4a1a,\n      8.500 ether, 1\n    );\n\n    // Casa Wolf - Hash: QmVYeipL2JWFkpWsGqNNXDFUVAmPWEEK8u3Q45CZ1YrZPf\n    create(\n      0x6b14cac30356789cd0c39fec0acc2176c3573abdb799f3b17ccc6972ab4d39ba,\n      1.500 ether, 1\n    );\n\n    // Taylor Swift - Hash: QmfXRgtSbrGggApvaFCa88ofeNQP79G18DpWaSW1Wya1u8\n    create(\n      0xff5957ff4035d28dcee79e65aa4124a4de4dcc8cb028faca54c883a5497d8917,\n      0.300 ether, 25\n    );\n\n    // // Red shoe - Hash: QmfF4JBA4fEYDkZqjRHnDxWGGoXg5D1T4WqfDrN4GXP33p\n    // create(\n    //   0xfb27dcfe2c7febe98d755e2f9df0ff73fb8abecaa778f540d0cbf28b059306db,\n    //   0.01 ether, 1\n    // );\n\n    // // Lambo - Hash: QmYsNo3fYTXQRHREYeoGUGLuYETnjx3HxQFMeiZuE7zPSf\n    // create(\n    //   0x9c73e11ffa575504295be4ece1d4ea49df33261f8eb6a4a7e313e4bb74abf150,\n    //   2.50 ether, 1\n    // );\n  }\n\n  /// @dev listingsLength(): Return number of listings\n  function listingsLength()\n    public\n    constant\n    returns (uint)\n  {\n      return listings.length;\n  }\n\n  /// @dev getListing(): Return listing info for given listing\n  /// @param _index the index of the listing we want info about\n  function getListing(uint _index)\n    public\n    constant\n    returns (address, address, bytes32, uint, uint)\n  {\n    // TEST: ListingsRegistry.deployed().then(function(instance){ return instance.getListing.call(0) })\n\n    // TODO (Stan): Determine if less gas to do one array lookup into var, and\n    // return var struct parts\n    return (\n      listings[_index],\n      listings[_index].owner(),\n      listings[_index].ipfsHash(),\n      listings[_index].price(),\n      listings[_index].unitsAvailable()\n    );\n  }\n\n  /// @dev create(): Create a new listing\n  /// @param _ipfsHash Hash of data on ipfsHash\n  /// @param _price Price of unit. Currently ETH, will change to 0T\n  /// @param _unitsAvailable Number of units availabe for sale at start\n  ///\n  /// Sample Remix invocation:\n  /// [\"0x01\",\"0x7d\",\"0xfd\",\"0x85\",\"0xd4\",\"0xf6\",\"0xcb\",\"0x4d\",\"0xcd\",\"0x71\",\"0x5a\",\"0x88\",\"0x10\",\"0x1f\",\"0x7b\",\"0x1f\",\"0x06\",\"0xcd\",\"0x1e\",\"0x00\",\"0x9b\",\"0x23\",\"0x27\",\"0xa0\",\"0x80\",\"0x9d\",\"0x01\",\"0xeb\",\"0x9c\",\"0x91\",\"0xf2\",\"0x31\"],\"3140000000000000000\",42\n  function create(\n    bytes32 _ipfsHash,\n    uint _price,\n    uint _unitsAvailable\n  )\n    public\n    returns (uint)\n  {\n    listings.push(new Listing( msg.sender, _ipfsHash, _price, _unitsAvailable));\n    NewListing(listings.length-1);\n    return listings.length;\n  }\n\n\n}\n",
  "sourcePath": "/Users/stan/Documents/Origin/platform/packages/originSmartContracts/contracts/ListingsRegistry.sol",
  "compiler": {
    "name": "solc",
    "version": "0.4.19+commit.c4cbbb05.Emscripten.clang"
  },
  "schemaVersion": "2.0.0",
  "updatedAt": "2018-02-28T19:16:23.087Z"
}