{
  "contractName": "Login",
  "abi": [
    {
      "anonymous": false,
      "inputs": [
        {
          "indexed": false,
          "name": "sender",
          "type": "address"
        },
        {
          "indexed": false,
          "name": "challenge",
          "type": "string"
        }
      ],
      "name": "LoginAttempt",
      "type": "event"
    },
    {
      "constant": false,
      "inputs": [
        {
          "name": "challenge",
          "type": "string"
        }
      ],
      "name": "login",
      "outputs": [
        {
          "name": "",
          "type": "string"
        }
      ],
      "payable": false,
      "stateMutability": "nonpayable",
      "type": "function"
    }
  ],
  "bytecode": "0x6060604052341561000f57600080fd5b61020d8061001e6000396000f3006060604052600436106100405763ffffffff7c01000000000000000000000000000000000000000000000000000000006000350416633a7d280c8114610045575b600080fd5b341561005057600080fd5b61009660046024813581810190830135806020601f8201819004810201604051908101604052818152929190602084018383808284375094965061010d95505050505050565b60405160208082528190810183818151815260200191508051906020019080838360005b838110156100d25780820151838201526020016100ba565b50505050905090810190601f1680156100ff5780820380516001836020036101000a031916815260200191505b509250505060405180910390f35b6101156101cf565b7fdeb017956c894eba079e6a630f5cfec256256dc05616ad89f1eb825abef45963338360405173ffffffffffffffffffffffffffffffffffffffff8316815260406020820181815290820183818151815260200191508051906020019080838360005b83811015610190578082015183820152602001610178565b50505050905090810190601f1680156101bd5780820380516001836020036101000a031916815260200191505b50935050505060405180910390a15090565b602060405190810160405260008152905600a165627a7a723058208c7a733c0ea2058adee7ebf746ef50628d81bcd5b7a62310d204aa0a5ff986510029",
  "source": "pragma solidity ^0.4.11;\n\ncontract Login {\n\n    event LoginAttempt(address sender, string challenge);\n\n    function login(string challenge) public returns (string){\n        LoginAttempt(msg.sender, challenge);\n        return challenge;\n    }\n\n}",
  "sourcePath": "/Users/braddavis/Developer/origin_protocol/that1guy/platform/packages/originSmartContracts/contracts/Login.sol",
  "compiler": {
    "name": "solc",
    "version": "0.4.19+commit.c4cbbb05.Emscripten.clang"
  },
  "schemaVersion": "2.0.0",
  "updatedAt": "2018-03-07T21:08:57.681Z"
}